{
  "contractName": "MarketPlace",
  "abi": [
    {
      "inputs": [],
      "stateMutability": "nonpayable",
      "type": "constructor"
    },
    {
      "anonymous": false,
      "inputs": [
        {
          "indexed": false,
          "internalType": "uint256",
          "name": "itemId",
          "type": "uint256"
        },
        {
          "indexed": false,
          "internalType": "address",
          "name": "nftContract",
          "type": "address"
        },
        {
          "indexed": false,
          "internalType": "uint256",
          "name": "tokenId",
          "type": "uint256"
        },
        {
          "indexed": false,
          "internalType": "address",
          "name": "seller",
          "type": "address"
        },
        {
          "indexed": false,
          "internalType": "address",
          "name": "owner",
          "type": "address"
        },
        {
          "indexed": false,
          "internalType": "uint256",
          "name": "price",
          "type": "uint256"
        },
        {
          "indexed": false,
          "internalType": "bool",
          "name": "sold",
          "type": "bool"
        }
      ],
      "name": "MarketItemCreated",
      "type": "event"
    },
    {
      "inputs": [],
      "name": "getListingPrice",
      "outputs": [
        {
          "internalType": "uint256",
          "name": "",
          "type": "uint256"
        }
      ],
      "stateMutability": "view",
      "type": "function",
      "constant": true
    },
    {
      "inputs": [
        {
          "internalType": "address",
          "name": "nftContract",
          "type": "address"
        },
        {
          "internalType": "uint256",
          "name": "tokenId",
          "type": "uint256"
        },
        {
          "internalType": "uint256",
          "name": "price",
          "type": "uint256"
        }
      ],
      "name": "createMarketItem",
      "outputs": [],
      "stateMutability": "payable",
      "type": "function",
      "payable": true
    },
    {
      "inputs": [
        {
          "internalType": "address",
          "name": "nftContract",
          "type": "address"
        },
        {
          "internalType": "uint256",
          "name": "itemId",
          "type": "uint256"
        }
      ],
      "name": "createMarketSale",
      "outputs": [],
      "stateMutability": "payable",
      "type": "function",
      "payable": true
    },
    {
      "inputs": [],
      "name": "fetchMarketItems",
      "outputs": [
        {
          "components": [
            {
              "internalType": "uint256",
              "name": "itemId",
              "type": "uint256"
            },
            {
              "internalType": "address",
              "name": "nftContract",
              "type": "address"
            },
            {
              "internalType": "uint256",
              "name": "tokenId",
              "type": "uint256"
            },
            {
              "internalType": "address payable",
              "name": "seller",
              "type": "address"
            },
            {
              "internalType": "address payable",
              "name": "owner",
              "type": "address"
            },
            {
              "internalType": "uint256",
              "name": "price",
              "type": "uint256"
            },
            {
              "internalType": "bool",
              "name": "sold",
              "type": "bool"
            }
          ],
          "internalType": "struct MarketPlace.MarketItem[]",
          "name": "",
          "type": "tuple[]"
        }
      ],
      "stateMutability": "view",
      "type": "function",
      "constant": true
    },
    {
      "inputs": [],
      "name": "fetchMyNFTs",
      "outputs": [
        {
          "components": [
            {
              "internalType": "uint256",
              "name": "itemId",
              "type": "uint256"
            },
            {
              "internalType": "address",
              "name": "nftContract",
              "type": "address"
            },
            {
              "internalType": "uint256",
              "name": "tokenId",
              "type": "uint256"
            },
            {
              "internalType": "address payable",
              "name": "seller",
              "type": "address"
            },
            {
              "internalType": "address payable",
              "name": "owner",
              "type": "address"
            },
            {
              "internalType": "uint256",
              "name": "price",
              "type": "uint256"
            },
            {
              "internalType": "bool",
              "name": "sold",
              "type": "bool"
            }
          ],
          "internalType": "struct MarketPlace.MarketItem[]",
          "name": "",
          "type": "tuple[]"
        }
      ],
      "stateMutability": "view",
      "type": "function",
      "constant": true
    },
    {
      "inputs": [],
      "name": "fetchNFTCreated",
      "outputs": [
        {
          "components": [
            {
              "internalType": "uint256",
              "name": "itemId",
              "type": "uint256"
            },
            {
              "internalType": "address",
              "name": "nftContract",
              "type": "address"
            },
            {
              "internalType": "uint256",
              "name": "tokenId",
              "type": "uint256"
            },
            {
              "internalType": "address payable",
              "name": "seller",
              "type": "address"
            },
            {
              "internalType": "address payable",
              "name": "owner",
              "type": "address"
            },
            {
              "internalType": "uint256",
              "name": "price",
              "type": "uint256"
            },
            {
              "internalType": "bool",
              "name": "sold",
              "type": "bool"
            }
          ],
          "internalType": "struct MarketPlace.MarketItem[]",
          "name": "",
          "type": "tuple[]"
        }
      ],
      "stateMutability": "view",
      "type": "function",
      "constant": true
    }
  ],
  "bytecode": "0x608060405266038d7ea4c6800060045534801561001b57600080fd5b50600160008190555033600360006101000a81548173ffffffffffffffffffffffffffffffffffffffff021916908373ffffffffffffffffffffffffffffffffffffffff160217905550611924806100746000396000f3fe6080604052600436106100555760003560e01c80630f08efe01461005a57806312e8558514610085578063202e3740146100b057806358eb2df5146100db578063af2b5a21146100f7578063c23b139e14610122575b600080fd5b34801561006657600080fd5b5061006f61013e565b60405161007c919061149b565b60405180910390f35b34801561009157600080fd5b5061009a610425565b6040516100a7919061153d565b60405180910390f35b3480156100bc57600080fd5b506100c561042f565b6040516100d2919061149b565b60405180910390f35b6100f560048036038101906100f09190611218565b61078b565b005b34801561010357600080fd5b5061010c610add565b604051610119919061149b565b60405180910390f35b61013c600480360381019061013791906111d8565b610e39565b005b6060600061014c60016110f3565b9050600061015a60026110f3565b61016460016110f3565b61016e9190611667565b90506000808267ffffffffffffffff81111561018d5761018c61179c565b5b6040519080825280602002602001820160405280156101c657816020015b6101b361112d565b8152602001906001900390816101ab5790505b50905060005b8481101561041a57600073ffffffffffffffffffffffffffffffffffffffff16600560006001846101fd9190611611565b815260200190815260200160002060040160009054906101000a900473ffffffffffffffffffffffffffffffffffffffff1673ffffffffffffffffffffffffffffffffffffffff1614156104075760006005600060018461025e9190611611565b81526020019081526020016000206000015490506000600560008381526020019081526020016000209050806040518060e0016040529081600082015481526020016001820160009054906101000a900473ffffffffffffffffffffffffffffffffffffffff1673ffffffffffffffffffffffffffffffffffffffff1673ffffffffffffffffffffffffffffffffffffffff168152602001600282015481526020016003820160009054906101000a900473ffffffffffffffffffffffffffffffffffffffff1673ffffffffffffffffffffffffffffffffffffffff1673ffffffffffffffffffffffffffffffffffffffff1681526020016004820160009054906101000a900473ffffffffffffffffffffffffffffffffffffffff1673ffffffffffffffffffffffffffffffffffffffff1673ffffffffffffffffffffffffffffffffffffffff168152602001600582015481526020016006820160009054906101000a900460ff1615151515815250508486815181106103e3576103e261176d565b5b602002602001018190525061040260018661110190919063ffffffff16565b945050505b8080610412906116f5565b9150506101cc565b508094505050505090565b6000600454905090565b6060600061043d60016110f3565b905060008060005b838110156104ed573373ffffffffffffffffffffffffffffffffffffffff16600560006001846104759190611611565b815260200190815260200160002060040160009054906101000a900473ffffffffffffffffffffffffffffffffffffffff1673ffffffffffffffffffffffffffffffffffffffff1614156104da576104d760018461110190919063ffffffff16565b92505b80806104e5906116f5565b915050610445565b5060008267ffffffffffffffff81111561050a5761050961179c565b5b60405190808252806020026020018201604052801561054357816020015b61053061112d565b8152602001906001900390816105285790505b50905060005b84811015610780573373ffffffffffffffffffffffffffffffffffffffff16600560006001846105799190611611565b815260200190815260200160002060040160009054906101000a900473ffffffffffffffffffffffffffffffffffffffff1673ffffffffffffffffffffffffffffffffffffffff16141561076d5760006001826105d69190611611565b90506000600560008381526020019081526020016000209050806040518060e0016040529081600082015481526020016001820160009054906101000a900473ffffffffffffffffffffffffffffffffffffffff1673ffffffffffffffffffffffffffffffffffffffff1673ffffffffffffffffffffffffffffffffffffffff168152602001600282015481526020016003820160009054906101000a900473ffffffffffffffffffffffffffffffffffffffff1673ffffffffffffffffffffffffffffffffffffffff1673ffffffffffffffffffffffffffffffffffffffff1681526020016004820160009054906101000a900473ffffffffffffffffffffffffffffffffffffffff1673ffffffffffffffffffffffffffffffffffffffff1673ffffffffffffffffffffffffffffffffffffffff168152602001600582015481526020016006820160009054906101000a900460ff1615151515815250508486815181106107495761074861176d565b5b602002602001018190525061076860018661110190919063ffffffff16565b945050505b8080610778906116f5565b915050610549565b508094505050505090565b600260005414156107d1576040517f08c379a00000000000000000000000000000000000000000000000000000000081526004016107c8906114fd565b60405180910390fd5b60026000819055506000811161081c576040517f08c379a0000000000000000000000000000000000000000000000000000000008152600401610813906114dd565b60405180910390fd5b600454341015610861576040517f08c379a0000000000000000000000000000000000000000000000000000000008152600401610858906114bd565b60405180910390fd5b61086b6001611117565b600061087760016110f3565b90506040518060e001604052808281526020018573ffffffffffffffffffffffffffffffffffffffff1681526020018481526020013373ffffffffffffffffffffffffffffffffffffffff168152602001600073ffffffffffffffffffffffffffffffffffffffff16815260200183815260200160001515815250600560008381526020019081526020016000206000820151816000015560208201518160010160006101000a81548173ffffffffffffffffffffffffffffffffffffffff021916908373ffffffffffffffffffffffffffffffffffffffff1602179055506040820151816002015560608201518160030160006101000a81548173ffffffffffffffffffffffffffffffffffffffff021916908373ffffffffffffffffffffffffffffffffffffffff16021790555060808201518160040160006101000a81548173ffffffffffffffffffffffffffffffffffffffff021916908373ffffffffffffffffffffffffffffffffffffffff16021790555060a0820151816005015560c08201518160060160006101000a81548160ff0219169083151502179055509050508373ffffffffffffffffffffffffffffffffffffffff166323b872dd3330866040518463ffffffff1660e01b8152600401610a5893929190611464565b600060405180830381600087803b158015610a7257600080fd5b505af1158015610a86573d6000803e3d6000fd5b505050507f045dfa01dcba2b36aba1d3dc4a874f4b0c5d2fbeb8d2c4b34a7d88c8d8f929d1818585336000876000604051610ac79796959493929190611558565b60405180910390a1506001600081905550505050565b60606000610aeb60016110f3565b905060008060005b83811015610b9b573373ffffffffffffffffffffffffffffffffffffffff1660056000600184610b239190611611565b815260200190815260200160002060030160009054906101000a900473ffffffffffffffffffffffffffffffffffffffff1673ffffffffffffffffffffffffffffffffffffffff161415610b8857610b8560018461110190919063ffffffff16565b92505b8080610b93906116f5565b915050610af3565b5060008267ffffffffffffffff811115610bb857610bb761179c565b5b604051908082528060200260200182016040528015610bf157816020015b610bde61112d565b815260200190600190039081610bd65790505b50905060005b84811015610e2e573373ffffffffffffffffffffffffffffffffffffffff1660056000600184610c279190611611565b815260200190815260200160002060030160009054906101000a900473ffffffffffffffffffffffffffffffffffffffff1673ffffffffffffffffffffffffffffffffffffffff161415610e1b576000600182610c849190611611565b90506000600560008381526020019081526020016000209050806040518060e0016040529081600082015481526020016001820160009054906101000a900473ffffffffffffffffffffffffffffffffffffffff1673ffffffffffffffffffffffffffffffffffffffff1673ffffffffffffffffffffffffffffffffffffffff168152602001600282015481526020016003820160009054906101000a900473ffffffffffffffffffffffffffffffffffffffff1673ffffffffffffffffffffffffffffffffffffffff1673ffffffffffffffffffffffffffffffffffffffff1681526020016004820160009054906101000a900473ffffffffffffffffffffffffffffffffffffffff1673ffffffffffffffffffffffffffffffffffffffff1673ffffffffffffffffffffffffffffffffffffffff168152602001600582015481526020016006820160009054906101000a900460ff161515151581525050848681518110610df757610df661176d565b5b6020026020010181905250610e1660018661110190919063ffffffff16565b945050505b8080610e26906116f5565b915050610bf7565b508094505050505090565b60026000541415610e7f576040517f08c379a0000000000000000000000000000000000000000000000000000000008152600401610e76906114fd565b60405180910390fd5b600260008190555060006005600083815260200190815260200160002060050154905060006005600084815260200190815260200160002060020154905081341015610f00576040517f08c379a0000000000000000000000000000000000000000000000000000000008152600401610ef79061151d565b60405180910390fd5b6005600084815260200190815260200160002060030160009054906101000a900473ffffffffffffffffffffffffffffffffffffffff1673ffffffffffffffffffffffffffffffffffffffff166108fc349081150290604051600060405180830381858888f19350505050158015610f7c573d6000803e3d6000fd5b508373ffffffffffffffffffffffffffffffffffffffff166323b872dd3033846040518463ffffffff1660e01b8152600401610fba93929190611464565b600060405180830381600087803b158015610fd457600080fd5b505af1158015610fe8573d6000803e3d6000fd5b50505050336005600085815260200190815260200160002060040160006101000a81548173ffffffffffffffffffffffffffffffffffffffff021916908373ffffffffffffffffffffffffffffffffffffffff16021790555060016005600085815260200190815260200160002060060160006101000a81548160ff02191690831515021790555061107a6002611117565b600360009054906101000a900473ffffffffffffffffffffffffffffffffffffffff1673ffffffffffffffffffffffffffffffffffffffff166108fc6004549081150290604051600060405180830381858888f193505050501580156110e4573d6000803e3d6000fd5b50505060016000819055505050565b600081600001549050919050565b6000818361110f9190611611565b905092915050565b6001816000016000828254019250508190555050565b6040518060e0016040528060008152602001600073ffffffffffffffffffffffffffffffffffffffff16815260200160008152602001600073ffffffffffffffffffffffffffffffffffffffff168152602001600073ffffffffffffffffffffffffffffffffffffffff168152602001600081526020016000151581525090565b6000813590506111bd816118c0565b92915050565b6000813590506111d2816118d7565b92915050565b600080604083850312156111ef576111ee6117cb565b5b60006111fd858286016111ae565b925050602061120e858286016111c3565b9150509250929050565b600080600060608486031215611231576112306117cb565b5b600061123f868287016111ae565b9350506020611250868287016111c3565b9250506040611261868287016111c3565b9150509250925092565b600061127783836113b8565b60e08301905092915050565b61128c816116ad565b82525050565b61129b8161169b565b82525050565b6112aa8161169b565b82525050565b60006112bb826115d7565b6112c581856115ef565b93506112d0836115c7565b8060005b838110156113015781516112e8888261126b565b97506112f3836115e2565b9250506001810190506112d4565b5085935050505092915050565b611317816116bf565b82525050565b611326816116bf565b82525050565b6000611339602b83611600565b9150611344826117d0565b604082019050919050565b600061135c601f83611600565b91506113678261181f565b602082019050919050565b600061137f601f83611600565b915061138a82611848565b602082019050919050565b60006113a2602c83611600565b91506113ad82611871565b604082019050919050565b60e0820160008201516113ce6000850182611446565b5060208201516113e16020850182611292565b5060408201516113f46040850182611446565b5060608201516114076060850182611283565b50608082015161141a6080850182611283565b5060a082015161142d60a0850182611446565b5060c082015161144060c085018261130e565b50505050565b61144f816116eb565b82525050565b61145e816116eb565b82525050565b600060608201905061147960008301866112a1565b61148660208301856112a1565b6114936040830184611455565b949350505050565b600060208201905081810360008301526114b581846112b0565b905092915050565b600060208201905081810360008301526114d68161132c565b9050919050565b600060208201905081810360008301526114f68161134f565b9050919050565b6000602082019050818103600083015261151681611372565b9050919050565b6000602082019050818103600083015261153681611395565b9050919050565b60006020820190506115526000830184611455565b92915050565b600060e08201905061156d600083018a611455565b61157a60208301896112a1565b6115876040830188611455565b61159460608301876112a1565b6115a160808301866112a1565b6115ae60a0830185611455565b6115bb60c083018461131d565b98975050505050505050565b6000819050602082019050919050565b600081519050919050565b6000602082019050919050565b600082825260208201905092915050565b600082825260208201905092915050565b600061161c826116eb565b9150611627836116eb565b9250827fffffffffffffffffffffffffffffffffffffffffffffffffffffffffffffffff0382111561165c5761165b61173e565b5b828201905092915050565b6000611672826116eb565b915061167d836116eb565b9250828210156116905761168f61173e565b5b828203905092915050565b60006116a6826116cb565b9050919050565b60006116b8826116cb565b9050919050565b60008115159050919050565b600073ffffffffffffffffffffffffffffffffffffffff82169050919050565b6000819050919050565b6000611700826116eb565b91507fffffffffffffffffffffffffffffffffffffffffffffffffffffffffffffffff8214156117335761173261173e565b5b600182019050919050565b7f4e487b7100000000000000000000000000000000000000000000000000000000600052601160045260246000fd5b7f4e487b7100000000000000000000000000000000000000000000000000000000600052603260045260246000fd5b7f4e487b7100000000000000000000000000000000000000000000000000000000600052604160045260246000fd5b600080fd5b7f5072696365206d757374206265206d6f7265206f7220657175616c20746f206c60008201527f697374696e675072696365000000000000000000000000000000000000000000602082015250565b7f5072696365206d757374206e6f7420626520657175616c20746f207a65726f00600082015250565b7f5265656e7472616e637947756172643a207265656e7472616e742063616c6c00600082015250565b7f596f7520686176656e2774207061696420656e6f75676820746f206d616b652060008201527f7468652070757263686173650000000000000000000000000000000000000000602082015250565b6118c98161169b565b81146118d457600080fd5b50565b6118e0816116eb565b81146118eb57600080fd5b5056fea264697066735822122050a6350df298f7361528b27398a2f6fe2b59842655328c51a44abcbd9405207864736f6c63430008060033",
  "immutableReferences": {},
  "source": "// SPDX-License-Identifier: MIT\r\npragma solidity ^0.8.0;\r\npragma abicoder v2;\r\n\r\nimport \"@openzeppelin/contracts/utils/Counters.sol\";\r\nimport \"@openzeppelin/contracts/utils/math/SafeMath.sol\";\r\nimport \"@openzeppelin/contracts/security/ReentrancyGuard.sol\";\r\nimport \"@openzeppelin/contracts/token/ERC721/ERC721.sol\";\r\nimport \"./ERC721.sol\";\r\n\r\n contract  MarketPlace is ReentrancyGuard {\r\n    \r\n    using SafeMath for uint;\r\n    using Counters for Counters.Counter;\r\n    Counters.Counter private _itemIds;\r\n    Counters.Counter private _itemsSold;\r\n    \r\n    address payable owner;\r\n    uint256 listingPrice = 0.001 ether;\r\n    \r\n    constructor() {\r\n        owner = payable(msg.sender);\r\n    }\r\n    \r\n    struct MarketItem {\r\n        uint256 itemId;\r\n        address nftContract;\r\n        uint256 tokenId;\r\n        address payable seller;\r\n        address payable owner;\r\n        uint256 price;\r\n        bool sold;\r\n    }\r\n    \r\n    mapping(uint256 => MarketItem) private idToMarketItem;\r\n    \r\n    event MarketItemCreated(\r\n        uint256 itemId,\r\n        address nftContract,\r\n        uint256 tokenId,\r\n        address seller,\r\n        address owner,\r\n        uint256 price,\r\n        bool sold\r\n        );\r\n        \r\n    function getListingPrice() public view returns(uint256) {\r\n        return listingPrice;\r\n    }\r\n        \r\n    function createMarketItem(\r\n        address nftContract,\r\n        uint256 tokenId,\r\n        uint256 price\r\n        ) public payable nonReentrant {\r\n            require(price > 0, \"Price must not be equal to zero\");\r\n            require(msg.value >= listingPrice, \"Price must be more or equal to listingPrice\");\r\n            \r\n            _itemIds.increment();\r\n            uint256 itemId = _itemIds.current();\r\n            \r\n            idToMarketItem[itemId] = MarketItem(\r\n                itemId,\r\n                nftContract,\r\n                tokenId,\r\n                payable(msg.sender),\r\n                payable(address(0)),\r\n                price,\r\n                false\r\n                );\r\n                \r\n          IERC721(nftContract).transferFrom(msg.sender, address(this), tokenId);\r\n          \r\n          emit MarketItemCreated(\r\n              itemId,\r\n              nftContract,\r\n              tokenId,\r\n              msg.sender,\r\n              address(0),\r\n              price,\r\n              false\r\n              );\r\n        } \r\n        \r\n        function createMarketSale(\r\n            address nftContract,\r\n            uint256 itemId\r\n            ) public payable nonReentrant {\r\n                \r\n                uint256 price = idToMarketItem[itemId].price;\r\n                uint256 tokenId = idToMarketItem[itemId].tokenId;\r\n                \r\n                require(msg.value >= price, \"You haven't paid enough to make the purchase\");\r\n                //Ici trouver comment cre une variables qui remplacera le seller  accountSeller afin de ne pas lui envoyer directement.\r\n                \r\n                idToMarketItem[itemId].seller.transfer(msg.value);\r\n                IERC721(nftContract).transferFrom(address(this), msg.sender, tokenId);\r\n                \r\n                idToMarketItem[itemId].owner = payable(msg.sender);\r\n                idToMarketItem[itemId].sold = true;\r\n                _itemsSold.increment();\r\n                payable(owner).transfer(listingPrice);\r\n            }\r\n            \r\n            function fetchMarketItems() public view returns(MarketItem[] memory) {\r\n                uint256 itemCount = _itemIds.current();\r\n                ///@dev voir pour utiliser safeMath here\r\n                uint256 unsoldItemCount = _itemIds.current() - _itemsSold.current();\r\n                uint256 currentIndex = 0;\r\n                \r\n                MarketItem[] memory items = new MarketItem[](unsoldItemCount);\r\n                for(uint i = 0; i < itemCount; i++) {\r\n                    if(idToMarketItem[i + 1].owner == address(0)) {\r\n                        uint256 currentId = idToMarketItem[i + 1].itemId;\r\n                        MarketItem storage currentItem = idToMarketItem[currentId];\r\n                        items[currentIndex] = currentItem;\r\n                        currentIndex = currentIndex.add(1);\r\n                    }\r\n                }\r\n                return items;\r\n            }\r\n            \r\n            function fetchMyNFTs() public view returns(MarketItem[] memory) {\r\n                uint256 totalItemCount = _itemIds.current();\r\n                uint256 itemCount = 0;\r\n                uint256 currentIndex = 0;\r\n                \r\n                for(uint i = 0; i < totalItemCount; i++) {\r\n                    if(idToMarketItem[i + 1].owner == msg.sender) {\r\n                        itemCount = itemCount.add(1);\r\n                    }\r\n                }\r\n                \r\n                MarketItem[] memory items = new MarketItem[](itemCount);\r\n                for(uint i = 0; i < totalItemCount; i++) {\r\n                    if(idToMarketItem[i + 1].owner == msg.sender) {\r\n                        uint256 currentId = i + 1;\r\n                        MarketItem storage currentItem = idToMarketItem[currentId];\r\n                        items[currentIndex] = currentItem;\r\n                        currentIndex = currentIndex.add(1);\r\n                      }\r\n                    }    \r\n                return items;\r\n            }\r\n            \r\n            function fetchNFTCreated() public view returns(MarketItem[] memory) {\r\n                uint256 totalItemCount = _itemIds.current();\r\n                uint256 itemCount = 0;\r\n                uint256 currentIndex = 0;\r\n                \r\n                for(uint256 i = 0; i < totalItemCount; i++) {\r\n                    if(idToMarketItem[i + 1].seller == msg.sender) {\r\n                        itemCount = itemCount.add(1);\r\n                    }\r\n                }\r\n                MarketItem[] memory items = new MarketItem[](itemCount);\r\n                for(uint256 i = 0; i < totalItemCount; i++) {\r\n                    if(idToMarketItem[i + 1].seller == msg.sender) {\r\n                        uint256 currentId = i + 1;\r\n                        MarketItem storage currentItem = idToMarketItem[currentId];\r\n                        items[currentIndex] = currentItem;\r\n                        currentIndex = currentIndex.add(1);\r\n                    }\r\n                }\r\n                return items;\r\n            }\r\n       \r\n }        \r\n\r\n/*\r\ncontract MarketPlace is Ownable {\r\n\r\n  using SafeMath for uint;\r\n     \r\n    uint256 productPrice;\r\n    address recipient;\r\n\r\n    //constructor() ERC20(\"\", \"\") {}\r\n\r\n    struct Payment {\r\n        uint256 price;\r\n        uint256 productId;\r\n    }\r\n\r\n    struct Presta {\r\n      bool isPresta;\r\n      bool isAllowedToWithdraw;\r\n      uint256 amountToWithdraw;\r\n      \r\n    }\r\n\r\n    struct ownerNFT {\r\n        bool isOwner;\r\n        uint256 id;\r\n        address ownerOfNFT;\r\n    }\r\n\r\n    ownerNFT[] owner;\r\n\r\n    mapping(address => Payment[]) public payments;\r\n    mapping(address => Presta) public prestataire;\r\n\r\n    event productBought(address From, uint256 Amount, uint256 productId);\r\n    event priceChange(address From, uint256 Price);\r\n    event hasDeposited(address from, uint amountDeposited);\r\n    event isAllowedToPull(address isAllowed);\r\n    event hasWithdrawn(address from, uint amountWithdrawn);\r\n\r\n  \r\n\r\n    function buyProduct(uint256 productId) public payable {\r\n        require(msg.value >= productPrice, \"You didn't send the correct amount\");\r\n        require(recipient != address(0), \"ERC1155: transfer to 0 address\");\r\n\r\n         Payment memory _payment = Payment(productPrice, productId);\r\n         payments[msg.sender].push(_payment);\r\n\r\n         //productPrice = productPrice.add(msg.value);\r\n\r\n         emit productBought(msg.sender, msg.value, productId); \r\n    }\r\n\r\n    function createOffer() external {\r\n         //require(prestataire[msg.sender].isPresta == true);\r\n         owner.push(ownerNFT(true, owner.length, msg.sender));\r\n    }\r\n\r\n    function allowPresta(address _address) external onlyOwner() {\r\n        prestataire[_address].isPresta = true;\r\n        prestataire[_address].isAllowedToWithdraw = true;\r\n        emit isAllowedToPull(_address);\r\n    }\r\n\r\n    function withdrawFunds() public payable {\r\n      //uint256 amountToClaim = prestataire[msg.sender].amountToWithdraw;\r\n       \r\n      //require(prestataire[msg.sender].isAllowedToWithdraw == true);\r\n\r\n      //prestataire[msg.sender].amountToWithdraw = 0;\r\n        \r\n      (bool success, ) = msg.sender.call{value: balanceOf[msg.sender]}(\"\");\r\n      require(success, \"Failed to send to Presta\");\r\n      \r\n      balanceOf[msg.sender] = 0; \r\n    }\r\n\r\n    function getBalanceOfEth() public view returns(uint256) {\r\n      return address(this).balance;\r\n    }\r\n\r\n    receive() external payable{\r\n      \r\n    }\r\n}\r\n\r\n   function setPrice(uint256 _productPrice) public onlyOwner() {\r\n         productPrice = _productPrice;\r\n         emit priceChange(msg.sender, _productPrice);\r\n    }\r\n\r\n    ///@notice we need to elaborate converter smart contract to deploy following\r\n     function sendToSwaper() external onlyOwner() {\r\n        require(address(this).balance >= 1 ether, \"Not gas efficient to send now\");\r\n           (bool sent, ) = swaperAddress.call{value: address(this).balance}(\"\");\r\n           require(sent, \"Failed to send Ether\");\r\n    }\r\n\r\n    function setVaultAddress(address _vaultAdd) external onlyOwner() {\r\n      VaultAddress = _vaultAdd;\r\n    } \r\n\r\n    function sendDaiToVault() external onlyOwner(){\r\n      require(amountOfDai >= minAmountDai, \"Not gas efficient to send now\");\r\n        (bool sent, ) = VaultAddress.call{value: amountOfDai}(\"\");\r\n        require(sent, \"Failed to send Dai\");\r\n    } */\r\n\r\n\r\n",
  "sourcePath": "C:/Users/omenr/Desktop/Kilian/HomePage-Dapp/DigiBox/contracts/MarketPlace.sol",
  "compiler": {
    "name": "solc",
    "version": "0.8.6+commit.11564f7e.Emscripten.clang"
  },
  "schemaVersion": "3.4.1",
  "updatedAt": "2021-07-27T19:52:13.845Z",
  "networkType": "ethereum",
  "devdoc": {
    "kind": "dev",
    "methods": {},
    "version": 1
  },
  "userdoc": {
    "kind": "user",
    "methods": {},
    "version": 1
  }
}