{
  "contractName": "TokenERC721",
  "abi": [
    {
      "inputs": [],
      "stateMutability": "nonpayable",
      "type": "constructor"
    },
    {
      "anonymous": false,
      "inputs": [
        {
          "indexed": true,
          "internalType": "address",
          "name": "owner",
          "type": "address"
        },
        {
          "indexed": true,
          "internalType": "address",
          "name": "approved",
          "type": "address"
        },
        {
          "indexed": true,
          "internalType": "uint256",
          "name": "tokenId",
          "type": "uint256"
        }
      ],
      "name": "Approval",
      "type": "event"
    },
    {
      "anonymous": false,
      "inputs": [
        {
          "indexed": true,
          "internalType": "address",
          "name": "owner",
          "type": "address"
        },
        {
          "indexed": true,
          "internalType": "address",
          "name": "operator",
          "type": "address"
        },
        {
          "indexed": false,
          "internalType": "bool",
          "name": "approved",
          "type": "bool"
        }
      ],
      "name": "ApprovalForAll",
      "type": "event"
    },
    {
      "anonymous": false,
      "inputs": [
        {
          "indexed": true,
          "internalType": "address",
          "name": "from",
          "type": "address"
        },
        {
          "indexed": true,
          "internalType": "address",
          "name": "to",
          "type": "address"
        },
        {
          "indexed": true,
          "internalType": "uint256",
          "name": "tokenId",
          "type": "uint256"
        }
      ],
      "name": "Transfer",
      "type": "event"
    },
    {
      "inputs": [
        {
          "internalType": "address",
          "name": "to",
          "type": "address"
        },
        {
          "internalType": "uint256",
          "name": "tokenId",
          "type": "uint256"
        }
      ],
      "name": "approve",
      "outputs": [],
      "stateMutability": "nonpayable",
      "type": "function"
    },
    {
      "inputs": [
        {
          "internalType": "address",
          "name": "owner",
          "type": "address"
        }
      ],
      "name": "balanceOf",
      "outputs": [
        {
          "internalType": "uint256",
          "name": "",
          "type": "uint256"
        }
      ],
      "stateMutability": "view",
      "type": "function"
    },
    {
      "inputs": [
        {
          "internalType": "address",
          "name": "",
          "type": "address"
        }
      ],
      "name": "ethBalance",
      "outputs": [
        {
          "internalType": "uint256",
          "name": "",
          "type": "uint256"
        }
      ],
      "stateMutability": "view",
      "type": "function"
    },
    {
      "inputs": [
        {
          "internalType": "uint256",
          "name": "tokenId",
          "type": "uint256"
        }
      ],
      "name": "getApproved",
      "outputs": [
        {
          "internalType": "address",
          "name": "",
          "type": "address"
        }
      ],
      "stateMutability": "view",
      "type": "function"
    },
    {
      "inputs": [
        {
          "internalType": "address",
          "name": "owner",
          "type": "address"
        },
        {
          "internalType": "address",
          "name": "operator",
          "type": "address"
        }
      ],
      "name": "isApprovedForAll",
      "outputs": [
        {
          "internalType": "bool",
          "name": "",
          "type": "bool"
        }
      ],
      "stateMutability": "view",
      "type": "function"
    },
    {
      "inputs": [],
      "name": "name",
      "outputs": [
        {
          "internalType": "string",
          "name": "",
          "type": "string"
        }
      ],
      "stateMutability": "view",
      "type": "function"
    },
    {
      "inputs": [
        {
          "internalType": "uint256",
          "name": "tokenId",
          "type": "uint256"
        }
      ],
      "name": "ownerOf",
      "outputs": [
        {
          "internalType": "address",
          "name": "",
          "type": "address"
        }
      ],
      "stateMutability": "view",
      "type": "function"
    },
    {
      "inputs": [
        {
          "internalType": "address",
          "name": "from",
          "type": "address"
        },
        {
          "internalType": "address",
          "name": "to",
          "type": "address"
        },
        {
          "internalType": "uint256",
          "name": "tokenId",
          "type": "uint256"
        }
      ],
      "name": "safeTransferFrom",
      "outputs": [],
      "stateMutability": "nonpayable",
      "type": "function"
    },
    {
      "inputs": [
        {
          "internalType": "address",
          "name": "from",
          "type": "address"
        },
        {
          "internalType": "address",
          "name": "to",
          "type": "address"
        },
        {
          "internalType": "uint256",
          "name": "tokenId",
          "type": "uint256"
        },
        {
          "internalType": "bytes",
          "name": "_data",
          "type": "bytes"
        }
      ],
      "name": "safeTransferFrom",
      "outputs": [],
      "stateMutability": "nonpayable",
      "type": "function"
    },
    {
      "inputs": [
        {
          "internalType": "address",
          "name": "operator",
          "type": "address"
        },
        {
          "internalType": "bool",
          "name": "approved",
          "type": "bool"
        }
      ],
      "name": "setApprovalForAll",
      "outputs": [],
      "stateMutability": "nonpayable",
      "type": "function"
    },
    {
      "inputs": [
        {
          "internalType": "bytes4",
          "name": "interfaceId",
          "type": "bytes4"
        }
      ],
      "name": "supportsInterface",
      "outputs": [
        {
          "internalType": "bool",
          "name": "",
          "type": "bool"
        }
      ],
      "stateMutability": "view",
      "type": "function"
    },
    {
      "inputs": [],
      "name": "symbol",
      "outputs": [
        {
          "internalType": "string",
          "name": "",
          "type": "string"
        }
      ],
      "stateMutability": "view",
      "type": "function"
    },
    {
      "inputs": [
        {
          "internalType": "uint256",
          "name": "",
          "type": "uint256"
        }
      ],
      "name": "tokenPrice",
      "outputs": [
        {
          "internalType": "uint256",
          "name": "",
          "type": "uint256"
        }
      ],
      "stateMutability": "view",
      "type": "function"
    },
    {
      "inputs": [
        {
          "internalType": "uint256",
          "name": "tokenId",
          "type": "uint256"
        }
      ],
      "name": "tokenURI",
      "outputs": [
        {
          "internalType": "string",
          "name": "",
          "type": "string"
        }
      ],
      "stateMutability": "view",
      "type": "function"
    },
    {
      "stateMutability": "payable",
      "type": "receive"
    },
    {
      "inputs": [],
      "name": "getListingPrice",
      "outputs": [
        {
          "internalType": "uint256",
          "name": "",
          "type": "uint256"
        }
      ],
      "stateMutability": "nonpayable",
      "type": "function"
    },
    {
      "inputs": [
        {
          "internalType": "uint256",
          "name": "price",
          "type": "uint256"
        },
        {
          "internalType": "string",
          "name": "hash",
          "type": "string"
        },
        {
          "internalType": "string",
          "name": "metadata",
          "type": "string"
        }
      ],
      "name": "awardItem",
      "outputs": [
        {
          "internalType": "uint256",
          "name": "",
          "type": "uint256"
        }
      ],
      "stateMutability": "payable",
      "type": "function"
    },
    {
      "inputs": [
        {
          "internalType": "address",
          "name": "from",
          "type": "address"
        },
        {
          "internalType": "address",
          "name": "to",
          "type": "address"
        },
        {
          "internalType": "uint256",
          "name": "tokenId",
          "type": "uint256"
        }
      ],
      "name": "transferFrom",
      "outputs": [],
      "stateMutability": "nonpayable",
      "type": "function"
    },
    {
      "inputs": [
        {
          "internalType": "address",
          "name": "from",
          "type": "address"
        },
        {
          "internalType": "uint256",
          "name": "tokenId",
          "type": "uint256"
        }
      ],
      "name": "reimbursment",
      "outputs": [],
      "stateMutability": "nonpayable",
      "type": "function"
    }
  ],
  "bytecode": "0x60806040523480156200001157600080fd5b506040518060400160405280600b81526020017f546f6b656e4552433732310000000000000000000000000000000000000000008152506040518060400160405280600381526020017f544b4e0000000000000000000000000000000000000000000000000000000000815250816000908051906020019062000096929190620000b8565b508060019080519060200190620000af929190620000b8565b505050620001cd565b828054620000c69062000168565b90600052602060002090601f016020900481019282620000ea576000855562000136565b82601f106200010557805160ff191683800117855562000136565b8280016001018555821562000136579182015b828111156200013557825182559160200191906001019062000118565b5b50905062000145919062000149565b5090565b5b80821115620001645760008160009055506001016200014a565b5090565b600060028204905060018216806200018157607f821691505b602082108114156200019857620001976200019e565b5b50919050565b7f4e487b7100000000000000000000000000000000000000000000000000000000600052602260045260246000fd5b61341580620001dd6000396000f3fe60806040526004361061010d5760003560e01c806382c7c33011610095578063b88d4fde11610064578063b88d4fde1461038b578063c87b56dd146103b4578063d4ddce8a146103f1578063d8f3790f1461042e578063e985e9c51461046b57610114565b806382c7c330146102de5780638f22a0f61461030757806395d89b4114610337578063a22cb4651461036257610114565b806312e85585116100dc57806312e85585146101e757806323b872dd1461021257806342842e0e1461023b5780636352211e1461026457806370a08231146102a157610114565b806301ffc9a71461011957806306fdde0314610156578063081812fc14610181578063095ea7b3146101be57610114565b3661011457005b600080fd5b34801561012557600080fd5b50610140600480360381019061013b91906122b3565b6104a8565b60405161014d91906127e5565b60405180910390f35b34801561016257600080fd5b5061016b61058a565b6040516101789190612800565b60405180910390f35b34801561018d57600080fd5b506101a860048036038101906101a3919061230d565b61061c565b6040516101b5919061277e565b60405180910390f35b3480156101ca57600080fd5b506101e560048036038101906101e09190612273565b6106a1565b005b3480156101f357600080fd5b506101fc6107b9565b6040516102099190612a62565b60405180910390f35b34801561021e57600080fd5b506102396004803603810190610234919061215d565b6107d4565b005b34801561024757600080fd5b50610262600480360381019061025d919061215d565b610906565b005b34801561027057600080fd5b5061028b6004803603810190610286919061230d565b610926565b604051610298919061277e565b60405180910390f35b3480156102ad57600080fd5b506102c860048036038101906102c391906120f0565b6109d8565b6040516102d59190612a62565b60405180910390f35b3480156102ea57600080fd5b5061030560048036038101906103009190612273565b610a90565b005b610321600480360381019061031c919061233a565b610c16565b60405161032e9190612a62565b60405180910390f35b34801561034357600080fd5b5061034c610d74565b6040516103599190612800565b60405180910390f35b34801561036e57600080fd5b5061038960048036038101906103849190612233565b610e06565b005b34801561039757600080fd5b506103b260048036038101906103ad91906121b0565b610f87565b005b3480156103c057600080fd5b506103db60048036038101906103d6919061230d565b610fe9565b6040516103e89190612800565b60405180910390f35b3480156103fd57600080fd5b506104186004803603810190610413919061230d565b61113b565b6040516104259190612a62565b60405180910390f35b34801561043a57600080fd5b50610455600480360381019061045091906120f0565b611153565b6040516104629190612a62565b60405180910390f35b34801561047757600080fd5b50610492600480360381019061048d919061211d565b61116b565b60405161049f91906127e5565b60405180910390f35b60007f80ac58cd000000000000000000000000000000000000000000000000000000007bffffffffffffffffffffffffffffffffffffffffffffffffffffffff1916827bffffffffffffffffffffffffffffffffffffffffffffffffffffffff1916148061057357507f5b5e139f000000000000000000000000000000000000000000000000000000007bffffffffffffffffffffffffffffffffffffffffffffffffffffffff1916827bffffffffffffffffffffffffffffffffffffffffffffffffffffffff1916145b806105835750610582826111ff565b5b9050919050565b60606000805461059990612cc3565b80601f01602080910402602001604051908101604052809291908181526020018280546105c590612cc3565b80156106125780601f106105e757610100808354040283529160200191610612565b820191906000526020600020905b8154815290600101906020018083116105f557829003601f168201915b5050505050905090565b600061062782611269565b610666576040517f08c379a000000000000000000000000000000000000000000000000000000000815260040161065d906129a2565b60405180910390fd5b6004600083815260200190815260200160002060009054906101000a900473ffffffffffffffffffffffffffffffffffffffff169050919050565b60006106ac82610926565b90508073ffffffffffffffffffffffffffffffffffffffff168373ffffffffffffffffffffffffffffffffffffffff16141561071d576040517f08c379a000000000000000000000000000000000000000000000000000000000815260040161071490612a22565b60405180910390fd5b8073ffffffffffffffffffffffffffffffffffffffff1661073c6112d5565b73ffffffffffffffffffffffffffffffffffffffff16148061076b575061076a816107656112d5565b61116b565b5b6107aa576040517f08c379a00000000000000000000000000000000000000000000000000000000081526004016107a1906128e2565b60405180910390fd5b6107b483836112dd565b505050565b60006107c56007611396565b6107cf60076113ac565b905090565b6107e56107df6112d5565b826113ba565b610824576040517f08c379a000000000000000000000000000000000000000000000000000000000815260040161081b90612a42565b60405180910390fd5b61082f838383611498565b600a600082815260200190815260200160002054600960008573ffffffffffffffffffffffffffffffffffffffff1673ffffffffffffffffffffffffffffffffffffffff16815260200190815260200160002060008282546108919190612bd9565b92505081905550600a600082815260200190815260200160002054600960008473ffffffffffffffffffffffffffffffffffffffff1673ffffffffffffffffffffffffffffffffffffffff16815260200190815260200160002060008282546108fa9190612b52565b92505081905550505050565b61092183838360405180602001604052806000815250610f87565b505050565b6000806002600084815260200190815260200160002060009054906101000a900473ffffffffffffffffffffffffffffffffffffffff169050600073ffffffffffffffffffffffffffffffffffffffff168173ffffffffffffffffffffffffffffffffffffffff1614156109cf576040517f08c379a00000000000000000000000000000000000000000000000000000000081526004016109c690612922565b60405180910390fd5b80915050919050565b60008073ffffffffffffffffffffffffffffffffffffffff168273ffffffffffffffffffffffffffffffffffffffff161415610a49576040517f08c379a0000000000000000000000000000000000000000000000000000000008152600401610a4090612902565b60405180910390fd5b600360008373ffffffffffffffffffffffffffffffffffffffff1673ffffffffffffffffffffffffffffffffffffffff168152602001908152602001600020549050919050565b610aa1610a9b6112d5565b826113ba565b610ae0576040517f08c379a0000000000000000000000000000000000000000000000000000000008152600401610ad790612a42565b60405180910390fd5b600a600082815260200190815260200160002054600960008473ffffffffffffffffffffffffffffffffffffffff1673ffffffffffffffffffffffffffffffffffffffff1681526020019081526020016000206000828254610b429190612bd9565b92505081905550610b52816116f4565b60003373ffffffffffffffffffffffffffffffffffffffff16600a600084815260200190815260200160002054604051610b8b90612769565b60006040518083038185875af1925050503d8060008114610bc8576040519150601f19603f3d011682016040523d82523d6000602084013e610bcd565b606091505b5050905080610c11576040517f08c379a0000000000000000000000000000000000000000000000000000000008152600401610c0890612862565b60405180910390fd5b505050565b600083341015610c5b576040517f08c379a0000000000000000000000000000000000000000000000000000000008152600401610c5290612a02565b60405180910390fd5b6001600884604051610c6d919061272e565b908152602001604051809103902060009054906101000a900460ff1660ff161415610c9757600080fd5b6001600884604051610ca9919061272e565b908152602001604051809103902060006101000a81548160ff021916908360ff160217905550610cd96007611396565b6000610ce560076113ac565b9050610cf13382611747565b610cfb8184611915565b34600960003373ffffffffffffffffffffffffffffffffffffffff1673ffffffffffffffffffffffffffffffffffffffff1681526020019081526020016000206000828254610d4a9190612b52565b9250508190555084600a600083815260200190815260200160002081905550809150509392505050565b606060018054610d8390612cc3565b80601f0160208091040260200160405190810160405280929190818152602001828054610daf90612cc3565b8015610dfc5780601f10610dd157610100808354040283529160200191610dfc565b820191906000526020600020905b815481529060010190602001808311610ddf57829003601f168201915b5050505050905090565b610e0e6112d5565b73ffffffffffffffffffffffffffffffffffffffff168273ffffffffffffffffffffffffffffffffffffffff161415610e7c576040517f08c379a0000000000000000000000000000000000000000000000000000000008152600401610e73906128a2565b60405180910390fd5b8060056000610e896112d5565b73ffffffffffffffffffffffffffffffffffffffff1673ffffffffffffffffffffffffffffffffffffffff16815260200190815260200160002060008473ffffffffffffffffffffffffffffffffffffffff1673ffffffffffffffffffffffffffffffffffffffff16815260200190815260200160002060006101000a81548160ff0219169083151502179055508173ffffffffffffffffffffffffffffffffffffffff16610f366112d5565b73ffffffffffffffffffffffffffffffffffffffff167f17307eab39ab6107e8899845ad3d59bd9653f200f220920489ca2b5937696c3183604051610f7b91906127e5565b60405180910390a35050565b610f98610f926112d5565b836113ba565b610fd7576040517f08c379a0000000000000000000000000000000000000000000000000000000008152600401610fce90612a42565b60405180910390fd5b610fe384848484611989565b50505050565b6060610ff482611269565b611033576040517f08c379a000000000000000000000000000000000000000000000000000000000815260040161102a90612982565b60405180910390fd5b600060066000848152602001908152602001600020805461105390612cc3565b80601f016020809104026020016040519081016040528092919081815260200182805461107f90612cc3565b80156110cc5780601f106110a1576101008083540402835291602001916110cc565b820191906000526020600020905b8154815290600101906020018083116110af57829003601f168201915b5050505050905060006110dd6119e5565b90506000815114156110f3578192505050611136565b600082511115611128578082604051602001611110929190612745565b60405160208183030381529060405292505050611136565b611131846119fc565b925050505b919050565b600a6020528060005260406000206000915090505481565b60096020528060005260406000206000915090505481565b6000600560008473ffffffffffffffffffffffffffffffffffffffff1673ffffffffffffffffffffffffffffffffffffffff16815260200190815260200160002060008373ffffffffffffffffffffffffffffffffffffffff1673ffffffffffffffffffffffffffffffffffffffff16815260200190815260200160002060009054906101000a900460ff16905092915050565b60007f01ffc9a7000000000000000000000000000000000000000000000000000000007bffffffffffffffffffffffffffffffffffffffffffffffffffffffff1916827bffffffffffffffffffffffffffffffffffffffffffffffffffffffff1916149050919050565b60008073ffffffffffffffffffffffffffffffffffffffff166002600084815260200190815260200160002060009054906101000a900473ffffffffffffffffffffffffffffffffffffffff1673ffffffffffffffffffffffffffffffffffffffff1614159050919050565b600033905090565b816004600083815260200190815260200160002060006101000a81548173ffffffffffffffffffffffffffffffffffffffff021916908373ffffffffffffffffffffffffffffffffffffffff160217905550808273ffffffffffffffffffffffffffffffffffffffff1661135083610926565b73ffffffffffffffffffffffffffffffffffffffff167f8c5be1e5ebec7d5bd14f71427d1e84f3dd0314c0f7b2291e5b200ac8c7c3b92560405160405180910390a45050565b6001816000016000828254019250508190555050565b600081600001549050919050565b60006113c582611269565b611404576040517f08c379a00000000000000000000000000000000000000000000000000000000081526004016113fb906128c2565b60405180910390fd5b600061140f83610926565b90508073ffffffffffffffffffffffffffffffffffffffff168473ffffffffffffffffffffffffffffffffffffffff16148061147e57508373ffffffffffffffffffffffffffffffffffffffff166114668461061c565b73ffffffffffffffffffffffffffffffffffffffff16145b8061148f575061148e818561116b565b5b91505092915050565b8273ffffffffffffffffffffffffffffffffffffffff166114b882610926565b73ffffffffffffffffffffffffffffffffffffffff161461150e576040517f08c379a0000000000000000000000000000000000000000000000000000000008152600401611505906129c2565b60405180910390fd5b600073ffffffffffffffffffffffffffffffffffffffff168273ffffffffffffffffffffffffffffffffffffffff16141561157e576040517f08c379a000000000000000000000000000000000000000000000000000000000815260040161157590612882565b60405180910390fd5b611589838383611aa3565b6115946000826112dd565b6001600360008573ffffffffffffffffffffffffffffffffffffffff1673ffffffffffffffffffffffffffffffffffffffff16815260200190815260200160002060008282546115e49190612bd9565b925050819055506001600360008473ffffffffffffffffffffffffffffffffffffffff1673ffffffffffffffffffffffffffffffffffffffff168152602001908152602001600020600082825461163b9190612b52565b92505081905550816002600083815260200190815260200160002060006101000a81548173ffffffffffffffffffffffffffffffffffffffff021916908373ffffffffffffffffffffffffffffffffffffffff160217905550808273ffffffffffffffffffffffffffffffffffffffff168473ffffffffffffffffffffffffffffffffffffffff167fddf252ad1be2c89b69c2b068fc378daa952ba7f163c4a11628f55a4df523b3ef60405160405180910390a4505050565b6116fd81611aa8565b600060066000838152602001908152602001600020805461171d90612cc3565b905014611744576006600082815260200190815260200160002060006117439190611ec4565b5b50565b600073ffffffffffffffffffffffffffffffffffffffff168273ffffffffffffffffffffffffffffffffffffffff1614156117b7576040517f08c379a00000000000000000000000000000000000000000000000000000000081526004016117ae90612962565b60405180910390fd5b6117c081611269565b15611800576040517f08c379a00000000000000000000000000000000000000000000000000000000081526004016117f790612842565b60405180910390fd5b61180c60008383611aa3565b6001600360008473ffffffffffffffffffffffffffffffffffffffff1673ffffffffffffffffffffffffffffffffffffffff168152602001908152602001600020600082825461185c9190612b52565b92505081905550816002600083815260200190815260200160002060006101000a81548173ffffffffffffffffffffffffffffffffffffffff021916908373ffffffffffffffffffffffffffffffffffffffff160217905550808273ffffffffffffffffffffffffffffffffffffffff16600073ffffffffffffffffffffffffffffffffffffffff167fddf252ad1be2c89b69c2b068fc378daa952ba7f163c4a11628f55a4df523b3ef60405160405180910390a45050565b61191e82611269565b61195d576040517f08c379a000000000000000000000000000000000000000000000000000000000815260040161195490612942565b60405180910390fd5b80600660008481526020019081526020016000209080519060200190611984929190611f04565b505050565b611994848484611498565b6119a084848484611bb9565b6119df576040517f08c379a00000000000000000000000000000000000000000000000000000000081526004016119d690612822565b60405180910390fd5b50505050565b606060405180602001604052806000815250905090565b6060611a0782611269565b611a46576040517f08c379a0000000000000000000000000000000000000000000000000000000008152600401611a3d906129e2565b60405180910390fd5b6000611a506119e5565b90506000815111611a705760405180602001604052806000815250611a9b565b80611a7a84611d50565b604051602001611a8b929190612745565b6040516020818303038152906040525b915050919050565b505050565b6000611ab382610926565b9050611ac181600084611aa3565b611acc6000836112dd565b6001600360008373ffffffffffffffffffffffffffffffffffffffff1673ffffffffffffffffffffffffffffffffffffffff1681526020019081526020016000206000828254611b1c9190612bd9565b925050819055506002600083815260200190815260200160002060006101000a81549073ffffffffffffffffffffffffffffffffffffffff021916905581600073ffffffffffffffffffffffffffffffffffffffff168273ffffffffffffffffffffffffffffffffffffffff167fddf252ad1be2c89b69c2b068fc378daa952ba7f163c4a11628f55a4df523b3ef60405160405180910390a45050565b6000611bda8473ffffffffffffffffffffffffffffffffffffffff16611eb1565b15611d43578373ffffffffffffffffffffffffffffffffffffffff1663150b7a02611c036112d5565b8786866040518563ffffffff1660e01b8152600401611c259493929190612799565b602060405180830381600087803b158015611c3f57600080fd5b505af1925050508015611c7057506040513d601f19601f82011682018060405250810190611c6d91906122e0565b60015b611cf3573d8060008114611ca0576040519150601f19603f3d011682016040523d82523d6000602084013e611ca5565b606091505b50600081511415611ceb576040517f08c379a0000000000000000000000000000000000000000000000000000000008152600401611ce290612822565b60405180910390fd5b805181602001fd5b63150b7a0260e01b7bffffffffffffffffffffffffffffffffffffffffffffffffffffffff1916817bffffffffffffffffffffffffffffffffffffffffffffffffffffffff191614915050611d48565b600190505b949350505050565b60606000821415611d98576040518060400160405280600181526020017f30000000000000000000000000000000000000000000000000000000000000008152509050611eac565b600082905060005b60008214611dca578080611db390612d26565b915050600a82611dc39190612ba8565b9150611da0565b60008167ffffffffffffffff811115611de657611de5612e5c565b5b6040519080825280601f01601f191660200182016040528015611e185781602001600182028036833780820191505090505b5090505b60008514611ea557600182611e319190612bd9565b9150600a85611e409190612d6f565b6030611e4c9190612b52565b60f81b818381518110611e6257611e61612e2d565b5b60200101907effffffffffffffffffffffffffffffffffffffffffffffffffffffffffffff1916908160001a905350600a85611e9e9190612ba8565b9450611e1c565b8093505050505b919050565b600080823b905060008111915050919050565b508054611ed090612cc3565b6000825580601f10611ee25750611f01565b601f016020900490600052602060002090810190611f009190611f8a565b5b50565b828054611f1090612cc3565b90600052602060002090601f016020900481019282611f325760008555611f79565b82601f10611f4b57805160ff1916838001178555611f79565b82800160010185558215611f79579182015b82811115611f78578251825591602001919060010190611f5d565b5b509050611f869190611f8a565b5090565b5b80821115611fa3576000816000905550600101611f8b565b5090565b6000611fba611fb584612aa2565b612a7d565b905082815260208101848484011115611fd657611fd5612e90565b5b611fe1848285612c81565b509392505050565b6000611ffc611ff784612ad3565b612a7d565b90508281526020810184848401111561201857612017612e90565b5b612023848285612c81565b509392505050565b60008135905061203a81613383565b92915050565b60008135905061204f8161339a565b92915050565b600081359050612064816133b1565b92915050565b600081519050612079816133b1565b92915050565b600082601f83011261209457612093612e8b565b5b81356120a4848260208601611fa7565b91505092915050565b600082601f8301126120c2576120c1612e8b565b5b81356120d2848260208601611fe9565b91505092915050565b6000813590506120ea816133c8565b92915050565b60006020828403121561210657612105612e9a565b5b60006121148482850161202b565b91505092915050565b6000806040838503121561213457612133612e9a565b5b60006121428582860161202b565b92505060206121538582860161202b565b9150509250929050565b60008060006060848603121561217657612175612e9a565b5b60006121848682870161202b565b93505060206121958682870161202b565b92505060406121a6868287016120db565b9150509250925092565b600080600080608085870312156121ca576121c9612e9a565b5b60006121d88782880161202b565b94505060206121e98782880161202b565b93505060406121fa878288016120db565b925050606085013567ffffffffffffffff81111561221b5761221a612e95565b5b6122278782880161207f565b91505092959194509250565b6000806040838503121561224a57612249612e9a565b5b60006122588582860161202b565b925050602061226985828601612040565b9150509250929050565b6000806040838503121561228a57612289612e9a565b5b60006122988582860161202b565b92505060206122a9858286016120db565b9150509250929050565b6000602082840312156122c9576122c8612e9a565b5b60006122d784828501612055565b91505092915050565b6000602082840312156122f6576122f5612e9a565b5b60006123048482850161206a565b91505092915050565b60006020828403121561232357612322612e9a565b5b6000612331848285016120db565b91505092915050565b60008060006060848603121561235357612352612e9a565b5b6000612361868287016120db565b935050602084013567ffffffffffffffff81111561238257612381612e95565b5b61238e868287016120ad565b925050604084013567ffffffffffffffff8111156123af576123ae612e95565b5b6123bb868287016120ad565b9150509250925092565b6123ce81612c0d565b82525050565b6123dd81612c1f565b82525050565b60006123ee82612b04565b6123f88185612b1a565b9350612408818560208601612c90565b61241181612e9f565b840191505092915050565b600061242782612b0f565b6124318185612b36565b9350612441818560208601612c90565b61244a81612e9f565b840191505092915050565b600061246082612b0f565b61246a8185612b47565b935061247a818560208601612c90565b80840191505092915050565b6000612493603283612b36565b915061249e82612eb0565b604082019050919050565b60006124b6601c83612b36565b91506124c182612eff565b602082019050919050565b60006124d9601483612b36565b91506124e482612f28565b602082019050919050565b60006124fc602483612b36565b915061250782612f51565b604082019050919050565b600061251f601983612b36565b915061252a82612fa0565b602082019050919050565b6000612542602c83612b36565b915061254d82612fc9565b604082019050919050565b6000612565603883612b36565b915061257082613018565b604082019050919050565b6000612588602a83612b36565b915061259382613067565b604082019050919050565b60006125ab602983612b36565b91506125b6826130b6565b604082019050919050565b60006125ce602e83612b36565b91506125d982613105565b604082019050919050565b60006125f1602083612b36565b91506125fc82613154565b602082019050919050565b6000612614603183612b36565b915061261f8261317d565b604082019050919050565b6000612637602c83612b36565b9150612642826131cc565b604082019050919050565b600061265a602983612b36565b91506126658261321b565b604082019050919050565b600061267d602f83612b36565b91506126888261326a565b604082019050919050565b60006126a0602083612b36565b91506126ab826132b9565b602082019050919050565b60006126c3602183612b36565b91506126ce826132e2565b604082019050919050565b60006126e6600083612b2b565b91506126f182613331565b600082019050919050565b6000612709603183612b36565b915061271482613334565b604082019050919050565b61272881612c77565b82525050565b600061273a8284612455565b915081905092915050565b60006127518285612455565b915061275d8284612455565b91508190509392505050565b6000612774826126d9565b9150819050919050565b600060208201905061279360008301846123c5565b92915050565b60006080820190506127ae60008301876123c5565b6127bb60208301866123c5565b6127c8604083018561271f565b81810360608301526127da81846123e3565b905095945050505050565b60006020820190506127fa60008301846123d4565b92915050565b6000602082019050818103600083015261281a818461241c565b905092915050565b6000602082019050818103600083015261283b81612486565b9050919050565b6000602082019050818103600083015261285b816124a9565b9050919050565b6000602082019050818103600083015261287b816124cc565b9050919050565b6000602082019050818103600083015261289b816124ef565b9050919050565b600060208201905081810360008301526128bb81612512565b9050919050565b600060208201905081810360008301526128db81612535565b9050919050565b600060208201905081810360008301526128fb81612558565b9050919050565b6000602082019050818103600083015261291b8161257b565b9050919050565b6000602082019050818103600083015261293b8161259e565b9050919050565b6000602082019050818103600083015261295b816125c1565b9050919050565b6000602082019050818103600083015261297b816125e4565b9050919050565b6000602082019050818103600083015261299b81612607565b9050919050565b600060208201905081810360008301526129bb8161262a565b9050919050565b600060208201905081810360008301526129db8161264d565b9050919050565b600060208201905081810360008301526129fb81612670565b9050919050565b60006020820190508181036000830152612a1b81612693565b9050919050565b60006020820190508181036000830152612a3b816126b6565b9050919050565b60006020820190508181036000830152612a5b816126fc565b9050919050565b6000602082019050612a77600083018461271f565b92915050565b6000612a87612a98565b9050612a938282612cf5565b919050565b6000604051905090565b600067ffffffffffffffff821115612abd57612abc612e5c565b5b612ac682612e9f565b9050602081019050919050565b600067ffffffffffffffff821115612aee57612aed612e5c565b5b612af782612e9f565b9050602081019050919050565b600081519050919050565b600081519050919050565b600082825260208201905092915050565b600081905092915050565b600082825260208201905092915050565b600081905092915050565b6000612b5d82612c77565b9150612b6883612c77565b9250827fffffffffffffffffffffffffffffffffffffffffffffffffffffffffffffffff03821115612b9d57612b9c612da0565b5b828201905092915050565b6000612bb382612c77565b9150612bbe83612c77565b925082612bce57612bcd612dcf565b5b828204905092915050565b6000612be482612c77565b9150612bef83612c77565b925082821015612c0257612c01612da0565b5b828203905092915050565b6000612c1882612c57565b9050919050565b60008115159050919050565b60007fffffffff0000000000000000000000000000000000000000000000000000000082169050919050565b600073ffffffffffffffffffffffffffffffffffffffff82169050919050565b6000819050919050565b82818337600083830152505050565b60005b83811015612cae578082015181840152602081019050612c93565b83811115612cbd576000848401525b50505050565b60006002820490506001821680612cdb57607f821691505b60208210811415612cef57612cee612dfe565b5b50919050565b612cfe82612e9f565b810181811067ffffffffffffffff82111715612d1d57612d1c612e5c565b5b80604052505050565b6000612d3182612c77565b91507fffffffffffffffffffffffffffffffffffffffffffffffffffffffffffffffff821415612d6457612d63612da0565b5b600182019050919050565b6000612d7a82612c77565b9150612d8583612c77565b925082612d9557612d94612dcf565b5b828206905092915050565b7f4e487b7100000000000000000000000000000000000000000000000000000000600052601160045260246000fd5b7f4e487b7100000000000000000000000000000000000000000000000000000000600052601260045260246000fd5b7f4e487b7100000000000000000000000000000000000000000000000000000000600052602260045260246000fd5b7f4e487b7100000000000000000000000000000000000000000000000000000000600052603260045260246000fd5b7f4e487b7100000000000000000000000000000000000000000000000000000000600052604160045260246000fd5b600080fd5b600080fd5b600080fd5b600080fd5b6000601f19601f8301169050919050565b7f4552433732313a207472616e7366657220746f206e6f6e20455243373231526560008201527f63656976657220696d706c656d656e7465720000000000000000000000000000602082015250565b7f4552433732313a20746f6b656e20616c7265616479206d696e74656400000000600082015250565b7f4661696c656420746f2073656e64204574686572000000000000000000000000600082015250565b7f4552433732313a207472616e7366657220746f20746865207a65726f2061646460008201527f7265737300000000000000000000000000000000000000000000000000000000602082015250565b7f4552433732313a20617070726f766520746f2063616c6c657200000000000000600082015250565b7f4552433732313a206f70657261746f7220717565727920666f72206e6f6e657860008201527f697374656e7420746f6b656e0000000000000000000000000000000000000000602082015250565b7f4552433732313a20617070726f76652063616c6c6572206973206e6f74206f7760008201527f6e6572206e6f7220617070726f76656420666f7220616c6c0000000000000000602082015250565b7f4552433732313a2062616c616e636520717565727920666f7220746865207a6560008201527f726f206164647265737300000000000000000000000000000000000000000000602082015250565b7f4552433732313a206f776e657220717565727920666f72206e6f6e657869737460008201527f656e7420746f6b656e0000000000000000000000000000000000000000000000602082015250565b7f45524337323155524953746f726167653a2055524920736574206f66206e6f6e60008201527f6578697374656e7420746f6b656e000000000000000000000000000000000000602082015250565b7f4552433732313a206d696e7420746f20746865207a65726f2061646472657373600082015250565b7f45524337323155524953746f726167653a2055524920717565727920666f722060008201527f6e6f6e6578697374656e7420746f6b656e000000000000000000000000000000602082015250565b7f4552433732313a20617070726f76656420717565727920666f72206e6f6e657860008201527f697374656e7420746f6b656e0000000000000000000000000000000000000000602082015250565b7f4552433732313a207472616e73666572206f6620746f6b656e2074686174206960008201527f73206e6f74206f776e0000000000000000000000000000000000000000000000602082015250565b7f4552433732314d657461646174613a2055524920717565727920666f72206e6f60008201527f6e6578697374656e7420746f6b656e0000000000000000000000000000000000602082015250565b7f53656e6420746865206d696e696d756d20616d6f756e74207265717569726564600082015250565b7f4552433732313a20617070726f76616c20746f2063757272656e74206f776e6560008201527f7200000000000000000000000000000000000000000000000000000000000000602082015250565b50565b7f4552433732313a207472616e736665722063616c6c6572206973206e6f74206f60008201527f776e6572206e6f7220617070726f766564000000000000000000000000000000602082015250565b61338c81612c0d565b811461339757600080fd5b50565b6133a381612c1f565b81146133ae57600080fd5b50565b6133ba81612c2b565b81146133c557600080fd5b50565b6133d181612c77565b81146133dc57600080fd5b5056fea2646970667358221220fea79ea16173b1807c1d44052ef7c01f2147b4e996e10193586d31c93eaf0c1264736f6c63430008060033",
  "immutableReferences": {},
  "source": "// SPDX-License-Identifier: MIT\r\npragma solidity ^0.8.0;\r\n\r\nimport \"@openzeppelin/contracts/token/ERC721/extensions/ERC721URIStorage.sol\";\r\nimport \"@openzeppelin/contracts/token/ERC721/ERC721.sol\";\r\nimport \"@openzeppelin/contracts/utils/Counters.sol\";\r\n\r\ncontract TokenERC721 is ERC721URIStorage {\r\n\r\n  using Counters for Counters.Counter;\r\n  Counters.Counter private _tokenIds;\r\n\r\n  mapping(string => uint8) hashes;\r\n  mapping(address => uint256) public ethBalance; \r\n  mapping(uint256 => uint256) public tokenPrice;\r\n  \r\n  constructor() ERC721(\"TokenERC721\", \"TKN\") {}\r\n\r\n  function getListingPrice() public returns(uint256) {\r\n        _tokenIds.increment();\r\n        return _tokenIds.current();\r\n  }\r\n\r\n  function awardItem(uint256 price, string memory hash, string memory metadata) public payable returns (uint256)\r\n  {\r\n    require(msg.value >= price, \"Send the minimum amount required\");  \r\n    require(hashes[hash] != 1);\r\n    hashes[hash] = 1;\r\n\r\n    _tokenIds.increment();\r\n    uint256 newItemId = _tokenIds.current();\r\n  \r\n    _mint(msg.sender, newItemId);\r\n    _setTokenURI(newItemId, metadata);\r\n    \r\n    \r\n    ethBalance[msg.sender] += msg.value;\r\n    tokenPrice[newItemId] = price;\r\n    \r\n    return newItemId;\r\n  }\r\n  \r\n  function transferFrom(address from, address to, uint256 tokenId ) public virtual override {\r\n    require(_isApprovedOrOwner(_msgSender(), tokenId), \"ERC721: transfer caller is not owner nor approved\");\r\n    _transfer(from, to, tokenId);\r\n    ethBalance[from] -= tokenPrice[tokenId];\r\n    ethBalance[to] += tokenPrice[tokenId];\r\n  }\r\n\r\n  ///Voir pour implmenter nonReentrant ici\r\n  function reimbursment(address from, uint256 tokenId) external {\r\n       require(_isApprovedOrOwner(_msgSender(), tokenId), \"ERC721: transfer caller is not owner nor approved\");\r\n        ethBalance[from] -= tokenPrice[tokenId];\r\n        _burn(tokenId);\r\n        \r\n        (bool success,) = msg.sender.call{value: tokenPrice[tokenId]}(\"\");\r\n        require(success, \"Failed to send Ether\");\r\n  }\r\n  \r\n  receive() external payable {}\r\n  \r\n}\r\n\r\n",
  "sourcePath": "C:/Users/omenr/Desktop/Kilian/HomePage-Dapp/DigiBox/contracts/ERC721.sol",
  "compiler": {
    "name": "solc",
    "version": "0.8.6+commit.11564f7e.Emscripten.clang"
  },
  "schemaVersion": "3.4.1",
  "updatedAt": "2021-07-27T21:02:59.964Z",
  "devdoc": {
    "kind": "dev",
    "methods": {
      "approve(address,uint256)": {
        "details": "See {IERC721-approve}."
      },
      "balanceOf(address)": {
        "details": "See {IERC721-balanceOf}."
      },
      "getApproved(uint256)": {
        "details": "See {IERC721-getApproved}."
      },
      "isApprovedForAll(address,address)": {
        "details": "See {IERC721-isApprovedForAll}."
      },
      "name()": {
        "details": "See {IERC721Metadata-name}."
      },
      "ownerOf(uint256)": {
        "details": "See {IERC721-ownerOf}."
      },
      "safeTransferFrom(address,address,uint256)": {
        "details": "See {IERC721-safeTransferFrom}."
      },
      "safeTransferFrom(address,address,uint256,bytes)": {
        "details": "See {IERC721-safeTransferFrom}."
      },
      "setApprovalForAll(address,bool)": {
        "details": "See {IERC721-setApprovalForAll}."
      },
      "supportsInterface(bytes4)": {
        "details": "See {IERC165-supportsInterface}."
      },
      "symbol()": {
        "details": "See {IERC721Metadata-symbol}."
      },
      "tokenURI(uint256)": {
        "details": "See {IERC721Metadata-tokenURI}."
      },
      "transferFrom(address,address,uint256)": {
        "details": "See {IERC721-transferFrom}."
      }
    },
    "version": 1
  },
  "userdoc": {
    "kind": "user",
    "methods": {
      "reimbursment(address,uint256)": {
        "notice": "Voir pour implmenter nonReentrant ici"
      }
    },
    "version": 1
  }
}