{
  "contractName": "MarketPlace",
  "abi": [
    {
      "anonymous": false,
      "inputs": [
        {
          "indexed": true,
          "internalType": "address",
          "name": "previousOwner",
          "type": "address"
        },
        {
          "indexed": true,
          "internalType": "address",
          "name": "newOwner",
          "type": "address"
        }
      ],
      "name": "OwnershipTransferred",
      "type": "event"
    },
    {
      "anonymous": false,
      "inputs": [
        {
          "indexed": false,
          "internalType": "address",
          "name": "from",
          "type": "address"
        },
        {
          "indexed": false,
          "internalType": "uint256",
          "name": "amountDeposited",
          "type": "uint256"
        }
      ],
      "name": "hasDeposited",
      "type": "event"
    },
    {
      "anonymous": false,
      "inputs": [
        {
          "indexed": false,
          "internalType": "address",
          "name": "from",
          "type": "address"
        },
        {
          "indexed": false,
          "internalType": "uint256",
          "name": "amountWithdrawn",
          "type": "uint256"
        }
      ],
      "name": "hasWithdrawn",
      "type": "event"
    },
    {
      "anonymous": false,
      "inputs": [
        {
          "indexed": false,
          "internalType": "address",
          "name": "isAllowed",
          "type": "address"
        }
      ],
      "name": "isAllowedToPull",
      "type": "event"
    },
    {
      "anonymous": false,
      "inputs": [
        {
          "indexed": false,
          "internalType": "address",
          "name": "From",
          "type": "address"
        },
        {
          "indexed": false,
          "internalType": "uint256",
          "name": "Price",
          "type": "uint256"
        }
      ],
      "name": "priceChange",
      "type": "event"
    },
    {
      "anonymous": false,
      "inputs": [
        {
          "indexed": false,
          "internalType": "address",
          "name": "From",
          "type": "address"
        },
        {
          "indexed": false,
          "internalType": "uint256",
          "name": "Amount",
          "type": "uint256"
        },
        {
          "indexed": false,
          "internalType": "uint256",
          "name": "productId",
          "type": "uint256"
        }
      ],
      "name": "productBought",
      "type": "event"
    },
    {
      "inputs": [],
      "name": "owner",
      "outputs": [
        {
          "internalType": "address",
          "name": "",
          "type": "address"
        }
      ],
      "stateMutability": "view",
      "type": "function",
      "constant": true
    },
    {
      "inputs": [
        {
          "internalType": "address",
          "name": "",
          "type": "address"
        },
        {
          "internalType": "uint256",
          "name": "",
          "type": "uint256"
        }
      ],
      "name": "payments",
      "outputs": [
        {
          "internalType": "uint256",
          "name": "price",
          "type": "uint256"
        },
        {
          "internalType": "uint256",
          "name": "productId",
          "type": "uint256"
        }
      ],
      "stateMutability": "view",
      "type": "function",
      "constant": true
    },
    {
      "inputs": [
        {
          "internalType": "address",
          "name": "",
          "type": "address"
        }
      ],
      "name": "prestataire",
      "outputs": [
        {
          "internalType": "bool",
          "name": "isAllowedToWithdraw",
          "type": "bool"
        },
        {
          "internalType": "uint256",
          "name": "amountToWithdraw",
          "type": "uint256"
        }
      ],
      "stateMutability": "view",
      "type": "function",
      "constant": true
    },
    {
      "inputs": [],
      "name": "renounceOwnership",
      "outputs": [],
      "stateMutability": "nonpayable",
      "type": "function"
    },
    {
      "inputs": [],
      "name": "totalBalance",
      "outputs": [
        {
          "internalType": "uint256",
          "name": "",
          "type": "uint256"
        }
      ],
      "stateMutability": "view",
      "type": "function",
      "constant": true
    },
    {
      "inputs": [
        {
          "internalType": "address",
          "name": "newOwner",
          "type": "address"
        }
      ],
      "name": "transferOwnership",
      "outputs": [],
      "stateMutability": "nonpayable",
      "type": "function"
    },
    {
      "stateMutability": "payable",
      "type": "receive",
      "payable": true
    },
    {
      "inputs": [],
      "name": "deposit",
      "outputs": [],
      "stateMutability": "payable",
      "type": "function",
      "payable": true
    },
    {
      "inputs": [
        {
          "internalType": "uint256",
          "name": "productId",
          "type": "uint256"
        }
      ],
      "name": "buyProduct",
      "outputs": [],
      "stateMutability": "payable",
      "type": "function",
      "payable": true
    },
    {
      "inputs": [
        {
          "internalType": "address",
          "name": "_address",
          "type": "address"
        }
      ],
      "name": "allowPresta",
      "outputs": [],
      "stateMutability": "nonpayable",
      "type": "function"
    },
    {
      "inputs": [],
      "name": "withdrawFunds",
      "outputs": [],
      "stateMutability": "payable",
      "type": "function",
      "payable": true
    },
    {
      "inputs": [],
      "name": "getBalanceOfEth",
      "outputs": [
        {
          "internalType": "uint256",
          "name": "",
          "type": "uint256"
        }
      ],
      "stateMutability": "view",
      "type": "function",
      "constant": true
    }
  ],
  "bytecode": "0x608060405234801561001057600080fd5b5061002d61002261003260201b60201c565b61003a60201b60201c565b6100fe565b600033905090565b60008060009054906101000a900473ffffffffffffffffffffffffffffffffffffffff169050816000806101000a81548173ffffffffffffffffffffffffffffffffffffffff021916908373ffffffffffffffffffffffffffffffffffffffff1602179055508173ffffffffffffffffffffffffffffffffffffffff168173ffffffffffffffffffffffffffffffffffffffff167f8be0079c531659141344cd1fd0a4f28419497f9722a3daafe3b4186f6b6457e060405160405180910390a35050565b610ba78061010d6000396000f3fe6080604052600436106100a05760003560e01c80638da5cb5b116100645780638da5cb5b14610152578063ab63385c1461017d578063ad7a672f146101bb578063d0e30db0146101e6578063f2045f11146101f0578063f2fde38b14610219576100a7565b8063208f78a4146100ac57806324600fc3146100d7578063715018a6146100e157806378a4540c146100f85780638642269e14610136576100a7565b366100a757005b600080fd5b3480156100b857600080fd5b506100c1610242565b6040516100ce919061096d565b60405180910390f35b6100df61024a565b005b3480156100ed57600080fd5b506100f6610303565b005b34801561010457600080fd5b5061011f600480360381019061011a9190610761565b61038b565b60405161012d9291906108e4565b60405180910390f35b610150600480360381019061014b91906107ce565b6103bc565b005b34801561015e57600080fd5b506101676103bf565b60405161017491906108c9565b60405180910390f35b34801561018957600080fd5b506101a4600480360381019061019f919061078e565b6103e8565b6040516101b2929190610988565b60405180910390f35b3480156101c757600080fd5b506101d0610429565b6040516101dd919061096d565b60405180910390f35b6101ee61042f565b005b3480156101fc57600080fd5b5061021760048036038101906102129190610761565b61044c565b005b34801561022557600080fd5b50610240600480360381019061023b9190610761565b61055d565b005b600047905090565b60003373ffffffffffffffffffffffffffffffffffffffff16600354604051610272906108b4565b60006040518083038185875af1925050503d80600081146102af576040519150601f19603f3d011682016040523d82523d6000602084013e6102b4565b606091505b50509050806102f8576040517f08c379a00000000000000000000000000000000000000000000000000000000081526004016102ef9061092d565b60405180910390fd5b600060038190555050565b61030b610655565b73ffffffffffffffffffffffffffffffffffffffff166103296103bf565b73ffffffffffffffffffffffffffffffffffffffff161461037f576040517f08c379a00000000000000000000000000000000000000000000000000000000081526004016103769061094d565b60405180910390fd5b610389600061065d565b565b60056020528060005260406000206000915090508060000160009054906101000a900460ff16908060010154905082565b50565b60008060009054906101000a900473ffffffffffffffffffffffffffffffffffffffff16905090565b6004602052816000526040600020818154811061040457600080fd5b9060005260206000209060020201600091509150508060000154908060010154905082565b60035481565b6104443460035461072190919063ffffffff16565b600381905550565b610454610655565b73ffffffffffffffffffffffffffffffffffffffff166104726103bf565b73ffffffffffffffffffffffffffffffffffffffff16146104c8576040517f08c379a00000000000000000000000000000000000000000000000000000000081526004016104bf9061094d565b60405180910390fd5b6001600560008373ffffffffffffffffffffffffffffffffffffffff1673ffffffffffffffffffffffffffffffffffffffff16815260200190815260200160002060000160006101000a81548160ff0219169083151502179055507fde78dc440795f86a4b3b4c91eeea485f4ad2daea326a97100ba45cb26cc9c3e48160405161055291906108c9565b60405180910390a150565b610565610655565b73ffffffffffffffffffffffffffffffffffffffff166105836103bf565b73ffffffffffffffffffffffffffffffffffffffff16146105d9576040517f08c379a00000000000000000000000000000000000000000000000000000000081526004016105d09061094d565b60405180910390fd5b600073ffffffffffffffffffffffffffffffffffffffff168173ffffffffffffffffffffffffffffffffffffffff161415610649576040517f08c379a00000000000000000000000000000000000000000000000000000000081526004016106409061090d565b60405180910390fd5b6106528161065d565b50565b600033905090565b60008060009054906101000a900473ffffffffffffffffffffffffffffffffffffffff169050816000806101000a81548173ffffffffffffffffffffffffffffffffffffffff021916908373ffffffffffffffffffffffffffffffffffffffff1602179055508173ffffffffffffffffffffffffffffffffffffffff168173ffffffffffffffffffffffffffffffffffffffff167f8be0079c531659141344cd1fd0a4f28419497f9722a3daafe3b4186f6b6457e060405160405180910390a35050565b6000818361072f91906109cd565b905092915050565b60008135905061074681610b43565b92915050565b60008135905061075b81610b5a565b92915050565b60006020828403121561077757610776610a9a565b5b600061078584828501610737565b91505092915050565b600080604083850312156107a5576107a4610a9a565b5b60006107b385828601610737565b92505060206107c48582860161074c565b9150509250929050565b6000602082840312156107e4576107e3610a9a565b5b60006107f28482850161074c565b91505092915050565b61080481610a23565b82525050565b61081381610a35565b82525050565b60006108266026836109bc565b915061083182610a9f565b604082019050919050565b60006108496018836109bc565b915061085482610aee565b602082019050919050565b600061086c6020836109bc565b915061087782610b17565b602082019050919050565b600061088f6000836109b1565b915061089a82610b40565b600082019050919050565b6108ae81610a61565b82525050565b60006108bf82610882565b9150819050919050565b60006020820190506108de60008301846107fb565b92915050565b60006040820190506108f9600083018561080a565b61090660208301846108a5565b9392505050565b6000602082019050818103600083015261092681610819565b9050919050565b600060208201905081810360008301526109468161083c565b9050919050565b600060208201905081810360008301526109668161085f565b9050919050565b600060208201905061098260008301846108a5565b92915050565b600060408201905061099d60008301856108a5565b6109aa60208301846108a5565b9392505050565b600081905092915050565b600082825260208201905092915050565b60006109d882610a61565b91506109e383610a61565b9250827fffffffffffffffffffffffffffffffffffffffffffffffffffffffffffffffff03821115610a1857610a17610a6b565b5b828201905092915050565b6000610a2e82610a41565b9050919050565b60008115159050919050565b600073ffffffffffffffffffffffffffffffffffffffff82169050919050565b6000819050919050565b7f4e487b7100000000000000000000000000000000000000000000000000000000600052601160045260246000fd5b600080fd5b7f4f776e61626c653a206e6577206f776e657220697320746865207a65726f206160008201527f6464726573730000000000000000000000000000000000000000000000000000602082015250565b7f4661696c656420746f2073656e6420746f205072657374610000000000000000600082015250565b7f4f776e61626c653a2063616c6c6572206973206e6f7420746865206f776e6572600082015250565b50565b610b4c81610a23565b8114610b5757600080fd5b50565b610b6381610a61565b8114610b6e57600080fd5b5056fea2646970667358221220671836d3a9b2e4784054d962d4e7dcdfe4152b8eb12261900011e3d9e37838db64736f6c63430008060033",
  "immutableReferences": {},
  "source": "// SPDX-License-Identifier: MIT\npragma solidity ^0.8.0;\n\nimport \"@openzeppelin/contracts/access/Ownable.sol\";\nimport \"@openzeppelin/contracts/token/ERC20/ERC20.sol\";\nimport \"@openzeppelin/contracts/utils/math/SafeMath.sol\";\n\ncontract MarketPlace is Ownable {\n\n  using SafeMath for uint;\n     \n    uint256 productPrice;\n    address recipient;\n\n    uint256 public totalBalance;\n\n    //constructor() ERC20(\"\", \"\") {}\n\n    struct Payment {\n        uint256 price;\n        uint256 productId;\n    }\n\n    struct Presta {\n      bool isAllowedToWithdraw;\n      uint256 amountToWithdraw;\n    }\n\n    mapping(address => Payment[]) public payments;\n    mapping(address => Presta) public prestataire;\n\n    event productBought(address From, uint256 Amount, uint256 productId);\n    event priceChange(address From, uint256 Price);\n    event hasDeposited(address from, uint amountDeposited);\n    event isAllowedToPull(address isAllowed);\n    event hasWithdrawn(address from, uint amountWithdrawn);\n\n    function deposit() external payable {\n         totalBalance = totalBalance.add(msg.value);\n    }\n\n   function buyProduct(uint256 productId) public payable {\n      /*  require(msg.value >= productPrice, \"You didn't send the correct amount\");\n        require(recipient != address(0), \"ERC1155: transfer to 0 address\");\n\n         Payment memory _payment = Payment(productPrice, productId);\n         payments[msg.sender].push(_payment);\n\n         //productPrice = productPrice.add(msg.value);\n\n         emit productBought(msg.sender, msg.value, productId); */\n    } \n\n    function allowPresta(address _address) external onlyOwner() {\n        prestataire[_address].isAllowedToWithdraw = true;\n        emit isAllowedToPull(_address);\n    }\n\n    function withdrawFunds() public payable {\n      //uint256 amountToClaim = prestataire[msg.sender].amountToWithdraw;\n       \n      //require(prestataire[msg.sender].isAllowedToWithdraw == true);\n\n      //prestataire[msg.sender].amountToWithdraw = 0;\n\n      (bool success, ) = msg.sender.call{value: totalBalance}(\"\");\n      require(success, \"Failed to send to Presta\");\n      \n      totalBalance = 0;\n    }\n\n    function getBalanceOfEth() public view returns(uint256) {\n      return address(this).balance;\n    }\n\n    receive() external payable{\n      \n    }\n}\n\n\n  /*\n\n   function setPrice(uint256 _productPrice) public onlyOwner() {\n         productPrice = _productPrice;\n         emit priceChange(msg.sender, _productPrice);\n    }\n\n    ///@notice we need to elaborate converter smart contract to deploy following\n     function sendToSwaper() external onlyOwner() {\n        require(address(this).balance >= 1 ether, \"Not gas efficient to send now\");\n           (bool sent, ) = swaperAddress.call{value: address(this).balance}(\"\");\n           require(sent, \"Failed to send Ether\");\n    }\n\n    function setVaultAddress(address _vaultAdd) external onlyOwner() {\n      VaultAddress = _vaultAdd;\n    } \n\n    function sendDaiToVault() external onlyOwner(){\n      require(amountOfDai >= minAmountDai, \"Not gas efficient to send now\");\n        (bool sent, ) = VaultAddress.call{value: amountOfDai}(\"\");\n        require(sent, \"Failed to send Dai\");\n    } */\n\n\n",
  "sourcePath": "/Users/kilianmongey/Desktop/HomePageDigiBox/DigiBox/contracts/MarketPlace.sol",
  "compiler": {
    "name": "solc",
    "version": "0.8.6+commit.11564f7e.Emscripten.clang"
  },
  "schemaVersion": "3.4.1",
  "updatedAt": "2021-07-25T09:10:54.418Z",
  "networkType": "ethereum",
  "devdoc": {
    "kind": "dev",
    "methods": {
      "owner()": {
        "details": "Returns the address of the current owner."
      },
      "renounceOwnership()": {
        "details": "Leaves the contract without owner. It will not be possible to call `onlyOwner` functions anymore. Can only be called by the current owner. NOTE: Renouncing ownership will leave the contract without an owner, thereby removing any functionality that is only available to the owner."
      },
      "transferOwnership(address)": {
        "details": "Transfers ownership of the contract to a new account (`newOwner`). Can only be called by the current owner."
      }
    },
    "version": 1
  },
  "userdoc": {
    "kind": "user",
    "methods": {},
    "version": 1
  }
}