{
  "contractName": "TokenERC721",
  "abi": [
    {
      "inputs": [],
      "stateMutability": "nonpayable",
      "type": "constructor"
    },
    {
      "anonymous": false,
      "inputs": [
        {
          "indexed": true,
          "internalType": "address",
          "name": "owner",
          "type": "address"
        },
        {
          "indexed": true,
          "internalType": "address",
          "name": "approved",
          "type": "address"
        },
        {
          "indexed": true,
          "internalType": "uint256",
          "name": "tokenId",
          "type": "uint256"
        }
      ],
      "name": "Approval",
      "type": "event"
    },
    {
      "anonymous": false,
      "inputs": [
        {
          "indexed": true,
          "internalType": "address",
          "name": "owner",
          "type": "address"
        },
        {
          "indexed": true,
          "internalType": "address",
          "name": "operator",
          "type": "address"
        },
        {
          "indexed": false,
          "internalType": "bool",
          "name": "approved",
          "type": "bool"
        }
      ],
      "name": "ApprovalForAll",
      "type": "event"
    },
    {
      "anonymous": false,
      "inputs": [
        {
          "indexed": true,
          "internalType": "address",
          "name": "from",
          "type": "address"
        },
        {
          "indexed": true,
          "internalType": "address",
          "name": "to",
          "type": "address"
        },
        {
          "indexed": true,
          "internalType": "uint256",
          "name": "tokenId",
          "type": "uint256"
        }
      ],
      "name": "Transfer",
      "type": "event"
    },
    {
      "inputs": [
        {
          "internalType": "address",
          "name": "to",
          "type": "address"
        },
        {
          "internalType": "uint256",
          "name": "tokenId",
          "type": "uint256"
        }
      ],
      "name": "approve",
      "outputs": [],
      "stateMutability": "nonpayable",
      "type": "function"
    },
    {
      "inputs": [
        {
          "internalType": "address",
          "name": "owner",
          "type": "address"
        }
      ],
      "name": "balanceOf",
      "outputs": [
        {
          "internalType": "uint256",
          "name": "",
          "type": "uint256"
        }
      ],
      "stateMutability": "view",
      "type": "function"
    },
    {
      "inputs": [
        {
          "internalType": "uint256",
          "name": "tokenId",
          "type": "uint256"
        }
      ],
      "name": "getApproved",
      "outputs": [
        {
          "internalType": "address",
          "name": "",
          "type": "address"
        }
      ],
      "stateMutability": "view",
      "type": "function"
    },
    {
      "inputs": [
        {
          "internalType": "address",
          "name": "owner",
          "type": "address"
        },
        {
          "internalType": "address",
          "name": "operator",
          "type": "address"
        }
      ],
      "name": "isApprovedForAll",
      "outputs": [
        {
          "internalType": "bool",
          "name": "",
          "type": "bool"
        }
      ],
      "stateMutability": "view",
      "type": "function"
    },
    {
      "inputs": [],
      "name": "name",
      "outputs": [
        {
          "internalType": "string",
          "name": "",
          "type": "string"
        }
      ],
      "stateMutability": "view",
      "type": "function"
    },
    {
      "inputs": [
        {
          "internalType": "uint256",
          "name": "tokenId",
          "type": "uint256"
        }
      ],
      "name": "ownerOf",
      "outputs": [
        {
          "internalType": "address",
          "name": "",
          "type": "address"
        }
      ],
      "stateMutability": "view",
      "type": "function"
    },
    {
      "inputs": [
        {
          "internalType": "address",
          "name": "from",
          "type": "address"
        },
        {
          "internalType": "address",
          "name": "to",
          "type": "address"
        },
        {
          "internalType": "uint256",
          "name": "tokenId",
          "type": "uint256"
        }
      ],
      "name": "safeTransferFrom",
      "outputs": [],
      "stateMutability": "nonpayable",
      "type": "function"
    },
    {
      "inputs": [
        {
          "internalType": "address",
          "name": "from",
          "type": "address"
        },
        {
          "internalType": "address",
          "name": "to",
          "type": "address"
        },
        {
          "internalType": "uint256",
          "name": "tokenId",
          "type": "uint256"
        },
        {
          "internalType": "bytes",
          "name": "_data",
          "type": "bytes"
        }
      ],
      "name": "safeTransferFrom",
      "outputs": [],
      "stateMutability": "nonpayable",
      "type": "function"
    },
    {
      "inputs": [
        {
          "internalType": "address",
          "name": "operator",
          "type": "address"
        },
        {
          "internalType": "bool",
          "name": "approved",
          "type": "bool"
        }
      ],
      "name": "setApprovalForAll",
      "outputs": [],
      "stateMutability": "nonpayable",
      "type": "function"
    },
    {
      "inputs": [
        {
          "internalType": "bytes4",
          "name": "interfaceId",
          "type": "bytes4"
        }
      ],
      "name": "supportsInterface",
      "outputs": [
        {
          "internalType": "bool",
          "name": "",
          "type": "bool"
        }
      ],
      "stateMutability": "view",
      "type": "function"
    },
    {
      "inputs": [],
      "name": "symbol",
      "outputs": [
        {
          "internalType": "string",
          "name": "",
          "type": "string"
        }
      ],
      "stateMutability": "view",
      "type": "function"
    },
    {
      "inputs": [
        {
          "internalType": "uint256",
          "name": "tokenId",
          "type": "uint256"
        }
      ],
      "name": "tokenURI",
      "outputs": [
        {
          "internalType": "string",
          "name": "",
          "type": "string"
        }
      ],
      "stateMutability": "view",
      "type": "function"
    },
    {
      "inputs": [
        {
          "internalType": "address",
          "name": "from",
          "type": "address"
        },
        {
          "internalType": "address",
          "name": "to",
          "type": "address"
        },
        {
          "internalType": "uint256",
          "name": "tokenId",
          "type": "uint256"
        }
      ],
      "name": "transferFrom",
      "outputs": [],
      "stateMutability": "nonpayable",
      "type": "function"
    },
    {
      "inputs": [
        {
          "internalType": "address",
          "name": "recipient",
          "type": "address"
        },
        {
          "internalType": "string",
          "name": "hash",
          "type": "string"
        },
        {
          "internalType": "string",
          "name": "metadata",
          "type": "string"
        }
      ],
      "name": "awardItem",
      "outputs": [
        {
          "internalType": "uint256",
          "name": "",
          "type": "uint256"
        }
      ],
      "stateMutability": "nonpayable",
      "type": "function"
    }
  ],
  "bytecode": "0x60806040523480156200001157600080fd5b506040518060400160405280600b81526020017f546f6b656e4552433732310000000000000000000000000000000000000000008152506040518060400160405280600381526020017f544b4e0000000000000000000000000000000000000000000000000000000000815250816000908051906020019062000096929190620000b8565b508060019080519060200190620000af929190620000b8565b505050620001cd565b828054620000c69062000168565b90600052602060002090601f016020900481019282620000ea576000855562000136565b82601f106200010557805160ff191683800117855562000136565b8280016001018555821562000136579182015b828111156200013557825182559160200191906001019062000118565b5b50905062000145919062000149565b5090565b5b80821115620001645760008160009055506001016200014a565b5090565b600060028204905060018216806200018157607f821691505b602082108114156200019857620001976200019e565b5b50919050565b7f4e487b7100000000000000000000000000000000000000000000000000000000600052602260045260246000fd5b612cc480620001dd6000396000f3fe608060405234801561001057600080fd5b50600436106100ea5760003560e01c806370a082311161008c578063a22cb46511610066578063a22cb4651461026f578063b88d4fde1461028b578063c87b56dd146102a7578063e985e9c5146102d7576100ea565b806370a08231146101f15780638bfaf1011461022157806395d89b4114610251576100ea565b8063095ea7b3116100c8578063095ea7b31461016d57806323b872dd1461018957806342842e0e146101a55780636352211e146101c1576100ea565b806301ffc9a7146100ef57806306fdde031461011f578063081812fc1461013d575b600080fd5b61010960048036038101906101049190611d0b565b610307565b6040516101169190612134565b60405180910390f35b6101276103e9565b604051610134919061214f565b60405180910390f35b61015760048036038101906101529190611d65565b61047b565b60405161016491906120cd565b60405180910390f35b61018760048036038101906101829190611ccb565b610500565b005b6101a3600480360381019061019e9190611b2a565b610618565b005b6101bf60048036038101906101ba9190611b2a565b610678565b005b6101db60048036038101906101d69190611d65565b610698565b6040516101e891906120cd565b60405180910390f35b61020b60048036038101906102069190611abd565b61074a565b6040516102189190612371565b60405180910390f35b61023b60048036038101906102369190611c40565b610802565b6040516102489190612371565b60405180910390f35b610259610915565b604051610266919061214f565b60405180910390f35b61028960048036038101906102849190611c00565b6109a7565b005b6102a560048036038101906102a09190611b7d565b610b28565b005b6102c160048036038101906102bc9190611d65565b610b8a565b6040516102ce919061214f565b60405180910390f35b6102f160048036038101906102ec9190611aea565b610cdc565b6040516102fe9190612134565b60405180910390f35b60007f80ac58cd000000000000000000000000000000000000000000000000000000007bffffffffffffffffffffffffffffffffffffffffffffffffffffffff1916827bffffffffffffffffffffffffffffffffffffffffffffffffffffffff191614806103d257507f5b5e139f000000000000000000000000000000000000000000000000000000007bffffffffffffffffffffffffffffffffffffffffffffffffffffffff1916827bffffffffffffffffffffffffffffffffffffffffffffffffffffffff1916145b806103e257506103e182610d70565b5b9050919050565b6060600080546103f8906125c7565b80601f0160208091040260200160405190810160405280929190818152602001828054610424906125c7565b80156104715780601f1061044657610100808354040283529160200191610471565b820191906000526020600020905b81548152906001019060200180831161045457829003601f168201915b5050505050905090565b600061048682610dda565b6104c5576040517f08c379a00000000000000000000000000000000000000000000000000000000081526004016104bc906122d1565b60405180910390fd5b6004600083815260200190815260200160002060009054906101000a900473ffffffffffffffffffffffffffffffffffffffff169050919050565b600061050b82610698565b90508073ffffffffffffffffffffffffffffffffffffffff168373ffffffffffffffffffffffffffffffffffffffff16141561057c576040517f08c379a000000000000000000000000000000000000000000000000000000000815260040161057390612331565b60405180910390fd5b8073ffffffffffffffffffffffffffffffffffffffff1661059b610e46565b73ffffffffffffffffffffffffffffffffffffffff1614806105ca57506105c9816105c4610e46565b610cdc565b5b610609576040517f08c379a000000000000000000000000000000000000000000000000000000000815260040161060090612211565b60405180910390fd5b6106138383610e4e565b505050565b610629610623610e46565b82610f07565b610668576040517f08c379a000000000000000000000000000000000000000000000000000000000815260040161065f90612351565b60405180910390fd5b610673838383610fe5565b505050565b61069383838360405180602001604052806000815250610b28565b505050565b6000806002600084815260200190815260200160002060009054906101000a900473ffffffffffffffffffffffffffffffffffffffff169050600073ffffffffffffffffffffffffffffffffffffffff168173ffffffffffffffffffffffffffffffffffffffff161415610741576040517f08c379a000000000000000000000000000000000000000000000000000000000815260040161073890612251565b60405180910390fd5b80915050919050565b60008073ffffffffffffffffffffffffffffffffffffffff168273ffffffffffffffffffffffffffffffffffffffff1614156107bb576040517f08c379a00000000000000000000000000000000000000000000000000000000081526004016107b290612231565b60405180910390fd5b600360008373ffffffffffffffffffffffffffffffffffffffff1673ffffffffffffffffffffffffffffffffffffffff168152602001908152602001600020549050919050565b600060016008846040516108169190612092565b908152602001604051809103902060009054906101000a900460ff1660ff16141561084057600080fd5b60016008846040516108529190612092565b908152602001604051809103902060006101000a81548160ff021916908360ff1602179055506108826007611241565b600061088e6007611257565b905061089a8582611265565b600960008673ffffffffffffffffffffffffffffffffffffffff1673ffffffffffffffffffffffffffffffffffffffff16815260200190815260200160002081908060018154018082558091505060019003906000526020600020016000909190919091505561090a8184611433565b809150509392505050565b606060018054610924906125c7565b80601f0160208091040260200160405190810160405280929190818152602001828054610950906125c7565b801561099d5780601f106109725761010080835404028352916020019161099d565b820191906000526020600020905b81548152906001019060200180831161098057829003601f168201915b5050505050905090565b6109af610e46565b73ffffffffffffffffffffffffffffffffffffffff168273ffffffffffffffffffffffffffffffffffffffff161415610a1d576040517f08c379a0000000000000000000000000000000000000000000000000000000008152600401610a14906121d1565b60405180910390fd5b8060056000610a2a610e46565b73ffffffffffffffffffffffffffffffffffffffff1673ffffffffffffffffffffffffffffffffffffffff16815260200190815260200160002060008473ffffffffffffffffffffffffffffffffffffffff1673ffffffffffffffffffffffffffffffffffffffff16815260200190815260200160002060006101000a81548160ff0219169083151502179055508173ffffffffffffffffffffffffffffffffffffffff16610ad7610e46565b73ffffffffffffffffffffffffffffffffffffffff167f17307eab39ab6107e8899845ad3d59bd9653f200f220920489ca2b5937696c3183604051610b1c9190612134565b60405180910390a35050565b610b39610b33610e46565b83610f07565b610b78576040517f08c379a0000000000000000000000000000000000000000000000000000000008152600401610b6f90612351565b60405180910390fd5b610b84848484846114a7565b50505050565b6060610b9582610dda565b610bd4576040517f08c379a0000000000000000000000000000000000000000000000000000000008152600401610bcb906122b1565b60405180910390fd5b6000600660008481526020019081526020016000208054610bf4906125c7565b80601f0160208091040260200160405190810160405280929190818152602001828054610c20906125c7565b8015610c6d5780601f10610c4257610100808354040283529160200191610c6d565b820191906000526020600020905b815481529060010190602001808311610c5057829003601f168201915b505050505090506000610c7e611503565b9050600081511415610c94578192505050610cd7565b600082511115610cc9578082604051602001610cb19291906120a9565b60405160208183030381529060405292505050610cd7565b610cd28461151a565b925050505b919050565b6000600560008473ffffffffffffffffffffffffffffffffffffffff1673ffffffffffffffffffffffffffffffffffffffff16815260200190815260200160002060008373ffffffffffffffffffffffffffffffffffffffff1673ffffffffffffffffffffffffffffffffffffffff16815260200190815260200160002060009054906101000a900460ff16905092915050565b60007f01ffc9a7000000000000000000000000000000000000000000000000000000007bffffffffffffffffffffffffffffffffffffffffffffffffffffffff1916827bffffffffffffffffffffffffffffffffffffffffffffffffffffffff1916149050919050565b60008073ffffffffffffffffffffffffffffffffffffffff166002600084815260200190815260200160002060009054906101000a900473ffffffffffffffffffffffffffffffffffffffff1673ffffffffffffffffffffffffffffffffffffffff1614159050919050565b600033905090565b816004600083815260200190815260200160002060006101000a81548173ffffffffffffffffffffffffffffffffffffffff021916908373ffffffffffffffffffffffffffffffffffffffff160217905550808273ffffffffffffffffffffffffffffffffffffffff16610ec183610698565b73ffffffffffffffffffffffffffffffffffffffff167f8c5be1e5ebec7d5bd14f71427d1e84f3dd0314c0f7b2291e5b200ac8c7c3b92560405160405180910390a45050565b6000610f1282610dda565b610f51576040517f08c379a0000000000000000000000000000000000000000000000000000000008152600401610f48906121f1565b60405180910390fd5b6000610f5c83610698565b90508073ffffffffffffffffffffffffffffffffffffffff168473ffffffffffffffffffffffffffffffffffffffff161480610fcb57508373ffffffffffffffffffffffffffffffffffffffff16610fb38461047b565b73ffffffffffffffffffffffffffffffffffffffff16145b80610fdc5750610fdb8185610cdc565b5b91505092915050565b8273ffffffffffffffffffffffffffffffffffffffff1661100582610698565b73ffffffffffffffffffffffffffffffffffffffff161461105b576040517f08c379a0000000000000000000000000000000000000000000000000000000008152600401611052906122f1565b60405180910390fd5b600073ffffffffffffffffffffffffffffffffffffffff168273ffffffffffffffffffffffffffffffffffffffff1614156110cb576040517f08c379a00000000000000000000000000000000000000000000000000000000081526004016110c2906121b1565b60405180910390fd5b6110d68383836115c1565b6110e1600082610e4e565b6001600360008573ffffffffffffffffffffffffffffffffffffffff1673ffffffffffffffffffffffffffffffffffffffff168152602001908152602001600020600082825461113191906124dd565b925050819055506001600360008473ffffffffffffffffffffffffffffffffffffffff1673ffffffffffffffffffffffffffffffffffffffff16815260200190815260200160002060008282546111889190612456565b92505081905550816002600083815260200190815260200160002060006101000a81548173ffffffffffffffffffffffffffffffffffffffff021916908373ffffffffffffffffffffffffffffffffffffffff160217905550808273ffffffffffffffffffffffffffffffffffffffff168473ffffffffffffffffffffffffffffffffffffffff167fddf252ad1be2c89b69c2b068fc378daa952ba7f163c4a11628f55a4df523b3ef60405160405180910390a4505050565b6001816000016000828254019250508190555050565b600081600001549050919050565b600073ffffffffffffffffffffffffffffffffffffffff168273ffffffffffffffffffffffffffffffffffffffff1614156112d5576040517f08c379a00000000000000000000000000000000000000000000000000000000081526004016112cc90612291565b60405180910390fd5b6112de81610dda565b1561131e576040517f08c379a000000000000000000000000000000000000000000000000000000000815260040161131590612191565b60405180910390fd5b61132a600083836115c1565b6001600360008473ffffffffffffffffffffffffffffffffffffffff1673ffffffffffffffffffffffffffffffffffffffff168152602001908152602001600020600082825461137a9190612456565b92505081905550816002600083815260200190815260200160002060006101000a81548173ffffffffffffffffffffffffffffffffffffffff021916908373ffffffffffffffffffffffffffffffffffffffff160217905550808273ffffffffffffffffffffffffffffffffffffffff16600073ffffffffffffffffffffffffffffffffffffffff167fddf252ad1be2c89b69c2b068fc378daa952ba7f163c4a11628f55a4df523b3ef60405160405180910390a45050565b61143c82610dda565b61147b576040517f08c379a000000000000000000000000000000000000000000000000000000000815260040161147290612271565b60405180910390fd5b806006600084815260200190815260200160002090805190602001906114a29291906118d1565b505050565b6114b2848484610fe5565b6114be848484846115c6565b6114fd576040517f08c379a00000000000000000000000000000000000000000000000000000000081526004016114f490612171565b60405180910390fd5b50505050565b606060405180602001604052806000815250905090565b606061152582610dda565b611564576040517f08c379a000000000000000000000000000000000000000000000000000000000815260040161155b90612311565b60405180910390fd5b600061156e611503565b9050600081511161158e57604051806020016040528060008152506115b9565b806115988461175d565b6040516020016115a99291906120a9565b6040516020818303038152906040525b915050919050565b505050565b60006115e78473ffffffffffffffffffffffffffffffffffffffff166118be565b15611750578373ffffffffffffffffffffffffffffffffffffffff1663150b7a02611610610e46565b8786866040518563ffffffff1660e01b815260040161163294939291906120e8565b602060405180830381600087803b15801561164c57600080fd5b505af192505050801561167d57506040513d601f19601f8201168201806040525081019061167a9190611d38565b60015b611700573d80600081146116ad576040519150601f19603f3d011682016040523d82523d6000602084013e6116b2565b606091505b506000815114156116f8576040517f08c379a00000000000000000000000000000000000000000000000000000000081526004016116ef90612171565b60405180910390fd5b805181602001fd5b63150b7a0260e01b7bffffffffffffffffffffffffffffffffffffffffffffffffffffffff1916817bffffffffffffffffffffffffffffffffffffffffffffffffffffffff191614915050611755565b600190505b949350505050565b606060008214156117a5576040518060400160405280600181526020017f300000000000000000000000000000000000000000000000000000000000000081525090506118b9565b600082905060005b600082146117d75780806117c09061262a565b915050600a826117d091906124ac565b91506117ad565b60008167ffffffffffffffff8111156117f3576117f2612760565b5b6040519080825280601f01601f1916602001820160405280156118255781602001600182028036833780820191505090505b5090505b600085146118b25760018261183e91906124dd565b9150600a8561184d9190612673565b60306118599190612456565b60f81b81838151811061186f5761186e612731565b5b60200101907effffffffffffffffffffffffffffffffffffffffffffffffffffffffffffff1916908160001a905350600a856118ab91906124ac565b9450611829565b8093505050505b919050565b600080823b905060008111915050919050565b8280546118dd906125c7565b90600052602060002090601f0160209004810192826118ff5760008555611946565b82601f1061191857805160ff1916838001178555611946565b82800160010185558215611946579182015b8281111561194557825182559160200191906001019061192a565b5b5090506119539190611957565b5090565b5b80821115611970576000816000905550600101611958565b5090565b6000611987611982846123b1565b61238c565b9050828152602081018484840111156119a3576119a2612794565b5b6119ae848285612585565b509392505050565b60006119c96119c4846123e2565b61238c565b9050828152602081018484840111156119e5576119e4612794565b5b6119f0848285612585565b509392505050565b600081359050611a0781612c32565b92915050565b600081359050611a1c81612c49565b92915050565b600081359050611a3181612c60565b92915050565b600081519050611a4681612c60565b92915050565b600082601f830112611a6157611a6061278f565b5b8135611a71848260208601611974565b91505092915050565b600082601f830112611a8f57611a8e61278f565b5b8135611a9f8482602086016119b6565b91505092915050565b600081359050611ab781612c77565b92915050565b600060208284031215611ad357611ad261279e565b5b6000611ae1848285016119f8565b91505092915050565b60008060408385031215611b0157611b0061279e565b5b6000611b0f858286016119f8565b9250506020611b20858286016119f8565b9150509250929050565b600080600060608486031215611b4357611b4261279e565b5b6000611b51868287016119f8565b9350506020611b62868287016119f8565b9250506040611b7386828701611aa8565b9150509250925092565b60008060008060808587031215611b9757611b9661279e565b5b6000611ba5878288016119f8565b9450506020611bb6878288016119f8565b9350506040611bc787828801611aa8565b925050606085013567ffffffffffffffff811115611be857611be7612799565b5b611bf487828801611a4c565b91505092959194509250565b60008060408385031215611c1757611c1661279e565b5b6000611c25858286016119f8565b9250506020611c3685828601611a0d565b9150509250929050565b600080600060608486031215611c5957611c5861279e565b5b6000611c67868287016119f8565b935050602084013567ffffffffffffffff811115611c8857611c87612799565b5b611c9486828701611a7a565b925050604084013567ffffffffffffffff811115611cb557611cb4612799565b5b611cc186828701611a7a565b9150509250925092565b60008060408385031215611ce257611ce161279e565b5b6000611cf0858286016119f8565b9250506020611d0185828601611aa8565b9150509250929050565b600060208284031215611d2157611d2061279e565b5b6000611d2f84828501611a22565b91505092915050565b600060208284031215611d4e57611d4d61279e565b5b6000611d5c84828501611a37565b91505092915050565b600060208284031215611d7b57611d7a61279e565b5b6000611d8984828501611aa8565b91505092915050565b611d9b81612511565b82525050565b611daa81612523565b82525050565b6000611dbb82612413565b611dc58185612429565b9350611dd5818560208601612594565b611dde816127a3565b840191505092915050565b6000611df48261241e565b611dfe818561243a565b9350611e0e818560208601612594565b611e17816127a3565b840191505092915050565b6000611e2d8261241e565b611e37818561244b565b9350611e47818560208601612594565b80840191505092915050565b6000611e6060328361243a565b9150611e6b826127b4565b604082019050919050565b6000611e83601c8361243a565b9150611e8e82612803565b602082019050919050565b6000611ea660248361243a565b9150611eb18261282c565b604082019050919050565b6000611ec960198361243a565b9150611ed48261287b565b602082019050919050565b6000611eec602c8361243a565b9150611ef7826128a4565b604082019050919050565b6000611f0f60388361243a565b9150611f1a826128f3565b604082019050919050565b6000611f32602a8361243a565b9150611f3d82612942565b604082019050919050565b6000611f5560298361243a565b9150611f6082612991565b604082019050919050565b6000611f78602e8361243a565b9150611f83826129e0565b604082019050919050565b6000611f9b60208361243a565b9150611fa682612a2f565b602082019050919050565b6000611fbe60318361243a565b9150611fc982612a58565b604082019050919050565b6000611fe1602c8361243a565b9150611fec82612aa7565b604082019050919050565b600061200460298361243a565b915061200f82612af6565b604082019050919050565b6000612027602f8361243a565b915061203282612b45565b604082019050919050565b600061204a60218361243a565b915061205582612b94565b604082019050919050565b600061206d60318361243a565b915061207882612be3565b604082019050919050565b61208c8161257b565b82525050565b600061209e8284611e22565b915081905092915050565b60006120b58285611e22565b91506120c18284611e22565b91508190509392505050565b60006020820190506120e26000830184611d92565b92915050565b60006080820190506120fd6000830187611d92565b61210a6020830186611d92565b6121176040830185612083565b81810360608301526121298184611db0565b905095945050505050565b60006020820190506121496000830184611da1565b92915050565b600060208201905081810360008301526121698184611de9565b905092915050565b6000602082019050818103600083015261218a81611e53565b9050919050565b600060208201905081810360008301526121aa81611e76565b9050919050565b600060208201905081810360008301526121ca81611e99565b9050919050565b600060208201905081810360008301526121ea81611ebc565b9050919050565b6000602082019050818103600083015261220a81611edf565b9050919050565b6000602082019050818103600083015261222a81611f02565b9050919050565b6000602082019050818103600083015261224a81611f25565b9050919050565b6000602082019050818103600083015261226a81611f48565b9050919050565b6000602082019050818103600083015261228a81611f6b565b9050919050565b600060208201905081810360008301526122aa81611f8e565b9050919050565b600060208201905081810360008301526122ca81611fb1565b9050919050565b600060208201905081810360008301526122ea81611fd4565b9050919050565b6000602082019050818103600083015261230a81611ff7565b9050919050565b6000602082019050818103600083015261232a8161201a565b9050919050565b6000602082019050818103600083015261234a8161203d565b9050919050565b6000602082019050818103600083015261236a81612060565b9050919050565b60006020820190506123866000830184612083565b92915050565b60006123966123a7565b90506123a282826125f9565b919050565b6000604051905090565b600067ffffffffffffffff8211156123cc576123cb612760565b5b6123d5826127a3565b9050602081019050919050565b600067ffffffffffffffff8211156123fd576123fc612760565b5b612406826127a3565b9050602081019050919050565b600081519050919050565b600081519050919050565b600082825260208201905092915050565b600082825260208201905092915050565b600081905092915050565b60006124618261257b565b915061246c8361257b565b9250827fffffffffffffffffffffffffffffffffffffffffffffffffffffffffffffffff038211156124a1576124a06126a4565b5b828201905092915050565b60006124b78261257b565b91506124c28361257b565b9250826124d2576124d16126d3565b5b828204905092915050565b60006124e88261257b565b91506124f38361257b565b925082821015612506576125056126a4565b5b828203905092915050565b600061251c8261255b565b9050919050565b60008115159050919050565b60007fffffffff0000000000000000000000000000000000000000000000000000000082169050919050565b600073ffffffffffffffffffffffffffffffffffffffff82169050919050565b6000819050919050565b82818337600083830152505050565b60005b838110156125b2578082015181840152602081019050612597565b838111156125c1576000848401525b50505050565b600060028204905060018216806125df57607f821691505b602082108114156125f3576125f2612702565b5b50919050565b612602826127a3565b810181811067ffffffffffffffff8211171561262157612620612760565b5b80604052505050565b60006126358261257b565b91507fffffffffffffffffffffffffffffffffffffffffffffffffffffffffffffffff821415612668576126676126a4565b5b600182019050919050565b600061267e8261257b565b91506126898361257b565b925082612699576126986126d3565b5b828206905092915050565b7f4e487b7100000000000000000000000000000000000000000000000000000000600052601160045260246000fd5b7f4e487b7100000000000000000000000000000000000000000000000000000000600052601260045260246000fd5b7f4e487b7100000000000000000000000000000000000000000000000000000000600052602260045260246000fd5b7f4e487b7100000000000000000000000000000000000000000000000000000000600052603260045260246000fd5b7f4e487b7100000000000000000000000000000000000000000000000000000000600052604160045260246000fd5b600080fd5b600080fd5b600080fd5b600080fd5b6000601f19601f8301169050919050565b7f4552433732313a207472616e7366657220746f206e6f6e20455243373231526560008201527f63656976657220696d706c656d656e7465720000000000000000000000000000602082015250565b7f4552433732313a20746f6b656e20616c7265616479206d696e74656400000000600082015250565b7f4552433732313a207472616e7366657220746f20746865207a65726f2061646460008201527f7265737300000000000000000000000000000000000000000000000000000000602082015250565b7f4552433732313a20617070726f766520746f2063616c6c657200000000000000600082015250565b7f4552433732313a206f70657261746f7220717565727920666f72206e6f6e657860008201527f697374656e7420746f6b656e0000000000000000000000000000000000000000602082015250565b7f4552433732313a20617070726f76652063616c6c6572206973206e6f74206f7760008201527f6e6572206e6f7220617070726f76656420666f7220616c6c0000000000000000602082015250565b7f4552433732313a2062616c616e636520717565727920666f7220746865207a6560008201527f726f206164647265737300000000000000000000000000000000000000000000602082015250565b7f4552433732313a206f776e657220717565727920666f72206e6f6e657869737460008201527f656e7420746f6b656e0000000000000000000000000000000000000000000000602082015250565b7f45524337323155524953746f726167653a2055524920736574206f66206e6f6e60008201527f6578697374656e7420746f6b656e000000000000000000000000000000000000602082015250565b7f4552433732313a206d696e7420746f20746865207a65726f2061646472657373600082015250565b7f45524337323155524953746f726167653a2055524920717565727920666f722060008201527f6e6f6e6578697374656e7420746f6b656e000000000000000000000000000000602082015250565b7f4552433732313a20617070726f76656420717565727920666f72206e6f6e657860008201527f697374656e7420746f6b656e0000000000000000000000000000000000000000602082015250565b7f4552433732313a207472616e73666572206f6620746f6b656e2074686174206960008201527f73206e6f74206f776e0000000000000000000000000000000000000000000000602082015250565b7f4552433732314d657461646174613a2055524920717565727920666f72206e6f60008201527f6e6578697374656e7420746f6b656e0000000000000000000000000000000000602082015250565b7f4552433732313a20617070726f76616c20746f2063757272656e74206f776e6560008201527f7200000000000000000000000000000000000000000000000000000000000000602082015250565b7f4552433732313a207472616e736665722063616c6c6572206973206e6f74206f60008201527f776e6572206e6f7220617070726f766564000000000000000000000000000000602082015250565b612c3b81612511565b8114612c4657600080fd5b50565b612c5281612523565b8114612c5d57600080fd5b50565b612c698161252f565b8114612c7457600080fd5b50565b612c808161257b565b8114612c8b57600080fd5b5056fea2646970667358221220a29c922b1418751ec824a21ab2c72c6024358f8abbcc0630d43a3be716c98e6064736f6c63430008060033",
  "immutableReferences": {},
  "source": "// SPDX-License-Identifier: MIT\npragma solidity ^0.8.0;\n\nimport \"@openzeppelin/contracts/token/ERC721/extensions/ERC721URIStorage.sol\";\nimport \"@openzeppelin/contracts/utils/Counters.sol\";\n\ncontract TokenERC721 is ERC721URIStorage {\n\n  using Counters for Counters.Counter;\n  Counters.Counter private _tokenIds;\n\n  mapping(string => uint8) hashes;\n  mapping (address => uint256[]) internal ownedTokens;\n  \n  constructor() ERC721(\"TokenERC721\", \"TKN\") {}\n\n  function awardItem(address recipient, string memory hash, string memory metadata) public returns (uint256)\n  {\n    require(hashes[hash] != 1);\n    hashes[hash] = 1;\n\n    _tokenIds.increment();\n    uint256 newItemId = _tokenIds.current();\n  \n    _mint(recipient, newItemId);\n    ownedTokens[recipient].push(newItemId);\n    _setTokenURI(newItemId, metadata);\n    \n    return newItemId;\n  }\n}\n\n/*import \"@openzeppelin/contracts/token/ERC1155/ERC1155.sol\";\n\ncontract TokenERC1155  is ERC1155 {\n\n  constructor() ERC1155(\"https://gateway.pinata.cloud/ipfs/{id}\") {\n  }\n\n  function mintNft(uint256 id) public{\n    require(balanceOf(msg.sender, id) == 0, \"This id is already in use\");\n    _mint(msg.sender, id, 1, \"0x000\");\n  }\n} */\n",
  "sourcePath": "/Users/nicolas/Desktop/client/contracts/ERC721.sol",
  "compiler": {
    "name": "solc",
    "version": "0.8.6+commit.11564f7e.Emscripten.clang"
  },
  "schemaVersion": "3.4.1",
  "updatedAt": "2021-07-26T21:01:31.031Z",
  "devdoc": {
    "kind": "dev",
    "methods": {
      "approve(address,uint256)": {
        "details": "See {IERC721-approve}."
      },
      "balanceOf(address)": {
        "details": "See {IERC721-balanceOf}."
      },
      "getApproved(uint256)": {
        "details": "See {IERC721-getApproved}."
      },
      "isApprovedForAll(address,address)": {
        "details": "See {IERC721-isApprovedForAll}."
      },
      "name()": {
        "details": "See {IERC721Metadata-name}."
      },
      "ownerOf(uint256)": {
        "details": "See {IERC721-ownerOf}."
      },
      "safeTransferFrom(address,address,uint256)": {
        "details": "See {IERC721-safeTransferFrom}."
      },
      "safeTransferFrom(address,address,uint256,bytes)": {
        "details": "See {IERC721-safeTransferFrom}."
      },
      "setApprovalForAll(address,bool)": {
        "details": "See {IERC721-setApprovalForAll}."
      },
      "supportsInterface(bytes4)": {
        "details": "See {IERC165-supportsInterface}."
      },
      "symbol()": {
        "details": "See {IERC721Metadata-symbol}."
      },
      "tokenURI(uint256)": {
        "details": "See {IERC721Metadata-tokenURI}."
      },
      "transferFrom(address,address,uint256)": {
        "details": "See {IERC721-transferFrom}."
      }
    },
    "version": 1
  },
  "userdoc": {
    "kind": "user",
    "methods": {},
    "version": 1
  }
}