{
  "contractName": "TokenERC1155",
  "abi": [
    {
      "inputs": [],
      "stateMutability": "nonpayable",
      "type": "constructor"
    },
    {
      "anonymous": false,
      "inputs": [
        {
          "indexed": true,
          "internalType": "address",
          "name": "account",
          "type": "address"
        },
        {
          "indexed": true,
          "internalType": "address",
          "name": "operator",
          "type": "address"
        },
        {
          "indexed": false,
          "internalType": "bool",
          "name": "approved",
          "type": "bool"
        }
      ],
      "name": "ApprovalForAll",
      "type": "event"
    },
    {
      "anonymous": false,
      "inputs": [
        {
          "indexed": true,
          "internalType": "address",
          "name": "operator",
          "type": "address"
        },
        {
          "indexed": true,
          "internalType": "address",
          "name": "from",
          "type": "address"
        },
        {
          "indexed": true,
          "internalType": "address",
          "name": "to",
          "type": "address"
        },
        {
          "indexed": false,
          "internalType": "uint256[]",
          "name": "ids",
          "type": "uint256[]"
        },
        {
          "indexed": false,
          "internalType": "uint256[]",
          "name": "values",
          "type": "uint256[]"
        }
      ],
      "name": "TransferBatch",
      "type": "event"
    },
    {
      "anonymous": false,
      "inputs": [
        {
          "indexed": true,
          "internalType": "address",
          "name": "operator",
          "type": "address"
        },
        {
          "indexed": true,
          "internalType": "address",
          "name": "from",
          "type": "address"
        },
        {
          "indexed": true,
          "internalType": "address",
          "name": "to",
          "type": "address"
        },
        {
          "indexed": false,
          "internalType": "uint256",
          "name": "id",
          "type": "uint256"
        },
        {
          "indexed": false,
          "internalType": "uint256",
          "name": "value",
          "type": "uint256"
        }
      ],
      "name": "TransferSingle",
      "type": "event"
    },
    {
      "anonymous": false,
      "inputs": [
        {
          "indexed": false,
          "internalType": "string",
          "name": "value",
          "type": "string"
        },
        {
          "indexed": true,
          "internalType": "uint256",
          "name": "id",
          "type": "uint256"
        }
      ],
      "name": "URI",
      "type": "event"
    },
    {
      "inputs": [
        {
          "internalType": "address",
          "name": "account",
          "type": "address"
        },
        {
          "internalType": "uint256",
          "name": "id",
          "type": "uint256"
        }
      ],
      "name": "balanceOf",
      "outputs": [
        {
          "internalType": "uint256",
          "name": "",
          "type": "uint256"
        }
      ],
      "stateMutability": "view",
      "type": "function",
      "constant": true
    },
    {
      "inputs": [
        {
          "internalType": "address[]",
          "name": "accounts",
          "type": "address[]"
        },
        {
          "internalType": "uint256[]",
          "name": "ids",
          "type": "uint256[]"
        }
      ],
      "name": "balanceOfBatch",
      "outputs": [
        {
          "internalType": "uint256[]",
          "name": "",
          "type": "uint256[]"
        }
      ],
      "stateMutability": "view",
      "type": "function",
      "constant": true
    },
    {
      "inputs": [
        {
          "internalType": "address",
          "name": "account",
          "type": "address"
        },
        {
          "internalType": "address",
          "name": "operator",
          "type": "address"
        }
      ],
      "name": "isApprovedForAll",
      "outputs": [
        {
          "internalType": "bool",
          "name": "",
          "type": "bool"
        }
      ],
      "stateMutability": "view",
      "type": "function",
      "constant": true
    },
    {
      "inputs": [
        {
          "internalType": "address",
          "name": "from",
          "type": "address"
        },
        {
          "internalType": "address",
          "name": "to",
          "type": "address"
        },
        {
          "internalType": "uint256[]",
          "name": "ids",
          "type": "uint256[]"
        },
        {
          "internalType": "uint256[]",
          "name": "amounts",
          "type": "uint256[]"
        },
        {
          "internalType": "bytes",
          "name": "data",
          "type": "bytes"
        }
      ],
      "name": "safeBatchTransferFrom",
      "outputs": [],
      "stateMutability": "nonpayable",
      "type": "function"
    },
    {
      "inputs": [
        {
          "internalType": "address",
          "name": "from",
          "type": "address"
        },
        {
          "internalType": "address",
          "name": "to",
          "type": "address"
        },
        {
          "internalType": "uint256",
          "name": "id",
          "type": "uint256"
        },
        {
          "internalType": "uint256",
          "name": "amount",
          "type": "uint256"
        },
        {
          "internalType": "bytes",
          "name": "data",
          "type": "bytes"
        }
      ],
      "name": "safeTransferFrom",
      "outputs": [],
      "stateMutability": "nonpayable",
      "type": "function"
    },
    {
      "inputs": [
        {
          "internalType": "address",
          "name": "operator",
          "type": "address"
        },
        {
          "internalType": "bool",
          "name": "approved",
          "type": "bool"
        }
      ],
      "name": "setApprovalForAll",
      "outputs": [],
      "stateMutability": "nonpayable",
      "type": "function"
    },
    {
      "inputs": [
        {
          "internalType": "bytes4",
          "name": "interfaceId",
          "type": "bytes4"
        }
      ],
      "name": "supportsInterface",
      "outputs": [
        {
          "internalType": "bool",
          "name": "",
          "type": "bool"
        }
      ],
      "stateMutability": "view",
      "type": "function",
      "constant": true
    },
    {
      "inputs": [
        {
          "internalType": "uint256",
          "name": "",
          "type": "uint256"
        }
      ],
      "name": "uri",
      "outputs": [
        {
          "internalType": "string",
          "name": "",
          "type": "string"
        }
      ],
      "stateMutability": "view",
      "type": "function",
      "constant": true
    },
    {
      "inputs": [
        {
          "internalType": "uint256",
          "name": "id",
          "type": "uint256"
        }
      ],
      "name": "mintNft",
      "outputs": [],
      "stateMutability": "nonpayable",
      "type": "function"
    }
  ],
  "bytecode": "0x60806040523480156200001157600080fd5b5060405180606001604052806026815260200162002a7d602691396200003d816200004460201b60201c565b5062000175565b80600290805190602001906200005c92919062000060565b5050565b8280546200006e9062000110565b90600052602060002090601f016020900481019282620000925760008555620000de565b82601f10620000ad57805160ff1916838001178555620000de565b82800160010185558215620000de579182015b82811115620000dd578251825591602001919060010190620000c0565b5b509050620000ed9190620000f1565b5090565b5b808211156200010c576000816000905550600101620000f2565b5090565b600060028204905060018216806200012957607f821691505b6020821081141562000140576200013f62000146565b5b50919050565b7f4e487b7100000000000000000000000000000000000000000000000000000000600052602260045260246000fd5b6128f880620001856000396000f3fe608060405234801561001057600080fd5b50600436106100925760003560e01c80632eb2c2d6116100665780632eb2c2d6146101435780634e1273f41461015f578063a22cb4651461018f578063e985e9c5146101ab578063f242432a146101db57610092565b8062fdd58e1461009757806301ffc9a7146100c75780630d730acc146100f75780630e89341c14610113575b600080fd5b6100b160048036038101906100ac9190611933565b6101f7565b6040516100be9190612012565b60405180910390f35b6100e160048036038101906100dc91906119eb565b6102c0565b6040516100ee9190611e55565b60405180910390f35b610111600480360381019061010c9190611a45565b6103a2565b005b61012d60048036038101906101289190611a45565b610433565b60405161013a9190611e70565b60405180910390f35b61015d6004803603810190610158919061178d565b6104c7565b005b61017960048036038101906101749190611973565b610568565b6040516101869190611dfc565b60405180910390f35b6101a960048036038101906101a491906118f3565b610681565b005b6101c560048036038101906101c0919061174d565b610802565b6040516101d29190611e55565b60405180910390f35b6101f560048036038101906101f0919061185c565b610896565b005b60008073ffffffffffffffffffffffffffffffffffffffff168373ffffffffffffffffffffffffffffffffffffffff161415610268576040517f08c379a000000000000000000000000000000000000000000000000000000000815260040161025f90611ed2565b60405180910390fd5b60008083815260200190815260200160002060008473ffffffffffffffffffffffffffffffffffffffff1673ffffffffffffffffffffffffffffffffffffffff16815260200190815260200160002054905092915050565b60007fd9b67a26000000000000000000000000000000000000000000000000000000007bffffffffffffffffffffffffffffffffffffffffffffffffffffffff1916827bffffffffffffffffffffffffffffffffffffffffffffffffffffffff1916148061038b57507f0e89341c000000000000000000000000000000000000000000000000000000007bffffffffffffffffffffffffffffffffffffffffffffffffffffffff1916827bffffffffffffffffffffffffffffffffffffffffffffffffffffffff1916145b8061039b575061039a82610937565b5b9050919050565b60006103ae33836101f7565b146103ee576040517f08c379a00000000000000000000000000000000000000000000000000000000081526004016103e590611ff2565b60405180910390fd5b610430338260016040518060400160405280600581526020017f30783030300000000000000000000000000000000000000000000000000000008152506109a1565b50565b60606002805461044290612281565b80601f016020809104026020016040519081016040528092919081815260200182805461046e90612281565b80156104bb5780601f10610490576101008083540402835291602001916104bb565b820191906000526020600020905b81548152906001019060200180831161049e57829003601f168201915b50505050509050919050565b6104cf610b37565b73ffffffffffffffffffffffffffffffffffffffff168573ffffffffffffffffffffffffffffffffffffffff16148061051557506105148561050f610b37565b610802565b5b610554576040517f08c379a000000000000000000000000000000000000000000000000000000000815260040161054b90611f32565b60405180910390fd5b6105618585858585610b3f565b5050505050565b606081518351146105ae576040517f08c379a00000000000000000000000000000000000000000000000000000000081526004016105a590611f92565b60405180910390fd5b6000835167ffffffffffffffff8111156105cb576105ca6123ba565b5b6040519080825280602002602001820160405280156105f95781602001602082028036833780820191505090505b50905060005b84518110156106765761064685828151811061061e5761061d61238b565b5b60200260200101518583815181106106395761063861238b565b5b60200260200101516101f7565b8282815181106106595761065861238b565b5b6020026020010181815250508061066f906122e4565b90506105ff565b508091505092915050565b8173ffffffffffffffffffffffffffffffffffffffff166106a0610b37565b73ffffffffffffffffffffffffffffffffffffffff1614156106f7576040517f08c379a00000000000000000000000000000000000000000000000000000000081526004016106ee90611f72565b60405180910390fd5b8060016000610704610b37565b73ffffffffffffffffffffffffffffffffffffffff1673ffffffffffffffffffffffffffffffffffffffff16815260200190815260200160002060008473ffffffffffffffffffffffffffffffffffffffff1673ffffffffffffffffffffffffffffffffffffffff16815260200190815260200160002060006101000a81548160ff0219169083151502179055508173ffffffffffffffffffffffffffffffffffffffff166107b1610b37565b73ffffffffffffffffffffffffffffffffffffffff167f17307eab39ab6107e8899845ad3d59bd9653f200f220920489ca2b5937696c31836040516107f69190611e55565b60405180910390a35050565b6000600160008473ffffffffffffffffffffffffffffffffffffffff1673ffffffffffffffffffffffffffffffffffffffff16815260200190815260200160002060008373ffffffffffffffffffffffffffffffffffffffff1673ffffffffffffffffffffffffffffffffffffffff16815260200190815260200160002060009054906101000a900460ff16905092915050565b61089e610b37565b73ffffffffffffffffffffffffffffffffffffffff168573ffffffffffffffffffffffffffffffffffffffff1614806108e457506108e3856108de610b37565b610802565b5b610923576040517f08c379a000000000000000000000000000000000000000000000000000000000815260040161091a90611ef2565b60405180910390fd5b6109308585858585610e53565b5050505050565b60007f01ffc9a7000000000000000000000000000000000000000000000000000000007bffffffffffffffffffffffffffffffffffffffffffffffffffffffff1916827bffffffffffffffffffffffffffffffffffffffffffffffffffffffff1916149050919050565b600073ffffffffffffffffffffffffffffffffffffffff168473ffffffffffffffffffffffffffffffffffffffff161415610a11576040517f08c379a0000000000000000000000000000000000000000000000000000000008152600401610a0890611fd2565b60405180910390fd5b6000610a1b610b37565b9050610a3c81600087610a2d886110d5565b610a36886110d5565b8761114f565b8260008086815260200190815260200160002060008773ffffffffffffffffffffffffffffffffffffffff1673ffffffffffffffffffffffffffffffffffffffff1681526020019081526020016000206000828254610a9b9190612175565b925050819055508473ffffffffffffffffffffffffffffffffffffffff16600073ffffffffffffffffffffffffffffffffffffffff168273ffffffffffffffffffffffffffffffffffffffff167fc3d58168c5ae7397731d063d5bbf3d657854427343f4c083240f7aacaa2d0f628787604051610b1992919061202d565b60405180910390a4610b3081600087878787611157565b5050505050565b600033905090565b8151835114610b83576040517f08c379a0000000000000000000000000000000000000000000000000000000008152600401610b7a90611fb2565b60405180910390fd5b600073ffffffffffffffffffffffffffffffffffffffff168473ffffffffffffffffffffffffffffffffffffffff161415610bf3576040517f08c379a0000000000000000000000000000000000000000000000000000000008152600401610bea90611f12565b60405180910390fd5b6000610bfd610b37565b9050610c0d81878787878761114f565b60005b8451811015610dbe576000858281518110610c2e57610c2d61238b565b5b602002602001015190506000858381518110610c4d57610c4c61238b565b5b60200260200101519050600080600084815260200190815260200160002060008b73ffffffffffffffffffffffffffffffffffffffff1673ffffffffffffffffffffffffffffffffffffffff16815260200190815260200160002054905081811015610cee576040517f08c379a0000000000000000000000000000000000000000000000000000000008152600401610ce590611f52565b60405180910390fd5b81810360008085815260200190815260200160002060008c73ffffffffffffffffffffffffffffffffffffffff1673ffffffffffffffffffffffffffffffffffffffff168152602001908152602001600020819055508160008085815260200190815260200160002060008b73ffffffffffffffffffffffffffffffffffffffff1673ffffffffffffffffffffffffffffffffffffffff1681526020019081526020016000206000828254610da39190612175565b9250508190555050505080610db7906122e4565b9050610c10565b508473ffffffffffffffffffffffffffffffffffffffff168673ffffffffffffffffffffffffffffffffffffffff168273ffffffffffffffffffffffffffffffffffffffff167f4a39dc06d4c0dbc64b70af90fd698a233a518aa5d07e595d983b8c0526c8f7fb8787604051610e35929190611e1e565b60405180910390a4610e4b81878787878761133e565b505050505050565b600073ffffffffffffffffffffffffffffffffffffffff168473ffffffffffffffffffffffffffffffffffffffff161415610ec3576040517f08c379a0000000000000000000000000000000000000000000000000000000008152600401610eba90611f12565b60405180910390fd5b6000610ecd610b37565b9050610eed818787610ede886110d5565b610ee7886110d5565b8761114f565b600080600086815260200190815260200160002060008873ffffffffffffffffffffffffffffffffffffffff1673ffffffffffffffffffffffffffffffffffffffff16815260200190815260200160002054905083811015610f84576040517f08c379a0000000000000000000000000000000000000000000000000000000008152600401610f7b90611f52565b60405180910390fd5b83810360008087815260200190815260200160002060008973ffffffffffffffffffffffffffffffffffffffff1673ffffffffffffffffffffffffffffffffffffffff168152602001908152602001600020819055508360008087815260200190815260200160002060008873ffffffffffffffffffffffffffffffffffffffff1673ffffffffffffffffffffffffffffffffffffffff16815260200190815260200160002060008282546110399190612175565b925050819055508573ffffffffffffffffffffffffffffffffffffffff168773ffffffffffffffffffffffffffffffffffffffff168373ffffffffffffffffffffffffffffffffffffffff167fc3d58168c5ae7397731d063d5bbf3d657854427343f4c083240f7aacaa2d0f6288886040516110b692919061202d565b60405180910390a46110cc828888888888611157565b50505050505050565b60606000600167ffffffffffffffff8111156110f4576110f36123ba565b5b6040519080825280602002602001820160405280156111225781602001602082028036833780820191505090505b509050828160008151811061113a5761113961238b565b5b60200260200101818152505080915050919050565b505050505050565b6111768473ffffffffffffffffffffffffffffffffffffffff16611525565b15611336578373ffffffffffffffffffffffffffffffffffffffff1663f23a6e6187878686866040518663ffffffff1660e01b81526004016111bc959493929190611da2565b602060405180830381600087803b1580156111d657600080fd5b505af192505050801561120757506040513d601f19601f820116820180604052508101906112049190611a18565b60015b6112ad576112136123e9565b806308c379a0141561127057506112286127d0565b806112335750611272565b806040517f08c379a00000000000000000000000000000000000000000000000000000000081526004016112679190611e70565b60405180910390fd5b505b6040517f08c379a00000000000000000000000000000000000000000000000000000000081526004016112a490611e92565b60405180910390fd5b63f23a6e6160e01b7bffffffffffffffffffffffffffffffffffffffffffffffffffffffff1916817bffffffffffffffffffffffffffffffffffffffffffffffffffffffff191614611334576040517f08c379a000000000000000000000000000000000000000000000000000000000815260040161132b90611eb2565b60405180910390fd5b505b505050505050565b61135d8473ffffffffffffffffffffffffffffffffffffffff16611525565b1561151d578373ffffffffffffffffffffffffffffffffffffffff1663bc197c8187878686866040518663ffffffff1660e01b81526004016113a3959493929190611d3a565b602060405180830381600087803b1580156113bd57600080fd5b505af19250505080156113ee57506040513d601f19601f820116820180604052508101906113eb9190611a18565b60015b611494576113fa6123e9565b806308c379a01415611457575061140f6127d0565b8061141a5750611459565b806040517f08c379a000000000000000000000000000000000000000000000000000000000815260040161144e9190611e70565b60405180910390fd5b505b6040517f08c379a000000000000000000000000000000000000000000000000000000000815260040161148b90611e92565b60405180910390fd5b63bc197c8160e01b7bffffffffffffffffffffffffffffffffffffffffffffffffffffffff1916817bffffffffffffffffffffffffffffffffffffffffffffffffffffffff19161461151b576040517f08c379a000000000000000000000000000000000000000000000000000000000815260040161151290611eb2565b60405180910390fd5b505b505050505050565b600080823b905060008111915050919050565b600061154b6115468461207b565b612056565b9050808382526020820190508285602086028201111561156e5761156d612410565b5b60005b8581101561159e5781611584888261165a565b845260208401935060208301925050600181019050611571565b5050509392505050565b60006115bb6115b6846120a7565b612056565b905080838252602082019050828560208602820111156115de576115dd612410565b5b60005b8581101561160e57816115f48882611738565b8452602084019350602083019250506001810190506115e1565b5050509392505050565b600061162b611626846120d3565b612056565b90508281526020810184848401111561164757611646612415565b5b61165284828561223f565b509392505050565b60008135905061166981612866565b92915050565b600082601f8301126116845761168361240b565b5b8135611694848260208601611538565b91505092915050565b600082601f8301126116b2576116b161240b565b5b81356116c28482602086016115a8565b91505092915050565b6000813590506116da8161287d565b92915050565b6000813590506116ef81612894565b92915050565b60008151905061170481612894565b92915050565b600082601f83011261171f5761171e61240b565b5b813561172f848260208601611618565b91505092915050565b600081359050611747816128ab565b92915050565b600080604083850312156117645761176361241f565b5b60006117728582860161165a565b92505060206117838582860161165a565b9150509250929050565b600080600080600060a086880312156117a9576117a861241f565b5b60006117b78882890161165a565b95505060206117c88882890161165a565b945050604086013567ffffffffffffffff8111156117e9576117e861241a565b5b6117f58882890161169d565b935050606086013567ffffffffffffffff8111156118165761181561241a565b5b6118228882890161169d565b925050608086013567ffffffffffffffff8111156118435761184261241a565b5b61184f8882890161170a565b9150509295509295909350565b600080600080600060a086880312156118785761187761241f565b5b60006118868882890161165a565b95505060206118978882890161165a565b94505060406118a888828901611738565b93505060606118b988828901611738565b925050608086013567ffffffffffffffff8111156118da576118d961241a565b5b6118e68882890161170a565b9150509295509295909350565b6000806040838503121561190a5761190961241f565b5b60006119188582860161165a565b9250506020611929858286016116cb565b9150509250929050565b6000806040838503121561194a5761194961241f565b5b60006119588582860161165a565b925050602061196985828601611738565b9150509250929050565b6000806040838503121561198a5761198961241f565b5b600083013567ffffffffffffffff8111156119a8576119a761241a565b5b6119b48582860161166f565b925050602083013567ffffffffffffffff8111156119d5576119d461241a565b5b6119e18582860161169d565b9150509250929050565b600060208284031215611a0157611a0061241f565b5b6000611a0f848285016116e0565b91505092915050565b600060208284031215611a2e57611a2d61241f565b5b6000611a3c848285016116f5565b91505092915050565b600060208284031215611a5b57611a5a61241f565b5b6000611a6984828501611738565b91505092915050565b6000611a7e8383611d1c565b60208301905092915050565b611a93816121cb565b82525050565b6000611aa482612114565b611aae8185612142565b9350611ab983612104565b8060005b83811015611aea578151611ad18882611a72565b9750611adc83612135565b925050600181019050611abd565b5085935050505092915050565b611b00816121dd565b82525050565b6000611b118261211f565b611b1b8185612153565b9350611b2b81856020860161224e565b611b3481612424565b840191505092915050565b6000611b4a8261212a565b611b548185612164565b9350611b6481856020860161224e565b611b6d81612424565b840191505092915050565b6000611b85603483612164565b9150611b9082612442565b604082019050919050565b6000611ba8602883612164565b9150611bb382612491565b604082019050919050565b6000611bcb602b83612164565b9150611bd6826124e0565b604082019050919050565b6000611bee602983612164565b9150611bf98261252f565b604082019050919050565b6000611c11602583612164565b9150611c1c8261257e565b604082019050919050565b6000611c34603283612164565b9150611c3f826125cd565b604082019050919050565b6000611c57602a83612164565b9150611c628261261c565b604082019050919050565b6000611c7a602983612164565b9150611c858261266b565b604082019050919050565b6000611c9d602983612164565b9150611ca8826126ba565b604082019050919050565b6000611cc0602883612164565b9150611ccb82612709565b604082019050919050565b6000611ce3602183612164565b9150611cee82612758565b604082019050919050565b6000611d06601983612164565b9150611d11826127a7565b602082019050919050565b611d2581612235565b82525050565b611d3481612235565b82525050565b600060a082019050611d4f6000830188611a8a565b611d5c6020830187611a8a565b8181036040830152611d6e8186611a99565b90508181036060830152611d828185611a99565b90508181036080830152611d968184611b06565b90509695505050505050565b600060a082019050611db76000830188611a8a565b611dc46020830187611a8a565b611dd16040830186611d2b565b611dde6060830185611d2b565b8181036080830152611df08184611b06565b90509695505050505050565b60006020820190508181036000830152611e168184611a99565b905092915050565b60006040820190508181036000830152611e388185611a99565b90508181036020830152611e4c8184611a99565b90509392505050565b6000602082019050611e6a6000830184611af7565b92915050565b60006020820190508181036000830152611e8a8184611b3f565b905092915050565b60006020820190508181036000830152611eab81611b78565b9050919050565b60006020820190508181036000830152611ecb81611b9b565b9050919050565b60006020820190508181036000830152611eeb81611bbe565b9050919050565b60006020820190508181036000830152611f0b81611be1565b9050919050565b60006020820190508181036000830152611f2b81611c04565b9050919050565b60006020820190508181036000830152611f4b81611c27565b9050919050565b60006020820190508181036000830152611f6b81611c4a565b9050919050565b60006020820190508181036000830152611f8b81611c6d565b9050919050565b60006020820190508181036000830152611fab81611c90565b9050919050565b60006020820190508181036000830152611fcb81611cb3565b9050919050565b60006020820190508181036000830152611feb81611cd6565b9050919050565b6000602082019050818103600083015261200b81611cf9565b9050919050565b60006020820190506120276000830184611d2b565b92915050565b60006040820190506120426000830185611d2b565b61204f6020830184611d2b565b9392505050565b6000612060612071565b905061206c82826122b3565b919050565b6000604051905090565b600067ffffffffffffffff821115612096576120956123ba565b5b602082029050602081019050919050565b600067ffffffffffffffff8211156120c2576120c16123ba565b5b602082029050602081019050919050565b600067ffffffffffffffff8211156120ee576120ed6123ba565b5b6120f782612424565b9050602081019050919050565b6000819050602082019050919050565b600081519050919050565b600081519050919050565b600081519050919050565b6000602082019050919050565b600082825260208201905092915050565b600082825260208201905092915050565b600082825260208201905092915050565b600061218082612235565b915061218b83612235565b9250827fffffffffffffffffffffffffffffffffffffffffffffffffffffffffffffffff038211156121c0576121bf61232d565b5b828201905092915050565b60006121d682612215565b9050919050565b60008115159050919050565b60007fffffffff0000000000000000000000000000000000000000000000000000000082169050919050565b600073ffffffffffffffffffffffffffffffffffffffff82169050919050565b6000819050919050565b82818337600083830152505050565b60005b8381101561226c578082015181840152602081019050612251565b8381111561227b576000848401525b50505050565b6000600282049050600182168061229957607f821691505b602082108114156122ad576122ac61235c565b5b50919050565b6122bc82612424565b810181811067ffffffffffffffff821117156122db576122da6123ba565b5b80604052505050565b60006122ef82612235565b91507fffffffffffffffffffffffffffffffffffffffffffffffffffffffffffffffff8214156123225761232161232d565b5b600182019050919050565b7f4e487b7100000000000000000000000000000000000000000000000000000000600052601160045260246000fd5b7f4e487b7100000000000000000000000000000000000000000000000000000000600052602260045260246000fd5b7f4e487b7100000000000000000000000000000000000000000000000000000000600052603260045260246000fd5b7f4e487b7100000000000000000000000000000000000000000000000000000000600052604160045260246000fd5b600060033d11156124085760046000803e612405600051612435565b90505b90565b600080fd5b600080fd5b600080fd5b600080fd5b600080fd5b6000601f19601f8301169050919050565b60008160e01c9050919050565b7f455243313135353a207472616e7366657220746f206e6f6e204552433131353560008201527f526563656976657220696d706c656d656e746572000000000000000000000000602082015250565b7f455243313135353a204552433131353552656365697665722072656a6563746560008201527f6420746f6b656e73000000000000000000000000000000000000000000000000602082015250565b7f455243313135353a2062616c616e636520717565727920666f7220746865207a60008201527f65726f2061646472657373000000000000000000000000000000000000000000602082015250565b7f455243313135353a2063616c6c6572206973206e6f74206f776e6572206e6f7260008201527f20617070726f7665640000000000000000000000000000000000000000000000602082015250565b7f455243313135353a207472616e7366657220746f20746865207a65726f20616460008201527f6472657373000000000000000000000000000000000000000000000000000000602082015250565b7f455243313135353a207472616e736665722063616c6c6572206973206e6f742060008201527f6f776e6572206e6f7220617070726f7665640000000000000000000000000000602082015250565b7f455243313135353a20696e73756666696369656e742062616c616e636520666f60008201527f72207472616e7366657200000000000000000000000000000000000000000000602082015250565b7f455243313135353a2073657474696e6720617070726f76616c2073746174757360008201527f20666f722073656c660000000000000000000000000000000000000000000000602082015250565b7f455243313135353a206163636f756e747320616e6420696473206c656e67746860008201527f206d69736d617463680000000000000000000000000000000000000000000000602082015250565b7f455243313135353a2069647320616e6420616d6f756e7473206c656e6774682060008201527f6d69736d61746368000000000000000000000000000000000000000000000000602082015250565b7f455243313135353a206d696e7420746f20746865207a65726f2061646472657360008201527f7300000000000000000000000000000000000000000000000000000000000000602082015250565b7f5468697320696420697320616c726561647920696e2075736500000000000000600082015250565b600060443d10156127e057612863565b6127e8612071565b60043d036004823e80513d602482011167ffffffffffffffff82111715612810575050612863565b808201805167ffffffffffffffff81111561282e5750505050612863565b80602083010160043d03850181111561284b575050505050612863565b61285a826020018501866122b3565b82955050505050505b90565b61286f816121cb565b811461287a57600080fd5b50565b612886816121dd565b811461289157600080fd5b50565b61289d816121e9565b81146128a857600080fd5b50565b6128b481612235565b81146128bf57600080fd5b5056fea2646970667358221220610b2fa2b70f9be7848e4d5e0511f4ae52f4dae8b680d48b29a9433a100ced5f64736f6c6343000806003368747470733a2f2f676174657761792e70696e6174612e636c6f75642f697066732f7b69647d",
  "immutableReferences": {},
  "source": "// SPDX-License-Identifier: MIT\npragma solidity ^0.8.0;\n\nimport \"@openzeppelin/contracts/token/ERC1155/ERC1155.sol\";\n\ncontract TokenERC1155  is ERC1155 {\n\n  constructor() ERC1155(\"https://gateway.pinata.cloud/ipfs/{id}\") {\n  }\n\n  function mintNft(uint256 id) public{\n    require(balanceOf(msg.sender, id) == 0, \"This id is already in use\");\n    _mint(msg.sender, id, 1, \"0x000\");\n  }\n}",
  "sourcePath": "/Users/nicolas/Desktop/client/contracts/ERC1155.sol",
  "compiler": {
    "name": "solc",
    "version": "0.8.6+commit.11564f7e.Emscripten.clang"
  },
  "schemaVersion": "3.4.1",
  "updatedAt": "2021-07-22T08:41:13.816Z",
  "networkType": "ethereum",
  "devdoc": {
    "kind": "dev",
    "methods": {
      "balanceOf(address,uint256)": {
        "details": "See {IERC1155-balanceOf}. Requirements: - `account` cannot be the zero address."
      },
      "balanceOfBatch(address[],uint256[])": {
        "details": "See {IERC1155-balanceOfBatch}. Requirements: - `accounts` and `ids` must have the same length."
      },
      "isApprovedForAll(address,address)": {
        "details": "See {IERC1155-isApprovedForAll}."
      },
      "safeBatchTransferFrom(address,address,uint256[],uint256[],bytes)": {
        "details": "See {IERC1155-safeBatchTransferFrom}."
      },
      "safeTransferFrom(address,address,uint256,uint256,bytes)": {
        "details": "See {IERC1155-safeTransferFrom}."
      },
      "setApprovalForAll(address,bool)": {
        "details": "See {IERC1155-setApprovalForAll}."
      },
      "supportsInterface(bytes4)": {
        "details": "See {IERC165-supportsInterface}."
      },
      "uri(uint256)": {
        "details": "See {IERC1155MetadataURI-uri}. This implementation returns the same URI for *all* token types. It relies on the token type ID substitution mechanism https://eips.ethereum.org/EIPS/eip-1155#metadata[defined in the EIP]. Clients calling this function must replace the `\\{id\\}` substring with the actual token type ID."
      }
    },
    "version": 1
  },
  "userdoc": {
    "kind": "user",
    "methods": {},
    "version": 1
  }
}