{
  "contractName": "TokenERC721",
  "abi": [
    {
      "inputs": [],
      "stateMutability": "nonpayable",
      "type": "constructor"
    },
    {
      "anonymous": false,
      "inputs": [
        {
          "indexed": true,
          "internalType": "address",
          "name": "owner",
          "type": "address"
        },
        {
          "indexed": true,
          "internalType": "address",
          "name": "approved",
          "type": "address"
        },
        {
          "indexed": true,
          "internalType": "uint256",
          "name": "tokenId",
          "type": "uint256"
        }
      ],
      "name": "Approval",
      "type": "event"
    },
    {
      "anonymous": false,
      "inputs": [
        {
          "indexed": true,
          "internalType": "address",
          "name": "owner",
          "type": "address"
        },
        {
          "indexed": true,
          "internalType": "address",
          "name": "operator",
          "type": "address"
        },
        {
          "indexed": false,
          "internalType": "bool",
          "name": "approved",
          "type": "bool"
        }
      ],
      "name": "ApprovalForAll",
      "type": "event"
    },
    {
      "anonymous": false,
      "inputs": [
        {
          "indexed": true,
          "internalType": "address",
          "name": "from",
          "type": "address"
        },
        {
          "indexed": true,
          "internalType": "address",
          "name": "to",
          "type": "address"
        },
        {
          "indexed": true,
          "internalType": "uint256",
          "name": "tokenId",
          "type": "uint256"
        }
      ],
      "name": "Transfer",
      "type": "event"
    },
    {
      "inputs": [
        {
          "internalType": "address",
          "name": "to",
          "type": "address"
        },
        {
          "internalType": "uint256",
          "name": "tokenId",
          "type": "uint256"
        }
      ],
      "name": "approve",
      "outputs": [],
      "stateMutability": "nonpayable",
      "type": "function"
    },
    {
      "inputs": [
        {
          "internalType": "address",
          "name": "owner",
          "type": "address"
        }
      ],
      "name": "balanceOf",
      "outputs": [
        {
          "internalType": "uint256",
          "name": "",
          "type": "uint256"
        }
      ],
      "stateMutability": "view",
      "type": "function",
      "constant": true
    },
    {
      "inputs": [
        {
          "internalType": "address",
          "name": "",
          "type": "address"
        }
      ],
      "name": "ethBalance",
      "outputs": [
        {
          "internalType": "uint256",
          "name": "",
          "type": "uint256"
        }
      ],
      "stateMutability": "view",
      "type": "function",
      "constant": true
    },
    {
      "inputs": [
        {
          "internalType": "uint256",
          "name": "tokenId",
          "type": "uint256"
        }
      ],
      "name": "getApproved",
      "outputs": [
        {
          "internalType": "address",
          "name": "",
          "type": "address"
        }
      ],
      "stateMutability": "view",
      "type": "function",
      "constant": true
    },
    {
      "inputs": [
        {
          "internalType": "address",
          "name": "owner",
          "type": "address"
        },
        {
          "internalType": "address",
          "name": "operator",
          "type": "address"
        }
      ],
      "name": "isApprovedForAll",
      "outputs": [
        {
          "internalType": "bool",
          "name": "",
          "type": "bool"
        }
      ],
      "stateMutability": "view",
      "type": "function",
      "constant": true
    },
    {
      "inputs": [],
      "name": "name",
      "outputs": [
        {
          "internalType": "string",
          "name": "",
          "type": "string"
        }
      ],
      "stateMutability": "view",
      "type": "function",
      "constant": true
    },
    {
      "inputs": [
        {
          "internalType": "uint256",
          "name": "tokenId",
          "type": "uint256"
        }
      ],
      "name": "ownerOf",
      "outputs": [
        {
          "internalType": "address",
          "name": "",
          "type": "address"
        }
      ],
      "stateMutability": "view",
      "type": "function",
      "constant": true
    },
    {
      "inputs": [
        {
          "internalType": "address",
          "name": "from",
          "type": "address"
        },
        {
          "internalType": "address",
          "name": "to",
          "type": "address"
        },
        {
          "internalType": "uint256",
          "name": "tokenId",
          "type": "uint256"
        }
      ],
      "name": "safeTransferFrom",
      "outputs": [],
      "stateMutability": "nonpayable",
      "type": "function"
    },
    {
      "inputs": [
        {
          "internalType": "address",
          "name": "from",
          "type": "address"
        },
        {
          "internalType": "address",
          "name": "to",
          "type": "address"
        },
        {
          "internalType": "uint256",
          "name": "tokenId",
          "type": "uint256"
        },
        {
          "internalType": "bytes",
          "name": "_data",
          "type": "bytes"
        }
      ],
      "name": "safeTransferFrom",
      "outputs": [],
      "stateMutability": "nonpayable",
      "type": "function"
    },
    {
      "inputs": [
        {
          "internalType": "address",
          "name": "operator",
          "type": "address"
        },
        {
          "internalType": "bool",
          "name": "approved",
          "type": "bool"
        }
      ],
      "name": "setApprovalForAll",
      "outputs": [],
      "stateMutability": "nonpayable",
      "type": "function"
    },
    {
      "inputs": [
        {
          "internalType": "bytes4",
          "name": "interfaceId",
          "type": "bytes4"
        }
      ],
      "name": "supportsInterface",
      "outputs": [
        {
          "internalType": "bool",
          "name": "",
          "type": "bool"
        }
      ],
      "stateMutability": "view",
      "type": "function",
      "constant": true
    },
    {
      "inputs": [],
      "name": "symbol",
      "outputs": [
        {
          "internalType": "string",
          "name": "",
          "type": "string"
        }
      ],
      "stateMutability": "view",
      "type": "function",
      "constant": true
    },
    {
      "inputs": [
        {
          "internalType": "uint256",
          "name": "",
          "type": "uint256"
        }
      ],
      "name": "tokenPrice",
      "outputs": [
        {
          "internalType": "uint256",
          "name": "",
          "type": "uint256"
        }
      ],
      "stateMutability": "view",
      "type": "function",
      "constant": true
    },
    {
      "inputs": [
        {
          "internalType": "uint256",
          "name": "tokenId",
          "type": "uint256"
        }
      ],
      "name": "tokenURI",
      "outputs": [
        {
          "internalType": "string",
          "name": "",
          "type": "string"
        }
      ],
      "stateMutability": "view",
      "type": "function",
      "constant": true
    },
    {
      "stateMutability": "payable",
      "type": "receive",
      "payable": true
    },
    {
      "inputs": [
        {
          "internalType": "uint256",
          "name": "price",
          "type": "uint256"
        },
        {
          "internalType": "string",
          "name": "hash",
          "type": "string"
        },
        {
          "internalType": "string",
          "name": "metadata",
          "type": "string"
        }
      ],
      "name": "awardItem",
      "outputs": [
        {
          "internalType": "uint256",
          "name": "",
          "type": "uint256"
        }
      ],
      "stateMutability": "payable",
      "type": "function",
      "payable": true
    },
    {
      "inputs": [
        {
          "internalType": "address",
          "name": "from",
          "type": "address"
        },
        {
          "internalType": "address",
          "name": "to",
          "type": "address"
        },
        {
          "internalType": "uint256",
          "name": "tokenId",
          "type": "uint256"
        }
      ],
      "name": "transferFrom",
      "outputs": [],
      "stateMutability": "nonpayable",
      "type": "function"
    },
    {
      "inputs": [
        {
          "internalType": "address",
          "name": "from",
          "type": "address"
        },
        {
          "internalType": "uint256",
          "name": "tokenId",
          "type": "uint256"
        }
      ],
      "name": "reimbursment",
      "outputs": [],
      "stateMutability": "nonpayable",
      "type": "function"
    }
  ],
  "bytecode": "0x60806040523480156200001157600080fd5b506040518060400160405280600b81526020017f546f6b656e4552433732310000000000000000000000000000000000000000008152506040518060400160405280600381526020017f544b4e0000000000000000000000000000000000000000000000000000000000815250816000908051906020019062000096929190620000b8565b508060019080519060200190620000af929190620000b8565b505050620001cd565b828054620000c69062000168565b90600052602060002090601f016020900481019282620000ea576000855562000136565b82601f106200010557805160ff191683800117855562000136565b8280016001018555821562000136579182015b828111156200013557825182559160200191906001019062000118565b5b50905062000145919062000149565b5090565b5b80821115620001645760008160009055506001016200014a565b5090565b600060028204905060018216806200018157607f821691505b602082108114156200019857620001976200019e565b5b50919050565b7f4e487b7100000000000000000000000000000000000000000000000000000000600052602260045260246000fd5b6133c480620001dd6000396000f3fe6080604052600436106101025760003560e01c806382c7c33011610095578063b88d4fde11610064578063b88d4fde14610355578063c87b56dd1461037e578063d4ddce8a146103bb578063d8f3790f146103f8578063e985e9c51461043557610109565b806382c7c330146102a85780638f22a0f6146102d157806395d89b4114610301578063a22cb4651461032c57610109565b806323b872dd116100d157806323b872dd146101dc57806342842e0e146102055780636352211e1461022e57806370a082311461026b57610109565b806301ffc9a71461010e57806306fdde031461014b578063081812fc14610176578063095ea7b3146101b357610109565b3661010957005b600080fd5b34801561011a57600080fd5b5061013560048036038101906101309190612262565b610472565b6040516101429190612794565b60405180910390f35b34801561015757600080fd5b50610160610554565b60405161016d91906127af565b60405180910390f35b34801561018257600080fd5b5061019d600480360381019061019891906122bc565b6105e6565b6040516101aa919061272d565b60405180910390f35b3480156101bf57600080fd5b506101da60048036038101906101d59190612222565b61066b565b005b3480156101e857600080fd5b5061020360048036038101906101fe919061210c565b610783565b005b34801561021157600080fd5b5061022c6004803603810190610227919061210c565b6108b5565b005b34801561023a57600080fd5b50610255600480360381019061025091906122bc565b6108d5565b604051610262919061272d565b60405180910390f35b34801561027757600080fd5b50610292600480360381019061028d919061209f565b610987565b60405161029f9190612a11565b60405180910390f35b3480156102b457600080fd5b506102cf60048036038101906102ca9190612222565b610a3f565b005b6102eb60048036038101906102e691906122e9565b610bc5565b6040516102f89190612a11565b60405180910390f35b34801561030d57600080fd5b50610316610d23565b60405161032391906127af565b60405180910390f35b34801561033857600080fd5b50610353600480360381019061034e91906121e2565b610db5565b005b34801561036157600080fd5b5061037c6004803603810190610377919061215f565b610f36565b005b34801561038a57600080fd5b506103a560048036038101906103a091906122bc565b610f98565b6040516103b291906127af565b60405180910390f35b3480156103c757600080fd5b506103e260048036038101906103dd91906122bc565b6110ea565b6040516103ef9190612a11565b60405180910390f35b34801561040457600080fd5b5061041f600480360381019061041a919061209f565b611102565b60405161042c9190612a11565b60405180910390f35b34801561044157600080fd5b5061045c600480360381019061045791906120cc565b61111a565b6040516104699190612794565b60405180910390f35b60007f80ac58cd000000000000000000000000000000000000000000000000000000007bffffffffffffffffffffffffffffffffffffffffffffffffffffffff1916827bffffffffffffffffffffffffffffffffffffffffffffffffffffffff1916148061053d57507f5b5e139f000000000000000000000000000000000000000000000000000000007bffffffffffffffffffffffffffffffffffffffffffffffffffffffff1916827bffffffffffffffffffffffffffffffffffffffffffffffffffffffff1916145b8061054d575061054c826111ae565b5b9050919050565b60606000805461056390612c72565b80601f016020809104026020016040519081016040528092919081815260200182805461058f90612c72565b80156105dc5780601f106105b1576101008083540402835291602001916105dc565b820191906000526020600020905b8154815290600101906020018083116105bf57829003601f168201915b5050505050905090565b60006105f182611218565b610630576040517f08c379a000000000000000000000000000000000000000000000000000000000815260040161062790612951565b60405180910390fd5b6004600083815260200190815260200160002060009054906101000a900473ffffffffffffffffffffffffffffffffffffffff169050919050565b6000610676826108d5565b90508073ffffffffffffffffffffffffffffffffffffffff168373ffffffffffffffffffffffffffffffffffffffff1614156106e7576040517f08c379a00000000000000000000000000000000000000000000000000000000081526004016106de906129d1565b60405180910390fd5b8073ffffffffffffffffffffffffffffffffffffffff16610706611284565b73ffffffffffffffffffffffffffffffffffffffff16148061073557506107348161072f611284565b61111a565b5b610774576040517f08c379a000000000000000000000000000000000000000000000000000000000815260040161076b90612891565b60405180910390fd5b61077e838361128c565b505050565b61079461078e611284565b82611345565b6107d3576040517f08c379a00000000000000000000000000000000000000000000000000000000081526004016107ca906129f1565b60405180910390fd5b6107de838383611423565b600a600082815260200190815260200160002054600960008573ffffffffffffffffffffffffffffffffffffffff1673ffffffffffffffffffffffffffffffffffffffff16815260200190815260200160002060008282546108409190612b88565b92505081905550600a600082815260200190815260200160002054600960008473ffffffffffffffffffffffffffffffffffffffff1673ffffffffffffffffffffffffffffffffffffffff16815260200190815260200160002060008282546108a99190612b01565b92505081905550505050565b6108d083838360405180602001604052806000815250610f36565b505050565b6000806002600084815260200190815260200160002060009054906101000a900473ffffffffffffffffffffffffffffffffffffffff169050600073ffffffffffffffffffffffffffffffffffffffff168173ffffffffffffffffffffffffffffffffffffffff16141561097e576040517f08c379a0000000000000000000000000000000000000000000000000000000008152600401610975906128d1565b60405180910390fd5b80915050919050565b60008073ffffffffffffffffffffffffffffffffffffffff168273ffffffffffffffffffffffffffffffffffffffff1614156109f8576040517f08c379a00000000000000000000000000000000000000000000000000000000081526004016109ef906128b1565b60405180910390fd5b600360008373ffffffffffffffffffffffffffffffffffffffff1673ffffffffffffffffffffffffffffffffffffffff168152602001908152602001600020549050919050565b610a50610a4a611284565b82611345565b610a8f576040517f08c379a0000000000000000000000000000000000000000000000000000000008152600401610a86906129f1565b60405180910390fd5b600a600082815260200190815260200160002054600960008473ffffffffffffffffffffffffffffffffffffffff1673ffffffffffffffffffffffffffffffffffffffff1681526020019081526020016000206000828254610af19190612b88565b92505081905550610b018161167f565b60003373ffffffffffffffffffffffffffffffffffffffff16600a600084815260200190815260200160002054604051610b3a90612718565b60006040518083038185875af1925050503d8060008114610b77576040519150601f19603f3d011682016040523d82523d6000602084013e610b7c565b606091505b5050905080610bc0576040517f08c379a0000000000000000000000000000000000000000000000000000000008152600401610bb790612811565b60405180910390fd5b505050565b600083341015610c0a576040517f08c379a0000000000000000000000000000000000000000000000000000000008152600401610c01906129b1565b60405180910390fd5b6001600884604051610c1c91906126dd565b908152602001604051809103902060009054906101000a900460ff1660ff161415610c4657600080fd5b6001600884604051610c5891906126dd565b908152602001604051809103902060006101000a81548160ff021916908360ff160217905550610c8860076116d2565b6000610c9460076116e8565b9050610ca033826116f6565b610caa81846118c4565b34600960003373ffffffffffffffffffffffffffffffffffffffff1673ffffffffffffffffffffffffffffffffffffffff1681526020019081526020016000206000828254610cf99190612b01565b9250508190555084600a600083815260200190815260200160002081905550809150509392505050565b606060018054610d3290612c72565b80601f0160208091040260200160405190810160405280929190818152602001828054610d5e90612c72565b8015610dab5780601f10610d8057610100808354040283529160200191610dab565b820191906000526020600020905b815481529060010190602001808311610d8e57829003601f168201915b5050505050905090565b610dbd611284565b73ffffffffffffffffffffffffffffffffffffffff168273ffffffffffffffffffffffffffffffffffffffff161415610e2b576040517f08c379a0000000000000000000000000000000000000000000000000000000008152600401610e2290612851565b60405180910390fd5b8060056000610e38611284565b73ffffffffffffffffffffffffffffffffffffffff1673ffffffffffffffffffffffffffffffffffffffff16815260200190815260200160002060008473ffffffffffffffffffffffffffffffffffffffff1673ffffffffffffffffffffffffffffffffffffffff16815260200190815260200160002060006101000a81548160ff0219169083151502179055508173ffffffffffffffffffffffffffffffffffffffff16610ee5611284565b73ffffffffffffffffffffffffffffffffffffffff167f17307eab39ab6107e8899845ad3d59bd9653f200f220920489ca2b5937696c3183604051610f2a9190612794565b60405180910390a35050565b610f47610f41611284565b83611345565b610f86576040517f08c379a0000000000000000000000000000000000000000000000000000000008152600401610f7d906129f1565b60405180910390fd5b610f9284848484611938565b50505050565b6060610fa382611218565b610fe2576040517f08c379a0000000000000000000000000000000000000000000000000000000008152600401610fd990612931565b60405180910390fd5b600060066000848152602001908152602001600020805461100290612c72565b80601f016020809104026020016040519081016040528092919081815260200182805461102e90612c72565b801561107b5780601f106110505761010080835404028352916020019161107b565b820191906000526020600020905b81548152906001019060200180831161105e57829003601f168201915b50505050509050600061108c611994565b90506000815114156110a25781925050506110e5565b6000825111156110d75780826040516020016110bf9291906126f4565b604051602081830303815290604052925050506110e5565b6110e0846119ab565b925050505b919050565b600a6020528060005260406000206000915090505481565b60096020528060005260406000206000915090505481565b6000600560008473ffffffffffffffffffffffffffffffffffffffff1673ffffffffffffffffffffffffffffffffffffffff16815260200190815260200160002060008373ffffffffffffffffffffffffffffffffffffffff1673ffffffffffffffffffffffffffffffffffffffff16815260200190815260200160002060009054906101000a900460ff16905092915050565b60007f01ffc9a7000000000000000000000000000000000000000000000000000000007bffffffffffffffffffffffffffffffffffffffffffffffffffffffff1916827bffffffffffffffffffffffffffffffffffffffffffffffffffffffff1916149050919050565b60008073ffffffffffffffffffffffffffffffffffffffff166002600084815260200190815260200160002060009054906101000a900473ffffffffffffffffffffffffffffffffffffffff1673ffffffffffffffffffffffffffffffffffffffff1614159050919050565b600033905090565b816004600083815260200190815260200160002060006101000a81548173ffffffffffffffffffffffffffffffffffffffff021916908373ffffffffffffffffffffffffffffffffffffffff160217905550808273ffffffffffffffffffffffffffffffffffffffff166112ff836108d5565b73ffffffffffffffffffffffffffffffffffffffff167f8c5be1e5ebec7d5bd14f71427d1e84f3dd0314c0f7b2291e5b200ac8c7c3b92560405160405180910390a45050565b600061135082611218565b61138f576040517f08c379a000000000000000000000000000000000000000000000000000000000815260040161138690612871565b60405180910390fd5b600061139a836108d5565b90508073ffffffffffffffffffffffffffffffffffffffff168473ffffffffffffffffffffffffffffffffffffffff16148061140957508373ffffffffffffffffffffffffffffffffffffffff166113f1846105e6565b73ffffffffffffffffffffffffffffffffffffffff16145b8061141a5750611419818561111a565b5b91505092915050565b8273ffffffffffffffffffffffffffffffffffffffff16611443826108d5565b73ffffffffffffffffffffffffffffffffffffffff1614611499576040517f08c379a000000000000000000000000000000000000000000000000000000000815260040161149090612971565b60405180910390fd5b600073ffffffffffffffffffffffffffffffffffffffff168273ffffffffffffffffffffffffffffffffffffffff161415611509576040517f08c379a000000000000000000000000000000000000000000000000000000000815260040161150090612831565b60405180910390fd5b611514838383611a52565b61151f60008261128c565b6001600360008573ffffffffffffffffffffffffffffffffffffffff1673ffffffffffffffffffffffffffffffffffffffff168152602001908152602001600020600082825461156f9190612b88565b925050819055506001600360008473ffffffffffffffffffffffffffffffffffffffff1673ffffffffffffffffffffffffffffffffffffffff16815260200190815260200160002060008282546115c69190612b01565b92505081905550816002600083815260200190815260200160002060006101000a81548173ffffffffffffffffffffffffffffffffffffffff021916908373ffffffffffffffffffffffffffffffffffffffff160217905550808273ffffffffffffffffffffffffffffffffffffffff168473ffffffffffffffffffffffffffffffffffffffff167fddf252ad1be2c89b69c2b068fc378daa952ba7f163c4a11628f55a4df523b3ef60405160405180910390a4505050565b61168881611a57565b60006006600083815260200190815260200160002080546116a890612c72565b9050146116cf576006600082815260200190815260200160002060006116ce9190611e73565b5b50565b6001816000016000828254019250508190555050565b600081600001549050919050565b600073ffffffffffffffffffffffffffffffffffffffff168273ffffffffffffffffffffffffffffffffffffffff161415611766576040517f08c379a000000000000000000000000000000000000000000000000000000000815260040161175d90612911565b60405180910390fd5b61176f81611218565b156117af576040517f08c379a00000000000000000000000000000000000000000000000000000000081526004016117a6906127f1565b60405180910390fd5b6117bb60008383611a52565b6001600360008473ffffffffffffffffffffffffffffffffffffffff1673ffffffffffffffffffffffffffffffffffffffff168152602001908152602001600020600082825461180b9190612b01565b92505081905550816002600083815260200190815260200160002060006101000a81548173ffffffffffffffffffffffffffffffffffffffff021916908373ffffffffffffffffffffffffffffffffffffffff160217905550808273ffffffffffffffffffffffffffffffffffffffff16600073ffffffffffffffffffffffffffffffffffffffff167fddf252ad1be2c89b69c2b068fc378daa952ba7f163c4a11628f55a4df523b3ef60405160405180910390a45050565b6118cd82611218565b61190c576040517f08c379a0000000000000000000000000000000000000000000000000000000008152600401611903906128f1565b60405180910390fd5b80600660008481526020019081526020016000209080519060200190611933929190611eb3565b505050565b611943848484611423565b61194f84848484611b68565b61198e576040517f08c379a0000000000000000000000000000000000000000000000000000000008152600401611985906127d1565b60405180910390fd5b50505050565b606060405180602001604052806000815250905090565b60606119b682611218565b6119f5576040517f08c379a00000000000000000000000000000000000000000000000000000000081526004016119ec90612991565b60405180910390fd5b60006119ff611994565b90506000815111611a1f5760405180602001604052806000815250611a4a565b80611a2984611cff565b604051602001611a3a9291906126f4565b6040516020818303038152906040525b915050919050565b505050565b6000611a62826108d5565b9050611a7081600084611a52565b611a7b60008361128c565b6001600360008373ffffffffffffffffffffffffffffffffffffffff1673ffffffffffffffffffffffffffffffffffffffff1681526020019081526020016000206000828254611acb9190612b88565b925050819055506002600083815260200190815260200160002060006101000a81549073ffffffffffffffffffffffffffffffffffffffff021916905581600073ffffffffffffffffffffffffffffffffffffffff168273ffffffffffffffffffffffffffffffffffffffff167fddf252ad1be2c89b69c2b068fc378daa952ba7f163c4a11628f55a4df523b3ef60405160405180910390a45050565b6000611b898473ffffffffffffffffffffffffffffffffffffffff16611e60565b15611cf2578373ffffffffffffffffffffffffffffffffffffffff1663150b7a02611bb2611284565b8786866040518563ffffffff1660e01b8152600401611bd49493929190612748565b602060405180830381600087803b158015611bee57600080fd5b505af1925050508015611c1f57506040513d601f19601f82011682018060405250810190611c1c919061228f565b60015b611ca2573d8060008114611c4f576040519150601f19603f3d011682016040523d82523d6000602084013e611c54565b606091505b50600081511415611c9a576040517f08c379a0000000000000000000000000000000000000000000000000000000008152600401611c91906127d1565b60405180910390fd5b805181602001fd5b63150b7a0260e01b7bffffffffffffffffffffffffffffffffffffffffffffffffffffffff1916817bffffffffffffffffffffffffffffffffffffffffffffffffffffffff191614915050611cf7565b600190505b949350505050565b60606000821415611d47576040518060400160405280600181526020017f30000000000000000000000000000000000000000000000000000000000000008152509050611e5b565b600082905060005b60008214611d79578080611d6290612cd5565b915050600a82611d729190612b57565b9150611d4f565b60008167ffffffffffffffff811115611d9557611d94612e0b565b5b6040519080825280601f01601f191660200182016040528015611dc75781602001600182028036833780820191505090505b5090505b60008514611e5457600182611de09190612b88565b9150600a85611def9190612d1e565b6030611dfb9190612b01565b60f81b818381518110611e1157611e10612ddc565b5b60200101907effffffffffffffffffffffffffffffffffffffffffffffffffffffffffffff1916908160001a905350600a85611e4d9190612b57565b9450611dcb565b8093505050505b919050565b600080823b905060008111915050919050565b508054611e7f90612c72565b6000825580601f10611e915750611eb0565b601f016020900490600052602060002090810190611eaf9190611f39565b5b50565b828054611ebf90612c72565b90600052602060002090601f016020900481019282611ee15760008555611f28565b82601f10611efa57805160ff1916838001178555611f28565b82800160010185558215611f28579182015b82811115611f27578251825591602001919060010190611f0c565b5b509050611f359190611f39565b5090565b5b80821115611f52576000816000905550600101611f3a565b5090565b6000611f69611f6484612a51565b612a2c565b905082815260208101848484011115611f8557611f84612e3f565b5b611f90848285612c30565b509392505050565b6000611fab611fa684612a82565b612a2c565b905082815260208101848484011115611fc757611fc6612e3f565b5b611fd2848285612c30565b509392505050565b600081359050611fe981613332565b92915050565b600081359050611ffe81613349565b92915050565b60008135905061201381613360565b92915050565b60008151905061202881613360565b92915050565b600082601f83011261204357612042612e3a565b5b8135612053848260208601611f56565b91505092915050565b600082601f83011261207157612070612e3a565b5b8135612081848260208601611f98565b91505092915050565b60008135905061209981613377565b92915050565b6000602082840312156120b5576120b4612e49565b5b60006120c384828501611fda565b91505092915050565b600080604083850312156120e3576120e2612e49565b5b60006120f185828601611fda565b925050602061210285828601611fda565b9150509250929050565b60008060006060848603121561212557612124612e49565b5b600061213386828701611fda565b935050602061214486828701611fda565b92505060406121558682870161208a565b9150509250925092565b6000806000806080858703121561217957612178612e49565b5b600061218787828801611fda565b945050602061219887828801611fda565b93505060406121a98782880161208a565b925050606085013567ffffffffffffffff8111156121ca576121c9612e44565b5b6121d68782880161202e565b91505092959194509250565b600080604083850312156121f9576121f8612e49565b5b600061220785828601611fda565b925050602061221885828601611fef565b9150509250929050565b6000806040838503121561223957612238612e49565b5b600061224785828601611fda565b92505060206122588582860161208a565b9150509250929050565b60006020828403121561227857612277612e49565b5b600061228684828501612004565b91505092915050565b6000602082840312156122a5576122a4612e49565b5b60006122b384828501612019565b91505092915050565b6000602082840312156122d2576122d1612e49565b5b60006122e08482850161208a565b91505092915050565b60008060006060848603121561230257612301612e49565b5b60006123108682870161208a565b935050602084013567ffffffffffffffff81111561233157612330612e44565b5b61233d8682870161205c565b925050604084013567ffffffffffffffff81111561235e5761235d612e44565b5b61236a8682870161205c565b9150509250925092565b61237d81612bbc565b82525050565b61238c81612bce565b82525050565b600061239d82612ab3565b6123a78185612ac9565b93506123b7818560208601612c3f565b6123c081612e4e565b840191505092915050565b60006123d682612abe565b6123e08185612ae5565b93506123f0818560208601612c3f565b6123f981612e4e565b840191505092915050565b600061240f82612abe565b6124198185612af6565b9350612429818560208601612c3f565b80840191505092915050565b6000612442603283612ae5565b915061244d82612e5f565b604082019050919050565b6000612465601c83612ae5565b915061247082612eae565b602082019050919050565b6000612488601483612ae5565b915061249382612ed7565b602082019050919050565b60006124ab602483612ae5565b91506124b682612f00565b604082019050919050565b60006124ce601983612ae5565b91506124d982612f4f565b602082019050919050565b60006124f1602c83612ae5565b91506124fc82612f78565b604082019050919050565b6000612514603883612ae5565b915061251f82612fc7565b604082019050919050565b6000612537602a83612ae5565b915061254282613016565b604082019050919050565b600061255a602983612ae5565b915061256582613065565b604082019050919050565b600061257d602e83612ae5565b9150612588826130b4565b604082019050919050565b60006125a0602083612ae5565b91506125ab82613103565b602082019050919050565b60006125c3603183612ae5565b91506125ce8261312c565b604082019050919050565b60006125e6602c83612ae5565b91506125f18261317b565b604082019050919050565b6000612609602983612ae5565b9150612614826131ca565b604082019050919050565b600061262c602f83612ae5565b915061263782613219565b604082019050919050565b600061264f602083612ae5565b915061265a82613268565b602082019050919050565b6000612672602183612ae5565b915061267d82613291565b604082019050919050565b6000612695600083612ada565b91506126a0826132e0565b600082019050919050565b60006126b8603183612ae5565b91506126c3826132e3565b604082019050919050565b6126d781612c26565b82525050565b60006126e98284612404565b915081905092915050565b60006127008285612404565b915061270c8284612404565b91508190509392505050565b600061272382612688565b9150819050919050565b60006020820190506127426000830184612374565b92915050565b600060808201905061275d6000830187612374565b61276a6020830186612374565b61277760408301856126ce565b81810360608301526127898184612392565b905095945050505050565b60006020820190506127a96000830184612383565b92915050565b600060208201905081810360008301526127c981846123cb565b905092915050565b600060208201905081810360008301526127ea81612435565b9050919050565b6000602082019050818103600083015261280a81612458565b9050919050565b6000602082019050818103600083015261282a8161247b565b9050919050565b6000602082019050818103600083015261284a8161249e565b9050919050565b6000602082019050818103600083015261286a816124c1565b9050919050565b6000602082019050818103600083015261288a816124e4565b9050919050565b600060208201905081810360008301526128aa81612507565b9050919050565b600060208201905081810360008301526128ca8161252a565b9050919050565b600060208201905081810360008301526128ea8161254d565b9050919050565b6000602082019050818103600083015261290a81612570565b9050919050565b6000602082019050818103600083015261292a81612593565b9050919050565b6000602082019050818103600083015261294a816125b6565b9050919050565b6000602082019050818103600083015261296a816125d9565b9050919050565b6000602082019050818103600083015261298a816125fc565b9050919050565b600060208201905081810360008301526129aa8161261f565b9050919050565b600060208201905081810360008301526129ca81612642565b9050919050565b600060208201905081810360008301526129ea81612665565b9050919050565b60006020820190508181036000830152612a0a816126ab565b9050919050565b6000602082019050612a2660008301846126ce565b92915050565b6000612a36612a47565b9050612a428282612ca4565b919050565b6000604051905090565b600067ffffffffffffffff821115612a6c57612a6b612e0b565b5b612a7582612e4e565b9050602081019050919050565b600067ffffffffffffffff821115612a9d57612a9c612e0b565b5b612aa682612e4e565b9050602081019050919050565b600081519050919050565b600081519050919050565b600082825260208201905092915050565b600081905092915050565b600082825260208201905092915050565b600081905092915050565b6000612b0c82612c26565b9150612b1783612c26565b9250827fffffffffffffffffffffffffffffffffffffffffffffffffffffffffffffffff03821115612b4c57612b4b612d4f565b5b828201905092915050565b6000612b6282612c26565b9150612b6d83612c26565b925082612b7d57612b7c612d7e565b5b828204905092915050565b6000612b9382612c26565b9150612b9e83612c26565b925082821015612bb157612bb0612d4f565b5b828203905092915050565b6000612bc782612c06565b9050919050565b60008115159050919050565b60007fffffffff0000000000000000000000000000000000000000000000000000000082169050919050565b600073ffffffffffffffffffffffffffffffffffffffff82169050919050565b6000819050919050565b82818337600083830152505050565b60005b83811015612c5d578082015181840152602081019050612c42565b83811115612c6c576000848401525b50505050565b60006002820490506001821680612c8a57607f821691505b60208210811415612c9e57612c9d612dad565b5b50919050565b612cad82612e4e565b810181811067ffffffffffffffff82111715612ccc57612ccb612e0b565b5b80604052505050565b6000612ce082612c26565b91507fffffffffffffffffffffffffffffffffffffffffffffffffffffffffffffffff821415612d1357612d12612d4f565b5b600182019050919050565b6000612d2982612c26565b9150612d3483612c26565b925082612d4457612d43612d7e565b5b828206905092915050565b7f4e487b7100000000000000000000000000000000000000000000000000000000600052601160045260246000fd5b7f4e487b7100000000000000000000000000000000000000000000000000000000600052601260045260246000fd5b7f4e487b7100000000000000000000000000000000000000000000000000000000600052602260045260246000fd5b7f4e487b7100000000000000000000000000000000000000000000000000000000600052603260045260246000fd5b7f4e487b7100000000000000000000000000000000000000000000000000000000600052604160045260246000fd5b600080fd5b600080fd5b600080fd5b600080fd5b6000601f19601f8301169050919050565b7f4552433732313a207472616e7366657220746f206e6f6e20455243373231526560008201527f63656976657220696d706c656d656e7465720000000000000000000000000000602082015250565b7f4552433732313a20746f6b656e20616c7265616479206d696e74656400000000600082015250565b7f4661696c656420746f2073656e64204574686572000000000000000000000000600082015250565b7f4552433732313a207472616e7366657220746f20746865207a65726f2061646460008201527f7265737300000000000000000000000000000000000000000000000000000000602082015250565b7f4552433732313a20617070726f766520746f2063616c6c657200000000000000600082015250565b7f4552433732313a206f70657261746f7220717565727920666f72206e6f6e657860008201527f697374656e7420746f6b656e0000000000000000000000000000000000000000602082015250565b7f4552433732313a20617070726f76652063616c6c6572206973206e6f74206f7760008201527f6e6572206e6f7220617070726f76656420666f7220616c6c0000000000000000602082015250565b7f4552433732313a2062616c616e636520717565727920666f7220746865207a6560008201527f726f206164647265737300000000000000000000000000000000000000000000602082015250565b7f4552433732313a206f776e657220717565727920666f72206e6f6e657869737460008201527f656e7420746f6b656e0000000000000000000000000000000000000000000000602082015250565b7f45524337323155524953746f726167653a2055524920736574206f66206e6f6e60008201527f6578697374656e7420746f6b656e000000000000000000000000000000000000602082015250565b7f4552433732313a206d696e7420746f20746865207a65726f2061646472657373600082015250565b7f45524337323155524953746f726167653a2055524920717565727920666f722060008201527f6e6f6e6578697374656e7420746f6b656e000000000000000000000000000000602082015250565b7f4552433732313a20617070726f76656420717565727920666f72206e6f6e657860008201527f697374656e7420746f6b656e0000000000000000000000000000000000000000602082015250565b7f4552433732313a207472616e73666572206f6620746f6b656e2074686174206960008201527f73206e6f74206f776e0000000000000000000000000000000000000000000000602082015250565b7f4552433732314d657461646174613a2055524920717565727920666f72206e6f60008201527f6e6578697374656e7420746f6b656e0000000000000000000000000000000000602082015250565b7f53656e6420746865206d696e696d756d20616d6f756e74207265717569726564600082015250565b7f4552433732313a20617070726f76616c20746f2063757272656e74206f776e6560008201527f7200000000000000000000000000000000000000000000000000000000000000602082015250565b50565b7f4552433732313a207472616e736665722063616c6c6572206973206e6f74206f60008201527f776e6572206e6f7220617070726f766564000000000000000000000000000000602082015250565b61333b81612bbc565b811461334657600080fd5b50565b61335281612bce565b811461335d57600080fd5b50565b61336981612bda565b811461337457600080fd5b50565b61338081612c26565b811461338b57600080fd5b5056fea26469706673582212200a119c8170a9d02cc83956a338bc85a034099b6f34ee9e0a180e56c771e152dd64736f6c63430008060033",
  "immutableReferences": {},
  "source": "// SPDX-License-Identifier: MIT\npragma solidity ^0.8.0;\n\nimport \"@openzeppelin/contracts/token/ERC721/extensions/ERC721URIStorage.sol\";\nimport \"@openzeppelin/contracts/token/ERC721/ERC721.sol\";\nimport \"@openzeppelin/contracts/utils/Counters.sol\";\n\ncontract TokenERC721 is ERC721URIStorage {\n\n  using Counters for Counters.Counter;\n  Counters.Counter private _tokenIds;\n\n  mapping(string => uint8) hashes;\n  mapping(address => uint256) public ethBalance; \n  mapping(uint256 => uint256) public tokenPrice;\n  \n  constructor() ERC721(\"TokenERC721\", \"TKN\") {}\n\n  function awardItem(uint256 price, string memory hash, string memory metadata) public payable returns (uint256)\n  {\n    require(msg.value >= price, \"Send the minimum amount required\");  \n    require(hashes[hash] != 1);\n    hashes[hash] = 1;\n\n    _tokenIds.increment();\n    uint256 newItemId = _tokenIds.current();\n  \n    _mint(msg.sender, newItemId);\n    _setTokenURI(newItemId, metadata);\n    \n    ethBalance[msg.sender] += msg.value;\n    tokenPrice[newItemId] = price;\n    \n    return newItemId;\n  }\n      function transferFrom(address from, address to, uint256 tokenId ) public virtual override {\n        require(_isApprovedOrOwner(_msgSender(), tokenId), \"ERC721: transfer caller is not owner nor approved\");\n        _transfer(from, to, tokenId);\n        \n        ethBalance[from] -= tokenPrice[tokenId];\n        ethBalance[to] += tokenPrice[tokenId];\n    }\n     \n  ///Voir pour implmenter nonReentrant ici\n  function reimbursment(address from, uint256 tokenId) external{\n       require(_isApprovedOrOwner(_msgSender(), tokenId), \"ERC721: transfer caller is not owner nor approved\");\n        ethBalance[from] -= tokenPrice[tokenId];\n        _burn(tokenId);\n        \n        (bool success, ) = msg.sender.call{value: tokenPrice[tokenId]}(\"\");\n        require(success, \"Failed to send Ether\");\n  }\n\n  receive() external payable {}\n\n}\n/*  \n\n   ///@dev j'ai plac le contrat MarketPlace ici au cas ou :).\npragma abicoder v2;\n\nimport \"@openzeppelin/contracts/utils/Counters.sol\";\nimport \"@openzeppelin/contracts/utils/math/SafeMath.sol\";\nimport \"@openzeppelin/contracts/security/ReentrancyGuard.sol\";\nimport \"@openzeppelin/contracts/token/ERC721/ERC721.sol\";\nimport \"./ERC721.sol\";\n\n contract  MarketPlace is ReentrancyGuard {\n    \n    using SafeMath for uint;\n    using Counters for Counters.Counter;\n    Counters.Counter private _itemIds;\n    Counters.Counter private _itemsSold;\n    \n    address payable owner;\n    uint256 listingPrice = 0.001 ether;\n    \n    constructor() {\n        owner = payable(msg.sender);\n    }\n    \n    struct MarketItem {\n        uint256 itemId;\n        address nftContract;\n        uint256 tokenId;\n        address payable seller;\n        address payable owner;\n        uint256 price;\n        bool sold;\n    }\n    \n    mapping(uint256 => MarketItem) private idToMarketItem;\n    \n    event MarketItemCreated(\n        uint256 itemId,\n        address nftContract,\n        uint256 tokenId,\n        address seller,\n        address owner,\n        uint256 price,\n        bool sold\n        );\n        \n    function getListingPrice() public view returns(uint256) {\n        return listingPrice;\n    }\n        \n    function createMarketItem(\n        address nftContract,\n        uint256 tokenId,\n        uint256 price\n        ) public payable nonReentrant {\n            require(price > 0, \"Price must not be equal to zero\");\n            require(msg.value >= listingPrice, \"Price must be more or equal to listingPrice\");\n            \n            _itemIds.increment();\n            uint256 itemId = _itemIds.current();\n            \n            idToMarketItem[itemId] = MarketItem(\n                itemId,\n                nftContract,\n                tokenId,\n                payable(msg.sender),\n                payable(address(0)),\n                price,\n                false\n                );\n                \n          IERC721(nftContract).transferFrom(msg.sender, address(this), tokenId);\n          \n          emit MarketItemCreated(\n              itemId,\n              nftContract,\n              tokenId,\n              msg.sender,\n              address(0),\n              price,\n              false\n              );\n        } \n        \n        function createMarketSale(\n            address nftContract,\n            uint256 itemId\n            ) public payable nonReentrant {\n                \n                uint256 price = idToMarketItem[itemId].price;\n                uint256 tokenId = idToMarketItem[itemId].tokenId;\n                \n                require(msg.value >= price, \"You haven't paid enough to make the purchase\");\n                //Ici trouver comment cre une variables qui remplacera le seller  accountSeller afin de ne pas lui envoyer directement.\n                \n                idToMarketItem[itemId].seller.transfer(msg.value);\n                IERC721(nftContract).transferFrom(address(this), msg.sender, tokenId);\n                \n                idToMarketItem[itemId].owner = payable(msg.sender);\n                idToMarketItem[itemId].sold = true;\n                _itemsSold.increment();\n                payable(owner).transfer(listingPrice);\n            }\n            \n            function fetchMarketItems() public view returns(MarketItem[] memory) {\n                uint256 itemCount = _itemIds.current();\n                ///@dev voir pour utiliser safeMath here\n                uint256 unsoldItemCount = _itemIds.current() - _itemsSold.current();\n                uint256 currentIndex = 0;\n                \n                MarketItem[] memory items = new MarketItem[](unsoldItemCount);\n                for(uint i = 0; i < itemCount; i++) {\n                    if(idToMarketItem[i + 1].owner == address(0)) {\n                        uint256 currentId = idToMarketItem[i + 1].itemId;\n                        MarketItem storage currentItem = idToMarketItem[currentId];\n                        items[currentIndex] = currentItem;\n                        currentIndex = currentIndex.add(1);\n                    }\n                }\n                return items;\n            }\n            \n            function fetchMyNFTs() public view returns(MarketItem[] memory) {\n                uint256 totalItemCount = _itemIds.current();\n                uint256 itemCount = 0;\n                uint256 currentIndex = 0;\n                \n                for(uint i = 0; i < totalItemCount; i++) {\n                    if(idToMarketItem[i + 1].owner == msg.sender) {\n                        itemCount = itemCount.add(1);\n                    }\n                }\n                \n                MarketItem[] memory items = new MarketItem[](itemCount);\n                for(uint i = 0; i < totalItemCount; i++) {\n                    if(idToMarketItem[i + 1].owner == msg.sender) {\n                        uint256 currentId = i + 1;\n                        MarketItem storage currentItem = idToMarketItem[currentId];\n                        items[currentIndex] = currentItem;\n                        currentIndex = currentIndex.add(1);\n                      }\n                    }    \n                return items;\n            }\n            \n            function fetchNFTCreated() public view returns(MarketItem[] memory) {\n                uint256 totalItemCount = _itemIds.current();\n                uint256 itemCount = 0;\n                uint256 currentIndex = 0;\n                \n                for(uint256 i = 0; i < totalItemCount; i++) {\n                    if(idToMarketItem[i + 1].seller == msg.sender) {\n                        itemCount = itemCount.add(1);\n                    }\n                }\n                MarketItem[] memory items = new MarketItem[](itemCount);\n                for(uint256 i = 0; i < totalItemCount; i++) {\n                    if(idToMarketItem[i + 1].seller == msg.sender) {\n                        uint256 currentId = i + 1;\n                        MarketItem storage currentItem = idToMarketItem[currentId];\n                        items[currentIndex] = currentItem;\n                        currentIndex = currentIndex.add(1);\n                    }\n                }\n                return items;\n            }\n       \n }        \n\n\ncontract MarketPlace is Ownable {\n\n  using SafeMath for uint;\n     \n    uint256 productPrice;\n    address recipient;\n\n    //constructor() ERC20(\"\", \"\") {}\n\n    struct Payment {\n        uint256 price;\n        uint256 productId;\n    }\n\n    struct Presta {\n      bool isPresta;\n      bool isAllowedToWithdraw;\n      uint256 amountToWithdraw;\n      \n    }\n\n    struct ownerNFT {\n        bool isOwner;\n        uint256 id;\n        address ownerOfNFT;\n    }\n\n    ownerNFT[] owner;\n\n    mapping(address => Payment[]) public payments;\n    mapping(address => Presta) public prestataire;\n\n    event productBought(address From, uint256 Amount, uint256 productId);\n    event priceChange(address From, uint256 Price);\n    event hasDeposited(address from, uint amountDeposited);\n    event isAllowedToPull(address isAllowed);\n    event hasWithdrawn(address from, uint amountWithdrawn);\n\n  \n\n    function buyProduct(uint256 productId) public payable {\n        require(msg.value >= productPrice, \"You didn't send the correct amount\");\n        require(recipient != address(0), \"ERC1155: transfer to 0 address\");\n\n         Payment memory _payment = Payment(productPrice, productId);\n         payments[msg.sender].push(_payment);\n\n         //productPrice = productPrice.add(msg.value);\n\n         emit productBought(msg.sender, msg.value, productId); \n    }\n\n    function createOffer() external {\n         //require(prestataire[msg.sender].isPresta == true);\n         owner.push(ownerNFT(true, owner.length, msg.sender));\n    }\n\n    function allowPresta(address _address) external onlyOwner() {\n        prestataire[_address].isPresta = true;\n        prestataire[_address].isAllowedToWithdraw = true;\n        emit isAllowedToPull(_address);\n    }\n\n    function withdrawFunds() public payable {\n      //uint256 amountToClaim = prestataire[msg.sender].amountToWithdraw;\n       \n      //require(prestataire[msg.sender].isAllowedToWithdraw == true);\n\n      //prestataire[msg.sender].amountToWithdraw = 0;\n        \n      (bool success, ) = msg.sender.call{value: balanceOf[msg.sender]}(\"\");\n      require(success, \"Failed to send to Presta\");\n      \n      balanceOf[msg.sender] = 0; \n    }\n\n    function getBalanceOfEth() public view returns(uint256) {\n      return address(this).balance;\n    }\n\n    receive() external payable{\n      \n    }\n}\n\n   function setPrice(uint256 _productPrice) public onlyOwner() {\n         productPrice = _productPrice;\n         emit priceChange(msg.sender, _productPrice);\n    }\n\n    ///@notice we need to elaborate converter smart contract to deploy following\n     function sendToSwaper() external onlyOwner() {\n        require(address(this).balance >= 1 ether, \"Not gas efficient to send now\");\n           (bool sent, ) = swaperAddress.call{value: address(this).balance}(\"\");\n           require(sent, \"Failed to send Ether\");\n    }\n\n    function setVaultAddress(address _vaultAdd) external onlyOwner() {\n      VaultAddress = _vaultAdd;\n    } \n\n    function sendDaiToVault() external onlyOwner(){\n      require(amountOfDai >= minAmountDai, \"Not gas efficient to send now\");\n        (bool sent, ) = VaultAddress.call{value: amountOfDai}(\"\");\n        require(sent, \"Failed to send Dai\");\n    } */\n",
  "sourcePath": "/Users/kilianmongey/Desktop/HomePageDigiBox/DigiBox/contracts/ERC721.sol",
  "compiler": {
    "name": "solc",
    "version": "0.8.6+commit.11564f7e.Emscripten.clang"
  },
  "schemaVersion": "3.4.1",
  "updatedAt": "2021-07-28T14:24:44.866Z",
  "networkType": "ethereum",
  "devdoc": {
    "kind": "dev",
    "methods": {
      "approve(address,uint256)": {
        "details": "See {IERC721-approve}."
      },
      "balanceOf(address)": {
        "details": "See {IERC721-balanceOf}."
      },
      "getApproved(uint256)": {
        "details": "See {IERC721-getApproved}."
      },
      "isApprovedForAll(address,address)": {
        "details": "See {IERC721-isApprovedForAll}."
      },
      "name()": {
        "details": "See {IERC721Metadata-name}."
      },
      "ownerOf(uint256)": {
        "details": "See {IERC721-ownerOf}."
      },
      "safeTransferFrom(address,address,uint256)": {
        "details": "See {IERC721-safeTransferFrom}."
      },
      "safeTransferFrom(address,address,uint256,bytes)": {
        "details": "See {IERC721-safeTransferFrom}."
      },
      "setApprovalForAll(address,bool)": {
        "details": "See {IERC721-setApprovalForAll}."
      },
      "supportsInterface(bytes4)": {
        "details": "See {IERC165-supportsInterface}."
      },
      "symbol()": {
        "details": "See {IERC721Metadata-symbol}."
      },
      "tokenURI(uint256)": {
        "details": "See {IERC721Metadata-tokenURI}."
      },
      "transferFrom(address,address,uint256)": {
        "details": "See {IERC721-transferFrom}."
      }
    },
    "version": 1
  },
  "userdoc": {
    "kind": "user",
    "methods": {
      "reimbursment(address,uint256)": {
        "notice": "Voir pour implmenter nonReentrant ici"
      }
    },
    "version": 1
  }
}