{
  "contractName": "TokenERC721",
  "abi": [
    {
      "inputs": [],
      "stateMutability": "nonpayable",
      "type": "constructor"
    },
    {
      "anonymous": false,
      "inputs": [
        {
          "indexed": true,
          "internalType": "address",
          "name": "owner",
          "type": "address"
        },
        {
          "indexed": true,
          "internalType": "address",
          "name": "approved",
          "type": "address"
        },
        {
          "indexed": true,
          "internalType": "uint256",
          "name": "tokenId",
          "type": "uint256"
        }
      ],
      "name": "Approval",
      "type": "event"
    },
    {
      "anonymous": false,
      "inputs": [
        {
          "indexed": true,
          "internalType": "address",
          "name": "owner",
          "type": "address"
        },
        {
          "indexed": true,
          "internalType": "address",
          "name": "operator",
          "type": "address"
        },
        {
          "indexed": false,
          "internalType": "bool",
          "name": "approved",
          "type": "bool"
        }
      ],
      "name": "ApprovalForAll",
      "type": "event"
    },
    {
      "anonymous": false,
      "inputs": [
        {
          "indexed": true,
          "internalType": "address",
          "name": "from",
          "type": "address"
        },
        {
          "indexed": true,
          "internalType": "address",
          "name": "to",
          "type": "address"
        },
        {
          "indexed": true,
          "internalType": "uint256",
          "name": "tokenId",
          "type": "uint256"
        }
      ],
      "name": "Transfer",
      "type": "event"
    },
    {
      "anonymous": false,
      "inputs": [
        {
          "indexed": false,
          "internalType": "address",
          "name": "Buyer",
          "type": "address"
        },
        {
          "indexed": false,
          "internalType": "string",
          "name": "Hash",
          "type": "string"
        },
        {
          "indexed": false,
          "internalType": "string",
          "name": "Metadata",
          "type": "string"
        },
        {
          "indexed": false,
          "internalType": "uint256",
          "name": "IdOfOffer",
          "type": "uint256"
        },
        {
          "indexed": false,
          "internalType": "uint256",
          "name": "value",
          "type": "uint256"
        }
      ],
      "name": "mintedNFT",
      "type": "event"
    },
    {
      "anonymous": false,
      "inputs": [
        {
          "indexed": false,
          "internalType": "uint256",
          "name": "price",
          "type": "uint256"
        },
        {
          "indexed": false,
          "internalType": "uint256",
          "name": "offerId",
          "type": "uint256"
        },
        {
          "indexed": false,
          "internalType": "address",
          "name": "From",
          "type": "address"
        }
      ],
      "name": "priceIsSet",
      "type": "event"
    },
    {
      "anonymous": false,
      "inputs": [
        {
          "indexed": false,
          "internalType": "address",
          "name": "From",
          "type": "address"
        },
        {
          "indexed": false,
          "internalType": "uint256",
          "name": "amount",
          "type": "uint256"
        }
      ],
      "name": "reimbursed",
      "type": "event"
    },
    {
      "anonymous": false,
      "inputs": [
        {
          "indexed": false,
          "internalType": "address",
          "name": "From",
          "type": "address"
        },
        {
          "indexed": false,
          "internalType": "address",
          "name": "To",
          "type": "address"
        },
        {
          "indexed": false,
          "internalType": "uint256",
          "name": "tokenId",
          "type": "uint256"
        }
      ],
      "name": "transferedNFT",
      "type": "event"
    },
    {
      "inputs": [
        {
          "internalType": "address",
          "name": "to",
          "type": "address"
        },
        {
          "internalType": "uint256",
          "name": "tokenId",
          "type": "uint256"
        }
      ],
      "name": "approve",
      "outputs": [],
      "stateMutability": "nonpayable",
      "type": "function"
    },
    {
      "inputs": [
        {
          "internalType": "address",
          "name": "owner",
          "type": "address"
        }
      ],
      "name": "balanceOf",
      "outputs": [
        {
          "internalType": "uint256",
          "name": "",
          "type": "uint256"
        }
      ],
      "stateMutability": "view",
      "type": "function",
      "constant": true
    },
    {
      "inputs": [
        {
          "internalType": "address",
          "name": "",
          "type": "address"
        }
      ],
      "name": "ethBalance",
      "outputs": [
        {
          "internalType": "uint256",
          "name": "",
          "type": "uint256"
        }
      ],
      "stateMutability": "view",
      "type": "function",
      "constant": true
    },
    {
      "inputs": [
        {
          "internalType": "uint256",
          "name": "tokenId",
          "type": "uint256"
        }
      ],
      "name": "getApproved",
      "outputs": [
        {
          "internalType": "address",
          "name": "",
          "type": "address"
        }
      ],
      "stateMutability": "view",
      "type": "function",
      "constant": true
    },
    {
      "inputs": [
        {
          "internalType": "address",
          "name": "owner",
          "type": "address"
        },
        {
          "internalType": "address",
          "name": "operator",
          "type": "address"
        }
      ],
      "name": "isApprovedForAll",
      "outputs": [
        {
          "internalType": "bool",
          "name": "",
          "type": "bool"
        }
      ],
      "stateMutability": "view",
      "type": "function",
      "constant": true
    },
    {
      "inputs": [],
      "name": "name",
      "outputs": [
        {
          "internalType": "string",
          "name": "",
          "type": "string"
        }
      ],
      "stateMutability": "view",
      "type": "function",
      "constant": true
    },
    {
      "inputs": [
        {
          "internalType": "uint256",
          "name": "tokenId",
          "type": "uint256"
        }
      ],
      "name": "ownerOf",
      "outputs": [
        {
          "internalType": "address",
          "name": "",
          "type": "address"
        }
      ],
      "stateMutability": "view",
      "type": "function",
      "constant": true
    },
    {
      "inputs": [
        {
          "internalType": "address",
          "name": "from",
          "type": "address"
        },
        {
          "internalType": "address",
          "name": "to",
          "type": "address"
        },
        {
          "internalType": "uint256",
          "name": "tokenId",
          "type": "uint256"
        }
      ],
      "name": "safeTransferFrom",
      "outputs": [],
      "stateMutability": "nonpayable",
      "type": "function"
    },
    {
      "inputs": [
        {
          "internalType": "address",
          "name": "from",
          "type": "address"
        },
        {
          "internalType": "address",
          "name": "to",
          "type": "address"
        },
        {
          "internalType": "uint256",
          "name": "tokenId",
          "type": "uint256"
        },
        {
          "internalType": "bytes",
          "name": "_data",
          "type": "bytes"
        }
      ],
      "name": "safeTransferFrom",
      "outputs": [],
      "stateMutability": "nonpayable",
      "type": "function"
    },
    {
      "inputs": [
        {
          "internalType": "address",
          "name": "operator",
          "type": "address"
        },
        {
          "internalType": "bool",
          "name": "approved",
          "type": "bool"
        }
      ],
      "name": "setApprovalForAll",
      "outputs": [],
      "stateMutability": "nonpayable",
      "type": "function"
    },
    {
      "inputs": [
        {
          "internalType": "bytes4",
          "name": "interfaceId",
          "type": "bytes4"
        }
      ],
      "name": "supportsInterface",
      "outputs": [
        {
          "internalType": "bool",
          "name": "",
          "type": "bool"
        }
      ],
      "stateMutability": "view",
      "type": "function",
      "constant": true
    },
    {
      "inputs": [],
      "name": "symbol",
      "outputs": [
        {
          "internalType": "string",
          "name": "",
          "type": "string"
        }
      ],
      "stateMutability": "view",
      "type": "function",
      "constant": true
    },
    {
      "inputs": [
        {
          "internalType": "uint256",
          "name": "",
          "type": "uint256"
        }
      ],
      "name": "tokenPrice",
      "outputs": [
        {
          "internalType": "uint256",
          "name": "",
          "type": "uint256"
        }
      ],
      "stateMutability": "view",
      "type": "function",
      "constant": true
    },
    {
      "inputs": [
        {
          "internalType": "uint256",
          "name": "tokenId",
          "type": "uint256"
        }
      ],
      "name": "tokenURI",
      "outputs": [
        {
          "internalType": "string",
          "name": "",
          "type": "string"
        }
      ],
      "stateMutability": "view",
      "type": "function",
      "constant": true
    },
    {
      "stateMutability": "payable",
      "type": "receive",
      "payable": true
    },
    {
      "inputs": [],
      "name": "getOfferId",
      "outputs": [
        {
          "internalType": "uint256",
          "name": "",
          "type": "uint256"
        }
      ],
      "stateMutability": "view",
      "type": "function",
      "constant": true
    },
    {
      "inputs": [],
      "name": "getTokenId",
      "outputs": [
        {
          "internalType": "uint256",
          "name": "",
          "type": "uint256"
        }
      ],
      "stateMutability": "view",
      "type": "function",
      "constant": true
    },
    {
      "inputs": [
        {
          "internalType": "uint256",
          "name": "price",
          "type": "uint256"
        }
      ],
      "name": "setPrice",
      "outputs": [],
      "stateMutability": "nonpayable",
      "type": "function"
    },
    {
      "inputs": [
        {
          "internalType": "uint256",
          "name": "offerId",
          "type": "uint256"
        },
        {
          "internalType": "string",
          "name": "hash",
          "type": "string"
        },
        {
          "internalType": "string",
          "name": "metadata",
          "type": "string"
        }
      ],
      "name": "awardItem",
      "outputs": [
        {
          "internalType": "uint256",
          "name": "",
          "type": "uint256"
        }
      ],
      "stateMutability": "payable",
      "type": "function",
      "payable": true
    },
    {
      "inputs": [
        {
          "internalType": "address",
          "name": "_address",
          "type": "address"
        }
      ],
      "name": "getEthBalance",
      "outputs": [
        {
          "internalType": "uint256",
          "name": "",
          "type": "uint256"
        }
      ],
      "stateMutability": "view",
      "type": "function",
      "constant": true
    },
    {
      "inputs": [
        {
          "internalType": "address",
          "name": "from",
          "type": "address"
        },
        {
          "internalType": "address",
          "name": "to",
          "type": "address"
        },
        {
          "internalType": "uint256",
          "name": "tokenId",
          "type": "uint256"
        }
      ],
      "name": "transferFrom",
      "outputs": [],
      "stateMutability": "nonpayable",
      "type": "function"
    },
    {
      "inputs": [
        {
          "internalType": "uint256",
          "name": "tokenId",
          "type": "uint256"
        }
      ],
      "name": "reimbursement",
      "outputs": [],
      "stateMutability": "payable",
      "type": "function",
      "payable": true
    }
  ],
  "bytecode": "0x60806040523480156200001157600080fd5b506040518060400160405280600c81526020017f44696769626f78546f6b656e00000000000000000000000000000000000000008152506040518060400160405280600481526020017f4447425400000000000000000000000000000000000000000000000000000000815250816000908051906020019062000096929190620000b8565b508060019080519060200190620000af929190620000b8565b505050620001cd565b828054620000c69062000168565b90600052602060002090601f016020900481019282620000ea576000855562000136565b82601f106200010557805160ff191683800117855562000136565b8280016001018555821562000136579182015b828111156200013557825182559160200191906001019062000118565b5b50905062000145919062000149565b5090565b5b80821115620001645760008160009055506001016200014a565b5090565b600060028204905060018216806200018157607f821691505b602082108114156200019857620001976200019e565b5b50919050565b7f4e487b7100000000000000000000000000000000000000000000000000000000600052602260045260246000fd5b61370d80620001dd6000396000f3fe60806040526004361061012e5760003560e01c80638f22a0f6116100ab578063c87b56dd1161006f578063c87b56dd14610412578063d4ddce8a1461044f578063d8f3790f1461048c578063db4dc555146104c9578063e985e9c5146104f4578063f734d0bc1461053157610135565b80638f22a0f61461033c57806391b7f5ed1461036c57806395d89b4114610395578063a22cb465146103c0578063b88d4fde146103e957610135565b806323b872dd116100f257806323b872dd1461023357806342842e0e1461025c5780634d2301cc146102855780636352211e146102c257806370a08231146102ff57610135565b8063010a38f51461013a57806301ffc9a71461016557806306fdde03146101a2578063081812fc146101cd578063095ea7b31461020a57610135565b3661013557005b600080fd5b34801561014657600080fd5b5061014f61054d565b60405161015c9190612d23565b60405180910390f35b34801561017157600080fd5b5061018c600480360381019061018791906124b3565b61055e565b6040516101999190612aa6565b60405180910390f35b3480156101ae57600080fd5b506101b7610640565b6040516101c49190612ac1565b60405180910390f35b3480156101d957600080fd5b506101f460048036038101906101ef919061250d565b6106d2565b604051610201919061297e565b60405180910390f35b34801561021657600080fd5b50610231600480360381019061022c9190612473565b610757565b005b34801561023f57600080fd5b5061025a6004803603810190610255919061235d565b61086f565b005b34801561026857600080fd5b50610283600480360381019061027e919061235d565b6109dc565b005b34801561029157600080fd5b506102ac60048036038101906102a791906122f0565b6109fc565b6040516102b99190612d23565b60405180910390f35b3480156102ce57600080fd5b506102e960048036038101906102e4919061250d565b610a45565b6040516102f6919061297e565b60405180910390f35b34801561030b57600080fd5b50610326600480360381019061032191906122f0565b610af7565b6040516103339190612d23565b60405180910390f35b6103566004803603810190610351919061253a565b610baf565b6040516103639190612d23565b60405180910390f35b34801561037857600080fd5b50610393600480360381019061038e919061250d565b610d36565b005b3480156103a157600080fd5b506103aa610da5565b6040516103b79190612ac1565b60405180910390f35b3480156103cc57600080fd5b506103e760048036038101906103e29190612433565b610e37565b005b3480156103f557600080fd5b50610410600480360381019061040b91906123b0565b610fb8565b005b34801561041e57600080fd5b506104396004803603810190610434919061250d565b61101a565b6040516104469190612ac1565b60405180910390f35b34801561045b57600080fd5b506104766004803603810190610471919061250d565b61116c565b6040516104839190612d23565b60405180910390f35b34801561049857600080fd5b506104b360048036038101906104ae91906122f0565b611184565b6040516104c09190612d23565b60405180910390f35b3480156104d557600080fd5b506104de61119c565b6040516104eb9190612d23565b60405180910390f35b34801561050057600080fd5b5061051b6004803603810190610516919061231d565b6111ad565b6040516105289190612aa6565b60405180910390f35b61054b6004803603810190610546919061250d565b611241565b005b600061055960076113ff565b905090565b60007f80ac58cd000000000000000000000000000000000000000000000000000000007bffffffffffffffffffffffffffffffffffffffffffffffffffffffff1916827bffffffffffffffffffffffffffffffffffffffffffffffffffffffff1916148061062957507f5b5e139f000000000000000000000000000000000000000000000000000000007bffffffffffffffffffffffffffffffffffffffffffffffffffffffff1916827bffffffffffffffffffffffffffffffffffffffffffffffffffffffff1916145b8061063957506106388261140d565b5b9050919050565b60606000805461064f90612fbb565b80601f016020809104026020016040519081016040528092919081815260200182805461067b90612fbb565b80156106c85780601f1061069d576101008083540402835291602001916106c8565b820191906000526020600020905b8154815290600101906020018083116106ab57829003601f168201915b5050505050905090565b60006106dd82611477565b61071c576040517f08c379a000000000000000000000000000000000000000000000000000000000815260040161071390612c63565b60405180910390fd5b6004600083815260200190815260200160002060009054906101000a900473ffffffffffffffffffffffffffffffffffffffff169050919050565b600061076282610a45565b90508073ffffffffffffffffffffffffffffffffffffffff168373ffffffffffffffffffffffffffffffffffffffff1614156107d3576040517f08c379a00000000000000000000000000000000000000000000000000000000081526004016107ca90612ce3565b60405180910390fd5b8073ffffffffffffffffffffffffffffffffffffffff166107f26114e3565b73ffffffffffffffffffffffffffffffffffffffff16148061082157506108208161081b6114e3565b6111ad565b5b610860576040517f08c379a000000000000000000000000000000000000000000000000000000000815260040161085790612ba3565b60405180910390fd5b61086a83836114eb565b505050565b61088061087a6114e3565b826115a4565b6108bf576040517f08c379a00000000000000000000000000000000000000000000000000000000081526004016108b690612d03565b60405180910390fd5b6108ca838383611682565b600c600082815260200190815260200160002054600b60008573ffffffffffffffffffffffffffffffffffffffff1673ffffffffffffffffffffffffffffffffffffffff168152602001908152602001600020600082825461092c9190612ed1565b92505081905550600c600082815260200190815260200160002054600b60008473ffffffffffffffffffffffffffffffffffffffff1673ffffffffffffffffffffffffffffffffffffffff16815260200190815260200160002060008282546109959190612e4a565b925050819055507f6c2aeaee1b2bcbe5f896afd6f1497efe77faa35f596af23de7d9c1797c3de6ae3383836040516109cf93929190612999565b60405180910390a1505050565b6109f783838360405180602001604052806000815250610fb8565b505050565b6000600b60008373ffffffffffffffffffffffffffffffffffffffff1673ffffffffffffffffffffffffffffffffffffffff168152602001908152602001600020549050919050565b6000806002600084815260200190815260200160002060009054906101000a900473ffffffffffffffffffffffffffffffffffffffff169050600073ffffffffffffffffffffffffffffffffffffffff168173ffffffffffffffffffffffffffffffffffffffff161415610aee576040517f08c379a0000000000000000000000000000000000000000000000000000000008152600401610ae590612be3565b60405180910390fd5b80915050919050565b60008073ffffffffffffffffffffffffffffffffffffffff168273ffffffffffffffffffffffffffffffffffffffff161415610b68576040517f08c379a0000000000000000000000000000000000000000000000000000000008152600401610b5f90612bc3565b60405180910390fd5b600360008373ffffffffffffffffffffffffffffffffffffffff1673ffffffffffffffffffffffffffffffffffffffff168152602001908152602001600020549050919050565b60006009600085815260200190815260200160002054341015610c07576040517f08c379a0000000000000000000000000000000000000000000000000000000008152600401610bfe90612cc3565b60405180910390fd5b6001600a84604051610c19919061292e565b908152602001604051809103902060006101000a81548160ff021916908360ff1602179055506000610c4b60076113ff565b9050610c5733826118de565b610c618184611aac565b34600b60003373ffffffffffffffffffffffffffffffffffffffff1673ffffffffffffffffffffffffffffffffffffffff1681526020019081526020016000206000828254610cb09190612e4a565b925050819055506009600086815260200190815260200160002054600c6000838152602001908152602001600020819055507fa72e331ab8ad0d5c8f868b09a361cb2713686d80bbfa4014430aefc088f08fc23385858834604051610d19959493929190612a1c565b60405180910390a1610d2b6007611b20565b809150509392505050565b6000610d4260086113ff565b9050816009600083815260200190815260200160002081905550610d666008611b20565b7f8ebdaa04732de2a2dcf4abc009dbcd0e7247a038ee079346ad1c6a3f69a2d86a828233604051610d9993929190612d3e565b60405180910390a15050565b606060018054610db490612fbb565b80601f0160208091040260200160405190810160405280929190818152602001828054610de090612fbb565b8015610e2d5780601f10610e0257610100808354040283529160200191610e2d565b820191906000526020600020905b815481529060010190602001808311610e1057829003601f168201915b5050505050905090565b610e3f6114e3565b73ffffffffffffffffffffffffffffffffffffffff168273ffffffffffffffffffffffffffffffffffffffff161415610ead576040517f08c379a0000000000000000000000000000000000000000000000000000000008152600401610ea490612b63565b60405180910390fd5b8060056000610eba6114e3565b73ffffffffffffffffffffffffffffffffffffffff1673ffffffffffffffffffffffffffffffffffffffff16815260200190815260200160002060008473ffffffffffffffffffffffffffffffffffffffff1673ffffffffffffffffffffffffffffffffffffffff16815260200190815260200160002060006101000a81548160ff0219169083151502179055508173ffffffffffffffffffffffffffffffffffffffff16610f676114e3565b73ffffffffffffffffffffffffffffffffffffffff167f17307eab39ab6107e8899845ad3d59bd9653f200f220920489ca2b5937696c3183604051610fac9190612aa6565b60405180910390a35050565b610fc9610fc36114e3565b836115a4565b611008576040517f08c379a0000000000000000000000000000000000000000000000000000000008152600401610fff90612d03565b60405180910390fd5b61101484848484611b36565b50505050565b606061102582611477565b611064576040517f08c379a000000000000000000000000000000000000000000000000000000000815260040161105b90612c43565b60405180910390fd5b600060066000848152602001908152602001600020805461108490612fbb565b80601f01602080910402602001604051908101604052809291908181526020018280546110b090612fbb565b80156110fd5780601f106110d2576101008083540402835291602001916110fd565b820191906000526020600020905b8154815290600101906020018083116110e057829003601f168201915b50505050509050600061110e611b92565b9050600081511415611124578192505050611167565b600082511115611159578082604051602001611141929190612945565b60405160208183030381529060405292505050611167565b61116284611ba9565b925050505b919050565b600c6020528060005260406000206000915090505481565b600b6020528060005260406000206000915090505481565b60006111a860086113ff565b905090565b6000600560008473ffffffffffffffffffffffffffffffffffffffff1673ffffffffffffffffffffffffffffffffffffffff16815260200190815260200160002060008373ffffffffffffffffffffffffffffffffffffffff1673ffffffffffffffffffffffffffffffffffffffff16815260200190815260200160002060009054906101000a900460ff16905092915050565b61125261124c6114e3565b826115a4565b611291576040517f08c379a000000000000000000000000000000000000000000000000000000000815260040161128890612d03565b60405180910390fd5b600c600082815260200190815260200160002054600b60003373ffffffffffffffffffffffffffffffffffffffff1673ffffffffffffffffffffffffffffffffffffffff16815260200190815260200160002060008282546112f39190612ed1565b9250508190555061130381611c50565b60003373ffffffffffffffffffffffffffffffffffffffff16600c60008481526020019081526020016000205460405161133c90612969565b60006040518083038185875af1925050503d8060008114611379576040519150601f19603f3d011682016040523d82523d6000602084013e61137e565b606091505b50509050806113c2576040517f08c379a00000000000000000000000000000000000000000000000000000000081526004016113b990612b23565b60405180910390fd5b7fd2feab25e5c986396a523049de32de231ac0ba0b7ffbc066041499a97191d51133346040516113f3929190612a7d565b60405180910390a15050565b600081600001549050919050565b60007f01ffc9a7000000000000000000000000000000000000000000000000000000007bffffffffffffffffffffffffffffffffffffffffffffffffffffffff1916827bffffffffffffffffffffffffffffffffffffffffffffffffffffffff1916149050919050565b60008073ffffffffffffffffffffffffffffffffffffffff166002600084815260200190815260200160002060009054906101000a900473ffffffffffffffffffffffffffffffffffffffff1673ffffffffffffffffffffffffffffffffffffffff1614159050919050565b600033905090565b816004600083815260200190815260200160002060006101000a81548173ffffffffffffffffffffffffffffffffffffffff021916908373ffffffffffffffffffffffffffffffffffffffff160217905550808273ffffffffffffffffffffffffffffffffffffffff1661155e83610a45565b73ffffffffffffffffffffffffffffffffffffffff167f8c5be1e5ebec7d5bd14f71427d1e84f3dd0314c0f7b2291e5b200ac8c7c3b92560405160405180910390a45050565b60006115af82611477565b6115ee576040517f08c379a00000000000000000000000000000000000000000000000000000000081526004016115e590612b83565b60405180910390fd5b60006115f983610a45565b90508073ffffffffffffffffffffffffffffffffffffffff168473ffffffffffffffffffffffffffffffffffffffff16148061166857508373ffffffffffffffffffffffffffffffffffffffff16611650846106d2565b73ffffffffffffffffffffffffffffffffffffffff16145b80611679575061167881856111ad565b5b91505092915050565b8273ffffffffffffffffffffffffffffffffffffffff166116a282610a45565b73ffffffffffffffffffffffffffffffffffffffff16146116f8576040517f08c379a00000000000000000000000000000000000000000000000000000000081526004016116ef90612c83565b60405180910390fd5b600073ffffffffffffffffffffffffffffffffffffffff168273ffffffffffffffffffffffffffffffffffffffff161415611768576040517f08c379a000000000000000000000000000000000000000000000000000000000815260040161175f90612b43565b60405180910390fd5b611773838383611ca3565b61177e6000826114eb565b6001600360008573ffffffffffffffffffffffffffffffffffffffff1673ffffffffffffffffffffffffffffffffffffffff16815260200190815260200160002060008282546117ce9190612ed1565b925050819055506001600360008473ffffffffffffffffffffffffffffffffffffffff1673ffffffffffffffffffffffffffffffffffffffff16815260200190815260200160002060008282546118259190612e4a565b92505081905550816002600083815260200190815260200160002060006101000a81548173ffffffffffffffffffffffffffffffffffffffff021916908373ffffffffffffffffffffffffffffffffffffffff160217905550808273ffffffffffffffffffffffffffffffffffffffff168473ffffffffffffffffffffffffffffffffffffffff167fddf252ad1be2c89b69c2b068fc378daa952ba7f163c4a11628f55a4df523b3ef60405160405180910390a4505050565b600073ffffffffffffffffffffffffffffffffffffffff168273ffffffffffffffffffffffffffffffffffffffff16141561194e576040517f08c379a000000000000000000000000000000000000000000000000000000000815260040161194590612c23565b60405180910390fd5b61195781611477565b15611997576040517f08c379a000000000000000000000000000000000000000000000000000000000815260040161198e90612b03565b60405180910390fd5b6119a360008383611ca3565b6001600360008473ffffffffffffffffffffffffffffffffffffffff1673ffffffffffffffffffffffffffffffffffffffff16815260200190815260200160002060008282546119f39190612e4a565b92505081905550816002600083815260200190815260200160002060006101000a81548173ffffffffffffffffffffffffffffffffffffffff021916908373ffffffffffffffffffffffffffffffffffffffff160217905550808273ffffffffffffffffffffffffffffffffffffffff16600073ffffffffffffffffffffffffffffffffffffffff167fddf252ad1be2c89b69c2b068fc378daa952ba7f163c4a11628f55a4df523b3ef60405160405180910390a45050565b611ab582611477565b611af4576040517f08c379a0000000000000000000000000000000000000000000000000000000008152600401611aeb90612c03565b60405180910390fd5b80600660008481526020019081526020016000209080519060200190611b1b9291906120c4565b505050565b6001816000016000828254019250508190555050565b611b41848484611682565b611b4d84848484611ca8565b611b8c576040517f08c379a0000000000000000000000000000000000000000000000000000000008152600401611b8390612ae3565b60405180910390fd5b50505050565b606060405180602001604052806000815250905090565b6060611bb482611477565b611bf3576040517f08c379a0000000000000000000000000000000000000000000000000000000008152600401611bea90612ca3565b60405180910390fd5b6000611bfd611b92565b90506000815111611c1d5760405180602001604052806000815250611c48565b80611c2784611e3f565b604051602001611c38929190612945565b6040516020818303038152906040525b915050919050565b611c5981611fa0565b6000600660008381526020019081526020016000208054611c7990612fbb565b905014611ca057600660008281526020019081526020016000206000611c9f919061214a565b5b50565b505050565b6000611cc98473ffffffffffffffffffffffffffffffffffffffff166120b1565b15611e32578373ffffffffffffffffffffffffffffffffffffffff1663150b7a02611cf26114e3565b8786866040518563ffffffff1660e01b8152600401611d1494939291906129d0565b602060405180830381600087803b158015611d2e57600080fd5b505af1925050508015611d5f57506040513d601f19601f82011682018060405250810190611d5c91906124e0565b60015b611de2573d8060008114611d8f576040519150601f19603f3d011682016040523d82523d6000602084013e611d94565b606091505b50600081511415611dda576040517f08c379a0000000000000000000000000000000000000000000000000000000008152600401611dd190612ae3565b60405180910390fd5b805181602001fd5b63150b7a0260e01b7bffffffffffffffffffffffffffffffffffffffffffffffffffffffff1916817bffffffffffffffffffffffffffffffffffffffffffffffffffffffff191614915050611e37565b600190505b949350505050565b60606000821415611e87576040518060400160405280600181526020017f30000000000000000000000000000000000000000000000000000000000000008152509050611f9b565b600082905060005b60008214611eb9578080611ea29061301e565b915050600a82611eb29190612ea0565b9150611e8f565b60008167ffffffffffffffff811115611ed557611ed4613154565b5b6040519080825280601f01601f191660200182016040528015611f075781602001600182028036833780820191505090505b5090505b60008514611f9457600182611f209190612ed1565b9150600a85611f2f9190613067565b6030611f3b9190612e4a565b60f81b818381518110611f5157611f50613125565b5b60200101907effffffffffffffffffffffffffffffffffffffffffffffffffffffffffffff1916908160001a905350600a85611f8d9190612ea0565b9450611f0b565b8093505050505b919050565b6000611fab82610a45565b9050611fb981600084611ca3565b611fc46000836114eb565b6001600360008373ffffffffffffffffffffffffffffffffffffffff1673ffffffffffffffffffffffffffffffffffffffff16815260200190815260200160002060008282546120149190612ed1565b925050819055506002600083815260200190815260200160002060006101000a81549073ffffffffffffffffffffffffffffffffffffffff021916905581600073ffffffffffffffffffffffffffffffffffffffff168273ffffffffffffffffffffffffffffffffffffffff167fddf252ad1be2c89b69c2b068fc378daa952ba7f163c4a11628f55a4df523b3ef60405160405180910390a45050565b600080823b905060008111915050919050565b8280546120d090612fbb565b90600052602060002090601f0160209004810192826120f25760008555612139565b82601f1061210b57805160ff1916838001178555612139565b82800160010185558215612139579182015b8281111561213857825182559160200191906001019061211d565b5b509050612146919061218a565b5090565b50805461215690612fbb565b6000825580601f106121685750612187565b601f016020900490600052602060002090810190612186919061218a565b5b50565b5b808211156121a357600081600090555060010161218b565b5090565b60006121ba6121b584612d9a565b612d75565b9050828152602081018484840111156121d6576121d5613188565b5b6121e1848285612f79565b509392505050565b60006121fc6121f784612dcb565b612d75565b90508281526020810184848401111561221857612217613188565b5b612223848285612f79565b509392505050565b60008135905061223a8161367b565b92915050565b60008135905061224f81613692565b92915050565b600081359050612264816136a9565b92915050565b600081519050612279816136a9565b92915050565b600082601f83011261229457612293613183565b5b81356122a48482602086016121a7565b91505092915050565b600082601f8301126122c2576122c1613183565b5b81356122d28482602086016121e9565b91505092915050565b6000813590506122ea816136c0565b92915050565b60006020828403121561230657612305613192565b5b60006123148482850161222b565b91505092915050565b6000806040838503121561233457612333613192565b5b60006123428582860161222b565b92505060206123538582860161222b565b9150509250929050565b60008060006060848603121561237657612375613192565b5b60006123848682870161222b565b93505060206123958682870161222b565b92505060406123a6868287016122db565b9150509250925092565b600080600080608085870312156123ca576123c9613192565b5b60006123d88782880161222b565b94505060206123e98782880161222b565b93505060406123fa878288016122db565b925050606085013567ffffffffffffffff81111561241b5761241a61318d565b5b6124278782880161227f565b91505092959194509250565b6000806040838503121561244a57612449613192565b5b60006124588582860161222b565b925050602061246985828601612240565b9150509250929050565b6000806040838503121561248a57612489613192565b5b60006124988582860161222b565b92505060206124a9858286016122db565b9150509250929050565b6000602082840312156124c9576124c8613192565b5b60006124d784828501612255565b91505092915050565b6000602082840312156124f6576124f5613192565b5b60006125048482850161226a565b91505092915050565b60006020828403121561252357612522613192565b5b6000612531848285016122db565b91505092915050565b60008060006060848603121561255357612552613192565b5b6000612561868287016122db565b935050602084013567ffffffffffffffff8111156125825761258161318d565b5b61258e868287016122ad565b925050604084013567ffffffffffffffff8111156125af576125ae61318d565b5b6125bb868287016122ad565b9150509250925092565b6125ce81612f05565b82525050565b6125dd81612f17565b82525050565b60006125ee82612dfc565b6125f88185612e12565b9350612608818560208601612f88565b61261181613197565b840191505092915050565b600061262782612e07565b6126318185612e2e565b9350612641818560208601612f88565b61264a81613197565b840191505092915050565b600061266082612e07565b61266a8185612e3f565b935061267a818560208601612f88565b80840191505092915050565b6000612693603283612e2e565b915061269e826131a8565b604082019050919050565b60006126b6601c83612e2e565b91506126c1826131f7565b602082019050919050565b60006126d9601483612e2e565b91506126e482613220565b602082019050919050565b60006126fc602483612e2e565b915061270782613249565b604082019050919050565b600061271f601983612e2e565b915061272a82613298565b602082019050919050565b6000612742602c83612e2e565b915061274d826132c1565b604082019050919050565b6000612765603883612e2e565b915061277082613310565b604082019050919050565b6000612788602a83612e2e565b91506127938261335f565b604082019050919050565b60006127ab602983612e2e565b91506127b6826133ae565b604082019050919050565b60006127ce602e83612e2e565b91506127d9826133fd565b604082019050919050565b60006127f1602083612e2e565b91506127fc8261344c565b602082019050919050565b6000612814603183612e2e565b915061281f82613475565b604082019050919050565b6000612837602c83612e2e565b9150612842826134c4565b604082019050919050565b600061285a602983612e2e565b915061286582613513565b604082019050919050565b600061287d602f83612e2e565b915061288882613562565b604082019050919050565b60006128a0602083612e2e565b91506128ab826135b1565b602082019050919050565b60006128c3602183612e2e565b91506128ce826135da565b604082019050919050565b60006128e6600083612e23565b91506128f182613629565b600082019050919050565b6000612909603183612e2e565b91506129148261362c565b604082019050919050565b61292881612f6f565b82525050565b600061293a8284612655565b915081905092915050565b60006129518285612655565b915061295d8284612655565b91508190509392505050565b6000612974826128d9565b9150819050919050565b600060208201905061299360008301846125c5565b92915050565b60006060820190506129ae60008301866125c5565b6129bb60208301856125c5565b6129c8604083018461291f565b949350505050565b60006080820190506129e560008301876125c5565b6129f260208301866125c5565b6129ff604083018561291f565b8181036060830152612a1181846125e3565b905095945050505050565b600060a082019050612a3160008301886125c5565b8181036020830152612a43818761261c565b90508181036040830152612a57818661261c565b9050612a66606083018561291f565b612a73608083018461291f565b9695505050505050565b6000604082019050612a9260008301856125c5565b612a9f602083018461291f565b9392505050565b6000602082019050612abb60008301846125d4565b92915050565b60006020820190508181036000830152612adb818461261c565b905092915050565b60006020820190508181036000830152612afc81612686565b9050919050565b60006020820190508181036000830152612b1c816126a9565b9050919050565b60006020820190508181036000830152612b3c816126cc565b9050919050565b60006020820190508181036000830152612b5c816126ef565b9050919050565b60006020820190508181036000830152612b7c81612712565b9050919050565b60006020820190508181036000830152612b9c81612735565b9050919050565b60006020820190508181036000830152612bbc81612758565b9050919050565b60006020820190508181036000830152612bdc8161277b565b9050919050565b60006020820190508181036000830152612bfc8161279e565b9050919050565b60006020820190508181036000830152612c1c816127c1565b9050919050565b60006020820190508181036000830152612c3c816127e4565b9050919050565b60006020820190508181036000830152612c5c81612807565b9050919050565b60006020820190508181036000830152612c7c8161282a565b9050919050565b60006020820190508181036000830152612c9c8161284d565b9050919050565b60006020820190508181036000830152612cbc81612870565b9050919050565b60006020820190508181036000830152612cdc81612893565b9050919050565b60006020820190508181036000830152612cfc816128b6565b9050919050565b60006020820190508181036000830152612d1c816128fc565b9050919050565b6000602082019050612d38600083018461291f565b92915050565b6000606082019050612d53600083018661291f565b612d60602083018561291f565b612d6d60408301846125c5565b949350505050565b6000612d7f612d90565b9050612d8b8282612fed565b919050565b6000604051905090565b600067ffffffffffffffff821115612db557612db4613154565b5b612dbe82613197565b9050602081019050919050565b600067ffffffffffffffff821115612de657612de5613154565b5b612def82613197565b9050602081019050919050565b600081519050919050565b600081519050919050565b600082825260208201905092915050565b600081905092915050565b600082825260208201905092915050565b600081905092915050565b6000612e5582612f6f565b9150612e6083612f6f565b9250827fffffffffffffffffffffffffffffffffffffffffffffffffffffffffffffffff03821115612e9557612e94613098565b5b828201905092915050565b6000612eab82612f6f565b9150612eb683612f6f565b925082612ec657612ec56130c7565b5b828204905092915050565b6000612edc82612f6f565b9150612ee783612f6f565b925082821015612efa57612ef9613098565b5b828203905092915050565b6000612f1082612f4f565b9050919050565b60008115159050919050565b60007fffffffff0000000000000000000000000000000000000000000000000000000082169050919050565b600073ffffffffffffffffffffffffffffffffffffffff82169050919050565b6000819050919050565b82818337600083830152505050565b60005b83811015612fa6578082015181840152602081019050612f8b565b83811115612fb5576000848401525b50505050565b60006002820490506001821680612fd357607f821691505b60208210811415612fe757612fe66130f6565b5b50919050565b612ff682613197565b810181811067ffffffffffffffff8211171561301557613014613154565b5b80604052505050565b600061302982612f6f565b91507fffffffffffffffffffffffffffffffffffffffffffffffffffffffffffffffff82141561305c5761305b613098565b5b600182019050919050565b600061307282612f6f565b915061307d83612f6f565b92508261308d5761308c6130c7565b5b828206905092915050565b7f4e487b7100000000000000000000000000000000000000000000000000000000600052601160045260246000fd5b7f4e487b7100000000000000000000000000000000000000000000000000000000600052601260045260246000fd5b7f4e487b7100000000000000000000000000000000000000000000000000000000600052602260045260246000fd5b7f4e487b7100000000000000000000000000000000000000000000000000000000600052603260045260246000fd5b7f4e487b7100000000000000000000000000000000000000000000000000000000600052604160045260246000fd5b600080fd5b600080fd5b600080fd5b600080fd5b6000601f19601f8301169050919050565b7f4552433732313a207472616e7366657220746f206e6f6e20455243373231526560008201527f63656976657220696d706c656d656e7465720000000000000000000000000000602082015250565b7f4552433732313a20746f6b656e20616c7265616479206d696e74656400000000600082015250565b7f4661696c656420746f2073656e64204574686572000000000000000000000000600082015250565b7f4552433732313a207472616e7366657220746f20746865207a65726f2061646460008201527f7265737300000000000000000000000000000000000000000000000000000000602082015250565b7f4552433732313a20617070726f766520746f2063616c6c657200000000000000600082015250565b7f4552433732313a206f70657261746f7220717565727920666f72206e6f6e657860008201527f697374656e7420746f6b656e0000000000000000000000000000000000000000602082015250565b7f4552433732313a20617070726f76652063616c6c6572206973206e6f74206f7760008201527f6e6572206e6f7220617070726f76656420666f7220616c6c0000000000000000602082015250565b7f4552433732313a2062616c616e636520717565727920666f7220746865207a6560008201527f726f206164647265737300000000000000000000000000000000000000000000602082015250565b7f4552433732313a206f776e657220717565727920666f72206e6f6e657869737460008201527f656e7420746f6b656e0000000000000000000000000000000000000000000000602082015250565b7f45524337323155524953746f726167653a2055524920736574206f66206e6f6e60008201527f6578697374656e7420746f6b656e000000000000000000000000000000000000602082015250565b7f4552433732313a206d696e7420746f20746865207a65726f2061646472657373600082015250565b7f45524337323155524953746f726167653a2055524920717565727920666f722060008201527f6e6f6e6578697374656e7420746f6b656e000000000000000000000000000000602082015250565b7f4552433732313a20617070726f76656420717565727920666f72206e6f6e657860008201527f697374656e7420746f6b656e0000000000000000000000000000000000000000602082015250565b7f4552433732313a207472616e73666572206f6620746f6b656e2074686174206960008201527f73206e6f74206f776e0000000000000000000000000000000000000000000000602082015250565b7f4552433732314d657461646174613a2055524920717565727920666f72206e6f60008201527f6e6578697374656e7420746f6b656e0000000000000000000000000000000000602082015250565b7f53656e6420746865206d696e696d756d20616d6f756e74207265717569726564600082015250565b7f4552433732313a20617070726f76616c20746f2063757272656e74206f776e6560008201527f7200000000000000000000000000000000000000000000000000000000000000602082015250565b50565b7f4552433732313a207472616e736665722063616c6c6572206973206e6f74206f60008201527f776e6572206e6f7220617070726f766564000000000000000000000000000000602082015250565b61368481612f05565b811461368f57600080fd5b50565b61369b81612f17565b81146136a657600080fd5b50565b6136b281612f23565b81146136bd57600080fd5b50565b6136c981612f6f565b81146136d457600080fd5b5056fea26469706673582212208b227938673c5a6f58060e96b7a4d04d6f05ad85b3dfcccbb49635a1d622913464736f6c63430008060033",
  "immutableReferences": {},
  "source": "// SPDX-License-Identifier: MIT\npragma solidity ^0.8.0;\n\n///@title A NFT MarketPlace, selling and paying.\n///@author Nicolas Fruneau, Kilian Mongey.\n///@notice This contract is open source, you are more then welcomed to copy functions as you please.\n///@dev We purposely put many data Off-Chain, trying to keep our smart contract as gas efficient as possible.\n///NOTE : This smart contract hasn't been audited. Please, DYOR before launching. \n\n///@dev We will implement the following libraries in our SC.\n\nimport \"@openzeppelin/contracts/token/ERC721/extensions/ERC721URIStorage.sol\";\nimport \"@openzeppelin/contracts/utils/Counters.sol\";\n\ncontract TokenERC721 is ERC721URIStorage { \n\n    using Counters for Counters.Counter;\n    Counters.Counter private _tokenIds;\n    Counters.Counter private _offerIds;\n\n    mapping(uint256 => uint256) prices;\n    mapping(string => uint8) hashes;\n    mapping(address => uint256) public ethBalance; \n    mapping(uint256 => uint256) public tokenPrice;\n\n    event priceIsSet(uint256 price, uint256 offerId, address From);\n    event mintedNFT(address Buyer, string Hash, string Metadata, uint256 IdOfOffer, uint256 value);\n    event transferedNFT(address From, address To, uint256 tokenId);\n    event reimbursed(address From, uint256 amount);\n\n    constructor() ERC721(\"DigiboxToken\", \"DGBT\") {}\n\n    /* @notice Sets the price of the NFT, inputed by the seller.\n     * @dev We use the OZ lib to increment Id's in order to avoid overFlows\n     * @param price We then set the price to the following Id of the NFT\n     * @dev By placing an event here, we will be able to display it on our front-end\n     * @return Finally we return the unique Id created by our function\n     */\n\n    function getOfferId() public view returns(uint256) {\n        return _offerIds.current();\n    }\n\n    function getTokenId() public view returns(uint256) {\n        return _tokenIds.current();\n    }\n\n    function setPrice(uint256 price) public {\n        uint256 newOfferId = _offerIds.current();\n        prices[newOfferId] = price;\n        _offerIds.increment();\n        emit priceIsSet(price, newOfferId, msg.sender);\n    }\n     \n     /** @notice Minting and attributing the NFT to the buyer.\n      * @dev Firstly we require that the value sent is higher then the value asked by the seller\n      * then, using the _mint function from OZ lib we create the NFT and send it to the function caller.\n      * UpDate the ether balance of the buyer\n      * @param offerId We want to be able to track the offers created. \n      * @param hash ???? NICO HELPPPPPP ????\n      * @param metadata Datas to create the NFT\n      * @dev We also want to be able to display in our front a few event, so we added this mintedNFT event\n      * @return We return the item's unique Id\n      */\n\n    function awardItem(uint256 offerId, string memory hash, string memory metadata) public payable returns (uint256) {\n        require(msg.value >= prices[offerId], \"Send the minimum amount required\");  \n        // require(hashes[hash] != 1);\n        hashes[hash] = 1;\n\n        uint256 newItemId = _tokenIds.current();\n\n        _mint(msg.sender, newItemId);\n        _setTokenURI(newItemId, metadata);\n\n        ethBalance[msg.sender] += msg.value;\n        tokenPrice[newItemId] = prices[offerId];\n\n        emit mintedNFT(msg.sender, hash, metadata, offerId, msg.value);\n\n        _tokenIds.increment();\n        \n        return newItemId;\n    }\n\n    function getEthBalance(address _address) public view returns(uint256) {\n        return ethBalance[_address];\n    }\n\n    /** @notice This function is used to transfer NFT's, this function \n     * will be used to send to the seller's, or send the NFT as a gift \n     * @dev We back this function using OZ ERC721 lib\n     * using the lib, we require that the token owner is the caller of this function\n     * We then proceed to the transfer \n     * @param from The msg.sender\n     * @param to The receiver \n     * @param tokenId We make sure that the tokenID is inputed as a param by the caller to avoid problems\n     * @dev By emitting these events we are able to display a msg in our front\n     * Finally, we reset the balances of the owner and the receiver.\n     */\n\n    function transferFrom(address from, address to, uint256 tokenId ) public virtual override {\n        require(_isApprovedOrOwner(_msgSender(), tokenId), \"ERC721: transfer caller is not owner nor approved\");\n        _transfer(from, to, tokenId);\n        \n        ethBalance[from] -= tokenPrice[tokenId];\n        ethBalance[to] += tokenPrice[tokenId];\n        emit transferedNFT(msg.sender, to, tokenId);\n    }\n     \n    /** @notice This function is our \"pay\" function, indeed we decided to go with a pull over push function\n     * Firstly for security reasons, it also allows the user that purchased \n     * the NFT to call this function and to get reimbursed, so everybody win's :)\n     * @dev As in our previous function we use the OZ lib to back-up our contract\n     * We then require that the caller is the owner of the tokenId \n     * then the balance of the caller is updated.\n     * the token is then burned(using OZ lib)\n     * then => proceed to the payment, the caller will receive his funds by calling the function\n     * Emitting this event will allow the front to send a confirmation/Fail messsage\n     * @param tokenId We need to know the tokenId to proceed\n     */\n       \n       /// J'ai retir le param address from\n    function reimbursement(uint256 tokenId) external payable {\n        require(_isApprovedOrOwner(_msgSender(), tokenId), \"ERC721: transfer caller is not owner nor approved\");\n        ethBalance[msg.sender] -= tokenPrice[tokenId];\n        _burn(tokenId);\n\n        (bool success, ) = msg.sender.call{value: tokenPrice[tokenId]}(\"\");\n        require(success, \"Failed to send Ether\");\n\n        emit reimbursed(msg.sender, msg.value);\n    }\n\n     ///@dev fallback function\n    receive() external payable {}\n}\n\n\n\n\n\n/*  \n///@dev j'ai plac le contrat MarketPlace ici au cas ou :).\npragma abicoder v2;\nimport \"@openzeppelin/contracts/utils/Counters.sol\";\nimport \"@openzeppelin/contracts/utils/math/SafeMath.sol\";\nimport \"@openzeppelin/contracts/security/ReentrancyGuard.sol\";\nimport \"@openzeppelin/contracts/token/ERC721/ERC721.sol\";\nimport \"./ERC721.sol\";\n contract  MarketPlace is ReentrancyGuard {\n    \n    using SafeMath for uint;\n    using Counters for Counters.Counter;\n    Counters.Counter private _itemIds;\n    Counters.Counter private _itemsSold;\n    \n    address payable owner;\n    uint256 listingPrice = 0.001 ether;\n    \n    constructor() {\n        owner = payable(msg.sender);\n    }\n    \n    struct MarketItem {\n        uint256 itemId;\n        address nftContract;\n        uint256 tokenId;\n        address payable seller;\n        address payable owner;\n        uint256 price;\n        bool sold;\n    }\n    \n    mapping(uint256 => MarketItem) private idToMarketItem;\n    \n    event MarketItemCreated(\n        uint256 itemId,\n        address nftContract,\n        uint256 tokenId,\n        address seller,\n        address owner,\n        uint256 price,\n        bool sold\n        );\n        \n    function getListingPrice() public view returns(uint256) {\n        return listingPrice;\n    }\n        \n    function createMarketItem(\n        address nftContract,\n        uint256 tokenId,\n        uint256 price\n        ) public payable nonReentrant {\n            require(price > 0, \"Price must not be equal to zero\");\n            require(msg.value >= listingPrice, \"Price must be more or equal to listingPrice\");\n            \n            _itemIds.increment();\n            uint256 itemId = _itemIds.current();\n            \n            idToMarketItem[itemId] = MarketItem(\n                itemId,\n                nftContract,\n                tokenId,\n                payable(msg.sender),\n                payable(address(0)),\n                price,\n                false\n                );\n                \n          IERC721(nftContract).transferFrom(msg.sender, address(this), tokenId);\n          \n          emit MarketItemCreated(\n              itemId,\n              nftContract,\n              tokenId,\n              msg.sender,\n              address(0),\n              price,\n              false\n              );\n        } \n        \n        function createMarketSale(\n            address nftContract,\n            uint256 itemId\n            ) public payable nonReentrant {\n                \n                uint256 price = idToMarketItem[itemId].price;\n                uint256 tokenId = idToMarketItem[itemId].tokenId;\n                \n                require(msg.value >= price, \"You haven't paid enough to make the purchase\");\n                //Ici trouver comment cre une variables qui remplacera le seller  accountSeller afin de ne pas lui envoyer directement.\n                \n                idToMarketItem[itemId].seller.transfer(msg.value);\n                IERC721(nftContract).transferFrom(address(this), msg.sender, tokenId);\n                \n                idToMarketItem[itemId].owner = payable(msg.sender);\n                idToMarketItem[itemId].sold = true;\n                _itemsSold.increment();\n                payable(owner).transfer(listingPrice);\n            }\n            \n            function fetchMarketItems() public view returns(MarketItem[] memory) {\n                uint256 itemCount = _itemIds.current();\n                ///@dev voir pour utiliser safeMath here\n                uint256 unsoldItemCount = _itemIds.current() - _itemsSold.current();\n                uint256 currentIndex = 0;\n                \n                MarketItem[] memory items = new MarketItem[](unsoldItemCount);\n                for(uint i = 0; i < itemCount; i++) {\n                    if(idToMarketItem[i + 1].owner == address(0)) {\n                        uint256 currentId = idToMarketItem[i + 1].itemId;\n                        MarketItem storage currentItem = idToMarketItem[currentId];\n                        items[currentIndex] = currentItem;\n                        currentIndex = currentIndex.add(1);\n                    }\n                }\n                return items;\n            }\n            \n            function fetchMyNFTs() public view returns(MarketItem[] memory) {\n                uint256 totalItemCount = _itemIds.current();\n                uint256 itemCount = 0;\n                uint256 currentIndex = 0;\n                \n                for(uint i = 0; i < totalItemCount; i++) {\n                    if(idToMarketItem[i + 1].owner == msg.sender) {\n                        itemCount = itemCount.add(1);\n                    }\n                }\n                \n                MarketItem[] memory items = new MarketItem[](itemCount);\n                for(uint i = 0; i < totalItemCount; i++) {\n                    if(idToMarketItem[i + 1].owner == msg.sender) {\n                        uint256 currentId = i + 1;\n                        MarketItem storage currentItem = idToMarketItem[currentId];\n                        items[currentIndex] = currentItem;\n                        currentIndex = currentIndex.add(1);\n                      }\n                    }    \n                return items;\n            }\n            \n            function fetchNFTCreated() public view returns(MarketItem[] memory) {\n                uint256 totalItemCount = _itemIds.current();\n                uint256 itemCount = 0;\n                uint256 currentIndex = 0;\n                \n                for(uint256 i = 0; i < totalItemCount; i++) {\n                    if(idToMarketItem[i + 1].seller == msg.sender) {\n                        itemCount = itemCount.add(1);\n                    }\n                }\n                MarketItem[] memory items = new MarketItem[](itemCount);\n                for(uint256 i = 0; i < totalItemCount; i++) {\n                    if(idToMarketItem[i + 1].seller == msg.sender) {\n                        uint256 currentId = i + 1;\n                        MarketItem storage currentItem = idToMarketItem[currentId];\n                        items[currentIndex] = currentItem;\n                        currentIndex = currentIndex.add(1);\n                    }\n                }\n                return items;\n            }\n       \n }        \ncontract MarketPlace is Ownable {\n  using SafeMath for uint;\n     \n    uint256 productPrice;\n    address recipient;\n    //constructor() ERC20(\"\", \"\") {}\n    struct Payment {\n        uint256 price;\n        uint256 productId;\n    }\n    struct Presta {\n      bool isPresta;\n      bool isAllowedToWithdraw;\n      uint256 amountToWithdraw;\n      \n    }\n    struct ownerNFT {\n        bool isOwner;\n        uint256 id;\n        address ownerOfNFT;\n    }\n    ownerNFT[] owner;\n    mapping(address => Payment[]) public payments;\n    mapping(address => Presta) public prestataire;\n    event productBought(address From, uint256 Amount, uint256 productId);\n    event priceChange(address From, uint256 Price);\n    event hasDeposited(address from, uint amountDeposited);\n    event isAllowedToPull(address isAllowed);\n    event hasWithdrawn(address from, uint amountWithdrawn);\n  \n    function buyProduct(uint256 productId) public payable {\n        require(msg.value >= productPrice, \"You didn't send the correct amount\");\n        require(recipient != address(0), \"ERC1155: transfer to 0 address\");\n         Payment memory _payment = Payment(productPrice, productId);\n         payments[msg.sender].push(_payment);\n         //productPrice = productPrice.add(msg.value);\n         emit productBought(msg.sender, msg.value, productId); \n    }\n    function createOffer() external {\n         //require(prestataire[msg.sender].isPresta == true);\n         owner.push(ownerNFT(true, owner.length, msg.sender));\n    }\n    function allowPresta(address _address) external onlyOwner() {\n        prestataire[_address].isPresta = true;\n        prestataire[_address].isAllowedToWithdraw = true;\n        emit isAllowedToPull(_address);\n    }\n    function withdrawFunds() public payable {\n      //uint256 amountToClaim = prestataire[msg.sender].amountToWithdraw;\n       \n      //require(prestataire[msg.sender].isAllowedToWithdraw == true);\n      //prestataire[msg.sender].amountToWithdraw = 0;\n        \n      (bool success, ) = msg.sender.call{value: balanceOf[msg.sender]}(\"\");\n      require(success, \"Failed to send to Presta\");\n      \n      balanceOf[msg.sender] = 0; \n    }\n    function getBalanceOfEth() public view returns(uint256) {\n      return address(this).balance;\n    }\n    receive() external payable{\n      \n    }\n}\n   function setPrice(uint256 _productPrice) public onlyOwner() {\n         productPrice = _productPrice;\n         emit priceChange(msg.sender, _productPrice);\n    }\n    ///@notice we need to elaborate converter smart contract to deploy following\n     function sendToSwaper() external onlyOwner() {\n        require(address(this).balance >= 1 ether, \"Not gas efficient to send now\");\n           (bool sent, ) = swaperAddress.call{value: address(this).balance}(\"\");\n           require(sent, \"Failed to send Ether\");\n    }\n    function setVaultAddress(address _vaultAdd) external onlyOwner() {\n      VaultAddress = _vaultAdd;\n    } \n    function sendDaiToVault() external onlyOwner(){\n      require(amountOfDai >= minAmountDai, \"Not gas efficient to send now\");\n        (bool sent, ) = VaultAddress.call{value: amountOfDai}(\"\");\n        require(sent, \"Failed to send Dai\");\n    } */",
  "sourcePath": "/Users/kilianmongey/Desktop/HomePageDigiBox/DigiBox/contracts/ERC721.sol",
  "compiler": {
    "name": "solc",
    "version": "0.8.6+commit.11564f7e.Emscripten.clang"
  },
  "schemaVersion": "3.4.1",
  "updatedAt": "2021-08-02T09:13:15.380Z",
  "networkType": "ethereum",
  "devdoc": {
    "kind": "dev",
    "methods": {
      "approve(address,uint256)": {
        "details": "See {IERC721-approve}."
      },
      "awardItem(uint256,string,string)": {
        "details": "Firstly we require that the value sent is higher then the value asked by the seller then, using the _mint function from OZ lib we create the NFT and send it to the function caller. UpDate the ether balance of the buyerWe also want to be able to display in our front a few event, so we added this mintedNFT event",
        "params": {
          "hash": "???? NICO HELPPPPPP ????",
          "metadata": "Datas to create the NFT",
          "offerId": "We want to be able to track the offers created. "
        },
        "returns": {
          "_0": "We return the item's unique Id"
        }
      },
      "balanceOf(address)": {
        "details": "See {IERC721-balanceOf}."
      },
      "getApproved(uint256)": {
        "details": "See {IERC721-getApproved}."
      },
      "isApprovedForAll(address,address)": {
        "details": "See {IERC721-isApprovedForAll}."
      },
      "name()": {
        "details": "See {IERC721Metadata-name}."
      },
      "ownerOf(uint256)": {
        "details": "See {IERC721-ownerOf}."
      },
      "safeTransferFrom(address,address,uint256)": {
        "details": "See {IERC721-safeTransferFrom}."
      },
      "safeTransferFrom(address,address,uint256,bytes)": {
        "details": "See {IERC721-safeTransferFrom}."
      },
      "setApprovalForAll(address,bool)": {
        "details": "See {IERC721-setApprovalForAll}."
      },
      "supportsInterface(bytes4)": {
        "details": "See {IERC165-supportsInterface}."
      },
      "symbol()": {
        "details": "See {IERC721Metadata-symbol}."
      },
      "tokenURI(uint256)": {
        "details": "See {IERC721Metadata-tokenURI}."
      },
      "transferFrom(address,address,uint256)": {
        "details": "We back this function using OZ ERC721 lib using the lib, we require that the token owner is the caller of this function We then proceed to the transfer By emitting these events we are able to display a msg in our front Finally, we reset the balances of the owner and the receiver.",
        "params": {
          "from": "The msg.sender",
          "to": "The receiver ",
          "tokenId": "We make sure that the tokenID is inputed as a param by the caller to avoid problems"
        }
      }
    },
    "version": 1
  },
  "userdoc": {
    "kind": "user",
    "methods": {
      "awardItem(uint256,string,string)": {
        "notice": "Minting and attributing the NFT to the buyer."
      },
      "reimbursement(uint256)": {
        "notice": "J'ai retir le param address from"
      },
      "transferFrom(address,address,uint256)": {
        "notice": "This function is used to transfer NFT's, this function  will be used to send to the seller's, or send the NFT as a gift "
      }
    },
    "version": 1
  }
}