{
  "contractName": "TokenERC721",
  "abi": [
    {
      "inputs": [],
      "stateMutability": "nonpayable",
      "type": "constructor"
    },
    {
      "anonymous": false,
      "inputs": [
        {
          "indexed": true,
          "internalType": "address",
          "name": "owner",
          "type": "address"
        },
        {
          "indexed": true,
          "internalType": "address",
          "name": "approved",
          "type": "address"
        },
        {
          "indexed": true,
          "internalType": "uint256",
          "name": "tokenId",
          "type": "uint256"
        }
      ],
      "name": "Approval",
      "type": "event"
    },
    {
      "anonymous": false,
      "inputs": [
        {
          "indexed": true,
          "internalType": "address",
          "name": "owner",
          "type": "address"
        },
        {
          "indexed": true,
          "internalType": "address",
          "name": "operator",
          "type": "address"
        },
        {
          "indexed": false,
          "internalType": "bool",
          "name": "approved",
          "type": "bool"
        }
      ],
      "name": "ApprovalForAll",
      "type": "event"
    },
    {
      "anonymous": false,
      "inputs": [
        {
          "indexed": true,
          "internalType": "address",
          "name": "from",
          "type": "address"
        },
        {
          "indexed": true,
          "internalType": "address",
          "name": "to",
          "type": "address"
        },
        {
          "indexed": true,
          "internalType": "uint256",
          "name": "tokenId",
          "type": "uint256"
        }
      ],
      "name": "Transfer",
      "type": "event"
    },
    {
      "anonymous": false,
      "inputs": [
        {
          "indexed": false,
          "internalType": "address",
          "name": "Buyer",
          "type": "address"
        },
        {
          "indexed": false,
          "internalType": "string",
          "name": "Hash",
          "type": "string"
        },
        {
          "indexed": false,
          "internalType": "string",
          "name": "Metadata",
          "type": "string"
        },
        {
          "indexed": false,
          "internalType": "uint256",
          "name": "IdOfOffer",
          "type": "uint256"
        },
        {
          "indexed": false,
          "internalType": "uint256",
          "name": "value",
          "type": "uint256"
        }
      ],
      "name": "mintedNFT",
      "type": "event"
    },
    {
      "anonymous": false,
      "inputs": [
        {
          "indexed": false,
          "internalType": "uint256",
          "name": "price",
          "type": "uint256"
        },
        {
          "indexed": false,
          "internalType": "uint256",
          "name": "offerId",
          "type": "uint256"
        },
        {
          "indexed": false,
          "internalType": "address",
          "name": "From",
          "type": "address"
        }
      ],
      "name": "priceIsSet",
      "type": "event"
    },
    {
      "anonymous": false,
      "inputs": [
        {
          "indexed": false,
          "internalType": "address",
          "name": "From",
          "type": "address"
        },
        {
          "indexed": false,
          "internalType": "uint256",
          "name": "amount",
          "type": "uint256"
        }
      ],
      "name": "reimbursed",
      "type": "event"
    },
    {
      "anonymous": false,
      "inputs": [
        {
          "indexed": false,
          "internalType": "address",
          "name": "From",
          "type": "address"
        },
        {
          "indexed": false,
          "internalType": "address",
          "name": "To",
          "type": "address"
        },
        {
          "indexed": false,
          "internalType": "uint256",
          "name": "tokenId",
          "type": "uint256"
        }
      ],
      "name": "transferedNFT",
      "type": "event"
    },
    {
      "inputs": [
        {
          "internalType": "address",
          "name": "to",
          "type": "address"
        },
        {
          "internalType": "uint256",
          "name": "tokenId",
          "type": "uint256"
        }
      ],
      "name": "approve",
      "outputs": [],
      "stateMutability": "nonpayable",
      "type": "function"
    },
    {
      "inputs": [
        {
          "internalType": "address",
          "name": "owner",
          "type": "address"
        }
      ],
      "name": "balanceOf",
      "outputs": [
        {
          "internalType": "uint256",
          "name": "",
          "type": "uint256"
        }
      ],
      "stateMutability": "view",
      "type": "function",
      "constant": true
    },
    {
      "inputs": [
        {
          "internalType": "address",
          "name": "",
          "type": "address"
        }
      ],
      "name": "ethBalance",
      "outputs": [
        {
          "internalType": "uint256",
          "name": "",
          "type": "uint256"
        }
      ],
      "stateMutability": "view",
      "type": "function",
      "constant": true
    },
    {
      "inputs": [
        {
          "internalType": "uint256",
          "name": "tokenId",
          "type": "uint256"
        }
      ],
      "name": "getApproved",
      "outputs": [
        {
          "internalType": "address",
          "name": "",
          "type": "address"
        }
      ],
      "stateMutability": "view",
      "type": "function",
      "constant": true
    },
    {
      "inputs": [
        {
          "internalType": "address",
          "name": "owner",
          "type": "address"
        },
        {
          "internalType": "address",
          "name": "operator",
          "type": "address"
        }
      ],
      "name": "isApprovedForAll",
      "outputs": [
        {
          "internalType": "bool",
          "name": "",
          "type": "bool"
        }
      ],
      "stateMutability": "view",
      "type": "function",
      "constant": true
    },
    {
      "inputs": [],
      "name": "name",
      "outputs": [
        {
          "internalType": "string",
          "name": "",
          "type": "string"
        }
      ],
      "stateMutability": "view",
      "type": "function",
      "constant": true
    },
    {
      "inputs": [
        {
          "internalType": "uint256",
          "name": "tokenId",
          "type": "uint256"
        }
      ],
      "name": "ownerOf",
      "outputs": [
        {
          "internalType": "address",
          "name": "",
          "type": "address"
        }
      ],
      "stateMutability": "view",
      "type": "function",
      "constant": true
    },
    {
      "inputs": [
        {
          "internalType": "address",
          "name": "from",
          "type": "address"
        },
        {
          "internalType": "address",
          "name": "to",
          "type": "address"
        },
        {
          "internalType": "uint256",
          "name": "tokenId",
          "type": "uint256"
        }
      ],
      "name": "safeTransferFrom",
      "outputs": [],
      "stateMutability": "nonpayable",
      "type": "function"
    },
    {
      "inputs": [
        {
          "internalType": "address",
          "name": "from",
          "type": "address"
        },
        {
          "internalType": "address",
          "name": "to",
          "type": "address"
        },
        {
          "internalType": "uint256",
          "name": "tokenId",
          "type": "uint256"
        },
        {
          "internalType": "bytes",
          "name": "_data",
          "type": "bytes"
        }
      ],
      "name": "safeTransferFrom",
      "outputs": [],
      "stateMutability": "nonpayable",
      "type": "function"
    },
    {
      "inputs": [
        {
          "internalType": "address",
          "name": "operator",
          "type": "address"
        },
        {
          "internalType": "bool",
          "name": "approved",
          "type": "bool"
        }
      ],
      "name": "setApprovalForAll",
      "outputs": [],
      "stateMutability": "nonpayable",
      "type": "function"
    },
    {
      "inputs": [
        {
          "internalType": "bytes4",
          "name": "interfaceId",
          "type": "bytes4"
        }
      ],
      "name": "supportsInterface",
      "outputs": [
        {
          "internalType": "bool",
          "name": "",
          "type": "bool"
        }
      ],
      "stateMutability": "view",
      "type": "function",
      "constant": true
    },
    {
      "inputs": [],
      "name": "symbol",
      "outputs": [
        {
          "internalType": "string",
          "name": "",
          "type": "string"
        }
      ],
      "stateMutability": "view",
      "type": "function",
      "constant": true
    },
    {
      "inputs": [
        {
          "internalType": "uint256",
          "name": "",
          "type": "uint256"
        }
      ],
      "name": "tokenPrice",
      "outputs": [
        {
          "internalType": "uint256",
          "name": "",
          "type": "uint256"
        }
      ],
      "stateMutability": "view",
      "type": "function",
      "constant": true
    },
    {
      "inputs": [
        {
          "internalType": "uint256",
          "name": "tokenId",
          "type": "uint256"
        }
      ],
      "name": "tokenURI",
      "outputs": [
        {
          "internalType": "string",
          "name": "",
          "type": "string"
        }
      ],
      "stateMutability": "view",
      "type": "function",
      "constant": true
    },
    {
      "stateMutability": "payable",
      "type": "receive",
      "payable": true
    },
    {
      "inputs": [
        {
          "internalType": "uint256",
          "name": "price",
          "type": "uint256"
        }
      ],
      "name": "setPrice",
      "outputs": [],
      "stateMutability": "nonpayable",
      "type": "function"
    },
    {
      "inputs": [
        {
          "internalType": "uint256",
          "name": "offerId",
          "type": "uint256"
        },
        {
          "internalType": "string",
          "name": "hash",
          "type": "string"
        },
        {
          "internalType": "string",
          "name": "metadata",
          "type": "string"
        }
      ],
      "name": "awardItem",
      "outputs": [
        {
          "internalType": "uint256",
          "name": "",
          "type": "uint256"
        }
      ],
      "stateMutability": "payable",
      "type": "function",
      "payable": true
    },
    {
      "inputs": [
        {
          "internalType": "address",
          "name": "from",
          "type": "address"
        },
        {
          "internalType": "address",
          "name": "to",
          "type": "address"
        },
        {
          "internalType": "uint256",
          "name": "tokenId",
          "type": "uint256"
        }
      ],
      "name": "transferFrom",
      "outputs": [],
      "stateMutability": "nonpayable",
      "type": "function"
    },
    {
      "inputs": [
        {
          "internalType": "uint256",
          "name": "tokenId",
          "type": "uint256"
        }
      ],
      "name": "reimbursement",
      "outputs": [],
      "stateMutability": "payable",
      "type": "function",
      "payable": true
    },
    {
      "inputs": [],
      "name": "getOfferId",
      "outputs": [
        {
          "internalType": "uint256",
          "name": "",
          "type": "uint256"
        }
      ],
      "stateMutability": "view",
      "type": "function",
      "constant": true
    },
    {
      "inputs": [
        {
          "internalType": "address",
          "name": "_address",
          "type": "address"
        }
      ],
      "name": "getEthBalance",
      "outputs": [
        {
          "internalType": "uint256",
          "name": "",
          "type": "uint256"
        }
      ],
      "stateMutability": "view",
      "type": "function",
      "constant": true
    },
    {
      "inputs": [],
      "name": "getTokenId",
      "outputs": [
        {
          "internalType": "uint256",
          "name": "",
          "type": "uint256"
        }
      ],
      "stateMutability": "view",
      "type": "function",
      "constant": true
    },
    {
      "inputs": [],
      "name": "balanceContract",
      "outputs": [
        {
          "internalType": "uint256",
          "name": "",
          "type": "uint256"
        }
      ],
      "stateMutability": "view",
      "type": "function",
      "constant": true
    }
  ],
  "bytecode": "0x60806040523480156200001157600080fd5b506040518060400160405280600c81526020017f44696769626f78546f6b656e00000000000000000000000000000000000000008152506040518060400160405280600481526020017f4447425400000000000000000000000000000000000000000000000000000000815250816000908051906020019062000096929190620000b8565b508060019080519060200190620000af929190620000b8565b505050620001cd565b828054620000c69062000168565b90600052602060002090601f016020900481019282620000ea576000855562000136565b82601f106200010557805160ff191683800117855562000136565b8280016001018555821562000136579182015b828111156200013557825182559160200191906001019062000118565b5b50905062000145919062000149565b5090565b5b80821115620001645760008160009055506001016200014a565b5090565b600060028204905060018216806200018157607f821691505b602082108114156200019857620001976200019e565b5b50919050565b7f4e487b7100000000000000000000000000000000000000000000000000000000600052602260045260246000fd5b61375e80620001dd6000396000f3fe6080604052600436106101395760003560e01c80638f22a0f6116100ab578063c87b56dd1161006f578063c87b56dd14610448578063d4ddce8a14610485578063d8f3790f146104c2578063db4dc555146104ff578063e985e9c51461052a578063f734d0bc1461056757610140565b80638f22a0f61461037257806391b7f5ed146103a257806395d89b41146103cb578063a22cb465146103f6578063b88d4fde1461041f57610140565b806323b872dd116100fd57806323b872dd1461023e578063322a5e5f1461026757806342842e0e146102925780634d2301cc146102bb5780636352211e146102f857806370a082311461033557610140565b8063010a38f51461014557806301ffc9a71461017057806306fdde03146101ad578063081812fc146101d8578063095ea7b31461021557610140565b3661014057005b600080fd5b34801561015157600080fd5b5061015a610583565b6040516101679190612d74565b60405180910390f35b34801561017c57600080fd5b5061019760048036038101906101929190612504565b610594565b6040516101a49190612af7565b60405180910390f35b3480156101b957600080fd5b506101c2610676565b6040516101cf9190612b12565b60405180910390f35b3480156101e457600080fd5b506101ff60048036038101906101fa919061255e565b610708565b60405161020c91906129cf565b60405180910390f35b34801561022157600080fd5b5061023c600480360381019061023791906124c4565b61078d565b005b34801561024a57600080fd5b50610265600480360381019061026091906123ae565b6108a5565b005b34801561027357600080fd5b5061027c610a12565b6040516102899190612d74565b60405180910390f35b34801561029e57600080fd5b506102b960048036038101906102b491906123ae565b610a1a565b005b3480156102c757600080fd5b506102e260048036038101906102dd9190612341565b610a3a565b6040516102ef9190612d74565b60405180910390f35b34801561030457600080fd5b5061031f600480360381019061031a919061255e565b610a83565b60405161032c91906129cf565b60405180910390f35b34801561034157600080fd5b5061035c60048036038101906103579190612341565b610b35565b6040516103699190612d74565b60405180910390f35b61038c6004803603810190610387919061258b565b610bed565b6040516103999190612d74565b60405180910390f35b3480156103ae57600080fd5b506103c960048036038101906103c4919061255e565b610d74565b005b3480156103d757600080fd5b506103e0610de3565b6040516103ed9190612b12565b60405180910390f35b34801561040257600080fd5b5061041d60048036038101906104189190612484565b610e75565b005b34801561042b57600080fd5b5061044660048036038101906104419190612401565b610ff6565b005b34801561045457600080fd5b5061046f600480360381019061046a919061255e565b611058565b60405161047c9190612b12565b60405180910390f35b34801561049157600080fd5b506104ac60048036038101906104a7919061255e565b6111aa565b6040516104b99190612d74565b60405180910390f35b3480156104ce57600080fd5b506104e960048036038101906104e49190612341565b6111c2565b6040516104f69190612d74565b60405180910390f35b34801561050b57600080fd5b506105146111da565b6040516105219190612d74565b60405180910390f35b34801561053657600080fd5b50610551600480360381019061054c919061236e565b6111eb565b60405161055e9190612af7565b60405180910390f35b610581600480360381019061057c919061255e565b61127f565b005b600061058f6007611450565b905090565b60007f80ac58cd000000000000000000000000000000000000000000000000000000007bffffffffffffffffffffffffffffffffffffffffffffffffffffffff1916827bffffffffffffffffffffffffffffffffffffffffffffffffffffffff1916148061065f57507f5b5e139f000000000000000000000000000000000000000000000000000000007bffffffffffffffffffffffffffffffffffffffffffffffffffffffff1916827bffffffffffffffffffffffffffffffffffffffffffffffffffffffff1916145b8061066f575061066e8261145e565b5b9050919050565b6060600080546106859061300c565b80601f01602080910402602001604051908101604052809291908181526020018280546106b19061300c565b80156106fe5780601f106106d3576101008083540402835291602001916106fe565b820191906000526020600020905b8154815290600101906020018083116106e157829003601f168201915b5050505050905090565b6000610713826114c8565b610752576040517f08c379a000000000000000000000000000000000000000000000000000000000815260040161074990612cb4565b60405180910390fd5b6004600083815260200190815260200160002060009054906101000a900473ffffffffffffffffffffffffffffffffffffffff169050919050565b600061079882610a83565b90508073ffffffffffffffffffffffffffffffffffffffff168373ffffffffffffffffffffffffffffffffffffffff161415610809576040517f08c379a000000000000000000000000000000000000000000000000000000000815260040161080090612d34565b60405180910390fd5b8073ffffffffffffffffffffffffffffffffffffffff16610828611534565b73ffffffffffffffffffffffffffffffffffffffff161480610857575061085681610851611534565b6111eb565b5b610896576040517f08c379a000000000000000000000000000000000000000000000000000000000815260040161088d90612bf4565b60405180910390fd5b6108a0838361153c565b505050565b6108b66108b0611534565b826115f5565b6108f5576040517f08c379a00000000000000000000000000000000000000000000000000000000081526004016108ec90612d54565b60405180910390fd5b6109008383836116d3565b600c600082815260200190815260200160002054600b60008573ffffffffffffffffffffffffffffffffffffffff1673ffffffffffffffffffffffffffffffffffffffff16815260200190815260200160002060008282546109629190612f22565b92505081905550600c600082815260200190815260200160002054600b60008473ffffffffffffffffffffffffffffffffffffffff1673ffffffffffffffffffffffffffffffffffffffff16815260200190815260200160002060008282546109cb9190612e9b565b925050819055507f6c2aeaee1b2bcbe5f896afd6f1497efe77faa35f596af23de7d9c1797c3de6ae338383604051610a05939291906129ea565b60405180910390a1505050565b600047905090565b610a3583838360405180602001604052806000815250610ff6565b505050565b6000600b60008373ffffffffffffffffffffffffffffffffffffffff1673ffffffffffffffffffffffffffffffffffffffff168152602001908152602001600020549050919050565b6000806002600084815260200190815260200160002060009054906101000a900473ffffffffffffffffffffffffffffffffffffffff169050600073ffffffffffffffffffffffffffffffffffffffff168173ffffffffffffffffffffffffffffffffffffffff161415610b2c576040517f08c379a0000000000000000000000000000000000000000000000000000000008152600401610b2390612c34565b60405180910390fd5b80915050919050565b60008073ffffffffffffffffffffffffffffffffffffffff168273ffffffffffffffffffffffffffffffffffffffff161415610ba6576040517f08c379a0000000000000000000000000000000000000000000000000000000008152600401610b9d90612c14565b60405180910390fd5b600360008373ffffffffffffffffffffffffffffffffffffffff1673ffffffffffffffffffffffffffffffffffffffff168152602001908152602001600020549050919050565b60006009600085815260200190815260200160002054341015610c45576040517f08c379a0000000000000000000000000000000000000000000000000000000008152600401610c3c90612d14565b60405180910390fd5b6001600a84604051610c57919061297f565b908152602001604051809103902060006101000a81548160ff021916908360ff1602179055506000610c896007611450565b9050610c95338261192f565b610c9f8184611afd565b34600b60003373ffffffffffffffffffffffffffffffffffffffff1673ffffffffffffffffffffffffffffffffffffffff1681526020019081526020016000206000828254610cee9190612e9b565b925050819055506009600086815260200190815260200160002054600c6000838152602001908152602001600020819055507fa72e331ab8ad0d5c8f868b09a361cb2713686d80bbfa4014430aefc088f08fc23385858834604051610d57959493929190612a6d565b60405180910390a1610d696007611b71565b809150509392505050565b6000610d806008611450565b9050816009600083815260200190815260200160002081905550610da46008611b71565b7f8ebdaa04732de2a2dcf4abc009dbcd0e7247a038ee079346ad1c6a3f69a2d86a828233604051610dd793929190612d8f565b60405180910390a15050565b606060018054610df29061300c565b80601f0160208091040260200160405190810160405280929190818152602001828054610e1e9061300c565b8015610e6b5780601f10610e4057610100808354040283529160200191610e6b565b820191906000526020600020905b815481529060010190602001808311610e4e57829003601f168201915b5050505050905090565b610e7d611534565b73ffffffffffffffffffffffffffffffffffffffff168273ffffffffffffffffffffffffffffffffffffffff161415610eeb576040517f08c379a0000000000000000000000000000000000000000000000000000000008152600401610ee290612bb4565b60405180910390fd5b8060056000610ef8611534565b73ffffffffffffffffffffffffffffffffffffffff1673ffffffffffffffffffffffffffffffffffffffff16815260200190815260200160002060008473ffffffffffffffffffffffffffffffffffffffff1673ffffffffffffffffffffffffffffffffffffffff16815260200190815260200160002060006101000a81548160ff0219169083151502179055508173ffffffffffffffffffffffffffffffffffffffff16610fa5611534565b73ffffffffffffffffffffffffffffffffffffffff167f17307eab39ab6107e8899845ad3d59bd9653f200f220920489ca2b5937696c3183604051610fea9190612af7565b60405180910390a35050565b611007611001611534565b836115f5565b611046576040517f08c379a000000000000000000000000000000000000000000000000000000000815260040161103d90612d54565b60405180910390fd5b61105284848484611b87565b50505050565b6060611063826114c8565b6110a2576040517f08c379a000000000000000000000000000000000000000000000000000000000815260040161109990612c94565b60405180910390fd5b60006006600084815260200190815260200160002080546110c29061300c565b80601f01602080910402602001604051908101604052809291908181526020018280546110ee9061300c565b801561113b5780601f106111105761010080835404028352916020019161113b565b820191906000526020600020905b81548152906001019060200180831161111e57829003601f168201915b50505050509050600061114c611be3565b90506000815114156111625781925050506111a5565b60008251111561119757808260405160200161117f929190612996565b604051602081830303815290604052925050506111a5565b6111a084611bfa565b925050505b919050565b600c6020528060005260406000206000915090505481565b600b6020528060005260406000206000915090505481565b60006111e66008611450565b905090565b6000600560008473ffffffffffffffffffffffffffffffffffffffff1673ffffffffffffffffffffffffffffffffffffffff16815260200190815260200160002060008373ffffffffffffffffffffffffffffffffffffffff1673ffffffffffffffffffffffffffffffffffffffff16815260200190815260200160002060009054906101000a900460ff16905092915050565b61129061128a611534565b826115f5565b6112cf576040517f08c379a00000000000000000000000000000000000000000000000000000000081526004016112c690612d54565b60405180910390fd5b600c600082815260200190815260200160002054600b60003373ffffffffffffffffffffffffffffffffffffffff1673ffffffffffffffffffffffffffffffffffffffff16815260200190815260200160002060008282546113319190612f22565b9250508190555061134181611ca1565b60003373ffffffffffffffffffffffffffffffffffffffff16600c60008481526020019081526020016000205460405161137a906129ba565b60006040518083038185875af1925050503d80600081146113b7576040519150601f19603f3d011682016040523d82523d6000602084013e6113bc565b606091505b5050905080611400576040517f08c379a00000000000000000000000000000000000000000000000000000000081526004016113f790612b34565b60405180910390fd5b7fd2feab25e5c986396a523049de32de231ac0ba0b7ffbc066041499a97191d51133600c600085815260200190815260200160002054604051611444929190612ace565b60405180910390a15050565b600081600001549050919050565b60007f01ffc9a7000000000000000000000000000000000000000000000000000000007bffffffffffffffffffffffffffffffffffffffffffffffffffffffff1916827bffffffffffffffffffffffffffffffffffffffffffffffffffffffff1916149050919050565b60008073ffffffffffffffffffffffffffffffffffffffff166002600084815260200190815260200160002060009054906101000a900473ffffffffffffffffffffffffffffffffffffffff1673ffffffffffffffffffffffffffffffffffffffff1614159050919050565b600033905090565b816004600083815260200190815260200160002060006101000a81548173ffffffffffffffffffffffffffffffffffffffff021916908373ffffffffffffffffffffffffffffffffffffffff160217905550808273ffffffffffffffffffffffffffffffffffffffff166115af83610a83565b73ffffffffffffffffffffffffffffffffffffffff167f8c5be1e5ebec7d5bd14f71427d1e84f3dd0314c0f7b2291e5b200ac8c7c3b92560405160405180910390a45050565b6000611600826114c8565b61163f576040517f08c379a000000000000000000000000000000000000000000000000000000000815260040161163690612bd4565b60405180910390fd5b600061164a83610a83565b90508073ffffffffffffffffffffffffffffffffffffffff168473ffffffffffffffffffffffffffffffffffffffff1614806116b957508373ffffffffffffffffffffffffffffffffffffffff166116a184610708565b73ffffffffffffffffffffffffffffffffffffffff16145b806116ca57506116c981856111eb565b5b91505092915050565b8273ffffffffffffffffffffffffffffffffffffffff166116f382610a83565b73ffffffffffffffffffffffffffffffffffffffff1614611749576040517f08c379a000000000000000000000000000000000000000000000000000000000815260040161174090612cd4565b60405180910390fd5b600073ffffffffffffffffffffffffffffffffffffffff168273ffffffffffffffffffffffffffffffffffffffff1614156117b9576040517f08c379a00000000000000000000000000000000000000000000000000000000081526004016117b090612b94565b60405180910390fd5b6117c4838383611cf4565b6117cf60008261153c565b6001600360008573ffffffffffffffffffffffffffffffffffffffff1673ffffffffffffffffffffffffffffffffffffffff168152602001908152602001600020600082825461181f9190612f22565b925050819055506001600360008473ffffffffffffffffffffffffffffffffffffffff1673ffffffffffffffffffffffffffffffffffffffff16815260200190815260200160002060008282546118769190612e9b565b92505081905550816002600083815260200190815260200160002060006101000a81548173ffffffffffffffffffffffffffffffffffffffff021916908373ffffffffffffffffffffffffffffffffffffffff160217905550808273ffffffffffffffffffffffffffffffffffffffff168473ffffffffffffffffffffffffffffffffffffffff167fddf252ad1be2c89b69c2b068fc378daa952ba7f163c4a11628f55a4df523b3ef60405160405180910390a4505050565b600073ffffffffffffffffffffffffffffffffffffffff168273ffffffffffffffffffffffffffffffffffffffff16141561199f576040517f08c379a000000000000000000000000000000000000000000000000000000000815260040161199690612c74565b60405180910390fd5b6119a8816114c8565b156119e8576040517f08c379a00000000000000000000000000000000000000000000000000000000081526004016119df90612b74565b60405180910390fd5b6119f460008383611cf4565b6001600360008473ffffffffffffffffffffffffffffffffffffffff1673ffffffffffffffffffffffffffffffffffffffff1681526020019081526020016000206000828254611a449190612e9b565b92505081905550816002600083815260200190815260200160002060006101000a81548173ffffffffffffffffffffffffffffffffffffffff021916908373ffffffffffffffffffffffffffffffffffffffff160217905550808273ffffffffffffffffffffffffffffffffffffffff16600073ffffffffffffffffffffffffffffffffffffffff167fddf252ad1be2c89b69c2b068fc378daa952ba7f163c4a11628f55a4df523b3ef60405160405180910390a45050565b611b06826114c8565b611b45576040517f08c379a0000000000000000000000000000000000000000000000000000000008152600401611b3c90612c54565b60405180910390fd5b80600660008481526020019081526020016000209080519060200190611b6c929190612115565b505050565b6001816000016000828254019250508190555050565b611b928484846116d3565b611b9e84848484611cf9565b611bdd576040517f08c379a0000000000000000000000000000000000000000000000000000000008152600401611bd490612b54565b60405180910390fd5b50505050565b606060405180602001604052806000815250905090565b6060611c05826114c8565b611c44576040517f08c379a0000000000000000000000000000000000000000000000000000000008152600401611c3b90612cf4565b60405180910390fd5b6000611c4e611be3565b90506000815111611c6e5760405180602001604052806000815250611c99565b80611c7884611e90565b604051602001611c89929190612996565b6040516020818303038152906040525b915050919050565b611caa81611ff1565b6000600660008381526020019081526020016000208054611cca9061300c565b905014611cf157600660008281526020019081526020016000206000611cf0919061219b565b5b50565b505050565b6000611d1a8473ffffffffffffffffffffffffffffffffffffffff16612102565b15611e83578373ffffffffffffffffffffffffffffffffffffffff1663150b7a02611d43611534565b8786866040518563ffffffff1660e01b8152600401611d659493929190612a21565b602060405180830381600087803b158015611d7f57600080fd5b505af1925050508015611db057506040513d601f19601f82011682018060405250810190611dad9190612531565b60015b611e33573d8060008114611de0576040519150601f19603f3d011682016040523d82523d6000602084013e611de5565b606091505b50600081511415611e2b576040517f08c379a0000000000000000000000000000000000000000000000000000000008152600401611e2290612b54565b60405180910390fd5b805181602001fd5b63150b7a0260e01b7bffffffffffffffffffffffffffffffffffffffffffffffffffffffff1916817bffffffffffffffffffffffffffffffffffffffffffffffffffffffff191614915050611e88565b600190505b949350505050565b60606000821415611ed8576040518060400160405280600181526020017f30000000000000000000000000000000000000000000000000000000000000008152509050611fec565b600082905060005b60008214611f0a578080611ef39061306f565b915050600a82611f039190612ef1565b9150611ee0565b60008167ffffffffffffffff811115611f2657611f256131a5565b5b6040519080825280601f01601f191660200182016040528015611f585781602001600182028036833780820191505090505b5090505b60008514611fe557600182611f719190612f22565b9150600a85611f8091906130b8565b6030611f8c9190612e9b565b60f81b818381518110611fa257611fa1613176565b5b60200101907effffffffffffffffffffffffffffffffffffffffffffffffffffffffffffff1916908160001a905350600a85611fde9190612ef1565b9450611f5c565b8093505050505b919050565b6000611ffc82610a83565b905061200a81600084611cf4565b61201560008361153c565b6001600360008373ffffffffffffffffffffffffffffffffffffffff1673ffffffffffffffffffffffffffffffffffffffff16815260200190815260200160002060008282546120659190612f22565b925050819055506002600083815260200190815260200160002060006101000a81549073ffffffffffffffffffffffffffffffffffffffff021916905581600073ffffffffffffffffffffffffffffffffffffffff168273ffffffffffffffffffffffffffffffffffffffff167fddf252ad1be2c89b69c2b068fc378daa952ba7f163c4a11628f55a4df523b3ef60405160405180910390a45050565b600080823b905060008111915050919050565b8280546121219061300c565b90600052602060002090601f016020900481019282612143576000855561218a565b82601f1061215c57805160ff191683800117855561218a565b8280016001018555821561218a579182015b8281111561218957825182559160200191906001019061216e565b5b50905061219791906121db565b5090565b5080546121a79061300c565b6000825580601f106121b957506121d8565b601f0160209004906000526020600020908101906121d791906121db565b5b50565b5b808211156121f45760008160009055506001016121dc565b5090565b600061220b61220684612deb565b612dc6565b905082815260208101848484011115612227576122266131d9565b5b612232848285612fca565b509392505050565b600061224d61224884612e1c565b612dc6565b905082815260208101848484011115612269576122686131d9565b5b612274848285612fca565b509392505050565b60008135905061228b816136cc565b92915050565b6000813590506122a0816136e3565b92915050565b6000813590506122b5816136fa565b92915050565b6000815190506122ca816136fa565b92915050565b600082601f8301126122e5576122e46131d4565b5b81356122f58482602086016121f8565b91505092915050565b600082601f830112612313576123126131d4565b5b813561232384826020860161223a565b91505092915050565b60008135905061233b81613711565b92915050565b600060208284031215612357576123566131e3565b5b60006123658482850161227c565b91505092915050565b60008060408385031215612385576123846131e3565b5b60006123938582860161227c565b92505060206123a48582860161227c565b9150509250929050565b6000806000606084860312156123c7576123c66131e3565b5b60006123d58682870161227c565b93505060206123e68682870161227c565b92505060406123f78682870161232c565b9150509250925092565b6000806000806080858703121561241b5761241a6131e3565b5b60006124298782880161227c565b945050602061243a8782880161227c565b935050604061244b8782880161232c565b925050606085013567ffffffffffffffff81111561246c5761246b6131de565b5b612478878288016122d0565b91505092959194509250565b6000806040838503121561249b5761249a6131e3565b5b60006124a98582860161227c565b92505060206124ba85828601612291565b9150509250929050565b600080604083850312156124db576124da6131e3565b5b60006124e98582860161227c565b92505060206124fa8582860161232c565b9150509250929050565b60006020828403121561251a576125196131e3565b5b6000612528848285016122a6565b91505092915050565b600060208284031215612547576125466131e3565b5b6000612555848285016122bb565b91505092915050565b600060208284031215612574576125736131e3565b5b60006125828482850161232c565b91505092915050565b6000806000606084860312156125a4576125a36131e3565b5b60006125b28682870161232c565b935050602084013567ffffffffffffffff8111156125d3576125d26131de565b5b6125df868287016122fe565b925050604084013567ffffffffffffffff811115612600576125ff6131de565b5b61260c868287016122fe565b9150509250925092565b61261f81612f56565b82525050565b61262e81612f68565b82525050565b600061263f82612e4d565b6126498185612e63565b9350612659818560208601612fd9565b612662816131e8565b840191505092915050565b600061267882612e58565b6126828185612e7f565b9350612692818560208601612fd9565b61269b816131e8565b840191505092915050565b60006126b182612e58565b6126bb8185612e90565b93506126cb818560208601612fd9565b80840191505092915050565b60006126e4601283612e7f565b91506126ef826131f9565b602082019050919050565b6000612707603283612e7f565b915061271282613222565b604082019050919050565b600061272a601c83612e7f565b915061273582613271565b602082019050919050565b600061274d602483612e7f565b91506127588261329a565b604082019050919050565b6000612770601983612e7f565b915061277b826132e9565b602082019050919050565b6000612793602c83612e7f565b915061279e82613312565b604082019050919050565b60006127b6603883612e7f565b91506127c182613361565b604082019050919050565b60006127d9602a83612e7f565b91506127e4826133b0565b604082019050919050565b60006127fc602983612e7f565b9150612807826133ff565b604082019050919050565b600061281f602e83612e7f565b915061282a8261344e565b604082019050919050565b6000612842602083612e7f565b915061284d8261349d565b602082019050919050565b6000612865603183612e7f565b9150612870826134c6565b604082019050919050565b6000612888602c83612e7f565b915061289382613515565b604082019050919050565b60006128ab602983612e7f565b91506128b682613564565b604082019050919050565b60006128ce602f83612e7f565b91506128d9826135b3565b604082019050919050565b60006128f1602083612e7f565b91506128fc82613602565b602082019050919050565b6000612914602183612e7f565b915061291f8261362b565b604082019050919050565b6000612937600083612e74565b91506129428261367a565b600082019050919050565b600061295a603183612e7f565b91506129658261367d565b604082019050919050565b61297981612fc0565b82525050565b600061298b82846126a6565b915081905092915050565b60006129a282856126a6565b91506129ae82846126a6565b91508190509392505050565b60006129c58261292a565b9150819050919050565b60006020820190506129e46000830184612616565b92915050565b60006060820190506129ff6000830186612616565b612a0c6020830185612616565b612a196040830184612970565b949350505050565b6000608082019050612a366000830187612616565b612a436020830186612616565b612a506040830185612970565b8181036060830152612a628184612634565b905095945050505050565b600060a082019050612a826000830188612616565b8181036020830152612a94818761266d565b90508181036040830152612aa8818661266d565b9050612ab76060830185612970565b612ac46080830184612970565b9695505050505050565b6000604082019050612ae36000830185612616565b612af06020830184612970565b9392505050565b6000602082019050612b0c6000830184612625565b92915050565b60006020820190508181036000830152612b2c818461266d565b905092915050565b60006020820190508181036000830152612b4d816126d7565b9050919050565b60006020820190508181036000830152612b6d816126fa565b9050919050565b60006020820190508181036000830152612b8d8161271d565b9050919050565b60006020820190508181036000830152612bad81612740565b9050919050565b60006020820190508181036000830152612bcd81612763565b9050919050565b60006020820190508181036000830152612bed81612786565b9050919050565b60006020820190508181036000830152612c0d816127a9565b9050919050565b60006020820190508181036000830152612c2d816127cc565b9050919050565b60006020820190508181036000830152612c4d816127ef565b9050919050565b60006020820190508181036000830152612c6d81612812565b9050919050565b60006020820190508181036000830152612c8d81612835565b9050919050565b60006020820190508181036000830152612cad81612858565b9050919050565b60006020820190508181036000830152612ccd8161287b565b9050919050565b60006020820190508181036000830152612ced8161289e565b9050919050565b60006020820190508181036000830152612d0d816128c1565b9050919050565b60006020820190508181036000830152612d2d816128e4565b9050919050565b60006020820190508181036000830152612d4d81612907565b9050919050565b60006020820190508181036000830152612d6d8161294d565b9050919050565b6000602082019050612d896000830184612970565b92915050565b6000606082019050612da46000830186612970565b612db16020830185612970565b612dbe6040830184612616565b949350505050565b6000612dd0612de1565b9050612ddc828261303e565b919050565b6000604051905090565b600067ffffffffffffffff821115612e0657612e056131a5565b5b612e0f826131e8565b9050602081019050919050565b600067ffffffffffffffff821115612e3757612e366131a5565b5b612e40826131e8565b9050602081019050919050565b600081519050919050565b600081519050919050565b600082825260208201905092915050565b600081905092915050565b600082825260208201905092915050565b600081905092915050565b6000612ea682612fc0565b9150612eb183612fc0565b9250827fffffffffffffffffffffffffffffffffffffffffffffffffffffffffffffffff03821115612ee657612ee56130e9565b5b828201905092915050565b6000612efc82612fc0565b9150612f0783612fc0565b925082612f1757612f16613118565b5b828204905092915050565b6000612f2d82612fc0565b9150612f3883612fc0565b925082821015612f4b57612f4a6130e9565b5b828203905092915050565b6000612f6182612fa0565b9050919050565b60008115159050919050565b60007fffffffff0000000000000000000000000000000000000000000000000000000082169050919050565b600073ffffffffffffffffffffffffffffffffffffffff82169050919050565b6000819050919050565b82818337600083830152505050565b60005b83811015612ff7578082015181840152602081019050612fdc565b83811115613006576000848401525b50505050565b6000600282049050600182168061302457607f821691505b6020821081141561303857613037613147565b5b50919050565b613047826131e8565b810181811067ffffffffffffffff82111715613066576130656131a5565b5b80604052505050565b600061307a82612fc0565b91507fffffffffffffffffffffffffffffffffffffffffffffffffffffffffffffffff8214156130ad576130ac6130e9565b5b600182019050919050565b60006130c382612fc0565b91506130ce83612fc0565b9250826130de576130dd613118565b5b828206905092915050565b7f4e487b7100000000000000000000000000000000000000000000000000000000600052601160045260246000fd5b7f4e487b7100000000000000000000000000000000000000000000000000000000600052601260045260246000fd5b7f4e487b7100000000000000000000000000000000000000000000000000000000600052602260045260246000fd5b7f4e487b7100000000000000000000000000000000000000000000000000000000600052603260045260246000fd5b7f4e487b7100000000000000000000000000000000000000000000000000000000600052604160045260246000fd5b600080fd5b600080fd5b600080fd5b600080fd5b6000601f19601f8301169050919050565b7f4661696c656420746f2077697468647261770000000000000000000000000000600082015250565b7f4552433732313a207472616e7366657220746f206e6f6e20455243373231526560008201527f63656976657220696d706c656d656e7465720000000000000000000000000000602082015250565b7f4552433732313a20746f6b656e20616c7265616479206d696e74656400000000600082015250565b7f4552433732313a207472616e7366657220746f20746865207a65726f2061646460008201527f7265737300000000000000000000000000000000000000000000000000000000602082015250565b7f4552433732313a20617070726f766520746f2063616c6c657200000000000000600082015250565b7f4552433732313a206f70657261746f7220717565727920666f72206e6f6e657860008201527f697374656e7420746f6b656e0000000000000000000000000000000000000000602082015250565b7f4552433732313a20617070726f76652063616c6c6572206973206e6f74206f7760008201527f6e6572206e6f7220617070726f76656420666f7220616c6c0000000000000000602082015250565b7f4552433732313a2062616c616e636520717565727920666f7220746865207a6560008201527f726f206164647265737300000000000000000000000000000000000000000000602082015250565b7f4552433732313a206f776e657220717565727920666f72206e6f6e657869737460008201527f656e7420746f6b656e0000000000000000000000000000000000000000000000602082015250565b7f45524337323155524953746f726167653a2055524920736574206f66206e6f6e60008201527f6578697374656e7420746f6b656e000000000000000000000000000000000000602082015250565b7f4552433732313a206d696e7420746f20746865207a65726f2061646472657373600082015250565b7f45524337323155524953746f726167653a2055524920717565727920666f722060008201527f6e6f6e6578697374656e7420746f6b656e000000000000000000000000000000602082015250565b7f4552433732313a20617070726f76656420717565727920666f72206e6f6e657860008201527f697374656e7420746f6b656e0000000000000000000000000000000000000000602082015250565b7f4552433732313a207472616e73666572206f6620746f6b656e2074686174206960008201527f73206e6f74206f776e0000000000000000000000000000000000000000000000602082015250565b7f4552433732314d657461646174613a2055524920717565727920666f72206e6f60008201527f6e6578697374656e7420746f6b656e0000000000000000000000000000000000602082015250565b7f53656e6420746865206d696e696d756d20616d6f756e74207265717569726564600082015250565b7f4552433732313a20617070726f76616c20746f2063757272656e74206f776e6560008201527f7200000000000000000000000000000000000000000000000000000000000000602082015250565b50565b7f4552433732313a207472616e736665722063616c6c6572206973206e6f74206f60008201527f776e6572206e6f7220617070726f766564000000000000000000000000000000602082015250565b6136d581612f56565b81146136e057600080fd5b50565b6136ec81612f68565b81146136f757600080fd5b50565b61370381612f74565b811461370e57600080fd5b50565b61371a81612fc0565b811461372557600080fd5b5056fea264697066735822122082e89690565f3ac5cbc54665aceb4508031d44b6be4a84547a221769a4d1c7ad64736f6c63430008060033",
  "immutableReferences": {},
  "source": "// SPDX-License-Identifier: MIT\npragma solidity ^0.8.0;\n\n/// @title A NFT MarketPlace, buying and selling.\n/// @author Nicolas Fruneau, Kilian Mongey.\n/// @notice This contract is open source, you are more then welcomed to copy functions as you please.\n/// @dev We purposely put many data Off-Chain, trying to keep our smart contract as gas efficient as possible.\n/// NOTE : This smart contract hasn't been audited. Please, DYOR before launching. \n\n/// @dev We will implement the following libraries in our SC.\n\nimport \"@openzeppelin/contracts/token/ERC721/extensions/ERC721URIStorage.sol\";\nimport \"@openzeppelin/contracts/utils/Counters.sol\";\n\ncontract TokenERC721 is ERC721URIStorage { \n\n    using Counters for Counters.Counter;\n    Counters.Counter private _tokenIds;\n    Counters.Counter private _offerIds;\n\n    mapping(uint256 => uint256) prices;\n    mapping(string => uint8) hashes;\n    mapping(address => uint256) public ethBalance; \n    mapping(uint256 => uint256) public tokenPrice;\n    \n\n    event priceIsSet(uint256 price, uint256 offerId, address From);\n    event mintedNFT(address Buyer, string Hash, string Metadata, uint256 IdOfOffer, uint256 value);\n    event transferedNFT(address From, address To, uint256 tokenId);\n    event reimbursed(address From, uint256 amount);\n\n    constructor() ERC721(\"DigiboxToken\", \"DGBT\") {}\n\n    /** @notice Sets the price of the NFT, inputed by the seller.\n     * @dev We use the OZ lib to increment Id's in order to avoid overFlows\n     * @param price We then set the price to the following Id of the NFT\n     * @dev By placing an event here, we will be able to display it on our front-end\n     */\n    function setPrice(uint256 price) public {\n        uint256 newOfferId = _offerIds.current();\n        prices[newOfferId] = price;\n        _offerIds.increment();\n        emit priceIsSet(price, newOfferId, msg.sender);\n    }\n     \n     /** @notice Minting and attributing the NFT to the buyer.\n      * @dev Firstly we require that the value sent is higher then the value asked by the seller\n      * then, using the _mint function from OZ lib we create the NFT and send it to the function caller.\n      * UpDate the ether balance of the buyer\n      * @param offerId We want to be able to track the offers created. \n      * @param hash Identifier of the image of the NFT on IPFS\n      * @param metadata Metdata Identifier of the NFT on IPFS\n      * @dev We also want to be able to display in our front a few event, so we added this mintedNFT event\n      * @return We return the item's unique Id\n      */\n\n    function awardItem(uint256 offerId, string memory hash, string memory metadata) public payable returns (uint256) {\n        require(msg.value >= prices[offerId], \"Send the minimum amount required\");  \n        // require(hashes[hash] != 1); // not available yet, need PDF implementation in nodejs\n        hashes[hash] = 1;\n\n        uint256 newItemId = _tokenIds.current();\n\n        _mint(msg.sender, newItemId);\n        _setTokenURI(newItemId, metadata);\n\n        ethBalance[msg.sender] += msg.value;\n        tokenPrice[newItemId] = prices[offerId];\n\n        emit mintedNFT(msg.sender, hash, metadata, offerId, msg.value);\n\n        _tokenIds.increment();\n        \n        return newItemId;\n    }\n\n    /** @notice This function is used to transfer NFTs, this function \n     * will be used to send to the seller, or send the NFT as a gift \n     * @dev We back this function using OZ ERC721 lib\n     * using the lib, we require that the token owner is the caller of this function\n     * We then proceed to the transfer \n     * @param from The msg.sender\n     * @param to The receiver \n     * @param tokenId We make sure that the tokenID is inputed as a param by the caller to avoid problems\n     * @dev By emitting these events we are able to display a msg in our front\n     * Finally, we reset the balances of the owner and the receiver.\n     */\n\n    function transferFrom(address from, address to, uint256 tokenId ) public virtual override {\n        require(_isApprovedOrOwner(_msgSender(), tokenId), \"ERC721: transfer caller is not owner nor approved\");\n        _transfer(from, to, tokenId);\n        \n        ethBalance[from] -= tokenPrice[tokenId];\n        ethBalance[to] += tokenPrice[tokenId];\n        emit transferedNFT(msg.sender, to, tokenId);\n    }\n     \n    /** @notice This function is our \"pay\" function, indeed we decided to go with a pull over push function\n     * Firstly for security reasons, it also allows the user that purchased \n     * the NFT to call this function and to get reimbursed, so everybody win's :)\n     * @dev As in our previous function we use the OZ lib to back-up our contract\n     * We then require that the caller is the owner of the tokenId \n     * then the balance of the caller is updated.\n     * the token is then burned(using OZ lib)\n     * then => proceed to the payment, the caller will receive his funds by calling the function\n     * Emitting this event will allow the front to send a confirmation/Fail messsage\n     * @param tokenId We need to know the tokenId to proceed\n     */\n       \n    function reimbursement(uint256 tokenId) external payable {\n        require(_isApprovedOrOwner(_msgSender(), tokenId), \"ERC721: transfer caller is not owner nor approved\");\n        ethBalance[msg.sender] -= tokenPrice[tokenId];\n        _burn(tokenId);\n\n        (bool sent, ) = msg.sender.call{value: tokenPrice[tokenId]}(\"\");\n        require(sent, \"Failed to withdraw\");\n\n        emit reimbursed(msg.sender, tokenPrice[tokenId]);\n    }\n\n     /// @dev fallback function\n    receive() external payable {}\n\n    /** @notice these are our getter functions\n     * @dev for tests && front-end display\n     */\n\n    function getOfferId() public view returns(uint256) {\n        return _offerIds.current();\n    }\n\n    function getEthBalance(address _address) public view returns(uint256) {\n        return ethBalance[_address];\n    }\n\n    function getTokenId() public view returns(uint256) {\n        return _tokenIds.current();\n    }\n\n    function balanceContract() public view returns (uint256) {\n        return address(this).balance;\n    }\n\n}",
  "sourcePath": "/Users/kilianmongey/Desktop/HomePageDigiBox/DigiBox/contracts/ERC721.sol",
  "compiler": {
    "name": "solc",
    "version": "0.8.6+commit.11564f7e.Emscripten.clang"
  },
  "schemaVersion": "3.4.1",
  "updatedAt": "2021-08-06T14:20:23.234Z",
  "networkType": "ethereum",
  "devdoc": {
    "kind": "dev",
    "methods": {
      "approve(address,uint256)": {
        "details": "See {IERC721-approve}."
      },
      "awardItem(uint256,string,string)": {
        "details": "Firstly we require that the value sent is higher then the value asked by the seller then, using the _mint function from OZ lib we create the NFT and send it to the function caller. UpDate the ether balance of the buyerWe also want to be able to display in our front a few event, so we added this mintedNFT event",
        "params": {
          "hash": "Identifier of the image of the NFT on IPFS",
          "metadata": "Metdata Identifier of the NFT on IPFS",
          "offerId": "We want to be able to track the offers created. "
        },
        "returns": {
          "_0": "We return the item's unique Id"
        }
      },
      "balanceOf(address)": {
        "details": "See {IERC721-balanceOf}."
      },
      "getApproved(uint256)": {
        "details": "See {IERC721-getApproved}."
      },
      "getOfferId()": {
        "details": "for tests && front-end display"
      },
      "isApprovedForAll(address,address)": {
        "details": "See {IERC721-isApprovedForAll}."
      },
      "name()": {
        "details": "See {IERC721Metadata-name}."
      },
      "ownerOf(uint256)": {
        "details": "See {IERC721-ownerOf}."
      },
      "reimbursement(uint256)": {
        "details": "As in our previous function we use the OZ lib to back-up our contract We then require that the caller is the owner of the tokenId  then the balance of the caller is updated. the token is then burned(using OZ lib) then => proceed to the payment, the caller will receive his funds by calling the function Emitting this event will allow the front to send a confirmation/Fail messsage",
        "params": {
          "tokenId": "We need to know the tokenId to proceed"
        }
      },
      "safeTransferFrom(address,address,uint256)": {
        "details": "See {IERC721-safeTransferFrom}."
      },
      "safeTransferFrom(address,address,uint256,bytes)": {
        "details": "See {IERC721-safeTransferFrom}."
      },
      "setApprovalForAll(address,bool)": {
        "details": "See {IERC721-setApprovalForAll}."
      },
      "setPrice(uint256)": {
        "details": "We use the OZ lib to increment Id's in order to avoid overFlowsBy placing an event here, we will be able to display it on our front-end",
        "params": {
          "price": "We then set the price to the following Id of the NFT"
        }
      },
      "supportsInterface(bytes4)": {
        "details": "See {IERC165-supportsInterface}."
      },
      "symbol()": {
        "details": "See {IERC721Metadata-symbol}."
      },
      "tokenURI(uint256)": {
        "details": "See {IERC721Metadata-tokenURI}."
      },
      "transferFrom(address,address,uint256)": {
        "details": "We back this function using OZ ERC721 lib using the lib, we require that the token owner is the caller of this function We then proceed to the transfer By emitting these events we are able to display a msg in our front Finally, we reset the balances of the owner and the receiver.",
        "params": {
          "from": "The msg.sender",
          "to": "The receiver ",
          "tokenId": "We make sure that the tokenID is inputed as a param by the caller to avoid problems"
        }
      }
    },
    "version": 1
  },
  "userdoc": {
    "kind": "user",
    "methods": {
      "awardItem(uint256,string,string)": {
        "notice": "Minting and attributing the NFT to the buyer."
      },
      "getOfferId()": {
        "notice": "these are our getter functions"
      },
      "reimbursement(uint256)": {
        "notice": "This function is our \"pay\" function, indeed we decided to go with a pull over push function Firstly for security reasons, it also allows the user that purchased  the NFT to call this function and to get reimbursed, so everybody win's :)"
      },
      "setPrice(uint256)": {
        "notice": "Sets the price of the NFT, inputed by the seller."
      },
      "transferFrom(address,address,uint256)": {
        "notice": "This function is used to transfer NFTs, this function  will be used to send to the seller, or send the NFT as a gift "
      }
    },
    "version": 1
  }
}