{
  "contractName": "TokenERC721",
  "abi": [
    {
      "inputs": [],
      "stateMutability": "nonpayable",
      "type": "constructor"
    },
    {
      "anonymous": false,
      "inputs": [
        {
          "indexed": true,
          "internalType": "address",
          "name": "owner",
          "type": "address"
        },
        {
          "indexed": true,
          "internalType": "address",
          "name": "approved",
          "type": "address"
        },
        {
          "indexed": true,
          "internalType": "uint256",
          "name": "tokenId",
          "type": "uint256"
        }
      ],
      "name": "Approval",
      "type": "event"
    },
    {
      "anonymous": false,
      "inputs": [
        {
          "indexed": true,
          "internalType": "address",
          "name": "owner",
          "type": "address"
        },
        {
          "indexed": true,
          "internalType": "address",
          "name": "operator",
          "type": "address"
        },
        {
          "indexed": false,
          "internalType": "bool",
          "name": "approved",
          "type": "bool"
        }
      ],
      "name": "ApprovalForAll",
      "type": "event"
    },
    {
      "anonymous": false,
      "inputs": [
        {
          "indexed": true,
          "internalType": "address",
          "name": "from",
          "type": "address"
        },
        {
          "indexed": true,
          "internalType": "address",
          "name": "to",
          "type": "address"
        },
        {
          "indexed": true,
          "internalType": "uint256",
          "name": "tokenId",
          "type": "uint256"
        }
      ],
      "name": "Transfer",
      "type": "event"
    },
    {
      "anonymous": false,
      "inputs": [
        {
          "indexed": false,
          "internalType": "address",
          "name": "Buyer",
          "type": "address"
        },
        {
          "indexed": false,
          "internalType": "string",
          "name": "Hash",
          "type": "string"
        },
        {
          "indexed": false,
          "internalType": "string",
          "name": "Metadata",
          "type": "string"
        },
        {
          "indexed": false,
          "internalType": "uint256",
          "name": "IdOfOffer",
          "type": "uint256"
        }
      ],
      "name": "mintedNFT",
      "type": "event"
    },
    {
      "anonymous": false,
      "inputs": [
        {
          "indexed": false,
          "internalType": "uint256",
          "name": "offerId",
          "type": "uint256"
        },
        {
          "indexed": false,
          "internalType": "address",
          "name": "From",
          "type": "address"
        }
      ],
      "name": "priceIsSet",
      "type": "event"
    },
    {
      "anonymous": false,
      "inputs": [
        {
          "indexed": false,
          "internalType": "address",
          "name": "From",
          "type": "address"
        },
        {
          "indexed": false,
          "internalType": "uint256",
          "name": "amount",
          "type": "uint256"
        }
      ],
      "name": "reimbursed",
      "type": "event"
    },
    {
      "anonymous": false,
      "inputs": [
        {
          "indexed": false,
          "internalType": "address",
          "name": "From",
          "type": "address"
        },
        {
          "indexed": false,
          "internalType": "address",
          "name": "To",
          "type": "address"
        },
        {
          "indexed": false,
          "internalType": "uint256",
          "name": "tokenId",
          "type": "uint256"
        }
      ],
      "name": "transferedNFT",
      "type": "event"
    },
    {
      "inputs": [
        {
          "internalType": "address",
          "name": "to",
          "type": "address"
        },
        {
          "internalType": "uint256",
          "name": "tokenId",
          "type": "uint256"
        }
      ],
      "name": "approve",
      "outputs": [],
      "stateMutability": "nonpayable",
      "type": "function"
    },
    {
      "inputs": [
        {
          "internalType": "address",
          "name": "owner",
          "type": "address"
        }
      ],
      "name": "balanceOf",
      "outputs": [
        {
          "internalType": "uint256",
          "name": "",
          "type": "uint256"
        }
      ],
      "stateMutability": "view",
      "type": "function",
      "constant": true
    },
    {
      "inputs": [
        {
          "internalType": "address",
          "name": "",
          "type": "address"
        }
      ],
      "name": "ethBalance",
      "outputs": [
        {
          "internalType": "uint256",
          "name": "",
          "type": "uint256"
        }
      ],
      "stateMutability": "view",
      "type": "function",
      "constant": true
    },
    {
      "inputs": [
        {
          "internalType": "uint256",
          "name": "tokenId",
          "type": "uint256"
        }
      ],
      "name": "getApproved",
      "outputs": [
        {
          "internalType": "address",
          "name": "",
          "type": "address"
        }
      ],
      "stateMutability": "view",
      "type": "function",
      "constant": true
    },
    {
      "inputs": [
        {
          "internalType": "address",
          "name": "owner",
          "type": "address"
        },
        {
          "internalType": "address",
          "name": "operator",
          "type": "address"
        }
      ],
      "name": "isApprovedForAll",
      "outputs": [
        {
          "internalType": "bool",
          "name": "",
          "type": "bool"
        }
      ],
      "stateMutability": "view",
      "type": "function",
      "constant": true
    },
    {
      "inputs": [],
      "name": "name",
      "outputs": [
        {
          "internalType": "string",
          "name": "",
          "type": "string"
        }
      ],
      "stateMutability": "view",
      "type": "function",
      "constant": true
    },
    {
      "inputs": [
        {
          "internalType": "uint256",
          "name": "tokenId",
          "type": "uint256"
        }
      ],
      "name": "ownerOf",
      "outputs": [
        {
          "internalType": "address",
          "name": "",
          "type": "address"
        }
      ],
      "stateMutability": "view",
      "type": "function",
      "constant": true
    },
    {
      "inputs": [
        {
          "internalType": "address",
          "name": "from",
          "type": "address"
        },
        {
          "internalType": "address",
          "name": "to",
          "type": "address"
        },
        {
          "internalType": "uint256",
          "name": "tokenId",
          "type": "uint256"
        }
      ],
      "name": "safeTransferFrom",
      "outputs": [],
      "stateMutability": "nonpayable",
      "type": "function"
    },
    {
      "inputs": [
        {
          "internalType": "address",
          "name": "from",
          "type": "address"
        },
        {
          "internalType": "address",
          "name": "to",
          "type": "address"
        },
        {
          "internalType": "uint256",
          "name": "tokenId",
          "type": "uint256"
        },
        {
          "internalType": "bytes",
          "name": "_data",
          "type": "bytes"
        }
      ],
      "name": "safeTransferFrom",
      "outputs": [],
      "stateMutability": "nonpayable",
      "type": "function"
    },
    {
      "inputs": [
        {
          "internalType": "address",
          "name": "operator",
          "type": "address"
        },
        {
          "internalType": "bool",
          "name": "approved",
          "type": "bool"
        }
      ],
      "name": "setApprovalForAll",
      "outputs": [],
      "stateMutability": "nonpayable",
      "type": "function"
    },
    {
      "inputs": [
        {
          "internalType": "bytes4",
          "name": "interfaceId",
          "type": "bytes4"
        }
      ],
      "name": "supportsInterface",
      "outputs": [
        {
          "internalType": "bool",
          "name": "",
          "type": "bool"
        }
      ],
      "stateMutability": "view",
      "type": "function",
      "constant": true
    },
    {
      "inputs": [],
      "name": "symbol",
      "outputs": [
        {
          "internalType": "string",
          "name": "",
          "type": "string"
        }
      ],
      "stateMutability": "view",
      "type": "function",
      "constant": true
    },
    {
      "inputs": [
        {
          "internalType": "uint256",
          "name": "",
          "type": "uint256"
        }
      ],
      "name": "tokenPrice",
      "outputs": [
        {
          "internalType": "uint256",
          "name": "",
          "type": "uint256"
        }
      ],
      "stateMutability": "view",
      "type": "function",
      "constant": true
    },
    {
      "inputs": [
        {
          "internalType": "uint256",
          "name": "tokenId",
          "type": "uint256"
        }
      ],
      "name": "tokenURI",
      "outputs": [
        {
          "internalType": "string",
          "name": "",
          "type": "string"
        }
      ],
      "stateMutability": "view",
      "type": "function",
      "constant": true
    },
    {
      "stateMutability": "payable",
      "type": "receive",
      "payable": true
    },
    {
      "inputs": [
        {
          "internalType": "uint256",
          "name": "price",
          "type": "uint256"
        }
      ],
      "name": "setPrice",
      "outputs": [],
      "stateMutability": "nonpayable",
      "type": "function"
    },
    {
      "inputs": [
        {
          "internalType": "uint256",
          "name": "offerId",
          "type": "uint256"
        },
        {
          "internalType": "string",
          "name": "hash",
          "type": "string"
        },
        {
          "internalType": "string",
          "name": "metadata",
          "type": "string"
        }
      ],
      "name": "awardItem",
      "outputs": [
        {
          "internalType": "uint256",
          "name": "",
          "type": "uint256"
        }
      ],
      "stateMutability": "payable",
      "type": "function",
      "payable": true
    },
    {
      "inputs": [
        {
          "internalType": "address",
          "name": "from",
          "type": "address"
        },
        {
          "internalType": "address",
          "name": "to",
          "type": "address"
        },
        {
          "internalType": "uint256",
          "name": "tokenId",
          "type": "uint256"
        }
      ],
      "name": "transferFrom",
      "outputs": [],
      "stateMutability": "nonpayable",
      "type": "function"
    },
    {
      "inputs": [
        {
          "internalType": "address",
          "name": "from",
          "type": "address"
        },
        {
          "internalType": "uint256",
          "name": "tokenId",
          "type": "uint256"
        }
      ],
      "name": "reimbursment",
      "outputs": [],
      "stateMutability": "payable",
      "type": "function",
      "payable": true
    }
  ],
  "bytecode": "0x60806040523480156200001157600080fd5b506040518060400160405280600c81526020017f44696769626f78546f6b656e00000000000000000000000000000000000000008152506040518060400160405280600481526020017f4447425400000000000000000000000000000000000000000000000000000000815250816000908051906020019062000096929190620000b8565b508060019080519060200190620000af929190620000b8565b505050620001cd565b828054620000c69062000168565b90600052602060002090601f016020900481019282620000ea576000855562000136565b82601f106200010557805160ff191683800117855562000136565b8280016001018555821562000136579182015b828111156200013557825182559160200191906001019062000118565b5b50905062000145919062000149565b5090565b5b80821115620001645760008160009055506001016200014a565b5090565b600060028204905060018216806200018157607f821691505b602082108114156200019857620001976200019e565b5b50919050565b7f4e487b7100000000000000000000000000000000000000000000000000000000600052602260045260246000fd5b6135cf80620001dd6000396000f3fe60806040526004361061010d5760003560e01c80638f22a0f611610095578063b88d4fde11610064578063b88d4fde1461037c578063c87b56dd146103a5578063d4ddce8a146103e2578063d8f3790f1461041f578063e985e9c51461045c57610114565b80638f22a0f6146102cf57806391b7f5ed146102ff57806395d89b4114610328578063a22cb4651461035357610114565b806323b872dd116100dc57806323b872dd146101e757806342842e0e146102105780636352211e1461023957806370a082311461027657806382c7c330146102b357610114565b806301ffc9a71461011957806306fdde0314610156578063081812fc14610181578063095ea7b3146101be57610114565b3661011457005b600080fd5b34801561012557600080fd5b50610140600480360381019061013b9190612391565b610499565b60405161014d9190612976565b60405180910390f35b34801561016257600080fd5b5061016b61057b565b6040516101789190612991565b60405180910390f35b34801561018d57600080fd5b506101a860048036038101906101a391906123eb565b61060d565b6040516101b5919061285c565b60405180910390f35b3480156101ca57600080fd5b506101e560048036038101906101e09190612351565b610692565b005b3480156101f357600080fd5b5061020e6004803603810190610209919061223b565b6107aa565b005b34801561021c57600080fd5b506102376004803603810190610232919061223b565b610917565b005b34801561024557600080fd5b50610260600480360381019061025b91906123eb565b610937565b60405161026d919061285c565b60405180910390f35b34801561028257600080fd5b5061029d600480360381019061029891906121ce565b6109e9565b6040516102aa9190612bf3565b60405180910390f35b6102cd60048036038101906102c89190612351565b610aa1565b005b6102e960048036038101906102e49190612418565b610c60565b6040516102f69190612bf3565b60405180910390f35b34801561030b57600080fd5b50610326600480360381019061032191906123eb565b610de5565b005b34801561033457600080fd5b5061033d610e52565b60405161034a9190612991565b60405180910390f35b34801561035f57600080fd5b5061037a60048036038101906103759190612311565b610ee4565b005b34801561038857600080fd5b506103a3600480360381019061039e919061228e565b611065565b005b3480156103b157600080fd5b506103cc60048036038101906103c791906123eb565b6110c7565b6040516103d99190612991565b60405180910390f35b3480156103ee57600080fd5b50610409600480360381019061040491906123eb565b611219565b6040516104169190612bf3565b60405180910390f35b34801561042b57600080fd5b50610446600480360381019061044191906121ce565b611231565b6040516104539190612bf3565b60405180910390f35b34801561046857600080fd5b50610483600480360381019061047e91906121fb565b611249565b6040516104909190612976565b60405180910390f35b60007f80ac58cd000000000000000000000000000000000000000000000000000000007bffffffffffffffffffffffffffffffffffffffffffffffffffffffff1916827bffffffffffffffffffffffffffffffffffffffffffffffffffffffff1916148061056457507f5b5e139f000000000000000000000000000000000000000000000000000000007bffffffffffffffffffffffffffffffffffffffffffffffffffffffff1916827bffffffffffffffffffffffffffffffffffffffffffffffffffffffff1916145b806105745750610573826112dd565b5b9050919050565b60606000805461058a90612e7d565b80601f01602080910402602001604051908101604052809291908181526020018280546105b690612e7d565b80156106035780601f106105d857610100808354040283529160200191610603565b820191906000526020600020905b8154815290600101906020018083116105e657829003601f168201915b5050505050905090565b600061061882611347565b610657576040517f08c379a000000000000000000000000000000000000000000000000000000000815260040161064e90612b33565b60405180910390fd5b6004600083815260200190815260200160002060009054906101000a900473ffffffffffffffffffffffffffffffffffffffff169050919050565b600061069d82610937565b90508073ffffffffffffffffffffffffffffffffffffffff168373ffffffffffffffffffffffffffffffffffffffff16141561070e576040517f08c379a000000000000000000000000000000000000000000000000000000000815260040161070590612bb3565b60405180910390fd5b8073ffffffffffffffffffffffffffffffffffffffff1661072d6113b3565b73ffffffffffffffffffffffffffffffffffffffff16148061075c575061075b816107566113b3565b611249565b5b61079b576040517f08c379a000000000000000000000000000000000000000000000000000000000815260040161079290612a73565b60405180910390fd5b6107a583836113bb565b505050565b6107bb6107b56113b3565b82611474565b6107fa576040517f08c379a00000000000000000000000000000000000000000000000000000000081526004016107f190612bd3565b60405180910390fd5b610805838383611552565b7f6c2aeaee1b2bcbe5f896afd6f1497efe77faa35f596af23de7d9c1797c3de6ae33838360405161083893929190612877565b60405180910390a1600c600082815260200190815260200160002054600b60008573ffffffffffffffffffffffffffffffffffffffff1673ffffffffffffffffffffffffffffffffffffffff16815260200190815260200160002060008282546108a29190612d93565b92505081905550600c600082815260200190815260200160002054600b60008473ffffffffffffffffffffffffffffffffffffffff1673ffffffffffffffffffffffffffffffffffffffff168152602001908152602001600020600082825461090b9190612d0c565b92505081905550505050565b61093283838360405180602001604052806000815250611065565b505050565b6000806002600084815260200190815260200160002060009054906101000a900473ffffffffffffffffffffffffffffffffffffffff169050600073ffffffffffffffffffffffffffffffffffffffff168173ffffffffffffffffffffffffffffffffffffffff1614156109e0576040517f08c379a00000000000000000000000000000000000000000000000000000000081526004016109d790612ab3565b60405180910390fd5b80915050919050565b60008073ffffffffffffffffffffffffffffffffffffffff168273ffffffffffffffffffffffffffffffffffffffff161415610a5a576040517f08c379a0000000000000000000000000000000000000000000000000000000008152600401610a5190612a93565b60405180910390fd5b600360008373ffffffffffffffffffffffffffffffffffffffff1673ffffffffffffffffffffffffffffffffffffffff168152602001908152602001600020549050919050565b610ab2610aac6113b3565b82611474565b610af1576040517f08c379a0000000000000000000000000000000000000000000000000000000008152600401610ae890612bd3565b60405180910390fd5b600c600082815260200190815260200160002054600b60008473ffffffffffffffffffffffffffffffffffffffff1673ffffffffffffffffffffffffffffffffffffffff1681526020019081526020016000206000828254610b539190612d93565b92505081905550610b63816117ae565b60003373ffffffffffffffffffffffffffffffffffffffff16600c600084815260200190815260200160002054604051610b9c90612847565b60006040518083038185875af1925050503d8060008114610bd9576040519150601f19603f3d011682016040523d82523d6000602084013e610bde565b606091505b5050905080610c22576040517f08c379a0000000000000000000000000000000000000000000000000000000008152600401610c19906129f3565b60405180910390fd5b7fd2feab25e5c986396a523049de32de231ac0ba0b7ffbc066041499a97191d5113334604051610c5392919061294d565b60405180910390a1505050565b60006009600085815260200190815260200160002054341015610cb8576040517f08c379a0000000000000000000000000000000000000000000000000000000008152600401610caf90612b93565b60405180910390fd5b6001600a84604051610cca919061280c565b908152602001604051809103902060006101000a81548160ff021916908360ff160217905550610cfa6007611801565b6000610d066007611817565b9050610d123382611825565b610d1c81846119f3565b34600b60003373ffffffffffffffffffffffffffffffffffffffff1673ffffffffffffffffffffffffffffffffffffffff1681526020019081526020016000206000828254610d6b9190612d0c565b925050819055506009600086815260200190815260200160002054600c6000838152602001908152602001600020819055507ff635770719beb2439f1e59de2268500a8f19680336949e776ffc53701c2227f233858588604051610dd294939291906128fa565b60405180910390a1809150509392505050565b610def6008611801565b6000610dfb6008611817565b90508160096000838152602001908152602001600020819055507f8697e20e778f469083cc3865e0b07e70f7047a620f6ec901662cf34104dade338133604051610e46929190612c0e565b60405180910390a15050565b606060018054610e6190612e7d565b80601f0160208091040260200160405190810160405280929190818152602001828054610e8d90612e7d565b8015610eda5780601f10610eaf57610100808354040283529160200191610eda565b820191906000526020600020905b815481529060010190602001808311610ebd57829003601f168201915b5050505050905090565b610eec6113b3565b73ffffffffffffffffffffffffffffffffffffffff168273ffffffffffffffffffffffffffffffffffffffff161415610f5a576040517f08c379a0000000000000000000000000000000000000000000000000000000008152600401610f5190612a33565b60405180910390fd5b8060056000610f676113b3565b73ffffffffffffffffffffffffffffffffffffffff1673ffffffffffffffffffffffffffffffffffffffff16815260200190815260200160002060008473ffffffffffffffffffffffffffffffffffffffff1673ffffffffffffffffffffffffffffffffffffffff16815260200190815260200160002060006101000a81548160ff0219169083151502179055508173ffffffffffffffffffffffffffffffffffffffff166110146113b3565b73ffffffffffffffffffffffffffffffffffffffff167f17307eab39ab6107e8899845ad3d59bd9653f200f220920489ca2b5937696c31836040516110599190612976565b60405180910390a35050565b6110766110706113b3565b83611474565b6110b5576040517f08c379a00000000000000000000000000000000000000000000000000000000081526004016110ac90612bd3565b60405180910390fd5b6110c184848484611a67565b50505050565b60606110d282611347565b611111576040517f08c379a000000000000000000000000000000000000000000000000000000000815260040161110890612b13565b60405180910390fd5b600060066000848152602001908152602001600020805461113190612e7d565b80601f016020809104026020016040519081016040528092919081815260200182805461115d90612e7d565b80156111aa5780601f1061117f576101008083540402835291602001916111aa565b820191906000526020600020905b81548152906001019060200180831161118d57829003601f168201915b5050505050905060006111bb611ac3565b90506000815114156111d1578192505050611214565b6000825111156112065780826040516020016111ee929190612823565b60405160208183030381529060405292505050611214565b61120f84611ada565b925050505b919050565b600c6020528060005260406000206000915090505481565b600b6020528060005260406000206000915090505481565b6000600560008473ffffffffffffffffffffffffffffffffffffffff1673ffffffffffffffffffffffffffffffffffffffff16815260200190815260200160002060008373ffffffffffffffffffffffffffffffffffffffff1673ffffffffffffffffffffffffffffffffffffffff16815260200190815260200160002060009054906101000a900460ff16905092915050565b60007f01ffc9a7000000000000000000000000000000000000000000000000000000007bffffffffffffffffffffffffffffffffffffffffffffffffffffffff1916827bffffffffffffffffffffffffffffffffffffffffffffffffffffffff1916149050919050565b60008073ffffffffffffffffffffffffffffffffffffffff166002600084815260200190815260200160002060009054906101000a900473ffffffffffffffffffffffffffffffffffffffff1673ffffffffffffffffffffffffffffffffffffffff1614159050919050565b600033905090565b816004600083815260200190815260200160002060006101000a81548173ffffffffffffffffffffffffffffffffffffffff021916908373ffffffffffffffffffffffffffffffffffffffff160217905550808273ffffffffffffffffffffffffffffffffffffffff1661142e83610937565b73ffffffffffffffffffffffffffffffffffffffff167f8c5be1e5ebec7d5bd14f71427d1e84f3dd0314c0f7b2291e5b200ac8c7c3b92560405160405180910390a45050565b600061147f82611347565b6114be576040517f08c379a00000000000000000000000000000000000000000000000000000000081526004016114b590612a53565b60405180910390fd5b60006114c983610937565b90508073ffffffffffffffffffffffffffffffffffffffff168473ffffffffffffffffffffffffffffffffffffffff16148061153857508373ffffffffffffffffffffffffffffffffffffffff166115208461060d565b73ffffffffffffffffffffffffffffffffffffffff16145b8061154957506115488185611249565b5b91505092915050565b8273ffffffffffffffffffffffffffffffffffffffff1661157282610937565b73ffffffffffffffffffffffffffffffffffffffff16146115c8576040517f08c379a00000000000000000000000000000000000000000000000000000000081526004016115bf90612b53565b60405180910390fd5b600073ffffffffffffffffffffffffffffffffffffffff168273ffffffffffffffffffffffffffffffffffffffff161415611638576040517f08c379a000000000000000000000000000000000000000000000000000000000815260040161162f90612a13565b60405180910390fd5b611643838383611b81565b61164e6000826113bb565b6001600360008573ffffffffffffffffffffffffffffffffffffffff1673ffffffffffffffffffffffffffffffffffffffff168152602001908152602001600020600082825461169e9190612d93565b925050819055506001600360008473ffffffffffffffffffffffffffffffffffffffff1673ffffffffffffffffffffffffffffffffffffffff16815260200190815260200160002060008282546116f59190612d0c565b92505081905550816002600083815260200190815260200160002060006101000a81548173ffffffffffffffffffffffffffffffffffffffff021916908373ffffffffffffffffffffffffffffffffffffffff160217905550808273ffffffffffffffffffffffffffffffffffffffff168473ffffffffffffffffffffffffffffffffffffffff167fddf252ad1be2c89b69c2b068fc378daa952ba7f163c4a11628f55a4df523b3ef60405160405180910390a4505050565b6117b781611b86565b60006006600083815260200190815260200160002080546117d790612e7d565b9050146117fe576006600082815260200190815260200160002060006117fd9190611fa2565b5b50565b6001816000016000828254019250508190555050565b600081600001549050919050565b600073ffffffffffffffffffffffffffffffffffffffff168273ffffffffffffffffffffffffffffffffffffffff161415611895576040517f08c379a000000000000000000000000000000000000000000000000000000000815260040161188c90612af3565b60405180910390fd5b61189e81611347565b156118de576040517f08c379a00000000000000000000000000000000000000000000000000000000081526004016118d5906129d3565b60405180910390fd5b6118ea60008383611b81565b6001600360008473ffffffffffffffffffffffffffffffffffffffff1673ffffffffffffffffffffffffffffffffffffffff168152602001908152602001600020600082825461193a9190612d0c565b92505081905550816002600083815260200190815260200160002060006101000a81548173ffffffffffffffffffffffffffffffffffffffff021916908373ffffffffffffffffffffffffffffffffffffffff160217905550808273ffffffffffffffffffffffffffffffffffffffff16600073ffffffffffffffffffffffffffffffffffffffff167fddf252ad1be2c89b69c2b068fc378daa952ba7f163c4a11628f55a4df523b3ef60405160405180910390a45050565b6119fc82611347565b611a3b576040517f08c379a0000000000000000000000000000000000000000000000000000000008152600401611a3290612ad3565b60405180910390fd5b80600660008481526020019081526020016000209080519060200190611a62929190611fe2565b505050565b611a72848484611552565b611a7e84848484611c97565b611abd576040517f08c379a0000000000000000000000000000000000000000000000000000000008152600401611ab4906129b3565b60405180910390fd5b50505050565b606060405180602001604052806000815250905090565b6060611ae582611347565b611b24576040517f08c379a0000000000000000000000000000000000000000000000000000000008152600401611b1b90612b73565b60405180910390fd5b6000611b2e611ac3565b90506000815111611b4e5760405180602001604052806000815250611b79565b80611b5884611e2e565b604051602001611b69929190612823565b6040516020818303038152906040525b915050919050565b505050565b6000611b9182610937565b9050611b9f81600084611b81565b611baa6000836113bb565b6001600360008373ffffffffffffffffffffffffffffffffffffffff1673ffffffffffffffffffffffffffffffffffffffff1681526020019081526020016000206000828254611bfa9190612d93565b925050819055506002600083815260200190815260200160002060006101000a81549073ffffffffffffffffffffffffffffffffffffffff021916905581600073ffffffffffffffffffffffffffffffffffffffff168273ffffffffffffffffffffffffffffffffffffffff167fddf252ad1be2c89b69c2b068fc378daa952ba7f163c4a11628f55a4df523b3ef60405160405180910390a45050565b6000611cb88473ffffffffffffffffffffffffffffffffffffffff16611f8f565b15611e21578373ffffffffffffffffffffffffffffffffffffffff1663150b7a02611ce16113b3565b8786866040518563ffffffff1660e01b8152600401611d0394939291906128ae565b602060405180830381600087803b158015611d1d57600080fd5b505af1925050508015611d4e57506040513d601f19601f82011682018060405250810190611d4b91906123be565b60015b611dd1573d8060008114611d7e576040519150601f19603f3d011682016040523d82523d6000602084013e611d83565b606091505b50600081511415611dc9576040517f08c379a0000000000000000000000000000000000000000000000000000000008152600401611dc0906129b3565b60405180910390fd5b805181602001fd5b63150b7a0260e01b7bffffffffffffffffffffffffffffffffffffffffffffffffffffffff1916817bffffffffffffffffffffffffffffffffffffffffffffffffffffffff191614915050611e26565b600190505b949350505050565b60606000821415611e76576040518060400160405280600181526020017f30000000000000000000000000000000000000000000000000000000000000008152509050611f8a565b600082905060005b60008214611ea8578080611e9190612ee0565b915050600a82611ea19190612d62565b9150611e7e565b60008167ffffffffffffffff811115611ec457611ec3613016565b5b6040519080825280601f01601f191660200182016040528015611ef65781602001600182028036833780820191505090505b5090505b60008514611f8357600182611f0f9190612d93565b9150600a85611f1e9190612f29565b6030611f2a9190612d0c565b60f81b818381518110611f4057611f3f612fe7565b5b60200101907effffffffffffffffffffffffffffffffffffffffffffffffffffffffffffff1916908160001a905350600a85611f7c9190612d62565b9450611efa565b8093505050505b919050565b600080823b905060008111915050919050565b508054611fae90612e7d565b6000825580601f10611fc05750611fdf565b601f016020900490600052602060002090810190611fde9190612068565b5b50565b828054611fee90612e7d565b90600052602060002090601f0160209004810192826120105760008555612057565b82601f1061202957805160ff1916838001178555612057565b82800160010185558215612057579182015b8281111561205657825182559160200191906001019061203b565b5b5090506120649190612068565b5090565b5b80821115612081576000816000905550600101612069565b5090565b600061209861209384612c5c565b612c37565b9050828152602081018484840111156120b4576120b361304a565b5b6120bf848285612e3b565b509392505050565b60006120da6120d584612c8d565b612c37565b9050828152602081018484840111156120f6576120f561304a565b5b612101848285612e3b565b509392505050565b6000813590506121188161353d565b92915050565b60008135905061212d81613554565b92915050565b6000813590506121428161356b565b92915050565b6000815190506121578161356b565b92915050565b600082601f83011261217257612171613045565b5b8135612182848260208601612085565b91505092915050565b600082601f8301126121a05761219f613045565b5b81356121b08482602086016120c7565b91505092915050565b6000813590506121c881613582565b92915050565b6000602082840312156121e4576121e3613054565b5b60006121f284828501612109565b91505092915050565b6000806040838503121561221257612211613054565b5b600061222085828601612109565b925050602061223185828601612109565b9150509250929050565b60008060006060848603121561225457612253613054565b5b600061226286828701612109565b935050602061227386828701612109565b9250506040612284868287016121b9565b9150509250925092565b600080600080608085870312156122a8576122a7613054565b5b60006122b687828801612109565b94505060206122c787828801612109565b93505060406122d8878288016121b9565b925050606085013567ffffffffffffffff8111156122f9576122f861304f565b5b6123058782880161215d565b91505092959194509250565b6000806040838503121561232857612327613054565b5b600061233685828601612109565b92505060206123478582860161211e565b9150509250929050565b6000806040838503121561236857612367613054565b5b600061237685828601612109565b9250506020612387858286016121b9565b9150509250929050565b6000602082840312156123a7576123a6613054565b5b60006123b584828501612133565b91505092915050565b6000602082840312156123d4576123d3613054565b5b60006123e284828501612148565b91505092915050565b60006020828403121561240157612400613054565b5b600061240f848285016121b9565b91505092915050565b60008060006060848603121561243157612430613054565b5b600061243f868287016121b9565b935050602084013567ffffffffffffffff8111156124605761245f61304f565b5b61246c8682870161218b565b925050604084013567ffffffffffffffff81111561248d5761248c61304f565b5b6124998682870161218b565b9150509250925092565b6124ac81612dc7565b82525050565b6124bb81612dd9565b82525050565b60006124cc82612cbe565b6124d68185612cd4565b93506124e6818560208601612e4a565b6124ef81613059565b840191505092915050565b600061250582612cc9565b61250f8185612cf0565b935061251f818560208601612e4a565b61252881613059565b840191505092915050565b600061253e82612cc9565b6125488185612d01565b9350612558818560208601612e4a565b80840191505092915050565b6000612571603283612cf0565b915061257c8261306a565b604082019050919050565b6000612594601c83612cf0565b915061259f826130b9565b602082019050919050565b60006125b7601483612cf0565b91506125c2826130e2565b602082019050919050565b60006125da602483612cf0565b91506125e58261310b565b604082019050919050565b60006125fd601983612cf0565b91506126088261315a565b602082019050919050565b6000612620602c83612cf0565b915061262b82613183565b604082019050919050565b6000612643603883612cf0565b915061264e826131d2565b604082019050919050565b6000612666602a83612cf0565b915061267182613221565b604082019050919050565b6000612689602983612cf0565b915061269482613270565b604082019050919050565b60006126ac602e83612cf0565b91506126b7826132bf565b604082019050919050565b60006126cf602083612cf0565b91506126da8261330e565b602082019050919050565b60006126f2603183612cf0565b91506126fd82613337565b604082019050919050565b6000612715602c83612cf0565b915061272082613386565b604082019050919050565b6000612738602983612cf0565b9150612743826133d5565b604082019050919050565b600061275b602f83612cf0565b915061276682613424565b604082019050919050565b600061277e602083612cf0565b915061278982613473565b602082019050919050565b60006127a1602183612cf0565b91506127ac8261349c565b604082019050919050565b60006127c4600083612ce5565b91506127cf826134eb565b600082019050919050565b60006127e7603183612cf0565b91506127f2826134ee565b604082019050919050565b61280681612e31565b82525050565b60006128188284612533565b915081905092915050565b600061282f8285612533565b915061283b8284612533565b91508190509392505050565b6000612852826127b7565b9150819050919050565b600060208201905061287160008301846124a3565b92915050565b600060608201905061288c60008301866124a3565b61289960208301856124a3565b6128a660408301846127fd565b949350505050565b60006080820190506128c360008301876124a3565b6128d060208301866124a3565b6128dd60408301856127fd565b81810360608301526128ef81846124c1565b905095945050505050565b600060808201905061290f60008301876124a3565b818103602083015261292181866124fa565b9050818103604083015261293581856124fa565b905061294460608301846127fd565b95945050505050565b600060408201905061296260008301856124a3565b61296f60208301846127fd565b9392505050565b600060208201905061298b60008301846124b2565b92915050565b600060208201905081810360008301526129ab81846124fa565b905092915050565b600060208201905081810360008301526129cc81612564565b9050919050565b600060208201905081810360008301526129ec81612587565b9050919050565b60006020820190508181036000830152612a0c816125aa565b9050919050565b60006020820190508181036000830152612a2c816125cd565b9050919050565b60006020820190508181036000830152612a4c816125f0565b9050919050565b60006020820190508181036000830152612a6c81612613565b9050919050565b60006020820190508181036000830152612a8c81612636565b9050919050565b60006020820190508181036000830152612aac81612659565b9050919050565b60006020820190508181036000830152612acc8161267c565b9050919050565b60006020820190508181036000830152612aec8161269f565b9050919050565b60006020820190508181036000830152612b0c816126c2565b9050919050565b60006020820190508181036000830152612b2c816126e5565b9050919050565b60006020820190508181036000830152612b4c81612708565b9050919050565b60006020820190508181036000830152612b6c8161272b565b9050919050565b60006020820190508181036000830152612b8c8161274e565b9050919050565b60006020820190508181036000830152612bac81612771565b9050919050565b60006020820190508181036000830152612bcc81612794565b9050919050565b60006020820190508181036000830152612bec816127da565b9050919050565b6000602082019050612c0860008301846127fd565b92915050565b6000604082019050612c2360008301856127fd565b612c3060208301846124a3565b9392505050565b6000612c41612c52565b9050612c4d8282612eaf565b919050565b6000604051905090565b600067ffffffffffffffff821115612c7757612c76613016565b5b612c8082613059565b9050602081019050919050565b600067ffffffffffffffff821115612ca857612ca7613016565b5b612cb182613059565b9050602081019050919050565b600081519050919050565b600081519050919050565b600082825260208201905092915050565b600081905092915050565b600082825260208201905092915050565b600081905092915050565b6000612d1782612e31565b9150612d2283612e31565b9250827fffffffffffffffffffffffffffffffffffffffffffffffffffffffffffffffff03821115612d5757612d56612f5a565b5b828201905092915050565b6000612d6d82612e31565b9150612d7883612e31565b925082612d8857612d87612f89565b5b828204905092915050565b6000612d9e82612e31565b9150612da983612e31565b925082821015612dbc57612dbb612f5a565b5b828203905092915050565b6000612dd282612e11565b9050919050565b60008115159050919050565b60007fffffffff0000000000000000000000000000000000000000000000000000000082169050919050565b600073ffffffffffffffffffffffffffffffffffffffff82169050919050565b6000819050919050565b82818337600083830152505050565b60005b83811015612e68578082015181840152602081019050612e4d565b83811115612e77576000848401525b50505050565b60006002820490506001821680612e9557607f821691505b60208210811415612ea957612ea8612fb8565b5b50919050565b612eb882613059565b810181811067ffffffffffffffff82111715612ed757612ed6613016565b5b80604052505050565b6000612eeb82612e31565b91507fffffffffffffffffffffffffffffffffffffffffffffffffffffffffffffffff821415612f1e57612f1d612f5a565b5b600182019050919050565b6000612f3482612e31565b9150612f3f83612e31565b925082612f4f57612f4e612f89565b5b828206905092915050565b7f4e487b7100000000000000000000000000000000000000000000000000000000600052601160045260246000fd5b7f4e487b7100000000000000000000000000000000000000000000000000000000600052601260045260246000fd5b7f4e487b7100000000000000000000000000000000000000000000000000000000600052602260045260246000fd5b7f4e487b7100000000000000000000000000000000000000000000000000000000600052603260045260246000fd5b7f4e487b7100000000000000000000000000000000000000000000000000000000600052604160045260246000fd5b600080fd5b600080fd5b600080fd5b600080fd5b6000601f19601f8301169050919050565b7f4552433732313a207472616e7366657220746f206e6f6e20455243373231526560008201527f63656976657220696d706c656d656e7465720000000000000000000000000000602082015250565b7f4552433732313a20746f6b656e20616c7265616479206d696e74656400000000600082015250565b7f4661696c656420746f2073656e64204574686572000000000000000000000000600082015250565b7f4552433732313a207472616e7366657220746f20746865207a65726f2061646460008201527f7265737300000000000000000000000000000000000000000000000000000000602082015250565b7f4552433732313a20617070726f766520746f2063616c6c657200000000000000600082015250565b7f4552433732313a206f70657261746f7220717565727920666f72206e6f6e657860008201527f697374656e7420746f6b656e0000000000000000000000000000000000000000602082015250565b7f4552433732313a20617070726f76652063616c6c6572206973206e6f74206f7760008201527f6e6572206e6f7220617070726f76656420666f7220616c6c0000000000000000602082015250565b7f4552433732313a2062616c616e636520717565727920666f7220746865207a6560008201527f726f206164647265737300000000000000000000000000000000000000000000602082015250565b7f4552433732313a206f776e657220717565727920666f72206e6f6e657869737460008201527f656e7420746f6b656e0000000000000000000000000000000000000000000000602082015250565b7f45524337323155524953746f726167653a2055524920736574206f66206e6f6e60008201527f6578697374656e7420746f6b656e000000000000000000000000000000000000602082015250565b7f4552433732313a206d696e7420746f20746865207a65726f2061646472657373600082015250565b7f45524337323155524953746f726167653a2055524920717565727920666f722060008201527f6e6f6e6578697374656e7420746f6b656e000000000000000000000000000000602082015250565b7f4552433732313a20617070726f76656420717565727920666f72206e6f6e657860008201527f697374656e7420746f6b656e0000000000000000000000000000000000000000602082015250565b7f4552433732313a207472616e73666572206f6620746f6b656e2074686174206960008201527f73206e6f74206f776e0000000000000000000000000000000000000000000000602082015250565b7f4552433732314d657461646174613a2055524920717565727920666f72206e6f60008201527f6e6578697374656e7420746f6b656e0000000000000000000000000000000000602082015250565b7f53656e6420746865206d696e696d756d20616d6f756e74207265717569726564600082015250565b7f4552433732313a20617070726f76616c20746f2063757272656e74206f776e6560008201527f7200000000000000000000000000000000000000000000000000000000000000602082015250565b50565b7f4552433732313a207472616e736665722063616c6c6572206973206e6f74206f60008201527f776e6572206e6f7220617070726f766564000000000000000000000000000000602082015250565b61354681612dc7565b811461355157600080fd5b50565b61355d81612dd9565b811461356857600080fd5b50565b61357481612de5565b811461357f57600080fd5b50565b61358b81612e31565b811461359657600080fd5b5056fea26469706673582212204416741470f0c37ba04d2e2a84c8e9f2970d1e9dd4f44e93d6bc25ba004ae03e64736f6c63430008060033",
  "immutableReferences": {},
  "source": "// SPDX-License-Identifier: MIT\npragma solidity ^0.8.0;\n\nimport \"@openzeppelin/contracts/token/ERC721/extensions/ERC721URIStorage.sol\";\nimport \"@openzeppelin/contracts/utils/Counters.sol\";\n\ncontract TokenERC721 is ERC721URIStorage {\n\n    using Counters for Counters.Counter;\n    Counters.Counter private _tokenIds;\n    Counters.Counter private _offerIds;\n\n    mapping(uint256 => uint256) prices;\n    mapping(string => uint8) hashes;\n    mapping(address => uint256) public ethBalance; \n    mapping(uint256 => uint256) public tokenPrice;\n\n    event priceIsSet(uint256 offerId, address From);\n    event mintedNFT(address Buyer, string Hash, string Metadata, uint256 IdOfOffer);\n    event transferedNFT(address From, address To, uint256 tokenId);\n    event reimbursed(address From, uint256 amount);\n\n    constructor() ERC721(\"DigiboxToken\", \"DGBT\") {}\n\n    receive() external payable {}\n\n    function setPrice(uint256 price) public {\n        _offerIds.increment();\n        uint256 newOfferId = _offerIds.current();\n        prices[newOfferId] = price;\n\n        emit priceIsSet(newOfferId, msg.sender);\n    }\n\n    function awardItem(uint256 offerId, string memory hash, string memory metadata) public payable returns (uint256) {\n        require(msg.value >= prices[offerId], \"Send the minimum amount required\");  \n        // require(hashes[hash] != 1);\n        hashes[hash] = 1;\n\n        _tokenIds.increment();\n        uint256 newItemId = _tokenIds.current();\n\n        _mint(msg.sender, newItemId);\n        _setTokenURI(newItemId, metadata);\n\n        ethBalance[msg.sender] += msg.value;\n        tokenPrice[newItemId] = prices[offerId];\n\n        emit mintedNFT(msg.sender, hash, metadata, offerId);\n\n        return newItemId;\n    }\n\n    function transferFrom(address from, address to, uint256 tokenId ) public virtual override {\n        require(_isApprovedOrOwner(_msgSender(), tokenId), \"ERC721: transfer caller is not owner nor approved\");\n        _transfer(from, to, tokenId);\n\n        emit transferedNFT(msg.sender, to, tokenId);\n        \n        ethBalance[from] -= tokenPrice[tokenId];\n        ethBalance[to] += tokenPrice[tokenId];\n    }\n     \n    ///Voir pour implmenter nonReentrant ici\n    function reimbursment(address from, uint256 tokenId) external payable {\n        require(_isApprovedOrOwner(_msgSender(), tokenId), \"ERC721: transfer caller is not owner nor approved\");\n        ethBalance[from] -= tokenPrice[tokenId];\n        _burn(tokenId);\n\n        (bool success, ) = msg.sender.call{value: tokenPrice[tokenId]}(\"\");\n        require(success, \"Failed to send Ether\");\n\n        emit reimbursed(msg.sender, msg.value);\n    }\n}\n/*  \n\n///@dev j'ai plac le contrat MarketPlace ici au cas ou :).\npragma abicoder v2;\n\nimport \"@openzeppelin/contracts/utils/Counters.sol\";\nimport \"@openzeppelin/contracts/utils/math/SafeMath.sol\";\nimport \"@openzeppelin/contracts/security/ReentrancyGuard.sol\";\nimport \"@openzeppelin/contracts/token/ERC721/ERC721.sol\";\nimport \"./ERC721.sol\";\n\n contract  MarketPlace is ReentrancyGuard {\n    \n    using SafeMath for uint;\n    using Counters for Counters.Counter;\n    Counters.Counter private _itemIds;\n    Counters.Counter private _itemsSold;\n    \n    address payable owner;\n    uint256 listingPrice = 0.001 ether;\n    \n    constructor() {\n        owner = payable(msg.sender);\n    }\n    \n    struct MarketItem {\n        uint256 itemId;\n        address nftContract;\n        uint256 tokenId;\n        address payable seller;\n        address payable owner;\n        uint256 price;\n        bool sold;\n    }\n    \n    mapping(uint256 => MarketItem) private idToMarketItem;\n    \n    event MarketItemCreated(\n        uint256 itemId,\n        address nftContract,\n        uint256 tokenId,\n        address seller,\n        address owner,\n        uint256 price,\n        bool sold\n        );\n        \n    function getListingPrice() public view returns(uint256) {\n        return listingPrice;\n    }\n        \n    function createMarketItem(\n        address nftContract,\n        uint256 tokenId,\n        uint256 price\n        ) public payable nonReentrant {\n            require(price > 0, \"Price must not be equal to zero\");\n            require(msg.value >= listingPrice, \"Price must be more or equal to listingPrice\");\n            \n            _itemIds.increment();\n            uint256 itemId = _itemIds.current();\n            \n            idToMarketItem[itemId] = MarketItem(\n                itemId,\n                nftContract,\n                tokenId,\n                payable(msg.sender),\n                payable(address(0)),\n                price,\n                false\n                );\n                \n          IERC721(nftContract).transferFrom(msg.sender, address(this), tokenId);\n          \n          emit MarketItemCreated(\n              itemId,\n              nftContract,\n              tokenId,\n              msg.sender,\n              address(0),\n              price,\n              false\n              );\n        } \n        \n        function createMarketSale(\n            address nftContract,\n            uint256 itemId\n            ) public payable nonReentrant {\n                \n                uint256 price = idToMarketItem[itemId].price;\n                uint256 tokenId = idToMarketItem[itemId].tokenId;\n                \n                require(msg.value >= price, \"You haven't paid enough to make the purchase\");\n                //Ici trouver comment cre une variables qui remplacera le seller  accountSeller afin de ne pas lui envoyer directement.\n                \n                idToMarketItem[itemId].seller.transfer(msg.value);\n                IERC721(nftContract).transferFrom(address(this), msg.sender, tokenId);\n                \n                idToMarketItem[itemId].owner = payable(msg.sender);\n                idToMarketItem[itemId].sold = true;\n                _itemsSold.increment();\n                payable(owner).transfer(listingPrice);\n            }\n            \n            function fetchMarketItems() public view returns(MarketItem[] memory) {\n                uint256 itemCount = _itemIds.current();\n                ///@dev voir pour utiliser safeMath here\n                uint256 unsoldItemCount = _itemIds.current() - _itemsSold.current();\n                uint256 currentIndex = 0;\n                \n                MarketItem[] memory items = new MarketItem[](unsoldItemCount);\n                for(uint i = 0; i < itemCount; i++) {\n                    if(idToMarketItem[i + 1].owner == address(0)) {\n                        uint256 currentId = idToMarketItem[i + 1].itemId;\n                        MarketItem storage currentItem = idToMarketItem[currentId];\n                        items[currentIndex] = currentItem;\n                        currentIndex = currentIndex.add(1);\n                    }\n                }\n                return items;\n            }\n            \n            function fetchMyNFTs() public view returns(MarketItem[] memory) {\n                uint256 totalItemCount = _itemIds.current();\n                uint256 itemCount = 0;\n                uint256 currentIndex = 0;\n                \n                for(uint i = 0; i < totalItemCount; i++) {\n                    if(idToMarketItem[i + 1].owner == msg.sender) {\n                        itemCount = itemCount.add(1);\n                    }\n                }\n                \n                MarketItem[] memory items = new MarketItem[](itemCount);\n                for(uint i = 0; i < totalItemCount; i++) {\n                    if(idToMarketItem[i + 1].owner == msg.sender) {\n                        uint256 currentId = i + 1;\n                        MarketItem storage currentItem = idToMarketItem[currentId];\n                        items[currentIndex] = currentItem;\n                        currentIndex = currentIndex.add(1);\n                      }\n                    }    \n                return items;\n            }\n            \n            function fetchNFTCreated() public view returns(MarketItem[] memory) {\n                uint256 totalItemCount = _itemIds.current();\n                uint256 itemCount = 0;\n                uint256 currentIndex = 0;\n                \n                for(uint256 i = 0; i < totalItemCount; i++) {\n                    if(idToMarketItem[i + 1].seller == msg.sender) {\n                        itemCount = itemCount.add(1);\n                    }\n                }\n                MarketItem[] memory items = new MarketItem[](itemCount);\n                for(uint256 i = 0; i < totalItemCount; i++) {\n                    if(idToMarketItem[i + 1].seller == msg.sender) {\n                        uint256 currentId = i + 1;\n                        MarketItem storage currentItem = idToMarketItem[currentId];\n                        items[currentIndex] = currentItem;\n                        currentIndex = currentIndex.add(1);\n                    }\n                }\n                return items;\n            }\n       \n }        \n\n\ncontract MarketPlace is Ownable {\n\n  using SafeMath for uint;\n     \n    uint256 productPrice;\n    address recipient;\n\n    //constructor() ERC20(\"\", \"\") {}\n\n    struct Payment {\n        uint256 price;\n        uint256 productId;\n    }\n\n    struct Presta {\n      bool isPresta;\n      bool isAllowedToWithdraw;\n      uint256 amountToWithdraw;\n      \n    }\n\n    struct ownerNFT {\n        bool isOwner;\n        uint256 id;\n        address ownerOfNFT;\n    }\n\n    ownerNFT[] owner;\n\n    mapping(address => Payment[]) public payments;\n    mapping(address => Presta) public prestataire;\n\n    event productBought(address From, uint256 Amount, uint256 productId);\n    event priceChange(address From, uint256 Price);\n    event hasDeposited(address from, uint amountDeposited);\n    event isAllowedToPull(address isAllowed);\n    event hasWithdrawn(address from, uint amountWithdrawn);\n\n  \n\n    function buyProduct(uint256 productId) public payable {\n        require(msg.value >= productPrice, \"You didn't send the correct amount\");\n        require(recipient != address(0), \"ERC1155: transfer to 0 address\");\n\n         Payment memory _payment = Payment(productPrice, productId);\n         payments[msg.sender].push(_payment);\n\n         //productPrice = productPrice.add(msg.value);\n\n         emit productBought(msg.sender, msg.value, productId); \n    }\n\n    function createOffer() external {\n         //require(prestataire[msg.sender].isPresta == true);\n         owner.push(ownerNFT(true, owner.length, msg.sender));\n    }\n\n    function allowPresta(address _address) external onlyOwner() {\n        prestataire[_address].isPresta = true;\n        prestataire[_address].isAllowedToWithdraw = true;\n        emit isAllowedToPull(_address);\n    }\n\n    function withdrawFunds() public payable {\n      //uint256 amountToClaim = prestataire[msg.sender].amountToWithdraw;\n       \n      //require(prestataire[msg.sender].isAllowedToWithdraw == true);\n\n      //prestataire[msg.sender].amountToWithdraw = 0;\n        \n      (bool success, ) = msg.sender.call{value: balanceOf[msg.sender]}(\"\");\n      require(success, \"Failed to send to Presta\");\n      \n      balanceOf[msg.sender] = 0; \n    }\n\n    function getBalanceOfEth() public view returns(uint256) {\n      return address(this).balance;\n    }\n\n    receive() external payable{\n      \n    }\n}\n\n   function setPrice(uint256 _productPrice) public onlyOwner() {\n         productPrice = _productPrice;\n         emit priceChange(msg.sender, _productPrice);\n    }\n\n    ///@notice we need to elaborate converter smart contract to deploy following\n     function sendToSwaper() external onlyOwner() {\n        require(address(this).balance >= 1 ether, \"Not gas efficient to send now\");\n           (bool sent, ) = swaperAddress.call{value: address(this).balance}(\"\");\n           require(sent, \"Failed to send Ether\");\n    }\n\n    function setVaultAddress(address _vaultAdd) external onlyOwner() {\n      VaultAddress = _vaultAdd;\n    } \n\n    function sendDaiToVault() external onlyOwner(){\n      require(amountOfDai >= minAmountDai, \"Not gas efficient to send now\");\n        (bool sent, ) = VaultAddress.call{value: amountOfDai}(\"\");\n        require(sent, \"Failed to send Dai\");\n    } */\n",
  "sourcePath": "/Users/nicolas/Desktop/client/contracts/ERC721.sol",
  "compiler": {
    "name": "solc",
    "version": "0.8.6+commit.11564f7e.Emscripten.clang"
  },
  "schemaVersion": "3.4.1",
  "updatedAt": "2021-07-31T13:57:49.950Z",
  "networkType": "ethereum",
  "devdoc": {
    "kind": "dev",
    "methods": {
      "approve(address,uint256)": {
        "details": "See {IERC721-approve}."
      },
      "balanceOf(address)": {
        "details": "See {IERC721-balanceOf}."
      },
      "getApproved(uint256)": {
        "details": "See {IERC721-getApproved}."
      },
      "isApprovedForAll(address,address)": {
        "details": "See {IERC721-isApprovedForAll}."
      },
      "name()": {
        "details": "See {IERC721Metadata-name}."
      },
      "ownerOf(uint256)": {
        "details": "See {IERC721-ownerOf}."
      },
      "safeTransferFrom(address,address,uint256)": {
        "details": "See {IERC721-safeTransferFrom}."
      },
      "safeTransferFrom(address,address,uint256,bytes)": {
        "details": "See {IERC721-safeTransferFrom}."
      },
      "setApprovalForAll(address,bool)": {
        "details": "See {IERC721-setApprovalForAll}."
      },
      "supportsInterface(bytes4)": {
        "details": "See {IERC165-supportsInterface}."
      },
      "symbol()": {
        "details": "See {IERC721Metadata-symbol}."
      },
      "tokenURI(uint256)": {
        "details": "See {IERC721Metadata-tokenURI}."
      },
      "transferFrom(address,address,uint256)": {
        "details": "See {IERC721-transferFrom}."
      }
    },
    "version": 1
  },
  "userdoc": {
    "kind": "user",
    "methods": {
      "reimbursment(address,uint256)": {
        "notice": "Voir pour implmenter nonReentrant ici"
      }
    },
    "version": 1
  }
}