{
  "contractName": "MarketPlace",
  "abi": [
    {
      "inputs": [],
      "stateMutability": "nonpayable",
      "type": "constructor"
    },
    {
      "anonymous": false,
      "inputs": [
        {
          "indexed": true,
          "internalType": "address",
          "name": "owner",
          "type": "address"
        },
        {
          "indexed": true,
          "internalType": "address",
          "name": "spender",
          "type": "address"
        },
        {
          "indexed": false,
          "internalType": "uint256",
          "name": "value",
          "type": "uint256"
        }
      ],
      "name": "Approval",
      "type": "event"
    },
    {
      "anonymous": false,
      "inputs": [
        {
          "indexed": true,
          "internalType": "address",
          "name": "previousOwner",
          "type": "address"
        },
        {
          "indexed": true,
          "internalType": "address",
          "name": "newOwner",
          "type": "address"
        }
      ],
      "name": "OwnershipTransferred",
      "type": "event"
    },
    {
      "anonymous": false,
      "inputs": [
        {
          "indexed": true,
          "internalType": "address",
          "name": "from",
          "type": "address"
        },
        {
          "indexed": true,
          "internalType": "address",
          "name": "to",
          "type": "address"
        },
        {
          "indexed": false,
          "internalType": "uint256",
          "name": "value",
          "type": "uint256"
        }
      ],
      "name": "Transfer",
      "type": "event"
    },
    {
      "anonymous": false,
      "inputs": [
        {
          "indexed": false,
          "internalType": "address",
          "name": "From",
          "type": "address"
        },
        {
          "indexed": false,
          "internalType": "uint256",
          "name": "Price",
          "type": "uint256"
        }
      ],
      "name": "priceChange",
      "type": "event"
    },
    {
      "anonymous": false,
      "inputs": [
        {
          "indexed": false,
          "internalType": "address",
          "name": "From",
          "type": "address"
        },
        {
          "indexed": false,
          "internalType": "uint256",
          "name": "Amount",
          "type": "uint256"
        },
        {
          "indexed": false,
          "internalType": "uint256",
          "name": "productId",
          "type": "uint256"
        }
      ],
      "name": "productBought",
      "type": "event"
    },
    {
      "inputs": [
        {
          "internalType": "address",
          "name": "owner",
          "type": "address"
        },
        {
          "internalType": "address",
          "name": "spender",
          "type": "address"
        }
      ],
      "name": "allowance",
      "outputs": [
        {
          "internalType": "uint256",
          "name": "",
          "type": "uint256"
        }
      ],
      "stateMutability": "view",
      "type": "function",
      "constant": true
    },
    {
      "inputs": [
        {
          "internalType": "address",
          "name": "spender",
          "type": "address"
        },
        {
          "internalType": "uint256",
          "name": "amount",
          "type": "uint256"
        }
      ],
      "name": "approve",
      "outputs": [
        {
          "internalType": "bool",
          "name": "",
          "type": "bool"
        }
      ],
      "stateMutability": "nonpayable",
      "type": "function"
    },
    {
      "inputs": [
        {
          "internalType": "address",
          "name": "account",
          "type": "address"
        }
      ],
      "name": "balanceOf",
      "outputs": [
        {
          "internalType": "uint256",
          "name": "",
          "type": "uint256"
        }
      ],
      "stateMutability": "view",
      "type": "function",
      "constant": true
    },
    {
      "inputs": [],
      "name": "decimals",
      "outputs": [
        {
          "internalType": "uint8",
          "name": "",
          "type": "uint8"
        }
      ],
      "stateMutability": "view",
      "type": "function",
      "constant": true
    },
    {
      "inputs": [
        {
          "internalType": "address",
          "name": "spender",
          "type": "address"
        },
        {
          "internalType": "uint256",
          "name": "subtractedValue",
          "type": "uint256"
        }
      ],
      "name": "decreaseAllowance",
      "outputs": [
        {
          "internalType": "bool",
          "name": "",
          "type": "bool"
        }
      ],
      "stateMutability": "nonpayable",
      "type": "function"
    },
    {
      "inputs": [
        {
          "internalType": "address",
          "name": "spender",
          "type": "address"
        },
        {
          "internalType": "uint256",
          "name": "addedValue",
          "type": "uint256"
        }
      ],
      "name": "increaseAllowance",
      "outputs": [
        {
          "internalType": "bool",
          "name": "",
          "type": "bool"
        }
      ],
      "stateMutability": "nonpayable",
      "type": "function"
    },
    {
      "inputs": [],
      "name": "name",
      "outputs": [
        {
          "internalType": "string",
          "name": "",
          "type": "string"
        }
      ],
      "stateMutability": "view",
      "type": "function",
      "constant": true
    },
    {
      "inputs": [],
      "name": "owner",
      "outputs": [
        {
          "internalType": "address",
          "name": "",
          "type": "address"
        }
      ],
      "stateMutability": "view",
      "type": "function",
      "constant": true
    },
    {
      "inputs": [
        {
          "internalType": "address",
          "name": "",
          "type": "address"
        },
        {
          "internalType": "uint256",
          "name": "",
          "type": "uint256"
        }
      ],
      "name": "payments",
      "outputs": [
        {
          "internalType": "uint256",
          "name": "price",
          "type": "uint256"
        },
        {
          "internalType": "uint256",
          "name": "productId",
          "type": "uint256"
        }
      ],
      "stateMutability": "view",
      "type": "function",
      "constant": true
    },
    {
      "inputs": [],
      "name": "renounceOwnership",
      "outputs": [],
      "stateMutability": "nonpayable",
      "type": "function"
    },
    {
      "inputs": [],
      "name": "symbol",
      "outputs": [
        {
          "internalType": "string",
          "name": "",
          "type": "string"
        }
      ],
      "stateMutability": "view",
      "type": "function",
      "constant": true
    },
    {
      "inputs": [],
      "name": "totalSupply",
      "outputs": [
        {
          "internalType": "uint256",
          "name": "",
          "type": "uint256"
        }
      ],
      "stateMutability": "view",
      "type": "function",
      "constant": true
    },
    {
      "inputs": [
        {
          "internalType": "address",
          "name": "recipient",
          "type": "address"
        },
        {
          "internalType": "uint256",
          "name": "amount",
          "type": "uint256"
        }
      ],
      "name": "transfer",
      "outputs": [
        {
          "internalType": "bool",
          "name": "",
          "type": "bool"
        }
      ],
      "stateMutability": "nonpayable",
      "type": "function"
    },
    {
      "inputs": [
        {
          "internalType": "address",
          "name": "sender",
          "type": "address"
        },
        {
          "internalType": "address",
          "name": "recipient",
          "type": "address"
        },
        {
          "internalType": "uint256",
          "name": "amount",
          "type": "uint256"
        }
      ],
      "name": "transferFrom",
      "outputs": [
        {
          "internalType": "bool",
          "name": "",
          "type": "bool"
        }
      ],
      "stateMutability": "nonpayable",
      "type": "function"
    },
    {
      "inputs": [
        {
          "internalType": "address",
          "name": "newOwner",
          "type": "address"
        }
      ],
      "name": "transferOwnership",
      "outputs": [],
      "stateMutability": "nonpayable",
      "type": "function"
    },
    {
      "inputs": [
        {
          "internalType": "uint256",
          "name": "_productPrice",
          "type": "uint256"
        }
      ],
      "name": "setPrice",
      "outputs": [],
      "stateMutability": "nonpayable",
      "type": "function"
    },
    {
      "inputs": [
        {
          "internalType": "uint256",
          "name": "productId",
          "type": "uint256"
        }
      ],
      "name": "buyProduct",
      "outputs": [],
      "stateMutability": "payable",
      "type": "function",
      "payable": true
    },
    {
      "inputs": [],
      "name": "getBalanceOfEth",
      "outputs": [
        {
          "internalType": "uint256",
          "name": "",
          "type": "uint256"
        }
      ],
      "stateMutability": "view",
      "type": "function",
      "constant": true
    },
    {
      "inputs": [],
      "name": "sendToSwaper",
      "outputs": [],
      "stateMutability": "nonpayable",
      "type": "function"
    },
    {
      "inputs": [
        {
          "internalType": "address",
          "name": "_vaultAdd",
          "type": "address"
        }
      ],
      "name": "setVaultAddress",
      "outputs": [],
      "stateMutability": "nonpayable",
      "type": "function"
    },
    {
      "inputs": [],
      "name": "sendDaiToVault",
      "outputs": [],
      "stateMutability": "nonpayable",
      "type": "function"
    }
  ],
  "bytecode": "0x60806040523480156200001157600080fd5b50604051806020016040528060008152506040518060200160405280600081525062000052620000466200008c60201b60201c565b6200009460201b60201c565b81600490805190602001906200006a92919062000158565b5080600590805190602001906200008392919062000158565b5050506200026d565b600033905090565b60008060009054906101000a900473ffffffffffffffffffffffffffffffffffffffff169050816000806101000a81548173ffffffffffffffffffffffffffffffffffffffff021916908373ffffffffffffffffffffffffffffffffffffffff1602179055508173ffffffffffffffffffffffffffffffffffffffff168173ffffffffffffffffffffffffffffffffffffffff167f8be0079c531659141344cd1fd0a4f28419497f9722a3daafe3b4186f6b6457e060405160405180910390a35050565b828054620001669062000208565b90600052602060002090601f0160209004810192826200018a5760008555620001d6565b82601f10620001a557805160ff1916838001178555620001d6565b82800160010185558215620001d6579182015b82811115620001d5578251825591602001919060010190620001b8565b5b509050620001e59190620001e9565b5090565b5b8082111562000204576000816000905550600101620001ea565b5090565b600060028204905060018216806200022157607f821691505b602082108114156200023857620002376200023e565b5b50919050565b7f4e487b7100000000000000000000000000000000000000000000000000000000600052602260045260246000fd5b6122a9806200027d6000396000f3fe60806040526004361061012a5760003560e01c806385535cc5116100ab57806395d89b411161006f57806395d89b41146103ad578063a457c2d7146103d8578063a9059cbb14610415578063ab63385c14610452578063dd62ed3e14610490578063f2fde38b146104cd5761012a565b806385535cc5146102fd5780638642269e146103265780638da5cb5b1461034257806391b7f5ed1461036d57806391ef3c38146103965761012a565b8063313ce567116100f2578063313ce5671461022a578063395093511461025557806353f39f8c1461029257806370a08231146102a9578063715018a6146102e65761012a565b806306fdde031461012f578063095ea7b31461015a57806318160ddd14610197578063208f78a4146101c257806323b872dd146101ed575b600080fd5b34801561013b57600080fd5b506101446104f6565b6040516101519190611b0b565b60405180910390f35b34801561016657600080fd5b50610181600480360381019061017c9190611794565b610588565b60405161018e9190611af0565b60405180910390f35b3480156101a357600080fd5b506101ac6105a6565b6040516101b99190611ccd565b60405180910390f35b3480156101ce57600080fd5b506101d76105b0565b6040516101e49190611ccd565b60405180910390f35b3480156101f957600080fd5b50610214600480360381019061020f9190611741565b6105b8565b6040516102219190611af0565b60405180910390f35b34801561023657600080fd5b5061023f6106b0565b60405161024c9190611d11565b60405180910390f35b34801561026157600080fd5b5061027c60048036038101906102779190611794565b6106b9565b6040516102899190611af0565b60405180910390f35b34801561029e57600080fd5b506102a7610765565b005b3480156102b557600080fd5b506102d060048036038101906102cb91906116d4565b6108fd565b6040516102dd9190611ccd565b60405180910390f35b3480156102f257600080fd5b506102fb610946565b005b34801561030957600080fd5b50610324600480360381019061031f91906116d4565b6109ce565b005b610340600480360381019061033b91906117d4565b610a8e565b005b34801561034e57600080fd5b50610357610bac565b6040516103649190611a75565b60405180910390f35b34801561037957600080fd5b50610394600480360381019061038f91906117d4565b610bd5565b005b3480156103a257600080fd5b506103ab610c94565b005b3480156103b957600080fd5b506103c2610e2a565b6040516103cf9190611b0b565b60405180910390f35b3480156103e457600080fd5b506103ff60048036038101906103fa9190611794565b610ebc565b60405161040c9190611af0565b60405180910390f35b34801561042157600080fd5b5061043c60048036038101906104379190611794565b610fa7565b6040516104499190611af0565b60405180910390f35b34801561045e57600080fd5b5061047960048036038101906104749190611794565b610fc5565b604051610487929190611ce8565b60405180910390f35b34801561049c57600080fd5b506104b760048036038101906104b29190611701565b611006565b6040516104c49190611ccd565b60405180910390f35b3480156104d957600080fd5b506104f460048036038101906104ef91906116d4565b61108d565b005b60606004805461050590611e31565b80601f016020809104026020016040519081016040528092919081815260200182805461053190611e31565b801561057e5780601f106105535761010080835404028352916020019161057e565b820191906000526020600020905b81548152906001019060200180831161056157829003601f168201915b5050505050905090565b600061059c610595611185565b848461118d565b6001905092915050565b6000600354905090565b600047905090565b60006105c5848484611358565b6000600260008673ffffffffffffffffffffffffffffffffffffffff1673ffffffffffffffffffffffffffffffffffffffff1681526020019081526020016000206000610610611185565b73ffffffffffffffffffffffffffffffffffffffff1673ffffffffffffffffffffffffffffffffffffffff16815260200190815260200160002054905082811015610690576040517f08c379a000000000000000000000000000000000000000000000000000000000815260040161068790611bed565b60405180910390fd5b6106a48561069c611185565b85840361118d565b60019150509392505050565b60006012905090565b600061075b6106c6611185565b8484600260006106d4611185565b73ffffffffffffffffffffffffffffffffffffffff1673ffffffffffffffffffffffffffffffffffffffff16815260200190815260200160002060008873ffffffffffffffffffffffffffffffffffffffff1673ffffffffffffffffffffffffffffffffffffffff168152602001908152602001600020546107569190611d53565b61118d565b6001905092915050565b61076d611185565b73ffffffffffffffffffffffffffffffffffffffff1661078b610bac565b73ffffffffffffffffffffffffffffffffffffffff16146107e1576040517f08c379a00000000000000000000000000000000000000000000000000000000081526004016107d890611c0d565b60405180910390fd5b670de0b6b3a764000047101561082c576040517f08c379a000000000000000000000000000000000000000000000000000000000815260040161082390611cad565b60405180910390fd5b6000600960009054906101000a900473ffffffffffffffffffffffffffffffffffffffff1673ffffffffffffffffffffffffffffffffffffffff164760405161087490611a60565b60006040518083038185875af1925050503d80600081146108b1576040519150601f19603f3d011682016040523d82523d6000602084013e6108b6565b606091505b50509050806108fa576040517f08c379a00000000000000000000000000000000000000000000000000000000081526004016108f190611bad565b60405180910390fd5b50565b6000600160008373ffffffffffffffffffffffffffffffffffffffff1673ffffffffffffffffffffffffffffffffffffffff168152602001908152602001600020549050919050565b61094e611185565b73ffffffffffffffffffffffffffffffffffffffff1661096c610bac565b73ffffffffffffffffffffffffffffffffffffffff16146109c2576040517f08c379a00000000000000000000000000000000000000000000000000000000081526004016109b990611c0d565b60405180910390fd5b6109cc60006115dc565b565b6109d6611185565b73ffffffffffffffffffffffffffffffffffffffff166109f4610bac565b73ffffffffffffffffffffffffffffffffffffffff1614610a4a576040517f08c379a0000000000000000000000000000000000000000000000000000000008152600401610a4190611c0d565b60405180910390fd5b80600a60006101000a81548173ffffffffffffffffffffffffffffffffffffffff021916908373ffffffffffffffffffffffffffffffffffffffff16021790555050565b600654341015610ad3576040517f08c379a0000000000000000000000000000000000000000000000000000000008152600401610aca90611c6d565b60405180910390fd5b600060405180604001604052806006548152602001838152509050600b60003373ffffffffffffffffffffffffffffffffffffffff1673ffffffffffffffffffffffffffffffffffffffff168152602001908152602001600020819080600181540180825580915050600190039060005260206000209060020201600090919091909150600082015181600001556020820151816001015550507fa9ac392bdaf179d4faec98fc37ddb0fc621369787bf0d32299ef4b9fc9faf490333484604051610ba093929190611ab9565b60405180910390a15050565b60008060009054906101000a900473ffffffffffffffffffffffffffffffffffffffff16905090565b610bdd611185565b73ffffffffffffffffffffffffffffffffffffffff16610bfb610bac565b73ffffffffffffffffffffffffffffffffffffffff1614610c51576040517f08c379a0000000000000000000000000000000000000000000000000000000008152600401610c4890611c0d565b60405180910390fd5b806006819055507f2a270679203ad5c6be2af882c755f81ff060752614a378c1804df57dd7d2add03382604051610c89929190611a90565b60405180910390a150565b610c9c611185565b73ffffffffffffffffffffffffffffffffffffffff16610cba610bac565b73ffffffffffffffffffffffffffffffffffffffff1614610d10576040517f08c379a0000000000000000000000000000000000000000000000000000000008152600401610d0790611c0d565b60405180910390fd5b6008546007541015610d57576040517f08c379a0000000000000000000000000000000000000000000000000000000008152600401610d4e90611cad565b60405180910390fd5b6000600a60009054906101000a900473ffffffffffffffffffffffffffffffffffffffff1673ffffffffffffffffffffffffffffffffffffffff16600754604051610da190611a60565b60006040518083038185875af1925050503d8060008114610dde576040519150601f19603f3d011682016040523d82523d6000602084013e610de3565b606091505b5050905080610e27576040517f08c379a0000000000000000000000000000000000000000000000000000000008152600401610e1e90611bcd565b60405180910390fd5b50565b606060058054610e3990611e31565b80601f0160208091040260200160405190810160405280929190818152602001828054610e6590611e31565b8015610eb25780601f10610e8757610100808354040283529160200191610eb2565b820191906000526020600020905b815481529060010190602001808311610e9557829003601f168201915b5050505050905090565b60008060026000610ecb611185565b73ffffffffffffffffffffffffffffffffffffffff1673ffffffffffffffffffffffffffffffffffffffff16815260200190815260200160002060008573ffffffffffffffffffffffffffffffffffffffff1673ffffffffffffffffffffffffffffffffffffffff16815260200190815260200160002054905082811015610f88576040517f08c379a0000000000000000000000000000000000000000000000000000000008152600401610f7f90611c8d565b60405180910390fd5b610f9c610f93611185565b8585840361118d565b600191505092915050565b6000610fbb610fb4611185565b8484611358565b6001905092915050565b600b6020528160005260406000208181548110610fe157600080fd5b9060005260206000209060020201600091509150508060000154908060010154905082565b6000600260008473ffffffffffffffffffffffffffffffffffffffff1673ffffffffffffffffffffffffffffffffffffffff16815260200190815260200160002060008373ffffffffffffffffffffffffffffffffffffffff1673ffffffffffffffffffffffffffffffffffffffff16815260200190815260200160002054905092915050565b611095611185565b73ffffffffffffffffffffffffffffffffffffffff166110b3610bac565b73ffffffffffffffffffffffffffffffffffffffff1614611109576040517f08c379a000000000000000000000000000000000000000000000000000000000815260040161110090611c0d565b60405180910390fd5b600073ffffffffffffffffffffffffffffffffffffffff168173ffffffffffffffffffffffffffffffffffffffff161415611179576040517f08c379a000000000000000000000000000000000000000000000000000000000815260040161117090611b4d565b60405180910390fd5b611182816115dc565b50565b600033905090565b600073ffffffffffffffffffffffffffffffffffffffff168373ffffffffffffffffffffffffffffffffffffffff1614156111fd576040517f08c379a00000000000000000000000000000000000000000000000000000000081526004016111f490611c4d565b60405180910390fd5b600073ffffffffffffffffffffffffffffffffffffffff168273ffffffffffffffffffffffffffffffffffffffff16141561126d576040517f08c379a000000000000000000000000000000000000000000000000000000000815260040161126490611b6d565b60405180910390fd5b80600260008573ffffffffffffffffffffffffffffffffffffffff1673ffffffffffffffffffffffffffffffffffffffff16815260200190815260200160002060008473ffffffffffffffffffffffffffffffffffffffff1673ffffffffffffffffffffffffffffffffffffffff168152602001908152602001600020819055508173ffffffffffffffffffffffffffffffffffffffff168373ffffffffffffffffffffffffffffffffffffffff167f8c5be1e5ebec7d5bd14f71427d1e84f3dd0314c0f7b2291e5b200ac8c7c3b9258360405161134b9190611ccd565b60405180910390a3505050565b600073ffffffffffffffffffffffffffffffffffffffff168373ffffffffffffffffffffffffffffffffffffffff1614156113c8576040517f08c379a00000000000000000000000000000000000000000000000000000000081526004016113bf90611c2d565b60405180910390fd5b600073ffffffffffffffffffffffffffffffffffffffff168273ffffffffffffffffffffffffffffffffffffffff161415611438576040517f08c379a000000000000000000000000000000000000000000000000000000000815260040161142f90611b2d565b60405180910390fd5b6114438383836116a0565b6000600160008573ffffffffffffffffffffffffffffffffffffffff1673ffffffffffffffffffffffffffffffffffffffff168152602001908152602001600020549050818110156114ca576040517f08c379a00000000000000000000000000000000000000000000000000000000081526004016114c190611b8d565b60405180910390fd5b818103600160008673ffffffffffffffffffffffffffffffffffffffff1673ffffffffffffffffffffffffffffffffffffffff1681526020019081526020016000208190555081600160008573ffffffffffffffffffffffffffffffffffffffff1673ffffffffffffffffffffffffffffffffffffffff168152602001908152602001600020600082825461155f9190611d53565b925050819055508273ffffffffffffffffffffffffffffffffffffffff168473ffffffffffffffffffffffffffffffffffffffff167fddf252ad1be2c89b69c2b068fc378daa952ba7f163c4a11628f55a4df523b3ef846040516115c39190611ccd565b60405180910390a36115d68484846116a5565b50505050565b60008060009054906101000a900473ffffffffffffffffffffffffffffffffffffffff169050816000806101000a81548173ffffffffffffffffffffffffffffffffffffffff021916908373ffffffffffffffffffffffffffffffffffffffff1602179055508173ffffffffffffffffffffffffffffffffffffffff168173ffffffffffffffffffffffffffffffffffffffff167f8be0079c531659141344cd1fd0a4f28419497f9722a3daafe3b4186f6b6457e060405160405180910390a35050565b505050565b505050565b6000813590506116b981612245565b92915050565b6000813590506116ce8161225c565b92915050565b6000602082840312156116ea576116e9611ec1565b5b60006116f8848285016116aa565b91505092915050565b6000806040838503121561171857611717611ec1565b5b6000611726858286016116aa565b9250506020611737858286016116aa565b9150509250929050565b60008060006060848603121561175a57611759611ec1565b5b6000611768868287016116aa565b9350506020611779868287016116aa565b925050604061178a868287016116bf565b9150509250925092565b600080604083850312156117ab576117aa611ec1565b5b60006117b9858286016116aa565b92505060206117ca858286016116bf565b9150509250929050565b6000602082840312156117ea576117e9611ec1565b5b60006117f8848285016116bf565b91505092915050565b61180a81611da9565b82525050565b61181981611dbb565b82525050565b600061182a82611d2c565b6118348185611d42565b9350611844818560208601611dfe565b61184d81611ec6565b840191505092915050565b6000611865602383611d42565b915061187082611ed7565b604082019050919050565b6000611888602683611d42565b915061189382611f26565b604082019050919050565b60006118ab602283611d42565b91506118b682611f75565b604082019050919050565b60006118ce602683611d42565b91506118d982611fc4565b604082019050919050565b60006118f1601483611d42565b91506118fc82612013565b602082019050919050565b6000611914601283611d42565b915061191f8261203c565b602082019050919050565b6000611937602883611d42565b915061194282612065565b604082019050919050565b600061195a602083611d42565b9150611965826120b4565b602082019050919050565b600061197d602583611d42565b9150611988826120dd565b604082019050919050565b60006119a0600083611d37565b91506119ab8261212c565b600082019050919050565b60006119c3602483611d42565b91506119ce8261212f565b604082019050919050565b60006119e6602283611d42565b91506119f18261217e565b604082019050919050565b6000611a09602583611d42565b9150611a14826121cd565b604082019050919050565b6000611a2c601d83611d42565b9150611a378261221c565b602082019050919050565b611a4b81611de7565b82525050565b611a5a81611df1565b82525050565b6000611a6b82611993565b9150819050919050565b6000602082019050611a8a6000830184611801565b92915050565b6000604082019050611aa56000830185611801565b611ab26020830184611a42565b9392505050565b6000606082019050611ace6000830186611801565b611adb6020830185611a42565b611ae86040830184611a42565b949350505050565b6000602082019050611b056000830184611810565b92915050565b60006020820190508181036000830152611b25818461181f565b905092915050565b60006020820190508181036000830152611b4681611858565b9050919050565b60006020820190508181036000830152611b668161187b565b9050919050565b60006020820190508181036000830152611b868161189e565b9050919050565b60006020820190508181036000830152611ba6816118c1565b9050919050565b60006020820190508181036000830152611bc6816118e4565b9050919050565b60006020820190508181036000830152611be681611907565b9050919050565b60006020820190508181036000830152611c068161192a565b9050919050565b60006020820190508181036000830152611c268161194d565b9050919050565b60006020820190508181036000830152611c4681611970565b9050919050565b60006020820190508181036000830152611c66816119b6565b9050919050565b60006020820190508181036000830152611c86816119d9565b9050919050565b60006020820190508181036000830152611ca6816119fc565b9050919050565b60006020820190508181036000830152611cc681611a1f565b9050919050565b6000602082019050611ce26000830184611a42565b92915050565b6000604082019050611cfd6000830185611a42565b611d0a6020830184611a42565b9392505050565b6000602082019050611d266000830184611a51565b92915050565b600081519050919050565b600081905092915050565b600082825260208201905092915050565b6000611d5e82611de7565b9150611d6983611de7565b9250827fffffffffffffffffffffffffffffffffffffffffffffffffffffffffffffffff03821115611d9e57611d9d611e63565b5b828201905092915050565b6000611db482611dc7565b9050919050565b60008115159050919050565b600073ffffffffffffffffffffffffffffffffffffffff82169050919050565b6000819050919050565b600060ff82169050919050565b60005b83811015611e1c578082015181840152602081019050611e01565b83811115611e2b576000848401525b50505050565b60006002820490506001821680611e4957607f821691505b60208210811415611e5d57611e5c611e92565b5b50919050565b7f4e487b7100000000000000000000000000000000000000000000000000000000600052601160045260246000fd5b7f4e487b7100000000000000000000000000000000000000000000000000000000600052602260045260246000fd5b600080fd5b6000601f19601f8301169050919050565b7f45524332303a207472616e7366657220746f20746865207a65726f206164647260008201527f6573730000000000000000000000000000000000000000000000000000000000602082015250565b7f4f776e61626c653a206e6577206f776e657220697320746865207a65726f206160008201527f6464726573730000000000000000000000000000000000000000000000000000602082015250565b7f45524332303a20617070726f766520746f20746865207a65726f20616464726560008201527f7373000000000000000000000000000000000000000000000000000000000000602082015250565b7f45524332303a207472616e7366657220616d6f756e742065786365656473206260008201527f616c616e63650000000000000000000000000000000000000000000000000000602082015250565b7f4661696c656420746f2073656e64204574686572000000000000000000000000600082015250565b7f4661696c656420746f2073656e64204461690000000000000000000000000000600082015250565b7f45524332303a207472616e7366657220616d6f756e742065786365656473206160008201527f6c6c6f77616e6365000000000000000000000000000000000000000000000000602082015250565b7f4f776e61626c653a2063616c6c6572206973206e6f7420746865206f776e6572600082015250565b7f45524332303a207472616e736665722066726f6d20746865207a65726f20616460008201527f6472657373000000000000000000000000000000000000000000000000000000602082015250565b50565b7f45524332303a20617070726f76652066726f6d20746865207a65726f2061646460008201527f7265737300000000000000000000000000000000000000000000000000000000602082015250565b7f596f75206469646e27742073656e642074686520636f727265637420616d6f7560008201527f6e74000000000000000000000000000000000000000000000000000000000000602082015250565b7f45524332303a2064656372656173656420616c6c6f77616e63652062656c6f7760008201527f207a65726f000000000000000000000000000000000000000000000000000000602082015250565b7f4e6f742067617320656666696369656e7420746f2073656e64206e6f77000000600082015250565b61224e81611da9565b811461225957600080fd5b50565b61226581611de7565b811461227057600080fd5b5056fea264697066735822122016844ae6c256ea3065cd309549dc93e22f9469e30f52cdf4a8000d4cab3f6c8964736f6c63430008060033",
  "immutableReferences": {},
  "source": "// SPDX-License-Identifier: MIT\npragma solidity ^0.8.0;\n\nimport \"@openzeppelin/contracts/access/Ownable.sol\";\nimport \"@openzeppelin/contracts/token/ERC20/ERC20.sol\";\n\ncontract MarketPlace is Ownable, ERC20 {\n     \n    uint256 productPrice;\n    uint256 amountOfDai;\n    uint256 minAmountDai;\n    address swaperAddress;\n    address VaultAddress;\n\n    constructor() ERC20(\"\", \"\") {}\n\n    struct Payment {\n        uint256 price;\n        uint256 productId;\n    }\n\n    mapping(address => Payment[]) public payments;\n\n    event productBought(address From, uint256 Amount, uint256 productId);\n    event priceChange(address From, uint256 Price);\n\n    function setPrice(uint256 _productPrice) public onlyOwner() {\n         productPrice = _productPrice;\n         emit priceChange(msg.sender, _productPrice);\n    }\n\n    function buyProduct(uint256 productId) public payable {\n        require(msg.value >= productPrice, \"You didn't send the correct amount\");\n\n         Payment memory _payment = Payment(productPrice, productId);\n         payments[msg.sender].push(_payment);\n\n         emit productBought(msg.sender, msg.value, productId); \n    }\n\n    function getBalanceOfEth() public view returns(uint256) {\n      return address(this).balance;\n    }\n\n    ///@notice we need to elaborate converter smart contract to deploy following\n     function sendToSwaper() external onlyOwner() {\n        require(address(this).balance >= 1 ether, \"Not gas efficient to send now\");\n           (bool sent, ) = swaperAddress.call{value: address(this).balance}(\"\");\n           require(sent, \"Failed to send Ether\");\n    }\n\n    function setVaultAddress(address _vaultAdd) external onlyOwner() {\n      VaultAddress = _vaultAdd;\n    } \n\n    function sendDaiToVault() external onlyOwner(){\n      require(amountOfDai >= minAmountDai, \"Not gas efficient to send now\");\n        (bool sent, ) = VaultAddress.call{value: amountOfDai}(\"\");\n        require(sent, \"Failed to send Dai\");\n    }\n\n}\n",
  "sourcePath": "/Users/kilianmongey/Desktop/HomePageDigiBox/DigiBox/contracts/MarketPlace.sol",
  "compiler": {
    "name": "solc",
    "version": "0.8.6+commit.11564f7e.Emscripten.clang"
  },
  "schemaVersion": "3.4.1",
  "updatedAt": "2021-07-20T06:56:37.627Z",
  "networkType": "ethereum",
  "devdoc": {
    "kind": "dev",
    "methods": {
      "allowance(address,address)": {
        "details": "See {IERC20-allowance}."
      },
      "approve(address,uint256)": {
        "details": "See {IERC20-approve}. Requirements: - `spender` cannot be the zero address."
      },
      "balanceOf(address)": {
        "details": "See {IERC20-balanceOf}."
      },
      "decimals()": {
        "details": "Returns the number of decimals used to get its user representation. For example, if `decimals` equals `2`, a balance of `505` tokens should be displayed to a user as `5,05` (`505 / 10 ** 2`). Tokens usually opt for a value of 18, imitating the relationship between Ether and Wei. This is the value {ERC20} uses, unless this function is overridden; NOTE: This information is only used for _display_ purposes: it in no way affects any of the arithmetic of the contract, including {IERC20-balanceOf} and {IERC20-transfer}."
      },
      "decreaseAllowance(address,uint256)": {
        "details": "Atomically decreases the allowance granted to `spender` by the caller. This is an alternative to {approve} that can be used as a mitigation for problems described in {IERC20-approve}. Emits an {Approval} event indicating the updated allowance. Requirements: - `spender` cannot be the zero address. - `spender` must have allowance for the caller of at least `subtractedValue`."
      },
      "increaseAllowance(address,uint256)": {
        "details": "Atomically increases the allowance granted to `spender` by the caller. This is an alternative to {approve} that can be used as a mitigation for problems described in {IERC20-approve}. Emits an {Approval} event indicating the updated allowance. Requirements: - `spender` cannot be the zero address."
      },
      "name()": {
        "details": "Returns the name of the token."
      },
      "owner()": {
        "details": "Returns the address of the current owner."
      },
      "renounceOwnership()": {
        "details": "Leaves the contract without owner. It will not be possible to call `onlyOwner` functions anymore. Can only be called by the current owner. NOTE: Renouncing ownership will leave the contract without an owner, thereby removing any functionality that is only available to the owner."
      },
      "symbol()": {
        "details": "Returns the symbol of the token, usually a shorter version of the name."
      },
      "totalSupply()": {
        "details": "See {IERC20-totalSupply}."
      },
      "transfer(address,uint256)": {
        "details": "See {IERC20-transfer}. Requirements: - `recipient` cannot be the zero address. - the caller must have a balance of at least `amount`."
      },
      "transferFrom(address,address,uint256)": {
        "details": "See {IERC20-transferFrom}. Emits an {Approval} event indicating the updated allowance. This is not required by the EIP. See the note at the beginning of {ERC20}. Requirements: - `sender` and `recipient` cannot be the zero address. - `sender` must have a balance of at least `amount`. - the caller must have allowance for ``sender``'s tokens of at least `amount`."
      },
      "transferOwnership(address)": {
        "details": "Transfers ownership of the contract to a new account (`newOwner`). Can only be called by the current owner."
      }
    },
    "version": 1
  },
  "userdoc": {
    "kind": "user",
    "methods": {
      "sendToSwaper()": {
        "notice": "we need to elaborate converter smart contract to deploy following"
      }
    },
    "version": 1
  }
}