{
  "contractName": "MarketPlace",
  "abi": [
    {
      "anonymous": false,
      "inputs": [
        {
          "indexed": true,
          "internalType": "address",
          "name": "previousOwner",
          "type": "address"
        },
        {
          "indexed": true,
          "internalType": "address",
          "name": "newOwner",
          "type": "address"
        }
      ],
      "name": "OwnershipTransferred",
      "type": "event"
    },
    {
      "anonymous": false,
      "inputs": [
        {
          "indexed": false,
          "internalType": "address",
          "name": "From",
          "type": "address"
        },
        {
          "indexed": false,
          "internalType": "uint256",
          "name": "Price",
          "type": "uint256"
        }
      ],
      "name": "priceChange",
      "type": "event"
    },
    {
      "anonymous": false,
      "inputs": [
        {
          "indexed": false,
          "internalType": "address",
          "name": "From",
          "type": "address"
        },
        {
          "indexed": false,
          "internalType": "uint256",
          "name": "Amount",
          "type": "uint256"
        },
        {
          "indexed": false,
          "internalType": "uint256",
          "name": "productId",
          "type": "uint256"
        }
      ],
      "name": "productBought",
      "type": "event"
    },
    {
      "inputs": [],
      "name": "owner",
      "outputs": [
        {
          "internalType": "address",
          "name": "",
          "type": "address"
        }
      ],
      "stateMutability": "view",
      "type": "function",
      "constant": true
    },
    {
      "inputs": [
        {
          "internalType": "address",
          "name": "",
          "type": "address"
        },
        {
          "internalType": "uint256",
          "name": "",
          "type": "uint256"
        }
      ],
      "name": "payments",
      "outputs": [
        {
          "internalType": "uint256",
          "name": "price",
          "type": "uint256"
        },
        {
          "internalType": "uint256",
          "name": "productId",
          "type": "uint256"
        }
      ],
      "stateMutability": "view",
      "type": "function",
      "constant": true
    },
    {
      "inputs": [],
      "name": "renounceOwnership",
      "outputs": [],
      "stateMutability": "nonpayable",
      "type": "function"
    },
    {
      "inputs": [
        {
          "internalType": "address",
          "name": "newOwner",
          "type": "address"
        }
      ],
      "name": "transferOwnership",
      "outputs": [],
      "stateMutability": "nonpayable",
      "type": "function"
    },
    {
      "inputs": [
        {
          "internalType": "uint256",
          "name": "_productPrice",
          "type": "uint256"
        }
      ],
      "name": "setPrice",
      "outputs": [],
      "stateMutability": "nonpayable",
      "type": "function"
    },
    {
      "inputs": [
        {
          "internalType": "uint256",
          "name": "productId",
          "type": "uint256"
        }
      ],
      "name": "buyProduct",
      "outputs": [],
      "stateMutability": "payable",
      "type": "function",
      "payable": true
    },
    {
      "inputs": [],
      "name": "getBalanceOfEth",
      "outputs": [
        {
          "internalType": "uint256",
          "name": "",
          "type": "uint256"
        }
      ],
      "stateMutability": "view",
      "type": "function",
      "constant": true
    }
  ],
  "bytecode": "0x608060405234801561001057600080fd5b5061002d61002261003260201b60201c565b61003a60201b60201c565b6100fe565b600033905090565b60008060009054906101000a900473ffffffffffffffffffffffffffffffffffffffff169050816000806101000a81548173ffffffffffffffffffffffffffffffffffffffff021916908373ffffffffffffffffffffffffffffffffffffffff1602179055508173ffffffffffffffffffffffffffffffffffffffff168173ffffffffffffffffffffffffffffffffffffffff167f8be0079c531659141344cd1fd0a4f28419497f9722a3daafe3b4186f6b6457e060405160405180910390a35050565b610a108061010d6000396000f3fe6080604052600436106100705760003560e01c80638da5cb5b1161004e5780638da5cb5b146100d357806391b7f5ed146100fe578063ab63385c14610127578063f2fde38b1461016557610070565b8063208f78a414610075578063715018a6146100a05780638642269e146100b7575b600080fd5b34801561008157600080fd5b5061008a61018e565b604051610097919061084f565b60405180910390f35b3480156100ac57600080fd5b506100b5610196565b005b6100d160048036038101906100cc91906106c0565b61021e565b005b3480156100df57600080fd5b506100e861033c565b6040516100f59190610774565b60405180910390f35b34801561010a57600080fd5b50610125600480360381019061012091906106c0565b610365565b005b34801561013357600080fd5b5061014e60048036038101906101499190610680565b610424565b60405161015c92919061086a565b60405180910390f35b34801561017157600080fd5b5061018c60048036038101906101879190610653565b610465565b005b600047905090565b61019e61055d565b73ffffffffffffffffffffffffffffffffffffffff166101bc61033c565b73ffffffffffffffffffffffffffffffffffffffff1614610212576040517f08c379a00000000000000000000000000000000000000000000000000000000081526004016102099061080f565b60405180910390fd5b61021c6000610565565b565b600154341015610263576040517f08c379a000000000000000000000000000000000000000000000000000000000815260040161025a9061082f565b60405180910390fd5b600060405180604001604052806001548152602001838152509050600260003373ffffffffffffffffffffffffffffffffffffffff1673ffffffffffffffffffffffffffffffffffffffff168152602001908152602001600020819080600181540180825580915050600190039060005260206000209060020201600090919091909150600082015181600001556020820151816001015550507fa9ac392bdaf179d4faec98fc37ddb0fc621369787bf0d32299ef4b9fc9faf490333484604051610330939291906107b8565b60405180910390a15050565b60008060009054906101000a900473ffffffffffffffffffffffffffffffffffffffff16905090565b61036d61055d565b73ffffffffffffffffffffffffffffffffffffffff1661038b61033c565b73ffffffffffffffffffffffffffffffffffffffff16146103e1576040517f08c379a00000000000000000000000000000000000000000000000000000000081526004016103d89061080f565b60405180910390fd5b806001819055507f2a270679203ad5c6be2af882c755f81ff060752614a378c1804df57dd7d2add0338260405161041992919061078f565b60405180910390a150565b6002602052816000526040600020818154811061044057600080fd5b9060005260206000209060020201600091509150508060000154908060010154905082565b61046d61055d565b73ffffffffffffffffffffffffffffffffffffffff1661048b61033c565b73ffffffffffffffffffffffffffffffffffffffff16146104e1576040517f08c379a00000000000000000000000000000000000000000000000000000000081526004016104d89061080f565b60405180910390fd5b600073ffffffffffffffffffffffffffffffffffffffff168173ffffffffffffffffffffffffffffffffffffffff161415610551576040517f08c379a0000000000000000000000000000000000000000000000000000000008152600401610548906107ef565b60405180910390fd5b61055a81610565565b50565b600033905090565b60008060009054906101000a900473ffffffffffffffffffffffffffffffffffffffff169050816000806101000a81548173ffffffffffffffffffffffffffffffffffffffff021916908373ffffffffffffffffffffffffffffffffffffffff1602179055508173ffffffffffffffffffffffffffffffffffffffff168173ffffffffffffffffffffffffffffffffffffffff167f8be0079c531659141344cd1fd0a4f28419497f9722a3daafe3b4186f6b6457e060405160405180910390a35050565b600081359050610638816109ac565b92915050565b60008135905061064d816109c3565b92915050565b600060208284031215610669576106686108e0565b5b600061067784828501610629565b91505092915050565b60008060408385031215610697576106966108e0565b5b60006106a585828601610629565b92505060206106b68582860161063e565b9150509250929050565b6000602082840312156106d6576106d56108e0565b5b60006106e48482850161063e565b91505092915050565b6106f6816108a4565b82525050565b6000610709602683610893565b9150610714826108e5565b604082019050919050565b600061072c602083610893565b915061073782610934565b602082019050919050565b600061074f602283610893565b915061075a8261095d565b604082019050919050565b61076e816108d6565b82525050565b600060208201905061078960008301846106ed565b92915050565b60006040820190506107a460008301856106ed565b6107b16020830184610765565b9392505050565b60006060820190506107cd60008301866106ed565b6107da6020830185610765565b6107e76040830184610765565b949350505050565b60006020820190508181036000830152610808816106fc565b9050919050565b600060208201905081810360008301526108288161071f565b9050919050565b6000602082019050818103600083015261084881610742565b9050919050565b60006020820190506108646000830184610765565b92915050565b600060408201905061087f6000830185610765565b61088c6020830184610765565b9392505050565b600082825260208201905092915050565b60006108af826108b6565b9050919050565b600073ffffffffffffffffffffffffffffffffffffffff82169050919050565b6000819050919050565b600080fd5b7f4f776e61626c653a206e6577206f776e657220697320746865207a65726f206160008201527f6464726573730000000000000000000000000000000000000000000000000000602082015250565b7f4f776e61626c653a2063616c6c6572206973206e6f7420746865206f776e6572600082015250565b7f596f75206469646e27742073656e642074686520636f727265637420616d6f7560008201527f6e74000000000000000000000000000000000000000000000000000000000000602082015250565b6109b5816108a4565b81146109c057600080fd5b50565b6109cc816108d6565b81146109d757600080fd5b5056fea2646970667358221220f7e2089f45695e36fe34f1424099ab72dc7ae8a42f0ffb6f3a677049b4fd218b64736f6c63430008060033",
  "immutableReferences": {},
  "source": "// SPDX-License-Identifier: MIT\npragma solidity ^0.8.0;\n\nimport \"@openzeppelin/contracts/access/Ownable.sol\";\n\ncontract MarketPlace is Ownable {\n     \n    uint256 productPrice;\n\n    struct Payment {\n        uint256 price;\n        uint256 productId;\n    }\n\n    mapping(address => Payment[]) public payments;\n\n    event productBought(address From, uint256 Amount, uint256 productId);\n    event priceChange(address From, uint256 Price);\n\n    function setPrice(uint256 _productPrice) public onlyOwner() {\n         productPrice = _productPrice;\n         emit priceChange(msg.sender, _productPrice);\n    }\n\n    function buyProduct(uint256 productId) public payable {\n        require(msg.value >= productPrice, \"You didn't send the correct amount\");\n\n         Payment memory _payment = Payment(productPrice, productId);\n         payments[msg.sender].push(_payment);\n\n         emit productBought(msg.sender, msg.value, productId); \n    }\n\n    function getBalanceOfEth() public view returns(uint256) {\n      return address(this).balance;\n    }\n\n}\n",
  "sourcePath": "/Users/kilianmongey/Desktop/HomePageDigiBox/DigiBox/contracts/MarketPlace.sol",
  "compiler": {
    "name": "solc",
    "version": "0.8.6+commit.11564f7e.Emscripten.clang"
  },
  "schemaVersion": "3.4.1",
  "updatedAt": "2021-07-17T17:42:56.062Z",
  "networkType": "ethereum",
  "devdoc": {
    "kind": "dev",
    "methods": {
      "owner()": {
        "details": "Returns the address of the current owner."
      },
      "renounceOwnership()": {
        "details": "Leaves the contract without owner. It will not be possible to call `onlyOwner` functions anymore. Can only be called by the current owner. NOTE: Renouncing ownership will leave the contract without an owner, thereby removing any functionality that is only available to the owner."
      },
      "transferOwnership(address)": {
        "details": "Transfers ownership of the contract to a new account (`newOwner`). Can only be called by the current owner."
      }
    },
    "version": 1
  },
  "userdoc": {
    "kind": "user",
    "methods": {},
    "version": 1
  }
}