{
  "contractName": "Vault",
  "abi": [
    {
      "anonymous": false,
      "inputs": [
        {
          "indexed": false,
          "internalType": "address",
          "name": "TokenAddress",
          "type": "address"
        }
      ],
      "name": "ChangedAddressToken",
      "type": "event"
    },
    {
      "anonymous": false,
      "inputs": [
        {
          "indexed": false,
          "internalType": "uint256",
          "name": "MinAmountToConvert",
          "type": "uint256"
        }
      ],
      "name": "ChangedMinAmount",
      "type": "event"
    },
    {
      "anonymous": false,
      "inputs": [
        {
          "indexed": false,
          "internalType": "uint256",
          "name": "Amount",
          "type": "uint256"
        }
      ],
      "name": "ConvertedEthToUsdt",
      "type": "event"
    },
    {
      "anonymous": false,
      "inputs": [
        {
          "indexed": false,
          "internalType": "address",
          "name": "From",
          "type": "address"
        },
        {
          "indexed": false,
          "internalType": "uint256",
          "name": "Amount",
          "type": "uint256"
        }
      ],
      "name": "EthReceived",
      "type": "event"
    },
    {
      "anonymous": false,
      "inputs": [
        {
          "indexed": true,
          "internalType": "address",
          "name": "previousOwner",
          "type": "address"
        },
        {
          "indexed": true,
          "internalType": "address",
          "name": "newOwner",
          "type": "address"
        }
      ],
      "name": "OwnershipTransferred",
      "type": "event"
    },
    {
      "anonymous": false,
      "inputs": [
        {
          "indexed": false,
          "internalType": "address",
          "name": "From",
          "type": "address"
        },
        {
          "indexed": false,
          "internalType": "uint256",
          "name": "Amount",
          "type": "uint256"
        }
      ],
      "name": "UsdtReceived",
      "type": "event"
    },
    {
      "anonymous": false,
      "inputs": [
        {
          "indexed": false,
          "internalType": "address",
          "name": "recipient",
          "type": "address"
        },
        {
          "indexed": false,
          "internalType": "uint256",
          "name": "Amount",
          "type": "uint256"
        }
      ],
      "name": "UsdtSentTo",
      "type": "event"
    },
    {
      "inputs": [],
      "name": "amountMinimum",
      "outputs": [
        {
          "internalType": "uint256",
          "name": "",
          "type": "uint256"
        }
      ],
      "stateMutability": "view",
      "type": "function"
    },
    {
      "inputs": [],
      "name": "owner",
      "outputs": [
        {
          "internalType": "address",
          "name": "",
          "type": "address"
        }
      ],
      "stateMutability": "view",
      "type": "function"
    },
    {
      "inputs": [],
      "name": "renounceOwnership",
      "outputs": [],
      "stateMutability": "nonpayable",
      "type": "function"
    },
    {
      "inputs": [],
      "name": "storedEth",
      "outputs": [
        {
          "internalType": "uint256",
          "name": "",
          "type": "uint256"
        }
      ],
      "stateMutability": "view",
      "type": "function"
    },
    {
      "inputs": [],
      "name": "storedUsdt",
      "outputs": [
        {
          "internalType": "uint256",
          "name": "",
          "type": "uint256"
        }
      ],
      "stateMutability": "view",
      "type": "function"
    },
    {
      "inputs": [],
      "name": "token",
      "outputs": [
        {
          "internalType": "address",
          "name": "",
          "type": "address"
        }
      ],
      "stateMutability": "view",
      "type": "function"
    },
    {
      "inputs": [
        {
          "internalType": "address",
          "name": "newOwner",
          "type": "address"
        }
      ],
      "name": "transferOwnership",
      "outputs": [],
      "stateMutability": "nonpayable",
      "type": "function"
    },
    {
      "stateMutability": "payable",
      "type": "receive"
    },
    {
      "inputs": [
        {
          "internalType": "uint256",
          "name": "_minAmount",
          "type": "uint256"
        }
      ],
      "name": "setMinAmount",
      "outputs": [],
      "stateMutability": "nonpayable",
      "type": "function"
    },
    {
      "inputs": [
        {
          "internalType": "address",
          "name": "_tokenAddress",
          "type": "address"
        }
      ],
      "name": "setStableToConvert",
      "outputs": [],
      "stateMutability": "nonpayable",
      "type": "function"
    },
    {
      "inputs": [],
      "name": "convertEthToDai",
      "outputs": [],
      "stateMutability": "payable",
      "type": "function"
    },
    {
      "inputs": [],
      "name": "getBalanceOfETH",
      "outputs": [
        {
          "internalType": "uint256",
          "name": "",
          "type": "uint256"
        }
      ],
      "stateMutability": "view",
      "type": "function"
    },
    {
      "inputs": [],
      "name": "getBalanceOfUSDT",
      "outputs": [
        {
          "internalType": "uint256",
          "name": "",
          "type": "uint256"
        }
      ],
      "stateMutability": "view",
      "type": "function"
    }
  ],
  "bytecode": "0x608060405234801561001057600080fd5b5061002d61002261003260201b60201c565b61003a60201b60201c565b6100fe565b600033905090565b60008060009054906101000a900473ffffffffffffffffffffffffffffffffffffffff169050816000806101000a81548173ffffffffffffffffffffffffffffffffffffffff021916908373ffffffffffffffffffffffffffffffffffffffff1602179055508173ffffffffffffffffffffffffffffffffffffffff168173ffffffffffffffffffffffffffffffffffffffff167f8be0079c531659141344cd1fd0a4f28419497f9722a3daafe3b4186f6b6457e060405160405180910390a35050565b610b7d8061010d6000396000f3fe6080604052600436106100ab5760003560e01c80638da5cb5b116100645780638da5cb5b146101a15780639576088b146101cc5780639b7e906e146101d6578063ad00f3b714610201578063f2fde38b1461022c578063fc0c546a14610255576100b2565b80631828716b146100b757806323e2caae146100e257806335ffe3a21461010d578063715018a614610138578063852b36ac1461014f578063897b063714610178576100b2565b366100b257005b600080fd5b3480156100c357600080fd5b506100cc610280565b6040516100d991906109e5565b60405180910390f35b3480156100ee57600080fd5b506100f7610288565b60405161010491906109e5565b60405180910390f35b34801561011957600080fd5b50610122610292565b60405161012f91906109e5565b60405180910390f35b34801561014457600080fd5b5061014d610298565b005b34801561015b57600080fd5b5061017660048036038101906101719190610852565b610320565b005b34801561018457600080fd5b5061019f600480360381019061019a919061087f565b610417565b005b3480156101ad57600080fd5b506101b66104d4565b6040516101c39190610933565b60405180910390f35b6101d46104fd565b005b3480156101e257600080fd5b506101eb610632565b6040516101f891906109e5565b60405180910390f35b34801561020d57600080fd5b50610216610638565b60405161022391906109e5565b60405180910390f35b34801561023857600080fd5b50610253600480360381019061024e9190610852565b61063e565b005b34801561026157600080fd5b5061026a610736565b6040516102779190610933565b60405180910390f35b600047905090565b6000600354905090565b60025481565b6102a061075c565b73ffffffffffffffffffffffffffffffffffffffff166102be6104d4565b73ffffffffffffffffffffffffffffffffffffffff1614610314576040517f08c379a000000000000000000000000000000000000000000000000000000000815260040161030b906109c5565b60405180910390fd5b61031e6000610764565b565b61032861075c565b73ffffffffffffffffffffffffffffffffffffffff166103466104d4565b73ffffffffffffffffffffffffffffffffffffffff161461039c576040517f08c379a0000000000000000000000000000000000000000000000000000000008152600401610393906109c5565b60405180910390fd5b80600560006101000a81548173ffffffffffffffffffffffffffffffffffffffff021916908373ffffffffffffffffffffffffffffffffffffffff1602179055507f83a460e35670a24ee4935611606c1f0957690bb29af1250116299ca5b861efcc8160405161040c9190610933565b60405180910390a150565b61041f61075c565b73ffffffffffffffffffffffffffffffffffffffff1661043d6104d4565b73ffffffffffffffffffffffffffffffffffffffff1614610493576040517f08c379a000000000000000000000000000000000000000000000000000000000815260040161048a906109c5565b60405180910390fd5b806004819055507f610353a1170849bb57f4952408db0bf58b08ffdd7139cc48f2a5c604a03212f2816040516104c991906109e5565b60405180910390a150565b60008060009054906101000a900473ffffffffffffffffffffffffffffffffffffffff16905090565b6004546002541015610544576040517f08c379a000000000000000000000000000000000000000000000000000000000815260040161053b90610985565b60405180910390fd5b600160009054906101000a900473ffffffffffffffffffffffffffffffffffffffff1673ffffffffffffffffffffffffffffffffffffffff1663df2ab5bb600560009054906101000a900473ffffffffffffffffffffffffffffffffffffffff16600454306040518463ffffffff1660e01b81526004016105c79392919061094e565b600060405180830381600087803b1580156105e157600080fd5b505af11580156105f5573d6000803e3d6000fd5b505050507f5b048ae86a0edc5dbcfb2e2d8a6c38180656fa0601ad9ea105c86c03691f8cec3460405161062891906109e5565b60405180910390a1565b60045481565b60035481565b61064661075c565b73ffffffffffffffffffffffffffffffffffffffff166106646104d4565b73ffffffffffffffffffffffffffffffffffffffff16146106ba576040517f08c379a00000000000000000000000000000000000000000000000000000000081526004016106b1906109c5565b60405180910390fd5b600073ffffffffffffffffffffffffffffffffffffffff168173ffffffffffffffffffffffffffffffffffffffff16141561072a576040517f08c379a0000000000000000000000000000000000000000000000000000000008152600401610721906109a5565b60405180910390fd5b61073381610764565b50565b600560009054906101000a900473ffffffffffffffffffffffffffffffffffffffff1681565b600033905090565b60008060009054906101000a900473ffffffffffffffffffffffffffffffffffffffff169050816000806101000a81548173ffffffffffffffffffffffffffffffffffffffff021916908373ffffffffffffffffffffffffffffffffffffffff1602179055508173ffffffffffffffffffffffffffffffffffffffff168173ffffffffffffffffffffffffffffffffffffffff167f8be0079c531659141344cd1fd0a4f28419497f9722a3daafe3b4186f6b6457e060405160405180910390a35050565b60008135905061083781610b19565b92915050565b60008135905061084c81610b30565b92915050565b60006020828403121561086857610867610a4d565b5b600061087684828501610828565b91505092915050565b60006020828403121561089557610894610a4d565b5b60006108a38482850161083d565b91505092915050565b6108b581610a11565b82525050565b60006108c8603e83610a00565b91506108d382610a52565b604082019050919050565b60006108eb602683610a00565b91506108f682610aa1565b604082019050919050565b600061090e602083610a00565b915061091982610af0565b602082019050919050565b61092d81610a43565b82525050565b600060208201905061094860008301846108ac565b92915050565b600060608201905061096360008301866108ac565b6109706020830185610924565b61097d60408301846108ac565b949350505050565b6000602082019050818103600083015261099e816108bb565b9050919050565b600060208201905081810360008301526109be816108de565b9050919050565b600060208201905081810360008301526109de81610901565b9050919050565b60006020820190506109fa6000830184610924565b92915050565b600082825260208201905092915050565b6000610a1c82610a23565b9050919050565b600073ffffffffffffffffffffffffffffffffffffffff82169050919050565b6000819050919050565b600080fd5b7f4e6f7420776f7274682062656361757365206f6620676173206665652c20776560008201527f206e656564206d6f726520657468206265666f7265207472616e736665720000602082015250565b7f4f776e61626c653a206e6577206f776e657220697320746865207a65726f206160008201527f6464726573730000000000000000000000000000000000000000000000000000602082015250565b7f4f776e61626c653a2063616c6c6572206973206e6f7420746865206f776e6572600082015250565b610b2281610a11565b8114610b2d57600080fd5b50565b610b3981610a43565b8114610b4457600080fd5b5056fea264697066735822122065e6276b47428e82dae0a3e04fc1a622e924cf57943ab5d84f4ce7591cadc4d964736f6c63430008060033",
  "immutableReferences": {},
  "source": "// SPDX-License-Identifier: MIT\npragma solidity ^0.8.0;\n\nimport \"../node_modules/@uniswap/v3-periphery/contracts/interfaces/IPeripheryPayments.sol\";\nimport \"../node_modules/@uniswap/v3-periphery/contracts/interfaces/ISwapRouter.sol\";\nimport \"../node_modules/@uniswap/v3-periphery/contracts/interfaces/IQuoter.sol\";\nimport \"@openzeppelin/contracts/utils/math/SafeMath.sol\";\nimport \"@openzeppelin/contracts/access/Ownable.sol\";\nimport \"@openzeppelin/contracts/token/ERC1155/ERC1155.sol\";\n\ncontract SimpleStorage {\n  uint storedData;\n\n  function set(uint x) public {\n    storedData = x;\n  }\n\n  function get() public view returns (uint) {\n    return storedData;\n  }\n}\n\ncontract TokenERC1155  is ERC1155 {\n\n  constructor() ERC1155(\"https://gateway.pinata.cloud/ipfs/{id}\") {\n  }\n\n  function mintNft(uint256 id) public{\n    require(balanceOf(msg.sender, id) == 0, \"This id is already in use\");\n    _mint(msg.sender, id, 1, \"0x000\");\n  }\n}\n\ncontract Vault is Ownable {\n    \n    using SafeMath for uint;\n    \n    IPeripheryPayments Iuniswap;\n    \n    uint256 public storedEth;\n    uint256 public storedUsdt;\n    uint256 public amountMinimum;\n    address public token;\n\n  ///IUniswapRouter public constant uniswapRouter = IUniswapRouter(0xE592427A0AEce92De3Edee1F18E0157C05861564);\n  ///IQuoter public constant quoter = IQuoter(0xb27308f9F90D607463bb33eA1BeBb41C27CE5AB6);\n  ///address private constant multiDaiKovan = 0x4F96Fe3b7A6Cf9725f59d353F723c1bDb64CA6Aa;\n  ///address private constant WETH9 = 0xd0A1E359811322d97991E03f863a0C30C2cF029C;\n    \n    event EthReceived(address From, uint256 Amount);\n    event UsdtReceived(address From, uint256 Amount);\n    event UsdtSentTo(address recipient, uint256 Amount);\n    event ChangedMinAmount(uint256 MinAmountToConvert);\n    event ConvertedEthToUsdt(uint256 Amount);\n    event ChangedAddressToken(address TokenAddress);\n    \n    ///@dev toManage if ethPrice fluctuates;\n    function setMinAmount(uint256 _minAmount) external onlyOwner() {\n        amountMinimum = _minAmount;\n        emit ChangedMinAmount(_minAmount);\n    }\n    \n    ///@dev set the token address(stablecoin) to convert to;\n    function setStableToConvert(address _tokenAddress) external onlyOwner() {\n        token = _tokenAddress;\n        emit ChangedAddressToken(_tokenAddress);\n    }\n    \n    ///@notice We implement a function that converts eth => usdt;\n    function convertEthToDai() external payable {\n        require(storedEth >= amountMinimum, \"Not worth because of gas fee, we need more eth before transfer\");\n        Iuniswap.sweepToken(token, amountMinimum, address(this));\n        //Iuniswap.pay();\n        \n        emit ConvertedEthToUsdt(msg.value);\n    } \n    \n    ///@dev helper to keep track of balances\n    function getBalanceOfETH() public view returns(uint256) {\n        return address(this).balance;\n    }\n    \n    function getBalanceOfUSDT() public view returns(uint256) {\n        return storedUsdt;\n    }\n    \n    //@notice allow to receive eth\n    receive() external payable{\n        \n    }\n\n    /// Voir si on peux importer directement le smart contract PeripheryPayments directement et faire appel \"./Periphery\"\n\n    /* contract Test {\n    function refundETH() external payable;\n        \n        function pay(\n            address token,\n            address payer,\n            address recipient,\n            uint256 value\n        ) internal;\n    } */\n\n    ///interface IUniswapRouter is ISwapRouter {\n    ///    function refundETH() external payable;\n    ///}\n\n}\n",
  "sourcePath": "/Users/nicolas/Desktop/DigiBox/contracts/SimpleStorage.sol",
  "compiler": {
    "name": "solc",
    "version": "0.8.6+commit.11564f7e.Emscripten.clang"
  },
  "schemaVersion": "3.4.1",
  "updatedAt": "2021-07-16T07:53:51.590Z",
  "devdoc": {
    "kind": "dev",
    "methods": {
      "getBalanceOfETH()": {
        "details": "helper to keep track of balances"
      },
      "owner()": {
        "details": "Returns the address of the current owner."
      },
      "renounceOwnership()": {
        "details": "Leaves the contract without owner. It will not be possible to call `onlyOwner` functions anymore. Can only be called by the current owner. NOTE: Renouncing ownership will leave the contract without an owner, thereby removing any functionality that is only available to the owner."
      },
      "setMinAmount(uint256)": {
        "details": "toManage if ethPrice fluctuates;"
      },
      "setStableToConvert(address)": {
        "details": "set the token address(stablecoin) to convert to;"
      },
      "transferOwnership(address)": {
        "details": "Transfers ownership of the contract to a new account (`newOwner`). Can only be called by the current owner."
      }
    },
    "version": 1
  },
  "userdoc": {
    "events": {
      "EthReceived(address,uint256)": {
        "notice": "IUniswapRouter public constant uniswapRouter = IUniswapRouter(0xE592427A0AEce92De3Edee1F18E0157C05861564); IQuoter public constant quoter = IQuoter(0xb27308f9F90D607463bb33eA1BeBb41C27CE5AB6); address private constant multiDaiKovan = 0x4F96Fe3b7A6Cf9725f59d353F723c1bDb64CA6Aa; address private constant WETH9 = 0xd0A1E359811322d97991E03f863a0C30C2cF029C;"
      }
    },
    "kind": "user",
    "methods": {
      "convertEthToDai()": {
        "notice": "We implement a function that converts eth => usdt;"
      }
    },
    "version": 1
  }
}