{
  "contractName": "Vault",
  "abi": [
    {
      "anonymous": false,
      "inputs": [
        {
          "indexed": false,
          "internalType": "address",
          "name": "TokenAddress",
          "type": "address"
        }
      ],
      "name": "ChangedAddressToken",
      "type": "event"
    },
    {
      "anonymous": false,
      "inputs": [
        {
          "indexed": false,
          "internalType": "uint256",
          "name": "MinAmountToConvert",
          "type": "uint256"
        }
      ],
      "name": "ChangedMinAmount",
      "type": "event"
    },
    {
      "anonymous": false,
      "inputs": [
        {
          "indexed": false,
          "internalType": "uint256",
          "name": "Amount",
          "type": "uint256"
        }
      ],
      "name": "ConvertedEthToUsdt",
      "type": "event"
    },
    {
      "anonymous": false,
      "inputs": [
        {
          "indexed": false,
          "internalType": "address",
          "name": "From",
          "type": "address"
        },
        {
          "indexed": false,
          "internalType": "uint256",
          "name": "Amount",
          "type": "uint256"
        }
      ],
      "name": "EthReceived",
      "type": "event"
    },
    {
      "anonymous": false,
      "inputs": [
        {
          "indexed": true,
          "internalType": "address",
          "name": "previousOwner",
          "type": "address"
        },
        {
          "indexed": true,
          "internalType": "address",
          "name": "newOwner",
          "type": "address"
        }
      ],
      "name": "OwnershipTransferred",
      "type": "event"
    },
    {
      "anonymous": false,
      "inputs": [
        {
          "indexed": false,
          "internalType": "address",
          "name": "From",
          "type": "address"
        },
        {
          "indexed": false,
          "internalType": "uint256",
          "name": "Amount",
          "type": "uint256"
        }
      ],
      "name": "UsdtReceived",
      "type": "event"
    },
    {
      "anonymous": false,
      "inputs": [
        {
          "indexed": false,
          "internalType": "address",
          "name": "recipient",
          "type": "address"
        },
        {
          "indexed": false,
          "internalType": "uint256",
          "name": "Amount",
          "type": "uint256"
        }
      ],
      "name": "UsdtSentTo",
      "type": "event"
    },
    {
      "anonymous": false,
      "inputs": [
        {
          "indexed": false,
          "internalType": "address",
          "name": "From",
          "type": "address"
        },
        {
          "indexed": false,
          "internalType": "uint256",
          "name": "Amount",
          "type": "uint256"
        },
        {
          "indexed": false,
          "internalType": "uint256",
          "name": "productId",
          "type": "uint256"
        }
      ],
      "name": "productBought",
      "type": "event"
    },
    {
      "inputs": [],
      "name": "amountMinimum",
      "outputs": [
        {
          "internalType": "uint256",
          "name": "",
          "type": "uint256"
        }
      ],
      "stateMutability": "view",
      "type": "function"
    },
    {
      "inputs": [],
      "name": "owner",
      "outputs": [
        {
          "internalType": "address",
          "name": "",
          "type": "address"
        }
      ],
      "stateMutability": "view",
      "type": "function"
    },
    {
      "inputs": [
        {
          "internalType": "address",
          "name": "",
          "type": "address"
        },
        {
          "internalType": "uint256",
          "name": "",
          "type": "uint256"
        }
      ],
      "name": "payments",
      "outputs": [
        {
          "internalType": "uint256",
          "name": "price",
          "type": "uint256"
        },
        {
          "internalType": "uint256",
          "name": "productId",
          "type": "uint256"
        }
      ],
      "stateMutability": "view",
      "type": "function"
    },
    {
      "inputs": [],
      "name": "quoter",
      "outputs": [
        {
          "internalType": "contract IQuoter",
          "name": "",
          "type": "address"
        }
      ],
      "stateMutability": "view",
      "type": "function"
    },
    {
      "inputs": [],
      "name": "renounceOwnership",
      "outputs": [],
      "stateMutability": "nonpayable",
      "type": "function"
    },
    {
      "inputs": [],
      "name": "storedEth",
      "outputs": [
        {
          "internalType": "uint256",
          "name": "",
          "type": "uint256"
        }
      ],
      "stateMutability": "view",
      "type": "function"
    },
    {
      "inputs": [],
      "name": "storedUsdt",
      "outputs": [
        {
          "internalType": "uint256",
          "name": "",
          "type": "uint256"
        }
      ],
      "stateMutability": "view",
      "type": "function"
    },
    {
      "inputs": [],
      "name": "token",
      "outputs": [
        {
          "internalType": "address",
          "name": "",
          "type": "address"
        }
      ],
      "stateMutability": "view",
      "type": "function"
    },
    {
      "inputs": [
        {
          "internalType": "address",
          "name": "newOwner",
          "type": "address"
        }
      ],
      "name": "transferOwnership",
      "outputs": [],
      "stateMutability": "nonpayable",
      "type": "function"
    },
    {
      "inputs": [],
      "name": "uniswapRouter",
      "outputs": [
        {
          "internalType": "contract IUniswapRouter",
          "name": "",
          "type": "address"
        }
      ],
      "stateMutability": "view",
      "type": "function"
    },
    {
      "stateMutability": "payable",
      "type": "receive"
    },
    {
      "inputs": [
        {
          "internalType": "uint256",
          "name": "_minAmount",
          "type": "uint256"
        }
      ],
      "name": "setMinAmount",
      "outputs": [],
      "stateMutability": "nonpayable",
      "type": "function"
    },
    {
      "inputs": [
        {
          "internalType": "address",
          "name": "_tokenAddress",
          "type": "address"
        }
      ],
      "name": "setStableToConvert",
      "outputs": [],
      "stateMutability": "nonpayable",
      "type": "function"
    },
    {
      "inputs": [],
      "name": "convertEthToDai",
      "outputs": [],
      "stateMutability": "payable",
      "type": "function"
    },
    {
      "inputs": [],
      "name": "getBalanceOfETH",
      "outputs": [
        {
          "internalType": "uint256",
          "name": "",
          "type": "uint256"
        }
      ],
      "stateMutability": "view",
      "type": "function"
    },
    {
      "inputs": [],
      "name": "getBalanceOfUSDT",
      "outputs": [
        {
          "internalType": "uint256",
          "name": "",
          "type": "uint256"
        }
      ],
      "stateMutability": "view",
      "type": "function"
    },
    {
      "inputs": [],
      "name": "convertExactEthToDai",
      "outputs": [],
      "stateMutability": "payable",
      "type": "function"
    },
    {
      "inputs": [
        {
          "internalType": "uint256",
          "name": "daiAmount",
          "type": "uint256"
        }
      ],
      "name": "convertEthToExactDai",
      "outputs": [],
      "stateMutability": "payable",
      "type": "function"
    },
    {
      "inputs": [
        {
          "internalType": "uint256",
          "name": "daiAmount",
          "type": "uint256"
        }
      ],
      "name": "getEstimatedETHforDAI",
      "outputs": [
        {
          "internalType": "uint256",
          "name": "",
          "type": "uint256"
        }
      ],
      "stateMutability": "payable",
      "type": "function"
    }
  ],
  "bytecode": "0x608060405234801561001057600080fd5b5061002d61002261003260201b60201c565b61003a60201b60201c565b6100fe565b600033905090565b60008060009054906101000a900473ffffffffffffffffffffffffffffffffffffffff169050816000806101000a81548173ffffffffffffffffffffffffffffffffffffffff021916908373ffffffffffffffffffffffffffffffffffffffff1602179055508173ffffffffffffffffffffffffffffffffffffffff168173ffffffffffffffffffffffffffffffffffffffff167f8be0079c531659141344cd1fd0a4f28419497f9722a3daafe3b4186f6b6457e060405160405180910390a35050565b611a058061010d6000396000f3fe60806040526004361061010d5760003560e01c80638da5cb5b11610095578063ad00f3b711610064578063ad00f3b7146102f2578063ada8b83d1461031d578063c6bbd5a71461034d578063f2fde38b14610378578063fc0c546a146103a157610114565b80638da5cb5b146102545780639576088b1461027f5780639b7e906e14610289578063ab63385c146102b457610114565b8063715018a6116100dc578063715018a6146101a4578063735de9f7146101bb5780637ed3717f146101e6578063852b36ac14610202578063897b06371461022b57610114565b80631828716b1461011957806323e2caae1461014457806335ffe3a21461016f57806341d53ee91461019a57610114565b3661011457005b600080fd5b34801561012557600080fd5b5061012e6103cc565b60405161013b91906116df565b60405180910390f35b34801561015057600080fd5b506101596103d4565b60405161016691906116df565b60405180910390f35b34801561017b57600080fd5b506101846103de565b60405161019191906116df565b60405180910390f35b6101a26103e4565b005b3480156101b057600080fd5b506101b96106ea565b005b3480156101c757600080fd5b506101d0610772565b6040516101dd91906115cc565b60405180910390f35b61020060048036038101906101fb91906111ce565b61078a565b005b34801561020e57600080fd5b5061022960048036038101906102249190611161565b610ad3565b005b34801561023757600080fd5b50610252600480360381019061024d91906111ce565b610bca565b005b34801561026057600080fd5b50610269610c87565b604051610276919061150c565b60405180910390f35b610287610cb0565b005b34801561029557600080fd5b5061029e610de5565b6040516102ab91906116df565b60405180910390f35b3480156102c057600080fd5b506102db60048036038101906102d6919061118e565b610deb565b6040516102e99291906116fa565b60405180910390f35b3480156102fe57600080fd5b50610307610e2c565b60405161031491906116df565b60405180910390f35b610337600480360381019061033291906111ce565b610e32565b60405161034491906116df565b60405180910390f35b34801561035957600080fd5b50610362610f20565b60405161036f91906115b1565b60405180910390f35b34801561038457600080fd5b5061039f600480360381019061039a9190611161565b610f38565b005b3480156103ad57600080fd5b506103b6611030565b6040516103c3919061150c565b60405180910390f35b600047905090565b6000600354905090565b60025481565b60003411610427576040517f08c379a000000000000000000000000000000000000000000000000000000000815260040161041e90611667565b60405180910390fd5b6000600f42610436919061173f565b9050600073d0a1e359811322d97991e03f863a0c30c2cf029c90506000734f96fe3b7a6cf9725f59d353f723c1bdb64ca6aa90506000610bb89050600033905060003490506000600190506000806040518061010001604052808973ffffffffffffffffffffffffffffffffffffffff1681526020018873ffffffffffffffffffffffffffffffffffffffff1681526020018762ffffff1681526020018673ffffffffffffffffffffffffffffffffffffffff1681526020018a81526020018581526020018481526020018373ffffffffffffffffffffffffffffffffffffffff16815250905073e592427a0aece92de3edee1f18e0157c0586156473ffffffffffffffffffffffffffffffffffffffff1663414bf38934836040518363ffffffff1660e01b815260040161056b91906116a7565b6020604051808303818588803b15801561058457600080fd5b505af1158015610598573d6000803e3d6000fd5b50505050506040513d601f19601f820116820180604052508101906105bd91906111fb565b5073e592427a0aece92de3edee1f18e0157c0586156473ffffffffffffffffffffffffffffffffffffffff166312210e8a6040518163ffffffff1660e01b8152600401600060405180830381600087803b15801561061a57600080fd5b505af115801561062e573d6000803e3d6000fd5b5050505060003373ffffffffffffffffffffffffffffffffffffffff1647604051610658906114f7565b60006040518083038185875af1925050503d8060008114610695576040519150601f19603f3d011682016040523d82523d6000602084013e61069a565b606091505b50509050806106de576040517f08c379a00000000000000000000000000000000000000000000000000000000081526004016106d590611687565b60405180910390fd5b50505050505050505050565b6106f2611056565b73ffffffffffffffffffffffffffffffffffffffff16610710610c87565b73ffffffffffffffffffffffffffffffffffffffff1614610766576040517f08c379a000000000000000000000000000000000000000000000000000000000815260040161075d90611627565b60405180910390fd5b610770600061105e565b565b73e592427a0aece92de3edee1f18e0157c0586156481565b600081116107cd576040517f08c379a00000000000000000000000000000000000000000000000000000000081526004016107c490611647565b60405180910390fd5b60003411610810576040517f08c379a000000000000000000000000000000000000000000000000000000000815260040161080790611667565b60405180910390fd5b6000600f4261081f919061173f565b9050600073d0a1e359811322d97991e03f863a0c30c2cf029c90506000734f96fe3b7a6cf9725f59d353f723c1bdb64ca6aa90506000610bb890506000339050600086905060003490506000806040518061010001604052808973ffffffffffffffffffffffffffffffffffffffff1681526020018873ffffffffffffffffffffffffffffffffffffffff1681526020018762ffffff1681526020018673ffffffffffffffffffffffffffffffffffffffff1681526020018a81526020018581526020018481526020018373ffffffffffffffffffffffffffffffffffffffff16815250905073e592427a0aece92de3edee1f18e0157c0586156473ffffffffffffffffffffffffffffffffffffffff1663db3e219834836040518363ffffffff1660e01b815260040161095391906116c3565b6020604051808303818588803b15801561096c57600080fd5b505af1158015610980573d6000803e3d6000fd5b50505050506040513d601f19601f820116820180604052508101906109a591906111fb565b5073e592427a0aece92de3edee1f18e0157c0586156473ffffffffffffffffffffffffffffffffffffffff166312210e8a6040518163ffffffff1660e01b8152600401600060405180830381600087803b158015610a0257600080fd5b505af1158015610a16573d6000803e3d6000fd5b5050505060003373ffffffffffffffffffffffffffffffffffffffff1647604051610a40906114f7565b60006040518083038185875af1925050503d8060008114610a7d576040519150601f19603f3d011682016040523d82523d6000602084013e610a82565b606091505b5050905080610ac6576040517f08c379a0000000000000000000000000000000000000000000000000000000008152600401610abd90611687565b60405180910390fd5b5050505050505050505050565b610adb611056565b73ffffffffffffffffffffffffffffffffffffffff16610af9610c87565b73ffffffffffffffffffffffffffffffffffffffff1614610b4f576040517f08c379a0000000000000000000000000000000000000000000000000000000008152600401610b4690611627565b60405180910390fd5b80600560006101000a81548173ffffffffffffffffffffffffffffffffffffffff021916908373ffffffffffffffffffffffffffffffffffffffff1602179055507f83a460e35670a24ee4935611606c1f0957690bb29af1250116299ca5b861efcc81604051610bbf919061150c565b60405180910390a150565b610bd2611056565b73ffffffffffffffffffffffffffffffffffffffff16610bf0610c87565b73ffffffffffffffffffffffffffffffffffffffff1614610c46576040517f08c379a0000000000000000000000000000000000000000000000000000000008152600401610c3d90611627565b60405180910390fd5b806004819055507f610353a1170849bb57f4952408db0bf58b08ffdd7139cc48f2a5c604a03212f281604051610c7c91906116df565b60405180910390a150565b60008060009054906101000a900473ffffffffffffffffffffffffffffffffffffffff16905090565b6004546002541015610cf7576040517f08c379a0000000000000000000000000000000000000000000000000000000008152600401610cee906115e7565b60405180910390fd5b600160009054906101000a900473ffffffffffffffffffffffffffffffffffffffff1673ffffffffffffffffffffffffffffffffffffffff1663df2ab5bb600560009054906101000a900473ffffffffffffffffffffffffffffffffffffffff16600454306040518463ffffffff1660e01b8152600401610d7a9392919061157a565b600060405180830381600087803b158015610d9457600080fd5b505af1158015610da8573d6000803e3d6000fd5b505050507f5b048ae86a0edc5dbcfb2e2d8a6c38180656fa0601ad9ea105c86c03691f8cec34604051610ddb91906116df565b60405180910390a1565b60045481565b60066020528160005260406000208181548110610e0757600080fd5b9060005260206000209060020201600091509150508060000154908060010154905082565b60035481565b60008073d0a1e359811322d97991e03f863a0c30c2cf029c90506000734f96fe3b7a6cf9725f59d353f723c1bdb64ca6aa90506000610bb89050600073b27308f9f90d607463bb33ea1bebb41c27ce5ab673ffffffffffffffffffffffffffffffffffffffff166330d07f218585858a866040518663ffffffff1660e01b8152600401610ec3959493929190611527565b602060405180830381600087803b158015610edd57600080fd5b505af1158015610ef1573d6000803e3d6000fd5b505050506040513d601f19601f82011682018060405250810190610f1591906111fb565b945050505050919050565b73b27308f9f90d607463bb33ea1bebb41c27ce5ab681565b610f40611056565b73ffffffffffffffffffffffffffffffffffffffff16610f5e610c87565b73ffffffffffffffffffffffffffffffffffffffff1614610fb4576040517f08c379a0000000000000000000000000000000000000000000000000000000008152600401610fab90611627565b60405180910390fd5b600073ffffffffffffffffffffffffffffffffffffffff168173ffffffffffffffffffffffffffffffffffffffff161415611024576040517f08c379a000000000000000000000000000000000000000000000000000000000815260040161101b90611607565b60405180910390fd5b61102d8161105e565b50565b600560009054906101000a900473ffffffffffffffffffffffffffffffffffffffff1681565b600033905090565b60008060009054906101000a900473ffffffffffffffffffffffffffffffffffffffff169050816000806101000a81548173ffffffffffffffffffffffffffffffffffffffff021916908373ffffffffffffffffffffffffffffffffffffffff1602179055508173ffffffffffffffffffffffffffffffffffffffff168173ffffffffffffffffffffffffffffffffffffffff167f8be0079c531659141344cd1fd0a4f28419497f9722a3daafe3b4186f6b6457e060405160405180910390a35050565b600081359050611131816119a1565b92915050565b600081359050611146816119b8565b92915050565b60008151905061115b816119b8565b92915050565b60006020828403121561117757611176611857565b5b600061118584828501611122565b91505092915050565b600080604083850312156111a5576111a4611857565b5b60006111b385828601611122565b92505060206111c485828601611137565b9150509250929050565b6000602082840312156111e4576111e3611857565b5b60006111f284828501611137565b91505092915050565b60006020828403121561121157611210611857565b5b600061121f8482850161114c565b91505092915050565b61123181611795565b82525050565b61124081611795565b82525050565b61124f816117e0565b82525050565b61125e81611804565b82525050565b6000611271603e8361172e565b915061127c8261185c565b604082019050919050565b600061129460268361172e565b915061129f826118ab565b604082019050919050565b60006112b760208361172e565b91506112c2826118fa565b602082019050919050565b60006112da601a8361172e565b91506112e582611923565b602082019050919050565b60006112fd600083611723565b91506113088261194c565b600082019050919050565b6000611320601a8361172e565b915061132b8261194f565b602082019050919050565b6000611343600d8361172e565b915061134e82611978565b602082019050919050565b610100820160008201516113706000850182611228565b5060208201516113836020850182611228565b50604082015161139660408501826114bb565b5060608201516113a96060850182611228565b5060808201516113bc60808501826114d9565b5060a08201516113cf60a08501826114d9565b5060c08201516113e260c08501826114d9565b5060e08201516113f560e085018261149d565b50505050565b610100820160008201516114126000850182611228565b5060208201516114256020850182611228565b50604082015161143860408501826114bb565b50606082015161144b6060850182611228565b50608082015161145e60808501826114d9565b5060a082015161147160a08501826114d9565b5060c082015161148460c08501826114d9565b5060e082015161149760e085018261149d565b50505050565b6114a6816117a7565b82525050565b6114b5816117a7565b82525050565b6114c4816117c7565b82525050565b6114d3816117c7565b82525050565b6114e2816117d6565b82525050565b6114f1816117d6565b82525050565b6000611502826112f0565b9150819050919050565b60006020820190506115216000830184611237565b92915050565b600060a08201905061153c6000830188611237565b6115496020830187611237565b61155660408301866114ca565b61156360608301856114e8565b61157060808301846114ac565b9695505050505050565b600060608201905061158f6000830186611237565b61159c60208301856114e8565b6115a96040830184611237565b949350505050565b60006020820190506115c66000830184611246565b92915050565b60006020820190506115e16000830184611255565b92915050565b6000602082019050818103600083015261160081611264565b9050919050565b6000602082019050818103600083015261162081611287565b9050919050565b60006020820190508181036000830152611640816112aa565b9050919050565b60006020820190508181036000830152611660816112cd565b9050919050565b6000602082019050818103600083015261168081611313565b9050919050565b600060208201905081810360008301526116a081611336565b9050919050565b6000610100820190506116bd6000830184611359565b92915050565b6000610100820190506116d960008301846113fb565b92915050565b60006020820190506116f460008301846114e8565b92915050565b600060408201905061170f60008301856114e8565b61171c60208301846114e8565b9392505050565b600081905092915050565b600082825260208201905092915050565b600061174a826117d6565b9150611755836117d6565b9250827fffffffffffffffffffffffffffffffffffffffffffffffffffffffffffffffff0382111561178a57611789611828565b5b828201905092915050565b60006117a0826117a7565b9050919050565b600073ffffffffffffffffffffffffffffffffffffffff82169050919050565b600062ffffff82169050919050565b6000819050919050565b60006117eb826117f2565b9050919050565b60006117fd826117a7565b9050919050565b600061180f82611816565b9050919050565b6000611821826117a7565b9050919050565b7f4e487b7100000000000000000000000000000000000000000000000000000000600052601160045260246000fd5b600080fd5b7f4e6f7420776f7274682062656361757365206f6620676173206665652c20776560008201527f206e656564206d6f726520657468206265666f7265207472616e736665720000602082015250565b7f4f776e61626c653a206e6577206f776e657220697320746865207a65726f206160008201527f6464726573730000000000000000000000000000000000000000000000000000602082015250565b7f4f776e61626c653a2063616c6c6572206973206e6f7420746865206f776e6572600082015250565b7f4d7573742070617373206e6f6e20302044414920616d6f756e74000000000000600082015250565b50565b7f4d7573742070617373206e6f6e20302045544820616d6f756e74000000000000600082015250565b7f726566756e64206661696c656400000000000000000000000000000000000000600082015250565b6119aa81611795565b81146119b557600080fd5b50565b6119c1816117d6565b81146119cc57600080fd5b5056fea264697066735822122095beba5b1910b9e558d3e631912dd3c4c66bd17de571db0c046109c9dc6f8d3b64736f6c63430008060033",
  "immutableReferences": {},
  "source": "  // SPDX-License-Identifier: MIT\npragma solidity ^0.8.0;\n\nimport \"../node_modules/@uniswap/v3-periphery/contracts/interfaces/IPeripheryPayments.sol\";\nimport \"../node_modules/@uniswap/v3-periphery/contracts/interfaces/ISwapRouter.sol\";\nimport \"../node_modules/@uniswap/v3-periphery/contracts/interfaces/IQuoter.sol\";\nimport \"@openzeppelin/contracts/utils/math/SafeMath.sol\";\nimport \"@openzeppelin/contracts/access/Ownable.sol\";\n\n\n/// Voir si on peux importer directement le smart contract PeripheryPayments directement et faire appel \"./Periphery\"\n\n interface IUniswapRouter is ISwapRouter {\n    function refundETH() external payable;\n }\n\ncontract Vault is Ownable {\n    \n    using SafeMath for uint;\n    \n    IPeripheryPayments Iuniswap;\n    \n    uint256 public storedEth;\n    uint256 public storedUsdt;\n    uint256 public amountMinimum;\n    address public token;\n\n     struct Payment {\n        uint256 price;\n        uint256 productId;\n    }\n\n    mapping(address => Payment[]) public payments;\n\n  IUniswapRouter public constant uniswapRouter = IUniswapRouter(0xE592427A0AEce92De3Edee1F18E0157C05861564);\n  IQuoter public constant quoter = IQuoter(0xb27308f9F90D607463bb33eA1BeBb41C27CE5AB6);\n  address private constant multiDaiKovan = 0x4F96Fe3b7A6Cf9725f59d353F723c1bDb64CA6Aa;\n  address private constant WETH9 = 0xd0A1E359811322d97991E03f863a0C30C2cF029C;\n    \n    event EthReceived(address From, uint256 Amount);\n    event UsdtReceived(address From, uint256 Amount);\n    event UsdtSentTo(address recipient, uint256 Amount);\n    event ChangedMinAmount(uint256 MinAmountToConvert);\n    event ConvertedEthToUsdt(uint256 Amount);\n    event ChangedAddressToken(address TokenAddress);\n    event productBought(address From, uint256 Amount, uint256 productId);\n    \n    ///@dev toManage if ethPrice fluctuates;\n    function setMinAmount(uint256 _minAmount) external onlyOwner() {\n        amountMinimum = _minAmount;\n        emit ChangedMinAmount(_minAmount);\n    }\n    \n    ///@dev set the token address(stablecoin) to convert to;\n    function setStableToConvert(address _tokenAddress) external onlyOwner() {\n        token = _tokenAddress;\n        emit ChangedAddressToken(_tokenAddress);\n    }\n    \n    ///@notice We implement a function that converts eth => usdt;\n    function convertEthToDai() external payable {\n        require(storedEth >= amountMinimum, \"Not worth because of gas fee, we need more eth before transfer\");\n        Iuniswap.sweepToken(token, amountMinimum, address(this));\n        ///Iuniswap.pay();\n        \n        emit ConvertedEthToUsdt(msg.value);\n    } \n    \n    ///@dev helper to keep track of balances\n    function getBalanceOfETH() public view returns(uint256) {\n        return address(this).balance;\n    }\n    \n    function getBalanceOfUSDT() public view returns(uint256) {\n        return storedUsdt;\n    }\n  \n  ///Tried this for test only not sure how this works on Kovan, need to test but not enough Keth to test ...\n    function convertExactEthToDai() external payable {\n    require(msg.value > 0, \"Must pass non 0 ETH amount\");\n\n    uint256 deadline = block.timestamp + 15; // using 'now' for convenience, for mainnet pass deadline from frontend!\n    address tokenIn = WETH9;\n    address tokenOut = multiDaiKovan;\n    uint24 fee = 3000;\n    address recipient = msg.sender;\n    uint256 amountIn = msg.value;\n    uint256 amountOutMinimum = 1;\n    uint160 sqrtPriceLimitX96 = 0;\n    \n    ISwapRouter.ExactInputSingleParams memory params = ISwapRouter.ExactInputSingleParams(\n        tokenIn,\n        tokenOut,\n        fee,\n        recipient,\n        deadline,\n        amountIn,\n        amountOutMinimum,\n        sqrtPriceLimitX96\n    );\n    \n    uniswapRouter.exactInputSingle{ value: msg.value }(params);\n    uniswapRouter.refundETH();\n    \n    // refund leftover ETH to user\n    (bool success,) = msg.sender.call{ value: address(this).balance }(\"\");\n    require(success, \"refund failed\");\n  }\n  \n  function convertEthToExactDai(uint256 daiAmount) external payable {\n    require(daiAmount > 0, \"Must pass non 0 DAI amount\");\n    require(msg.value > 0, \"Must pass non 0 ETH amount\");\n      \n    uint256 deadline = block.timestamp + 15; // using 'now' for convenience, for mainnet pass deadline from frontend!\n    address tokenIn = WETH9;\n    address tokenOut = multiDaiKovan;\n    uint24 fee = 3000;\n    address recipient = msg.sender;\n    uint256 amountOut = daiAmount;\n    uint256 amountInMaximum = msg.value;\n    uint160 sqrtPriceLimitX96 = 0;\n\n    ISwapRouter.ExactOutputSingleParams memory params = ISwapRouter.ExactOutputSingleParams(\n        tokenIn,\n        tokenOut,\n        fee,\n        recipient,\n        deadline,\n        amountOut,\n        amountInMaximum,\n        sqrtPriceLimitX96\n    );\n\n    uniswapRouter.exactOutputSingle{ value: msg.value }(params);\n    uniswapRouter.refundETH();\n\n    // refund leftover ETH to user\n    (bool success,) = msg.sender.call{ value: address(this).balance }(\"\");\n    require(success, \"refund failed\");\n  }\n  \n  // do not used on-chain, gas inefficient!\n  function getEstimatedETHforDAI(uint daiAmount) external payable returns (uint256) {\n    address tokenIn = WETH9;\n    address tokenOut = multiDaiKovan;\n    uint24 fee = 3000;\n    uint160 sqrtPriceLimitX96 = 0;\n\n    return quoter.quoteExactOutputSingle(\n        tokenIn,\n        tokenOut,\n        fee,\n        daiAmount,\n        sqrtPriceLimitX96\n    );\n  } \n\n    //@notice allow to receive eth\n    receive() external payable{}\n}    \n",
  "sourcePath": "/Users/kilianmongey/Desktop/HomePageDigiBox/DigiBox/contracts/SwaperEthDai.sol",
  "compiler": {
    "name": "solc",
    "version": "0.8.6+commit.11564f7e.Emscripten.clang"
  },
  "schemaVersion": "3.4.1",
  "updatedAt": "2021-07-17T17:42:44.136Z",
  "devdoc": {
    "kind": "dev",
    "methods": {
      "getBalanceOfETH()": {
        "details": "helper to keep track of balances"
      },
      "owner()": {
        "details": "Returns the address of the current owner."
      },
      "renounceOwnership()": {
        "details": "Leaves the contract without owner. It will not be possible to call `onlyOwner` functions anymore. Can only be called by the current owner. NOTE: Renouncing ownership will leave the contract without an owner, thereby removing any functionality that is only available to the owner."
      },
      "setMinAmount(uint256)": {
        "details": "toManage if ethPrice fluctuates;"
      },
      "setStableToConvert(address)": {
        "details": "set the token address(stablecoin) to convert to;"
      },
      "transferOwnership(address)": {
        "details": "Transfers ownership of the contract to a new account (`newOwner`). Can only be called by the current owner."
      }
    },
    "version": 1
  },
  "userdoc": {
    "kind": "user",
    "methods": {
      "convertEthToDai()": {
        "notice": "We implement a function that converts eth => usdt;"
      },
      "convertExactEthToDai()": {
        "notice": "Tried this for test only not sure how this works on Kovan, need to test but not enough Keth to test ..."
      }
    },
    "version": 1
  }
}