{
  "contractName": "Vault",
  "abi": [
    {
      "anonymous": false,
      "inputs": [
        {
          "indexed": false,
          "internalType": "address",
          "name": "TokenAddress",
          "type": "address"
        }
      ],
      "name": "ChangedAddressToken",
      "type": "event"
    },
    {
      "anonymous": false,
      "inputs": [
        {
          "indexed": false,
          "internalType": "uint256",
          "name": "MinAmountToConvert",
          "type": "uint256"
        }
      ],
      "name": "ChangedMinAmount",
      "type": "event"
    },
    {
      "anonymous": false,
      "inputs": [
        {
          "indexed": false,
          "internalType": "uint256",
          "name": "Amount",
          "type": "uint256"
        }
      ],
      "name": "ConvertedEthToUsdt",
      "type": "event"
    },
    {
      "anonymous": false,
      "inputs": [
        {
          "indexed": false,
          "internalType": "address",
          "name": "From",
          "type": "address"
        },
        {
          "indexed": false,
          "internalType": "uint256",
          "name": "Amount",
          "type": "uint256"
        }
      ],
      "name": "EthReceived",
      "type": "event"
    },
    {
      "anonymous": false,
      "inputs": [
        {
          "indexed": true,
          "internalType": "address",
          "name": "previousOwner",
          "type": "address"
        },
        {
          "indexed": true,
          "internalType": "address",
          "name": "newOwner",
          "type": "address"
        }
      ],
      "name": "OwnershipTransferred",
      "type": "event"
    },
    {
      "anonymous": false,
      "inputs": [
        {
          "indexed": false,
          "internalType": "address",
          "name": "From",
          "type": "address"
        },
        {
          "indexed": false,
          "internalType": "uint256",
          "name": "Amount",
          "type": "uint256"
        }
      ],
      "name": "UsdtReceived",
      "type": "event"
    },
    {
      "anonymous": false,
      "inputs": [
        {
          "indexed": false,
          "internalType": "address",
          "name": "recipient",
          "type": "address"
        },
        {
          "indexed": false,
          "internalType": "uint256",
          "name": "Amount",
          "type": "uint256"
        }
      ],
      "name": "UsdtSentTo",
      "type": "event"
    },
    {
      "anonymous": false,
      "inputs": [
        {
          "indexed": false,
          "internalType": "address",
          "name": "From",
          "type": "address"
        },
        {
          "indexed": false,
          "internalType": "uint256",
          "name": "Amount",
          "type": "uint256"
        },
        {
          "indexed": false,
          "internalType": "uint256",
          "name": "productId",
          "type": "uint256"
        }
      ],
      "name": "productBought",
      "type": "event"
    },
    {
      "inputs": [],
      "name": "amountMinimum",
      "outputs": [
        {
          "internalType": "uint256",
          "name": "",
          "type": "uint256"
        }
      ],
      "stateMutability": "view",
      "type": "function"
    },
    {
      "inputs": [],
      "name": "owner",
      "outputs": [
        {
          "internalType": "address",
          "name": "",
          "type": "address"
        }
      ],
      "stateMutability": "view",
      "type": "function"
    },
    {
      "inputs": [
        {
          "internalType": "address",
          "name": "",
          "type": "address"
        },
        {
          "internalType": "uint256",
          "name": "",
          "type": "uint256"
        }
      ],
      "name": "payments",
      "outputs": [
        {
          "internalType": "uint256",
          "name": "price",
          "type": "uint256"
        },
        {
          "internalType": "uint256",
          "name": "productId",
          "type": "uint256"
        }
      ],
      "stateMutability": "view",
      "type": "function"
    },
    {
      "inputs": [],
      "name": "quoter",
      "outputs": [
        {
          "internalType": "contract IQuoter",
          "name": "",
          "type": "address"
        }
      ],
      "stateMutability": "view",
      "type": "function"
    },
    {
      "inputs": [],
      "name": "renounceOwnership",
      "outputs": [],
      "stateMutability": "nonpayable",
      "type": "function"
    },
    {
      "inputs": [],
      "name": "storedEth",
      "outputs": [
        {
          "internalType": "uint256",
          "name": "",
          "type": "uint256"
        }
      ],
      "stateMutability": "view",
      "type": "function"
    },
    {
      "inputs": [],
      "name": "storedUsdt",
      "outputs": [
        {
          "internalType": "uint256",
          "name": "",
          "type": "uint256"
        }
      ],
      "stateMutability": "view",
      "type": "function"
    },
    {
      "inputs": [],
      "name": "token",
      "outputs": [
        {
          "internalType": "address",
          "name": "",
          "type": "address"
        }
      ],
      "stateMutability": "view",
      "type": "function"
    },
    {
      "inputs": [
        {
          "internalType": "address",
          "name": "newOwner",
          "type": "address"
        }
      ],
      "name": "transferOwnership",
      "outputs": [],
      "stateMutability": "nonpayable",
      "type": "function"
    },
    {
      "inputs": [],
      "name": "uniswapRouter",
      "outputs": [
        {
          "internalType": "contract IUniswapRouter",
          "name": "",
          "type": "address"
        }
      ],
      "stateMutability": "view",
      "type": "function"
    },
    {
      "stateMutability": "payable",
      "type": "receive"
    },
    {
      "inputs": [
        {
          "internalType": "uint256",
          "name": "_minAmount",
          "type": "uint256"
        }
      ],
      "name": "setMinAmount",
      "outputs": [],
      "stateMutability": "nonpayable",
      "type": "function"
    },
    {
      "inputs": [
        {
          "internalType": "address",
          "name": "_tokenAddress",
          "type": "address"
        }
      ],
      "name": "setStableToConvert",
      "outputs": [],
      "stateMutability": "nonpayable",
      "type": "function"
    },
    {
      "inputs": [],
      "name": "convertEthToDai",
      "outputs": [],
      "stateMutability": "payable",
      "type": "function"
    },
    {
      "inputs": [],
      "name": "getBalanceOfETH",
      "outputs": [
        {
          "internalType": "uint256",
          "name": "",
          "type": "uint256"
        }
      ],
      "stateMutability": "view",
      "type": "function"
    },
    {
      "inputs": [],
      "name": "getBalanceOfUSDT",
      "outputs": [
        {
          "internalType": "uint256",
          "name": "",
          "type": "uint256"
        }
      ],
      "stateMutability": "view",
      "type": "function"
    },
    {
      "inputs": [
        {
          "internalType": "uint256",
          "name": "productPrice",
          "type": "uint256"
        },
        {
          "internalType": "uint256",
          "name": "productId",
          "type": "uint256"
        }
      ],
      "name": "buyProduct",
      "outputs": [],
      "stateMutability": "payable",
      "type": "function"
    },
    {
      "inputs": [],
      "name": "convertExactEthToDai",
      "outputs": [],
      "stateMutability": "payable",
      "type": "function"
    },
    {
      "inputs": [
        {
          "internalType": "uint256",
          "name": "daiAmount",
          "type": "uint256"
        }
      ],
      "name": "convertEthToExactDai",
      "outputs": [],
      "stateMutability": "payable",
      "type": "function"
    },
    {
      "inputs": [
        {
          "internalType": "uint256",
          "name": "daiAmount",
          "type": "uint256"
        }
      ],
      "name": "getEstimatedETHforDAI",
      "outputs": [
        {
          "internalType": "uint256",
          "name": "",
          "type": "uint256"
        }
      ],
      "stateMutability": "payable",
      "type": "function"
    }
  ],
  "bytecode": "0x608060405234801561001057600080fd5b5061002d61002261003260201b60201c565b61003a60201b60201c565b6100fe565b600033905090565b60008060009054906101000a900473ffffffffffffffffffffffffffffffffffffffff169050816000806101000a81548173ffffffffffffffffffffffffffffffffffffffff021916908373ffffffffffffffffffffffffffffffffffffffff1602179055508173ffffffffffffffffffffffffffffffffffffffff168173ffffffffffffffffffffffffffffffffffffffff167f8be0079c531659141344cd1fd0a4f28419497f9722a3daafe3b4186f6b6457e060405160405180910390a35050565b611c508061010d6000396000f3fe6080604052600436106101185760003560e01c8063897b0637116100a0578063ad00f3b711610064578063ad00f3b714610319578063ada8b83d14610344578063c6bbd5a714610374578063f2fde38b1461039f578063fc0c546a146103c85761011f565b8063897b0637146102525780638da5cb5b1461027b5780639576088b146102a65780639b7e906e146102b0578063ab63385c146102db5761011f565b806353b62866116100e757806353b62866146101af578063715018a6146101cb578063735de9f7146101e25780637ed3717f1461020d578063852b36ac146102295761011f565b80631828716b1461012457806323e2caae1461014f57806335ffe3a21461017a57806341d53ee9146101a55761011f565b3661011f57005b600080fd5b34801561013057600080fd5b506101396103f3565b60405161014691906118db565b60405180910390f35b34801561015b57600080fd5b506101646103fb565b60405161017191906118db565b60405180910390f35b34801561018657600080fd5b5061018f610405565b60405161019c91906118db565b60405180910390f35b6101ad61040b565b005b6101c960048036038101906101c4919061136a565b610711565b005b3480156101d757600080fd5b506101e061082c565b005b3480156101ee57600080fd5b506101f76108b4565b60405161020491906117a8565b60405180910390f35b61022760048036038101906102229190611310565b6108cc565b005b34801561023557600080fd5b50610250600480360381019061024b91906112a3565b610c15565b005b34801561025e57600080fd5b5061027960048036038101906102749190611310565b610d0c565b005b34801561028757600080fd5b50610290610dc9565b60405161029d91906116b1565b60405180910390f35b6102ae610df2565b005b3480156102bc57600080fd5b506102c5610f27565b6040516102d291906118db565b60405180910390f35b3480156102e757600080fd5b5061030260048036038101906102fd91906112d0565b610f2d565b6040516103109291906118f6565b60405180910390f35b34801561032557600080fd5b5061032e610f6e565b60405161033b91906118db565b60405180910390f35b61035e60048036038101906103599190611310565b610f74565b60405161036b91906118db565b60405180910390f35b34801561038057600080fd5b50610389611062565b604051610396919061178d565b60405180910390f35b3480156103ab57600080fd5b506103c660048036038101906103c191906112a3565b61107a565b005b3480156103d457600080fd5b506103dd611172565b6040516103ea91906116b1565b60405180910390f35b600047905090565b6000600354905090565b60025481565b6000341161044e576040517f08c379a000000000000000000000000000000000000000000000000000000000815260040161044590611843565b60405180910390fd5b6000600f4261045d919061193b565b9050600073d0a1e359811322d97991e03f863a0c30c2cf029c90506000734f96fe3b7a6cf9725f59d353f723c1bdb64ca6aa90506000610bb89050600033905060003490506000600190506000806040518061010001604052808973ffffffffffffffffffffffffffffffffffffffff1681526020018873ffffffffffffffffffffffffffffffffffffffff1681526020018762ffffff1681526020018673ffffffffffffffffffffffffffffffffffffffff1681526020018a81526020018581526020018481526020018373ffffffffffffffffffffffffffffffffffffffff16815250905073e592427a0aece92de3edee1f18e0157c0586156473ffffffffffffffffffffffffffffffffffffffff1663414bf38934836040518363ffffffff1660e01b815260040161059291906118a3565b6020604051808303818588803b1580156105ab57600080fd5b505af11580156105bf573d6000803e3d6000fd5b50505050506040513d601f19601f820116820180604052508101906105e4919061133d565b5073e592427a0aece92de3edee1f18e0157c0586156473ffffffffffffffffffffffffffffffffffffffff166312210e8a6040518163ffffffff1660e01b8152600401600060405180830381600087803b15801561064157600080fd5b505af1158015610655573d6000803e3d6000fd5b5050505060003373ffffffffffffffffffffffffffffffffffffffff164760405161067f9061169c565b60006040518083038185875af1925050503d80600081146106bc576040519150601f19603f3d011682016040523d82523d6000602084013e6106c1565b606091505b5050905080610705576040517f08c379a00000000000000000000000000000000000000000000000000000000081526004016106fc90611883565b60405180910390fd5b50505050505050505050565b81341015610754576040517f08c379a000000000000000000000000000000000000000000000000000000000815260040161074b90611863565b60405180910390fd5b60006040518060400160405280848152602001838152509050600660003373ffffffffffffffffffffffffffffffffffffffff1673ffffffffffffffffffffffffffffffffffffffff168152602001908152602001600020819080600181540180825580915050600190039060005260206000209060020201600090919091909150600082015181600001556020820151816001015550507fa9ac392bdaf179d4faec98fc37ddb0fc621369787bf0d32299ef4b9fc9faf49033348460405161081f93929190611756565b60405180910390a1505050565b610834611198565b73ffffffffffffffffffffffffffffffffffffffff16610852610dc9565b73ffffffffffffffffffffffffffffffffffffffff16146108a8576040517f08c379a000000000000000000000000000000000000000000000000000000000815260040161089f90611803565b60405180910390fd5b6108b260006111a0565b565b73e592427a0aece92de3edee1f18e0157c0586156481565b6000811161090f576040517f08c379a000000000000000000000000000000000000000000000000000000000815260040161090690611823565b60405180910390fd5b60003411610952576040517f08c379a000000000000000000000000000000000000000000000000000000000815260040161094990611843565b60405180910390fd5b6000600f42610961919061193b565b9050600073d0a1e359811322d97991e03f863a0c30c2cf029c90506000734f96fe3b7a6cf9725f59d353f723c1bdb64ca6aa90506000610bb890506000339050600086905060003490506000806040518061010001604052808973ffffffffffffffffffffffffffffffffffffffff1681526020018873ffffffffffffffffffffffffffffffffffffffff1681526020018762ffffff1681526020018673ffffffffffffffffffffffffffffffffffffffff1681526020018a81526020018581526020018481526020018373ffffffffffffffffffffffffffffffffffffffff16815250905073e592427a0aece92de3edee1f18e0157c0586156473ffffffffffffffffffffffffffffffffffffffff1663db3e219834836040518363ffffffff1660e01b8152600401610a9591906118bf565b6020604051808303818588803b158015610aae57600080fd5b505af1158015610ac2573d6000803e3d6000fd5b50505050506040513d601f19601f82011682018060405250810190610ae7919061133d565b5073e592427a0aece92de3edee1f18e0157c0586156473ffffffffffffffffffffffffffffffffffffffff166312210e8a6040518163ffffffff1660e01b8152600401600060405180830381600087803b158015610b4457600080fd5b505af1158015610b58573d6000803e3d6000fd5b5050505060003373ffffffffffffffffffffffffffffffffffffffff1647604051610b829061169c565b60006040518083038185875af1925050503d8060008114610bbf576040519150601f19603f3d011682016040523d82523d6000602084013e610bc4565b606091505b5050905080610c08576040517f08c379a0000000000000000000000000000000000000000000000000000000008152600401610bff90611883565b60405180910390fd5b5050505050505050505050565b610c1d611198565b73ffffffffffffffffffffffffffffffffffffffff16610c3b610dc9565b73ffffffffffffffffffffffffffffffffffffffff1614610c91576040517f08c379a0000000000000000000000000000000000000000000000000000000008152600401610c8890611803565b60405180910390fd5b80600560006101000a81548173ffffffffffffffffffffffffffffffffffffffff021916908373ffffffffffffffffffffffffffffffffffffffff1602179055507f83a460e35670a24ee4935611606c1f0957690bb29af1250116299ca5b861efcc81604051610d0191906116b1565b60405180910390a150565b610d14611198565b73ffffffffffffffffffffffffffffffffffffffff16610d32610dc9565b73ffffffffffffffffffffffffffffffffffffffff1614610d88576040517f08c379a0000000000000000000000000000000000000000000000000000000008152600401610d7f90611803565b60405180910390fd5b806004819055507f610353a1170849bb57f4952408db0bf58b08ffdd7139cc48f2a5c604a03212f281604051610dbe91906118db565b60405180910390a150565b60008060009054906101000a900473ffffffffffffffffffffffffffffffffffffffff16905090565b6004546002541015610e39576040517f08c379a0000000000000000000000000000000000000000000000000000000008152600401610e30906117c3565b60405180910390fd5b600160009054906101000a900473ffffffffffffffffffffffffffffffffffffffff1673ffffffffffffffffffffffffffffffffffffffff1663df2ab5bb600560009054906101000a900473ffffffffffffffffffffffffffffffffffffffff16600454306040518463ffffffff1660e01b8152600401610ebc9392919061171f565b600060405180830381600087803b158015610ed657600080fd5b505af1158015610eea573d6000803e3d6000fd5b505050507f5b048ae86a0edc5dbcfb2e2d8a6c38180656fa0601ad9ea105c86c03691f8cec34604051610f1d91906118db565b60405180910390a1565b60045481565b60066020528160005260406000208181548110610f4957600080fd5b9060005260206000209060020201600091509150508060000154908060010154905082565b60035481565b60008073d0a1e359811322d97991e03f863a0c30c2cf029c90506000734f96fe3b7a6cf9725f59d353f723c1bdb64ca6aa90506000610bb89050600073b27308f9f90d607463bb33ea1bebb41c27ce5ab673ffffffffffffffffffffffffffffffffffffffff166330d07f218585858a866040518663ffffffff1660e01b81526004016110059594939291906116cc565b602060405180830381600087803b15801561101f57600080fd5b505af1158015611033573d6000803e3d6000fd5b505050506040513d601f19601f82011682018060405250810190611057919061133d565b945050505050919050565b73b27308f9f90d607463bb33ea1bebb41c27ce5ab681565b611082611198565b73ffffffffffffffffffffffffffffffffffffffff166110a0610dc9565b73ffffffffffffffffffffffffffffffffffffffff16146110f6576040517f08c379a00000000000000000000000000000000000000000000000000000000081526004016110ed90611803565b60405180910390fd5b600073ffffffffffffffffffffffffffffffffffffffff168173ffffffffffffffffffffffffffffffffffffffff161415611166576040517f08c379a000000000000000000000000000000000000000000000000000000000815260040161115d906117e3565b60405180910390fd5b61116f816111a0565b50565b600560009054906101000a900473ffffffffffffffffffffffffffffffffffffffff1681565b600033905090565b60008060009054906101000a900473ffffffffffffffffffffffffffffffffffffffff169050816000806101000a81548173ffffffffffffffffffffffffffffffffffffffff021916908373ffffffffffffffffffffffffffffffffffffffff1602179055508173ffffffffffffffffffffffffffffffffffffffff168173ffffffffffffffffffffffffffffffffffffffff167f8be0079c531659141344cd1fd0a4f28419497f9722a3daafe3b4186f6b6457e060405160405180910390a35050565b60008135905061127381611bec565b92915050565b60008135905061128881611c03565b92915050565b60008151905061129d81611c03565b92915050565b6000602082840312156112b9576112b8611a53565b5b60006112c784828501611264565b91505092915050565b600080604083850312156112e7576112e6611a53565b5b60006112f585828601611264565b925050602061130685828601611279565b9150509250929050565b60006020828403121561132657611325611a53565b5b600061133484828501611279565b91505092915050565b60006020828403121561135357611352611a53565b5b60006113618482850161128e565b91505092915050565b6000806040838503121561138157611380611a53565b5b600061138f85828601611279565b92505060206113a085828601611279565b9150509250929050565b6113b381611991565b82525050565b6113c281611991565b82525050565b6113d1816119dc565b82525050565b6113e081611a00565b82525050565b60006113f3603e8361192a565b91506113fe82611a58565b604082019050919050565b600061141660268361192a565b915061142182611aa7565b604082019050919050565b600061143960208361192a565b915061144482611af6565b602082019050919050565b600061145c601a8361192a565b915061146782611b1f565b602082019050919050565b600061147f60008361191f565b915061148a82611b48565b600082019050919050565b60006114a2601a8361192a565b91506114ad82611b4b565b602082019050919050565b60006114c560228361192a565b91506114d082611b74565b604082019050919050565b60006114e8600d8361192a565b91506114f382611bc3565b602082019050919050565b6101008201600082015161151560008501826113aa565b50602082015161152860208501826113aa565b50604082015161153b6040850182611660565b50606082015161154e60608501826113aa565b506080820151611561608085018261167e565b5060a082015161157460a085018261167e565b5060c082015161158760c085018261167e565b5060e082015161159a60e0850182611642565b50505050565b610100820160008201516115b760008501826113aa565b5060208201516115ca60208501826113aa565b5060408201516115dd6040850182611660565b5060608201516115f060608501826113aa565b506080820151611603608085018261167e565b5060a082015161161660a085018261167e565b5060c082015161162960c085018261167e565b5060e082015161163c60e0850182611642565b50505050565b61164b816119a3565b82525050565b61165a816119a3565b82525050565b611669816119c3565b82525050565b611678816119c3565b82525050565b611687816119d2565b82525050565b611696816119d2565b82525050565b60006116a782611472565b9150819050919050565b60006020820190506116c660008301846113b9565b92915050565b600060a0820190506116e160008301886113b9565b6116ee60208301876113b9565b6116fb604083018661166f565b611708606083018561168d565b6117156080830184611651565b9695505050505050565b600060608201905061173460008301866113b9565b611741602083018561168d565b61174e60408301846113b9565b949350505050565b600060608201905061176b60008301866113b9565b611778602083018561168d565b611785604083018461168d565b949350505050565b60006020820190506117a260008301846113c8565b92915050565b60006020820190506117bd60008301846113d7565b92915050565b600060208201905081810360008301526117dc816113e6565b9050919050565b600060208201905081810360008301526117fc81611409565b9050919050565b6000602082019050818103600083015261181c8161142c565b9050919050565b6000602082019050818103600083015261183c8161144f565b9050919050565b6000602082019050818103600083015261185c81611495565b9050919050565b6000602082019050818103600083015261187c816114b8565b9050919050565b6000602082019050818103600083015261189c816114db565b9050919050565b6000610100820190506118b960008301846114fe565b92915050565b6000610100820190506118d560008301846115a0565b92915050565b60006020820190506118f0600083018461168d565b92915050565b600060408201905061190b600083018561168d565b611918602083018461168d565b9392505050565b600081905092915050565b600082825260208201905092915050565b6000611946826119d2565b9150611951836119d2565b9250827fffffffffffffffffffffffffffffffffffffffffffffffffffffffffffffffff0382111561198657611985611a24565b5b828201905092915050565b600061199c826119a3565b9050919050565b600073ffffffffffffffffffffffffffffffffffffffff82169050919050565b600062ffffff82169050919050565b6000819050919050565b60006119e7826119ee565b9050919050565b60006119f9826119a3565b9050919050565b6000611a0b82611a12565b9050919050565b6000611a1d826119a3565b9050919050565b7f4e487b7100000000000000000000000000000000000000000000000000000000600052601160045260246000fd5b600080fd5b7f4e6f7420776f7274682062656361757365206f6620676173206665652c20776560008201527f206e656564206d6f726520657468206265666f7265207472616e736665720000602082015250565b7f4f776e61626c653a206e6577206f776e657220697320746865207a65726f206160008201527f6464726573730000000000000000000000000000000000000000000000000000602082015250565b7f4f776e61626c653a2063616c6c6572206973206e6f7420746865206f776e6572600082015250565b7f4d7573742070617373206e6f6e20302044414920616d6f756e74000000000000600082015250565b50565b7f4d7573742070617373206e6f6e20302045544820616d6f756e74000000000000600082015250565b7f596f75206469646e27742073656e642074686520636f727265637420616d6f7560008201527f6e74000000000000000000000000000000000000000000000000000000000000602082015250565b7f726566756e64206661696c656400000000000000000000000000000000000000600082015250565b611bf581611991565b8114611c0057600080fd5b50565b611c0c816119d2565b8114611c1757600080fd5b5056fea2646970667358221220ef25ad5d5207519ff043b62d1b4d5b8690b67269e01ae5e5ad98444860df87c564736f6c63430008060033",
  "immutableReferences": {},
  "source": "// SPDX-License-Identifier: MIT\npragma solidity ^0.8.0;\n\nimport \"../node_modules/@uniswap/v3-periphery/contracts/interfaces/IPeripheryPayments.sol\";\nimport \"../node_modules/@uniswap/v3-periphery/contracts/interfaces/ISwapRouter.sol\";\nimport \"../node_modules/@uniswap/v3-periphery/contracts/interfaces/IQuoter.sol\";\nimport \"@openzeppelin/contracts/utils/math/SafeMath.sol\";\nimport \"@openzeppelin/contracts/access/Ownable.sol\";\n\ncontract SimpleStorage {\n  uint storedData;\n\n  function set(uint x) public {\n    storedData = x;\n  }\n\n  function get() public view returns (uint) {\n    return storedData;\n  }\n}\n\n/// Voir si on peux importer directement le smart contract PeripheryPayments directement et faire appel \"./Periphery\"\n\n interface IUniswapRouter is ISwapRouter {\n    function refundETH() external payable;\n }\n\ncontract Vault is Ownable {\n    \n    using SafeMath for uint;\n    \n    IPeripheryPayments Iuniswap;\n    \n    uint256 public storedEth;\n    uint256 public storedUsdt;\n    uint256 public amountMinimum;\n    address public token;\n\n     struct Payment {\n        uint256 price;\n        uint256 productId;\n    }\n\n    mapping(address => Payment[]) public payments;\n\n  IUniswapRouter public constant uniswapRouter = IUniswapRouter(0xE592427A0AEce92De3Edee1F18E0157C05861564);\n  IQuoter public constant quoter = IQuoter(0xb27308f9F90D607463bb33eA1BeBb41C27CE5AB6);\n  address private constant multiDaiKovan = 0x4F96Fe3b7A6Cf9725f59d353F723c1bDb64CA6Aa;\n  address private constant WETH9 = 0xd0A1E359811322d97991E03f863a0C30C2cF029C;\n    \n    event EthReceived(address From, uint256 Amount);\n    event UsdtReceived(address From, uint256 Amount);\n    event UsdtSentTo(address recipient, uint256 Amount);\n    event ChangedMinAmount(uint256 MinAmountToConvert);\n    event ConvertedEthToUsdt(uint256 Amount);\n    event ChangedAddressToken(address TokenAddress);\n    event productBought(address From, uint256 Amount, uint256 productId);\n    \n    ///@dev toManage if ethPrice fluctuates;\n    function setMinAmount(uint256 _minAmount) external onlyOwner() {\n        amountMinimum = _minAmount;\n        emit ChangedMinAmount(_minAmount);\n    }\n    \n    ///@dev set the token address(stablecoin) to convert to;\n    function setStableToConvert(address _tokenAddress) external onlyOwner() {\n        token = _tokenAddress;\n        emit ChangedAddressToken(_tokenAddress);\n    }\n    \n    ///@notice We implement a function that converts eth => usdt;\n    function convertEthToDai() external payable {\n        require(storedEth >= amountMinimum, \"Not worth because of gas fee, we need more eth before transfer\");\n        Iuniswap.sweepToken(token, amountMinimum, address(this));\n        ///Iuniswap.pay();\n        \n        emit ConvertedEthToUsdt(msg.value);\n    } \n    \n    ///@dev helper to keep track of balances\n    function getBalanceOfETH() public view returns(uint256) {\n        return address(this).balance;\n    }\n    \n    function getBalanceOfUSDT() public view returns(uint256) {\n        return storedUsdt;\n    }\n\n    function buyProduct(uint256 productPrice, uint256 productId) public payable {\n        require(msg.value >= productPrice, \"You didn't send the correct amount\");\n\n         Payment memory _payment = Payment(productPrice, productId);\n         payments[msg.sender].push(_payment);\n\n         emit productBought(msg.sender, msg.value, productId); \n    }\n\n     ///Tried this for test only not sure how this works on Kovan, need to test but not enough Keth to test ...\n    function convertExactEthToDai() external payable {\n    require(msg.value > 0, \"Must pass non 0 ETH amount\");\n\n    uint256 deadline = block.timestamp + 15; // using 'now' for convenience, for mainnet pass deadline from frontend!\n    address tokenIn = WETH9;\n    address tokenOut = multiDaiKovan;\n    uint24 fee = 3000;\n    address recipient = msg.sender;\n    uint256 amountIn = msg.value;\n    uint256 amountOutMinimum = 1;\n    uint160 sqrtPriceLimitX96 = 0;\n    \n    ISwapRouter.ExactInputSingleParams memory params = ISwapRouter.ExactInputSingleParams(\n        tokenIn,\n        tokenOut,\n        fee,\n        recipient,\n        deadline,\n        amountIn,\n        amountOutMinimum,\n        sqrtPriceLimitX96\n    );\n    \n    uniswapRouter.exactInputSingle{ value: msg.value }(params);\n    uniswapRouter.refundETH();\n    \n    // refund leftover ETH to user\n    (bool success,) = msg.sender.call{ value: address(this).balance }(\"\");\n    require(success, \"refund failed\");\n  }\n  \n  function convertEthToExactDai(uint256 daiAmount) external payable {\n    require(daiAmount > 0, \"Must pass non 0 DAI amount\");\n    require(msg.value > 0, \"Must pass non 0 ETH amount\");\n      \n    uint256 deadline = block.timestamp + 15; // using 'now' for convenience, for mainnet pass deadline from frontend!\n    address tokenIn = WETH9;\n    address tokenOut = multiDaiKovan;\n    uint24 fee = 3000;\n    address recipient = msg.sender;\n    uint256 amountOut = daiAmount;\n    uint256 amountInMaximum = msg.value;\n    uint160 sqrtPriceLimitX96 = 0;\n\n    ISwapRouter.ExactOutputSingleParams memory params = ISwapRouter.ExactOutputSingleParams(\n        tokenIn,\n        tokenOut,\n        fee,\n        recipient,\n        deadline,\n        amountOut,\n        amountInMaximum,\n        sqrtPriceLimitX96\n    );\n\n    uniswapRouter.exactOutputSingle{ value: msg.value }(params);\n    uniswapRouter.refundETH();\n\n    // refund leftover ETH to user\n    (bool success,) = msg.sender.call{ value: address(this).balance }(\"\");\n    require(success, \"refund failed\");\n  }\n  \n  // do not used on-chain, gas inefficient!\n  function getEstimatedETHforDAI(uint daiAmount) external payable returns (uint256) {\n    address tokenIn = WETH9;\n    address tokenOut = multiDaiKovan;\n    uint24 fee = 3000;\n    uint160 sqrtPriceLimitX96 = 0;\n\n    return quoter.quoteExactOutputSingle(\n        tokenIn,\n        tokenOut,\n        fee,\n        daiAmount,\n        sqrtPriceLimitX96\n    );\n  } \n\n    //@notice allow to receive eth\n    receive() external payable{\n        \n    }\n}\n",
  "sourcePath": "/Users/kilianmongey/Desktop/HomePageDigiBox/DigiBox/contracts/SimpleStorage.sol",
  "compiler": {
    "name": "solc",
    "version": "0.8.6+commit.11564f7e.Emscripten.clang"
  },
  "schemaVersion": "3.4.1",
  "updatedAt": "2021-07-16T13:57:53.834Z",
  "devdoc": {
    "kind": "dev",
    "methods": {
      "getBalanceOfETH()": {
        "details": "helper to keep track of balances"
      },
      "owner()": {
        "details": "Returns the address of the current owner."
      },
      "renounceOwnership()": {
        "details": "Leaves the contract without owner. It will not be possible to call `onlyOwner` functions anymore. Can only be called by the current owner. NOTE: Renouncing ownership will leave the contract without an owner, thereby removing any functionality that is only available to the owner."
      },
      "setMinAmount(uint256)": {
        "details": "toManage if ethPrice fluctuates;"
      },
      "setStableToConvert(address)": {
        "details": "set the token address(stablecoin) to convert to;"
      },
      "transferOwnership(address)": {
        "details": "Transfers ownership of the contract to a new account (`newOwner`). Can only be called by the current owner."
      }
    },
    "version": 1
  },
  "userdoc": {
    "kind": "user",
    "methods": {
      "convertEthToDai()": {
        "notice": "We implement a function that converts eth => usdt;"
      },
      "convertExactEthToDai()": {
        "notice": "Tried this for test only not sure how this works on Kovan, need to test but not enough Keth to test ..."
      }
    },
    "version": 1
  }
}