{
  "contractName": "Vault",
  "abi": [
    {
      "anonymous": false,
      "inputs": [
        {
          "indexed": false,
          "internalType": "uint256",
          "name": "itemId",
          "type": "uint256"
        },
        {
          "indexed": false,
          "internalType": "address",
          "name": "nftContract",
          "type": "address"
        },
        {
          "indexed": false,
          "internalType": "uint256",
          "name": "tokenId",
          "type": "uint256"
        },
        {
          "indexed": false,
          "internalType": "address",
          "name": "seller",
          "type": "address"
        },
        {
          "indexed": false,
          "internalType": "address",
          "name": "owner",
          "type": "address"
        },
        {
          "indexed": false,
          "internalType": "uint256",
          "name": "price",
          "type": "uint256"
        }
      ],
      "name": "MarketItemCreated",
      "type": "event"
    },
    {
      "inputs": [
        {
          "internalType": "address",
          "name": "nftContract",
          "type": "address"
        },
        {
          "internalType": "uint256",
          "name": "tokenId",
          "type": "uint256"
        },
        {
          "internalType": "uint256",
          "name": "price",
          "type": "uint256"
        }
      ],
      "name": "createMarketItem",
      "outputs": [],
      "stateMutability": "payable",
      "type": "function"
    },
    {
      "inputs": [
        {
          "internalType": "address",
          "name": "nftContract",
          "type": "address"
        },
        {
          "internalType": "uint256",
          "name": "itemId",
          "type": "uint256"
        }
      ],
      "name": "createMarketSale",
      "outputs": [],
      "stateMutability": "payable",
      "type": "function"
    },
    {
      "inputs": [],
      "name": "fetchMarketItems",
      "outputs": [
        {
          "components": [
            {
              "internalType": "uint256",
              "name": "itemId",
              "type": "uint256"
            },
            {
              "internalType": "address",
              "name": "nftContract",
              "type": "address"
            },
            {
              "internalType": "uint256",
              "name": "tokenId",
              "type": "uint256"
            },
            {
              "internalType": "address payable",
              "name": "seller",
              "type": "address"
            },
            {
              "internalType": "address payable",
              "name": "owner",
              "type": "address"
            },
            {
              "internalType": "uint256",
              "name": "price",
              "type": "uint256"
            }
          ],
          "internalType": "struct Vault.MarketItem[]",
          "name": "",
          "type": "tuple[]"
        }
      ],
      "stateMutability": "view",
      "type": "function"
    },
    {
      "inputs": [],
      "name": "fetchMyNFTs",
      "outputs": [
        {
          "components": [
            {
              "internalType": "uint256",
              "name": "itemId",
              "type": "uint256"
            },
            {
              "internalType": "address",
              "name": "nftContract",
              "type": "address"
            },
            {
              "internalType": "uint256",
              "name": "tokenId",
              "type": "uint256"
            },
            {
              "internalType": "address payable",
              "name": "seller",
              "type": "address"
            },
            {
              "internalType": "address payable",
              "name": "owner",
              "type": "address"
            },
            {
              "internalType": "uint256",
              "name": "price",
              "type": "uint256"
            }
          ],
          "internalType": "struct Vault.MarketItem[]",
          "name": "",
          "type": "tuple[]"
        }
      ],
      "stateMutability": "view",
      "type": "function"
    }
  ],
  "bytecode": "0x608060405234801561001057600080fd5b5060016000819055506113df806100286000396000f3fe60806040526004361061003f5760003560e01c80630f08efe014610044578063202e37401461006f57806358eb2df51461009a578063c23b139e146100b6575b600080fd5b34801561005057600080fd5b506100596100d2565b6040516100669190610fae565b60405180910390f35b34801561007b57600080fd5b5061008461039c565b6040516100919190610fae565b60405180910390f35b6100b460048036038101906100af9190610d2c565b6106f3565b005b6100d060048036038101906100cb9190610cec565b6109d7565b005b606060006100e06002610bfa565b905060006101006100f16003610bfa565b83610c0890919063ffffffff16565b90506000808267ffffffffffffffff81111561011f5761011e61127d565b5b60405190808252806020026020018201604052801561015857816020015b610145610c4a565b81526020019060019003908161013d5790505b50905060005b8481101561039157600073ffffffffffffffffffffffffffffffffffffffff166004600060018461018f91906110ec565b815260200190815260200160002060040160009054906101000a900473ffffffffffffffffffffffffffffffffffffffff1673ffffffffffffffffffffffffffffffffffffffff16141561037e576000600460006001846101f091906110ec565b81526020019081526020016000206000015490506000600460008381526020019081526020016000209050806040518060c0016040529081600082015481526020016001820160009054906101000a900473ffffffffffffffffffffffffffffffffffffffff1673ffffffffffffffffffffffffffffffffffffffff1673ffffffffffffffffffffffffffffffffffffffff168152602001600282015481526020016003820160009054906101000a900473ffffffffffffffffffffffffffffffffffffffff1673ffffffffffffffffffffffffffffffffffffffff1673ffffffffffffffffffffffffffffffffffffffff1681526020016004820160009054906101000a900473ffffffffffffffffffffffffffffffffffffffff1673ffffffffffffffffffffffffffffffffffffffff1673ffffffffffffffffffffffffffffffffffffffff16815260200160058201548152505084868151811061035a5761035961124e565b5b6020026020010181905250610379600186610c1e90919063ffffffff16565b945050505b8080610389906111d6565b91505061015e565b508094505050505090565b606060006103aa6002610bfa565b905060008060005b8381101561045a573373ffffffffffffffffffffffffffffffffffffffff16600460006001846103e291906110ec565b815260200190815260200160002060040160009054906101000a900473ffffffffffffffffffffffffffffffffffffffff1673ffffffffffffffffffffffffffffffffffffffff16141561044757610444600184610c1e90919063ffffffff16565b92505b8080610452906111d6565b9150506103b2565b5060008267ffffffffffffffff8111156104775761047661127d565b5b6040519080825280602002602001820160405280156104b057816020015b61049d610c4a565b8152602001906001900390816104955790505b50905060005b848110156106e8573373ffffffffffffffffffffffffffffffffffffffff16600460006001846104e691906110ec565b815260200190815260200160002060040160009054906101000a900473ffffffffffffffffffffffffffffffffffffffff1673ffffffffffffffffffffffffffffffffffffffff1614156106d55760006004600060018461054791906110ec565b81526020019081526020016000206000015490506000600460008381526020019081526020016000209050806040518060c0016040529081600082015481526020016001820160009054906101000a900473ffffffffffffffffffffffffffffffffffffffff1673ffffffffffffffffffffffffffffffffffffffff1673ffffffffffffffffffffffffffffffffffffffff168152602001600282015481526020016003820160009054906101000a900473ffffffffffffffffffffffffffffffffffffffff1673ffffffffffffffffffffffffffffffffffffffff1673ffffffffffffffffffffffffffffffffffffffff1681526020016004820160009054906101000a900473ffffffffffffffffffffffffffffffffffffffff1673ffffffffffffffffffffffffffffffffffffffff1673ffffffffffffffffffffffffffffffffffffffff1681526020016005820154815250508486815181106106b1576106b061124e565b5b60200260200101819052506106d0600186610c1e90919063ffffffff16565b945050505b80806106e0906111d6565b9150506104b6565b508094505050505090565b60026000541415610739576040517f08c379a000000000000000000000000000000000000000000000000000000000815260040161073090610ff0565b60405180910390fd5b600260008190555060008111610784576040517f08c379a000000000000000000000000000000000000000000000000000000000815260040161077b90610fd0565b60405180910390fd5b61078e6002610c34565b600061079a6002610bfa565b90506040518060c001604052808281526020018573ffffffffffffffffffffffffffffffffffffffff1681526020018481526020013373ffffffffffffffffffffffffffffffffffffffff168152602001600073ffffffffffffffffffffffffffffffffffffffff16815260200183815250600460008381526020019081526020016000206000820151816000015560208201518160010160006101000a81548173ffffffffffffffffffffffffffffffffffffffff021916908373ffffffffffffffffffffffffffffffffffffffff1602179055506040820151816002015560608201518160030160006101000a81548173ffffffffffffffffffffffffffffffffffffffff021916908373ffffffffffffffffffffffffffffffffffffffff16021790555060808201518160040160006101000a81548173ffffffffffffffffffffffffffffffffffffffff021916908373ffffffffffffffffffffffffffffffffffffffff16021790555060a082015181600501559050508373ffffffffffffffffffffffffffffffffffffffff1663f242432a33308660016040518563ffffffff1660e01b81526004016109559493929190610f56565b600060405180830381600087803b15801561096f57600080fd5b505af1158015610983573d6000803e3d6000fd5b505050507f2ad024d53a0dc50c130967f8d4941927ee087ea31394cebb2b9599d3706c9c00818585336000876040516109c196959493929190611030565b60405180910390a1506001600081905550505050565b60026000541415610a1d576040517f08c379a0000000000000000000000000000000000000000000000000000000008152600401610a1490610ff0565b60405180910390fd5b600260008190555060006004600083815260200190815260200160002060050154905060006004600084815260200190815260200160002060020154905081341015610a9e576040517f08c379a0000000000000000000000000000000000000000000000000000000008152600401610a9590611010565b60405180910390fd5b6004600084815260200190815260200160002060030160009054906101000a900473ffffffffffffffffffffffffffffffffffffffff1673ffffffffffffffffffffffffffffffffffffffff166108fc349081150290604051600060405180830381858888f19350505050158015610b1a573d6000803e3d6000fd5b508373ffffffffffffffffffffffffffffffffffffffff1663f242432a30338460016040518563ffffffff1660e01b8152600401610b5b9493929190610f56565b600060405180830381600087803b158015610b7557600080fd5b505af1158015610b89573d6000803e3d6000fd5b50505050336004600085815260200190815260200160002060040160006101000a81548173ffffffffffffffffffffffffffffffffffffffff021916908373ffffffffffffffffffffffffffffffffffffffff160217905550610bec6003610c34565b505060016000819055505050565b600081600001549050919050565b60008183610c169190611142565b905092915050565b60008183610c2c91906110ec565b905092915050565b6001816000016000828254019250508190555050565b6040518060c0016040528060008152602001600073ffffffffffffffffffffffffffffffffffffffff16815260200160008152602001600073ffffffffffffffffffffffffffffffffffffffff168152602001600073ffffffffffffffffffffffffffffffffffffffff168152602001600081525090565b600081359050610cd18161137b565b92915050565b600081359050610ce681611392565b92915050565b60008060408385031215610d0357610d026112ac565b5b6000610d1185828601610cc2565b9250506020610d2285828601610cd7565b9150509250929050565b600080600060608486031215610d4557610d446112ac565b5b6000610d5386828701610cc2565b9350506020610d6486828701610cd7565b9250506040610d7586828701610cd7565b9150509250925092565b6000610d8b8383610ebd565b60c08301905092915050565b610da081611188565b82525050565b610daf81611176565b82525050565b610dbe81611176565b82525050565b6000610dcf826110a1565b610dd981856110b9565b9350610de483611091565b8060005b83811015610e15578151610dfc8882610d7f565b9750610e07836110ac565b925050600181019050610de8565b5085935050505092915050565b610e2b816111c4565b82525050565b6000610e3e6005836110ca565b9150610e49826112b1565b602082019050919050565b6000610e61601f836110db565b9150610e6c826112da565b602082019050919050565b6000610e84601f836110db565b9150610e8f82611303565b602082019050919050565b6000610ea7602c836110db565b9150610eb28261132c565b604082019050919050565b60c082016000820151610ed36000850182610f38565b506020820151610ee66020850182610da6565b506040820151610ef96040850182610f38565b506060820151610f0c6060850182610d97565b506080820151610f1f6080850182610d97565b5060a0820151610f3260a0850182610f38565b50505050565b610f41816111ba565b82525050565b610f50816111ba565b82525050565b600060a082019050610f6b6000830187610db5565b610f786020830186610db5565b610f856040830185610f47565b610f926060830184610e22565b8181036080830152610fa381610e31565b905095945050505050565b60006020820190508181036000830152610fc88184610dc4565b905092915050565b60006020820190508181036000830152610fe981610e54565b9050919050565b6000602082019050818103600083015261100981610e77565b9050919050565b6000602082019050818103600083015261102981610e9a565b9050919050565b600060c0820190506110456000830189610f47565b6110526020830188610db5565b61105f6040830187610f47565b61106c6060830186610db5565b6110796080830185610db5565b61108660a0830184610f47565b979650505050505050565b6000819050602082019050919050565b600081519050919050565b6000602082019050919050565b600082825260208201905092915050565b600082825260208201905092915050565b600082825260208201905092915050565b60006110f7826111ba565b9150611102836111ba565b9250827fffffffffffffffffffffffffffffffffffffffffffffffffffffffffffffffff038211156111375761113661121f565b5b828201905092915050565b600061114d826111ba565b9150611158836111ba565b92508282101561116b5761116a61121f565b5b828203905092915050565b60006111818261119a565b9050919050565b60006111938261119a565b9050919050565b600073ffffffffffffffffffffffffffffffffffffffff82169050919050565b6000819050919050565b60006111cf826111ba565b9050919050565b60006111e1826111ba565b91507fffffffffffffffffffffffffffffffffffffffffffffffffffffffffffffffff8214156112145761121361121f565b5b600182019050919050565b7f4e487b7100000000000000000000000000000000000000000000000000000000600052601160045260246000fd5b7f4e487b7100000000000000000000000000000000000000000000000000000000600052603260045260246000fd5b7f4e487b7100000000000000000000000000000000000000000000000000000000600052604160045260246000fd5b600080fd5b7f3078303030000000000000000000000000000000000000000000000000000000600082015250565b7f5072696365206d757374206e6f7420626520657175616c20746f207a65726f00600082015250565b7f5265656e7472616e637947756172643a207265656e7472616e742063616c6c00600082015250565b7f596f7520686176656e2774207061696420656e6f75676820746f206d616b652060008201527f7468652070757263686173650000000000000000000000000000000000000000602082015250565b61138481611176565b811461138f57600080fd5b50565b61139b816111ba565b81146113a657600080fd5b5056fea2646970667358221220d2ce05efd5b8b8ba04ff68fd17caea4a49e5d43d8b54c9a7f78afa7ebafc108b64736f6c63430008060033",
  "immutableReferences": {},
  "source": "// SPDX-License-Identifier: MIT\npragma solidity ^0.8.0;\npragma abicoder v2;\n\nimport \"@openzeppelin/contracts/utils/Counters.sol\";\nimport \"@openzeppelin/contracts/access/Ownable.sol\";\nimport \"@openzeppelin/contracts/token/ERC20/ERC20.sol\";\nimport \"@openzeppelin/contracts/token/ERC1155/ERC1155.sol\";\nimport \"@openzeppelin/contracts/utils/math/SafeMath.sol\";\nimport \"@openzeppelin/contracts/security/ReentrancyGuard.sol\";\n\n contract  Vault is ReentrancyGuard {\n     IERC1155 erc1155;\n    \n    using SafeMath for uint;\n    using Counters for Counters.Counter;\n    \n    Counters.Counter private _itemIds;\n    Counters.Counter private _itemSold;\n    \n    struct MarketItem {\n        uint256 itemId;\n        address nftContract;\n        uint256 tokenId;\n        address payable seller;\n        address payable owner;\n        uint256 price;\n    }\n    \n    mapping(uint256 => MarketItem) private idToMarketItem;\n    \n    event MarketItemCreated(\n        uint256 itemId,\n        address nftContract,\n        uint256 tokenId,\n        address seller,\n        address owner,\n        uint256 price\n        );\n        \n    function createMarketItem(\n        address nftContract,\n        uint256 tokenId,\n        uint256 price\n        ) public payable nonReentrant {\n            require(price > 0, \"Price must not be equal to zero\");\n            \n            _itemIds.increment();\n            uint256 itemId = _itemIds.current();\n            \n            idToMarketItem[itemId] = MarketItem(\n                itemId,\n                nftContract,\n                tokenId,\n                payable(msg.sender),\n                payable(address(0)),\n                price\n                );\n                \n          IERC1155(nftContract).safeTransferFrom(msg.sender, address(this), tokenId, 1, \"0x000\");\n          \n          emit MarketItemCreated(\n              itemId,\n              nftContract,\n              tokenId,\n              msg.sender,\n              address(0),\n              price\n              );\n        } \n        \n        function createMarketSale(\n            address nftContract,\n            uint256 itemId\n            ) public payable nonReentrant {\n                uint256 price = idToMarketItem[itemId].price;\n                uint256 tokenId = idToMarketItem[itemId].tokenId;\n                \n                require(msg.value >= price, \"You haven't paid enough to make the purchase\");\n                //Ici trouver comment cre une variables qui remplacera le seller  accountSeller afin de ne pas lui envoyer directement.\n                idToMarketItem[itemId].seller.transfer(msg.value);\n                \n                IERC1155(nftContract).safeTransferFrom(address(this), msg.sender, tokenId, 1, \"0x000\");\n                \n                idToMarketItem[itemId].owner = payable(msg.sender);\n                _itemSold.increment();\n            }\n            \n            ///@dev Voir si ncessaire dans notre projet.\n            \n            function fetchMarketItems() public view returns(MarketItem[] memory) {\n                uint256 itemCount = _itemIds.current();\n                uint256 unsoldItemCount = itemCount.sub(_itemSold.current());\n                uint256 currentIndex = 0;\n                \n                MarketItem[] memory items = new MarketItem[](unsoldItemCount);\n                for(uint i = 0; i < itemCount; i++) {\n                    if(idToMarketItem[i + 1].owner == address(0)) {\n                        uint256 currentId = idToMarketItem[i + 1].itemId;\n                        MarketItem storage currentItem = idToMarketItem[currentId];\n                        items[currentIndex] = currentItem;\n                        currentIndex = currentIndex.add(1);\n                    }\n                }\n                return items;\n            }\n            \n            function fetchMyNFTs() public view returns(MarketItem[] memory) {\n                uint256 totalItemCount = _itemIds.current();\n                uint256 itemCount = 0;\n                uint256 currentIndex = 0;\n                \n                for(uint i = 0; i < totalItemCount; i++) {\n                    if(idToMarketItem[i + 1].owner == msg.sender) {\n                        itemCount = itemCount.add(1);\n                    }\n                }\n                \n                MarketItem[] memory items = new MarketItem[](itemCount);\n                for(uint i = 0; i < totalItemCount; i++) {\n                    if(idToMarketItem[i + 1].owner == msg.sender) {\n                        uint256 currentId = idToMarketItem[i + 1].itemId;\n                        MarketItem storage currentItem = idToMarketItem[currentId];\n                        items[currentIndex] = currentItem;\n                        currentIndex = currentIndex.add(1);\n                      }\n                    }    \n                return items;\n            }\n }        \n\n/*\ncontract MarketPlace is Ownable {\n\n  using SafeMath for uint;\n     \n    uint256 productPrice;\n    address recipient;\n\n    //constructor() ERC20(\"\", \"\") {}\n\n    struct Payment {\n        uint256 price;\n        uint256 productId;\n    }\n\n    struct Presta {\n      bool isPresta;\n      bool isAllowedToWithdraw;\n      uint256 amountToWithdraw;\n      \n    }\n\n    struct ownerNFT {\n        bool isOwner;\n        uint256 id;\n        address ownerOfNFT;\n    }\n\n    ownerNFT[] owner;\n\n    mapping(address => Payment[]) public payments;\n    mapping(address => Presta) public prestataire;\n\n    event productBought(address From, uint256 Amount, uint256 productId);\n    event priceChange(address From, uint256 Price);\n    event hasDeposited(address from, uint amountDeposited);\n    event isAllowedToPull(address isAllowed);\n    event hasWithdrawn(address from, uint amountWithdrawn);\n\n  \n\n    function buyProduct(uint256 productId) public payable {\n        require(msg.value >= productPrice, \"You didn't send the correct amount\");\n        require(recipient != address(0), \"ERC1155: transfer to 0 address\");\n\n         Payment memory _payment = Payment(productPrice, productId);\n         payments[msg.sender].push(_payment);\n\n         //productPrice = productPrice.add(msg.value);\n\n         emit productBought(msg.sender, msg.value, productId); \n    }\n\n    function createOffer() external {\n         //require(prestataire[msg.sender].isPresta == true);\n         owner.push(ownerNFT(true, owner.length, msg.sender));\n    }\n\n    function allowPresta(address _address) external onlyOwner() {\n        prestataire[_address].isPresta = true;\n        prestataire[_address].isAllowedToWithdraw = true;\n        emit isAllowedToPull(_address);\n    }\n\n    function withdrawFunds() public payable {\n      //uint256 amountToClaim = prestataire[msg.sender].amountToWithdraw;\n       \n      //require(prestataire[msg.sender].isAllowedToWithdraw == true);\n\n      //prestataire[msg.sender].amountToWithdraw = 0;\n        \n      (bool success, ) = msg.sender.call{value: balanceOf[msg.sender]}(\"\");\n      require(success, \"Failed to send to Presta\");\n      \n      balanceOf[msg.sender] = 0; \n    }\n\n    function getBalanceOfEth() public view returns(uint256) {\n      return address(this).balance;\n    }\n\n    receive() external payable{\n      \n    }\n}\n\n   function setPrice(uint256 _productPrice) public onlyOwner() {\n         productPrice = _productPrice;\n         emit priceChange(msg.sender, _productPrice);\n    }\n\n    ///@notice we need to elaborate converter smart contract to deploy following\n     function sendToSwaper() external onlyOwner() {\n        require(address(this).balance >= 1 ether, \"Not gas efficient to send now\");\n           (bool sent, ) = swaperAddress.call{value: address(this).balance}(\"\");\n           require(sent, \"Failed to send Ether\");\n    }\n\n    function setVaultAddress(address _vaultAdd) external onlyOwner() {\n      VaultAddress = _vaultAdd;\n    } \n\n    function sendDaiToVault() external onlyOwner(){\n      require(amountOfDai >= minAmountDai, \"Not gas efficient to send now\");\n        (bool sent, ) = VaultAddress.call{value: amountOfDai}(\"\");\n        require(sent, \"Failed to send Dai\");\n    } */\n\n\n",
  "sourcePath": "/Users/nicolas/Desktop/client/contracts/MarketPlace.sol",
  "compiler": {
    "name": "solc",
    "version": "0.8.6+commit.11564f7e.Emscripten.clang"
  },
  "schemaVersion": "3.4.1",
  "updatedAt": "2021-07-25T09:10:28.474Z",
  "devdoc": {
    "kind": "dev",
    "methods": {
      "fetchMarketItems()": {
        "details": "Voir si ncessaire dans notre projet."
      }
    },
    "version": 1
  },
  "userdoc": {
    "kind": "user",
    "methods": {},
    "version": 1
  }
}